{
	"Voting.sol": {
		"Voting": {
			"abi": [
				{
					"inputs": [
						{
							"internalType": "string[]",
							"name": "options",
							"type": "string[]"
						},
						{
							"internalType": "uint256",
							"name": "duration",
							"type": "uint256"
						}
					],
					"name": "createPoll",
					"outputs": [],
					"stateMutability": "nonpayable",
					"type": "function"
				},
				{
					"inputs": [
						{
							"internalType": "uint256",
							"name": "",
							"type": "uint256"
						}
					],
					"name": "polls",
					"outputs": [
						{
							"internalType": "address",
							"name": "creator",
							"type": "address"
						},
						{
							"internalType": "uint8",
							"name": "pollNo",
							"type": "uint8"
						},
						{
							"internalType": "uint8",
							"name": "nOptn",
							"type": "uint8"
						},
						{
							"internalType": "uint256",
							"name": "duration",
							"type": "uint256"
						},
						{
							"internalType": "uint256",
							"name": "endTime",
							"type": "uint256"
						}
					],
					"stateMutability": "view",
					"type": "function"
				},
				{
					"inputs": [
						{
							"internalType": "address",
							"name": "",
							"type": "address"
						}
					],
					"name": "regVoters",
					"outputs": [
						{
							"internalType": "string",
							"name": "name",
							"type": "string"
						},
						{
							"internalType": "address",
							"name": "addr",
							"type": "address"
						},
						{
							"internalType": "bool",
							"name": "voted",
							"type": "bool"
						}
					],
					"stateMutability": "view",
					"type": "function"
				},
				{
					"inputs": [
						{
							"internalType": "string",
							"name": "name",
							"type": "string"
						}
					],
					"name": "register",
					"outputs": [],
					"stateMutability": "nonpayable",
					"type": "function"
				},
				{
					"inputs": [
						{
							"internalType": "uint8",
							"name": "pollIndex",
							"type": "uint8"
						},
						{
							"internalType": "uint8",
							"name": "optnIndex",
							"type": "uint8"
						}
					],
					"name": "vote",
					"outputs": [],
					"stateMutability": "nonpayable",
					"type": "function"
				}
			],
			"devdoc": {
				"kind": "dev",
				"methods": {},
				"version": 1
			},
			"evm": {
				"assembly": "    /* \"Voting.sol\":60:2354  contract Voting{\r... */\n  mstore(0x40, 0x80)\n    /* \"Voting.sol\":103:104  0 */\n  0x00\n    /* \"Voting.sol\":84:104  uint8 globalPollNo=0 */\n  dup1\n  exp(0x0100, 0x00)\n  dup2\n  sload\n  dup2\n  0xff\n  mul\n  not\n  and\n  swap1\n  dup4\n  0xff\n  and\n  mul\n  or\n  swap1\n  sstore\n  pop\n    /* \"Voting.sol\":60:2354  contract Voting{\r... */\n  callvalue\n  dup1\n  iszero\n  tag_1\n  jumpi\n  0x00\n  dup1\n  revert\ntag_1:\n  pop\n  dataSize(sub_0)\n  dup1\n  dataOffset(sub_0)\n  0x00\n  codecopy\n  0x00\n  return\nstop\n\nsub_0: assembly {\n        /* \"Voting.sol\":60:2354  contract Voting{\r... */\n      mstore(0x40, 0x80)\n      callvalue\n      dup1\n      iszero\n      tag_1\n      jumpi\n      0x00\n      dup1\n      revert\n    tag_1:\n      pop\n      jumpi(tag_2, lt(calldatasize, 0x04))\n      shr(0xe0, calldataload(0x00))\n      dup1\n      0x42c438\n      eq\n      tag_3\n      jumpi\n      dup1\n      0x36dffc3c\n      eq\n      tag_4\n      jumpi\n      dup1\n      0xac2f0074\n      eq\n      tag_5\n      jumpi\n      dup1\n      0xdf49c4de\n      eq\n      tag_6\n      jumpi\n      dup1\n      0xf2c298be\n      eq\n      tag_7\n      jumpi\n    tag_2:\n      0x00\n      dup1\n      revert\n        /* \"Voting.sol\":504:544  mapping(address=>Voter) public regVoters */\n    tag_3:\n      tag_8\n      0x04\n      dup1\n      calldatasize\n      sub\n      dup2\n      add\n      swap1\n      tag_9\n      swap2\n      swap1\n      tag_10\n      jump\t// in\n    tag_9:\n      tag_11\n      jump\t// in\n    tag_8:\n      mload(0x40)\n      tag_12\n      swap4\n      swap3\n      swap2\n      swap1\n      tag_13\n      jump\t// in\n    tag_12:\n      mload(0x40)\n      dup1\n      swap2\n      sub\n      swap1\n      return\n        /* \"Voting.sol\":1366:2039  function createPoll(string[] memory options, uint duration)public{ //check memory or storage\r... */\n    tag_4:\n      tag_14\n      0x04\n      dup1\n      calldatasize\n      sub\n      dup2\n      add\n      swap1\n      tag_15\n      swap2\n      swap1\n      tag_16\n      jump\t// in\n    tag_15:\n      tag_17\n      jump\t// in\n    tag_14:\n      stop\n        /* \"Voting.sol\":478:497  Poll[] public polls */\n    tag_5:\n      tag_18\n      0x04\n      dup1\n      calldatasize\n      sub\n      dup2\n      add\n      swap1\n      tag_19\n      swap2\n      swap1\n      tag_20\n      jump\t// in\n    tag_19:\n      tag_21\n      jump\t// in\n    tag_18:\n      mload(0x40)\n      tag_22\n      swap6\n      swap5\n      swap4\n      swap3\n      swap2\n      swap1\n      tag_23\n      jump\t// in\n    tag_22:\n      mload(0x40)\n      dup1\n      swap2\n      sub\n      swap1\n      return\n        /* \"Voting.sol\":2047:2349  function vote(uint8 pollIndex,uint8 optnIndex) public votable(pollIndex){ \r... */\n    tag_6:\n      tag_24\n      0x04\n      dup1\n      calldatasize\n      sub\n      dup2\n      add\n      swap1\n      tag_25\n      swap2\n      swap1\n      tag_26\n      jump\t// in\n    tag_25:\n      tag_27\n      jump\t// in\n    tag_24:\n      stop\n        /* \"Voting.sol\":1233:1358  function register(string memory name)public preventTwice{\r... */\n    tag_7:\n      tag_28\n      0x04\n      dup1\n      calldatasize\n      sub\n      dup2\n      add\n      swap1\n      tag_29\n      swap2\n      swap1\n      tag_30\n      jump\t// in\n    tag_29:\n      tag_31\n      jump\t// in\n    tag_28:\n      stop\n        /* \"Voting.sol\":504:544  mapping(address=>Voter) public regVoters */\n    tag_11:\n      mstore(0x20, 0x02)\n      dup1\n      0x00\n      mstore\n      keccak256(0x00, 0x40)\n      0x00\n      swap2\n      pop\n      swap1\n      pop\n      dup1\n      0x00\n      add\n      dup1\n      sload\n      tag_32\n      swap1\n      tag_33\n      jump\t// in\n    tag_32:\n      dup1\n      0x1f\n      add\n      0x20\n      dup1\n      swap2\n      div\n      mul\n      0x20\n      add\n      mload(0x40)\n      swap1\n      dup2\n      add\n      0x40\n      mstore\n      dup1\n      swap3\n      swap2\n      swap1\n      dup2\n      dup2\n      mstore\n      0x20\n      add\n      dup3\n      dup1\n      sload\n      tag_34\n      swap1\n      tag_33\n      jump\t// in\n    tag_34:\n      dup1\n      iszero\n      tag_35\n      jumpi\n      dup1\n      0x1f\n      lt\n      tag_36\n      jumpi\n      0x0100\n      dup1\n      dup4\n      sload\n      div\n      mul\n      dup4\n      mstore\n      swap2\n      0x20\n      add\n      swap2\n      jump(tag_35)\n    tag_36:\n      dup3\n      add\n      swap2\n      swap1\n      0x00\n      mstore\n      keccak256(0x00, 0x20)\n      swap1\n    tag_37:\n      dup2\n      sload\n      dup2\n      mstore\n      swap1\n      0x01\n      add\n      swap1\n      0x20\n      add\n      dup1\n      dup4\n      gt\n      tag_37\n      jumpi\n      dup3\n      swap1\n      sub\n      0x1f\n      and\n      dup3\n      add\n      swap2\n    tag_35:\n      pop\n      pop\n      pop\n      pop\n      pop\n      swap1\n      dup1\n      0x01\n      add\n      0x00\n      swap1\n      sload\n      swap1\n      0x0100\n      exp\n      swap1\n      div\n      0xffffffffffffffffffffffffffffffffffffffff\n      and\n      swap1\n      dup1\n      0x01\n      add\n      0x14\n      swap1\n      sload\n      swap1\n      0x0100\n      exp\n      swap1\n      div\n      0xff\n      and\n      swap1\n      pop\n      dup4\n      jump\t// out\n        /* \"Voting.sol\":1366:2039  function createPoll(string[] memory options, uint duration)public{ //check memory or storage\r... */\n    tag_17:\n        /* \"Voting.sol\":1468:1480  globalPollNo */\n      0x00\n      dup1\n        /* \"Voting.sol\":1468:1482  globalPollNo++ */\n      dup2\n      dup2\n      swap1\n      sload\n      swap1\n      0x0100\n      exp\n      swap1\n      div\n      0xff\n      and\n      dup1\n      swap3\n      swap2\n      swap1\n      tag_39\n      swap1\n      tag_40\n      jump\t// in\n    tag_39:\n      swap2\n      swap1\n      0x0100\n      exp\n      dup2\n      sload\n      dup2\n      0xff\n      mul\n      not\n      and\n      swap1\n      dup4\n      0xff\n      and\n      mul\n      or\n      swap1\n      sstore\n      pop\n      pop\n        /* \"Voting.sol\":1495:1517  Poll storage _tempPoll */\n      0x00\n        /* \"Voting.sol\":1518:1526  tempPoll */\n      0x06\n        /* \"Voting.sol\":1495:1526  Poll storage _tempPoll=tempPoll */\n      swap1\n      pop\n        /* \"Voting.sol\":1554:1564  msg.sender */\n      caller\n        /* \"Voting.sol\":1537:1545  tempPoll */\n      0x06\n        /* \"Voting.sol\":1537:1553  tempPoll.creator */\n      0x00\n      add\n      0x00\n        /* \"Voting.sol\":1537:1564  tempPoll.creator=msg.sender */\n      0x0100\n      exp\n      dup2\n      sload\n      dup2\n      0xffffffffffffffffffffffffffffffffffffffff\n      mul\n      not\n      and\n      swap1\n      dup4\n      0xffffffffffffffffffffffffffffffffffffffff\n      and\n      mul\n      or\n      swap1\n      sstore\n      pop\n        /* \"Voting.sol\":1591:1603  globalPollNo */\n      0x00\n      dup1\n      sload\n      swap1\n      0x0100\n      exp\n      swap1\n      div\n      0xff\n      and\n        /* \"Voting.sol\":1575:1583  tempPoll */\n      0x06\n        /* \"Voting.sol\":1575:1590  tempPoll.pollNo */\n      0x00\n      add\n      0x14\n        /* \"Voting.sol\":1575:1603  tempPoll.pollNo=globalPollNo */\n      0x0100\n      exp\n      dup2\n      sload\n      dup2\n      0xff\n      mul\n      not\n      and\n      swap1\n      dup4\n      0xff\n      and\n      mul\n      or\n      swap1\n      sstore\n      pop\n        /* \"Voting.sol\":1643:1652  1 minutes */\n      0x3c\n        /* \"Voting.sol\":1632:1640  duration */\n      dup3\n        /* \"Voting.sol\":1632:1652  duration * 1 minutes */\n      tag_41\n      swap2\n      swap1\n      tag_42\n      jump\t// in\n    tag_41:\n        /* \"Voting.sol\":1614:1622  tempPoll */\n      0x06\n        /* \"Voting.sol\":1614:1631  tempPoll.duration */\n      0x02\n      add\n        /* \"Voting.sol\":1614:1652  tempPoll.duration=duration * 1 minutes */\n      dup2\n      swap1\n      sstore\n      pop\n        /* \"Voting.sol\":1739:1747  duration */\n      dup2\n        /* \"Voting.sol\":1723:1738  block.timestamp */\n      timestamp\n        /* \"Voting.sol\":1723:1747  block.timestamp+duration */\n      tag_43\n      swap2\n      swap1\n      tag_44\n      jump\t// in\n    tag_43:\n        /* \"Voting.sol\":1706:1714  tempPoll */\n      0x06\n        /* \"Voting.sol\":1706:1722  tempPoll.endTime */\n      0x03\n      add\n        /* \"Voting.sol\":1706:1747  tempPoll.endTime=block.timestamp+duration */\n      dup2\n      swap1\n      sstore\n      pop\n        /* \"Voting.sol\":1805:1825  Option storage _temp */\n      0x00\n        /* \"Voting.sol\":1826:1830  temp */\n      0x03\n        /* \"Voting.sol\":1805:1830  Option storage _temp=temp */\n      swap1\n      pop\n        /* \"Voting.sol\":1845:1852  uint8 i */\n      0x00\n        /* \"Voting.sol\":1841:1968  for(uint8 i=0;i<options.length;i++){\r... */\n    tag_45:\n        /* \"Voting.sol\":1857:1864  options */\n      dup5\n        /* \"Voting.sol\":1857:1871  options.length */\n      mload\n        /* \"Voting.sol\":1855:1856  i */\n      dup2\n        /* \"Voting.sol\":1855:1871  i<options.length */\n      0xff\n      and\n      lt\n        /* \"Voting.sol\":1841:1968  for(uint8 i=0;i<options.length;i++){\r... */\n      iszero\n      tag_46\n      jumpi\n        /* \"Voting.sol\":1902:1909  options */\n      dup5\n        /* \"Voting.sol\":1910:1911  i */\n      dup2\n        /* \"Voting.sol\":1902:1912  options[i] */\n      0xff\n      and\n      dup2\n      mload\n      dup2\n      lt\n      tag_48\n      jumpi\n      tag_49\n      tag_50\n      jump\t// in\n    tag_49:\n    tag_48:\n      0x20\n      mul\n      0x20\n      add\n      add\n      mload\n        /* \"Voting.sol\":1891:1896  _temp */\n      dup3\n        /* \"Voting.sol\":1891:1901  _temp.name */\n      0x00\n      add\n        /* \"Voting.sol\":1891:1912  _temp.name=options[i] */\n      swap1\n      dup1\n      mload\n      swap1\n      0x20\n      add\n      swap1\n      tag_51\n      swap3\n      swap2\n      swap1\n      tag_52\n      jump\t// in\n    tag_51:\n      pop\n        /* \"Voting.sol\":1927:1936  _tempPoll */\n      dup3\n        /* \"Voting.sol\":1927:1944  _tempPoll.options */\n      0x01\n      add\n        /* \"Voting.sol\":1950:1955  _temp */\n      dup3\n        /* \"Voting.sol\":1927:1956  _tempPoll.options.push(_temp) */\n      swap1\n      dup1\n      0x01\n      dup2\n      sload\n      add\n      dup1\n      dup3\n      sstore\n      dup1\n      swap2\n      pop\n      pop\n      0x01\n      swap1\n      sub\n      swap1\n      0x00\n      mstore\n      keccak256(0x00, 0x20)\n      swap1\n      0x03\n      mul\n      add\n      0x00\n      swap1\n      swap2\n      swap1\n      swap2\n      swap1\n      swap2\n      pop\n      0x00\n      dup3\n      add\n      dup2\n      0x00\n      add\n      swap1\n      dup1\n      sload\n      tag_54\n      swap1\n      tag_33\n      jump\t// in\n    tag_54:\n      tag_55\n      swap3\n      swap2\n      swap1\n      tag_56\n      jump\t// in\n    tag_55:\n      pop\n      0x01\n      dup3\n      add\n      0x00\n      swap1\n      sload\n      swap1\n      0x0100\n      exp\n      swap1\n      div\n      0xff\n      and\n      dup2\n      0x01\n      add\n      exp(0x0100, 0x00)\n      dup2\n      sload\n      dup2\n      0xff\n      mul\n      not\n      and\n      swap1\n      dup4\n      0xff\n      and\n      mul\n      or\n      swap1\n      sstore\n      pop\n      0x02\n      dup3\n      add\n      dup2\n      0x02\n      add\n      swap1\n      dup1\n      sload\n      tag_57\n      swap3\n      swap2\n      swap1\n      tag_58\n      jump\t// in\n    tag_57:\n      pop\n      pop\n      pop\n        /* \"Voting.sol\":1872:1875  i++ */\n      dup1\n      dup1\n      tag_59\n      swap1\n      tag_40\n      jump\t// in\n    tag_59:\n      swap2\n      pop\n      pop\n        /* \"Voting.sol\":1841:1968  for(uint8 i=0;i<options.length;i++){\r... */\n      jump(tag_45)\n    tag_46:\n      pop\n        /* \"Voting.sol\":2008:2013  polls */\n      0x01\n        /* \"Voting.sol\":2019:2028  _tempPoll */\n      dup3\n        /* \"Voting.sol\":2008:2029  polls.push(_tempPoll) */\n      swap1\n      dup1\n      0x01\n      dup2\n      sload\n      add\n      dup1\n      dup3\n      sstore\n      dup1\n      swap2\n      pop\n      pop\n      0x01\n      swap1\n      sub\n      swap1\n      0x00\n      mstore\n      keccak256(0x00, 0x20)\n      swap1\n      0x04\n      mul\n      add\n      0x00\n      swap1\n      swap2\n      swap1\n      swap2\n      swap1\n      swap2\n      pop\n      0x00\n      dup3\n      add\n      0x00\n      swap1\n      sload\n      swap1\n      0x0100\n      exp\n      swap1\n      div\n      0xffffffffffffffffffffffffffffffffffffffff\n      and\n      dup2\n      0x00\n      add\n      exp(0x0100, 0x00)\n      dup2\n      sload\n      dup2\n      0xffffffffffffffffffffffffffffffffffffffff\n      mul\n      not\n      and\n      swap1\n      dup4\n      0xffffffffffffffffffffffffffffffffffffffff\n      and\n      mul\n      or\n      swap1\n      sstore\n      pop\n      0x00\n      dup3\n      add\n      0x14\n      swap1\n      sload\n      swap1\n      0x0100\n      exp\n      swap1\n      div\n      0xff\n      and\n      dup2\n      0x00\n      add\n      exp(0x0100, 0x14)\n      dup2\n      sload\n      dup2\n      0xff\n      mul\n      not\n      and\n      swap1\n      dup4\n      0xff\n      and\n      mul\n      or\n      swap1\n      sstore\n      pop\n      0x00\n      dup3\n      add\n      0x15\n      swap1\n      sload\n      swap1\n      0x0100\n      exp\n      swap1\n      div\n      0xff\n      and\n      dup2\n      0x00\n      add\n      exp(0x0100, 0x15)\n      dup2\n      sload\n      dup2\n      0xff\n      mul\n      not\n      and\n      swap1\n      dup4\n      0xff\n      and\n      mul\n      or\n      swap1\n      sstore\n      pop\n      0x01\n      dup3\n      add\n      dup2\n      0x01\n      add\n      swap1\n      dup1\n      sload\n      tag_61\n      swap3\n      swap2\n      swap1\n      tag_62\n      jump\t// in\n    tag_61:\n      pop\n      0x02\n      dup3\n      add\n      sload\n      dup2\n      0x02\n      add\n      sstore\n      0x03\n      dup3\n      add\n      sload\n      dup2\n      0x03\n      add\n      sstore\n      pop\n      pop\n        /* \"Voting.sol\":1431:2039  { //check memory or storage\r... */\n      pop\n      pop\n        /* \"Voting.sol\":1366:2039  function createPoll(string[] memory options, uint duration)public{ //check memory or storage\r... */\n      pop\n      pop\n      jump\t// out\n        /* \"Voting.sol\":478:497  Poll[] public polls */\n    tag_21:\n      0x01\n      dup2\n      dup2\n      sload\n      dup2\n      lt\n      tag_63\n      jumpi\n      0x00\n      dup1\n      revert\n    tag_63:\n      swap1\n      0x00\n      mstore\n      keccak256(0x00, 0x20)\n      swap1\n      0x04\n      mul\n      add\n      0x00\n      swap2\n      pop\n      swap1\n      pop\n      dup1\n      0x00\n      add\n      0x00\n      swap1\n      sload\n      swap1\n      0x0100\n      exp\n      swap1\n      div\n      0xffffffffffffffffffffffffffffffffffffffff\n      and\n      swap1\n      dup1\n      0x00\n      add\n      0x14\n      swap1\n      sload\n      swap1\n      0x0100\n      exp\n      swap1\n      div\n      0xff\n      and\n      swap1\n      dup1\n      0x00\n      add\n      0x15\n      swap1\n      sload\n      swap1\n      0x0100\n      exp\n      swap1\n      div\n      0xff\n      and\n      swap1\n      dup1\n      0x02\n      add\n      sload\n      swap1\n      dup1\n      0x03\n      add\n      sload\n      swap1\n      pop\n      dup6\n      jump\t// out\n        /* \"Voting.sol\":2047:2349  function vote(uint8 pollIndex,uint8 optnIndex) public votable(pollIndex){ \r... */\n    tag_27:\n        /* \"Voting.sol\":2109:2118  pollIndex */\n      dup2\n        /* \"Voting.sol\":774:1225  modifier votable(uint pollIndex){ //add out of index check also\r... */\n      0xff\n      and\n        /* \"Voting.sol\":871:876  polls */\n      0x01\n        /* \"Voting.sol\":877:886  pollIndex */\n      dup2\n        /* \"Voting.sol\":871:887  polls[pollIndex] */\n      dup2\n      sload\n      dup2\n      lt\n      tag_66\n      jumpi\n      tag_67\n      tag_50\n      jump\t// in\n    tag_67:\n    tag_66:\n      swap1\n      0x00\n      mstore\n      keccak256(0x00, 0x20)\n      swap1\n      0x04\n      mul\n      add\n        /* \"Voting.sol\":871:895  polls[pollIndex].endTime */\n      0x03\n      add\n      sload\n        /* \"Voting.sol\":855:870  block.timestamp */\n      timestamp\n        /* \"Voting.sol\":855:895  block.timestamp<polls[pollIndex].endTime */\n      lt\n        /* \"Voting.sol\":847:921  require(block.timestamp<polls[pollIndex].endTime,\"Voting Period is Over!\") */\n      tag_69\n      jumpi\n      mload(0x40)\n      0x08c379a000000000000000000000000000000000000000000000000000000000\n      dup2\n      mstore\n      0x04\n      add\n      tag_70\n      swap1\n      tag_71\n      jump\t// in\n    tag_70:\n      mload(0x40)\n      dup1\n      swap2\n      sub\n      swap1\n      revert\n    tag_69:\n        /* \"Voting.sol\":966:976  msg.sender */\n      caller\n        /* \"Voting.sol\":940:976  polls[pollIndex].creator!=msg.sender */\n      0xffffffffffffffffffffffffffffffffffffffff\n      and\n        /* \"Voting.sol\":940:945  polls */\n      0x01\n        /* \"Voting.sol\":946:955  pollIndex */\n      dup3\n        /* \"Voting.sol\":940:956  polls[pollIndex] */\n      dup2\n      sload\n      dup2\n      lt\n      tag_72\n      jumpi\n      tag_73\n      tag_50\n      jump\t// in\n    tag_73:\n    tag_72:\n      swap1\n      0x00\n      mstore\n      keccak256(0x00, 0x20)\n      swap1\n      0x04\n      mul\n      add\n        /* \"Voting.sol\":940:964  polls[pollIndex].creator */\n      0x00\n      add\n      0x00\n      swap1\n      sload\n      swap1\n      0x0100\n      exp\n      swap1\n      div\n      0xffffffffffffffffffffffffffffffffffffffff\n      and\n        /* \"Voting.sol\":940:976  polls[pollIndex].creator!=msg.sender */\n      0xffffffffffffffffffffffffffffffffffffffff\n      and\n      eq\n      iszero\n        /* \"Voting.sol\":932:1000  require(polls[pollIndex].creator!=msg.sender,\"Creator cannot vote!\") */\n      tag_75\n      jumpi\n      mload(0x40)\n      0x08c379a000000000000000000000000000000000000000000000000000000000\n      dup2\n      mstore\n      0x04\n      add\n      tag_76\n      swap1\n      tag_77\n      jump\t// in\n    tag_76:\n      mload(0x40)\n      dup1\n      swap2\n      sub\n      swap1\n      revert\n    tag_75:\n        /* \"Voting.sol\":1086:1106  abi.encodePacked(\"\") */\n      add(0x20, mload(0x40))\n      tag_78\n      swap1\n      tag_79\n      jump\t// in\n    tag_78:\n      mload(0x40)\n      0x20\n      dup2\n      dup4\n      sub\n      sub\n      dup2\n      mstore\n      swap1\n      0x40\n      mstore\n        /* \"Voting.sol\":1076:1107  keccak256(abi.encodePacked(\"\")) */\n      dup1\n      mload\n      swap1\n      0x20\n      add\n      keccak256\n        /* \"Voting.sol\":1046:1055  regVoters */\n      0x02\n        /* \"Voting.sol\":1046:1067  regVoters[msg.sender] */\n      0x00\n        /* \"Voting.sol\":1056:1066  msg.sender */\n      caller\n        /* \"Voting.sol\":1046:1067  regVoters[msg.sender] */\n      0xffffffffffffffffffffffffffffffffffffffff\n      and\n      0xffffffffffffffffffffffffffffffffffffffff\n      and\n      dup2\n      mstore\n      0x20\n      add\n      swap1\n      dup2\n      mstore\n      0x20\n      add\n      0x00\n      keccak256\n        /* \"Voting.sol\":1046:1072  regVoters[msg.sender].name */\n      0x00\n      add\n        /* \"Voting.sol\":1029:1073  abi.encodePacked(regVoters[msg.sender].name) */\n      add(0x20, mload(0x40))\n      tag_80\n      swap2\n      swap1\n      tag_81\n      jump\t// in\n    tag_80:\n      mload(0x40)\n      0x20\n      dup2\n      dup4\n      sub\n      sub\n      dup2\n      mstore\n      swap1\n      0x40\n      mstore\n        /* \"Voting.sol\":1019:1074  keccak256(abi.encodePacked(regVoters[msg.sender].name)) */\n      dup1\n      mload\n      swap1\n      0x20\n      add\n      keccak256\n        /* \"Voting.sol\":1019:1107  keccak256(abi.encodePacked(regVoters[msg.sender].name))!=keccak256(abi.encodePacked(\"\")) */\n      eq\n      iszero\n        /* \"Voting.sol\":1011:1126  require(keccak256(abi.encodePacked(regVoters[msg.sender].name))!=keccak256(abi.encodePacked(\"\")),\"Not registered!\") */\n      tag_82\n      jumpi\n      mload(0x40)\n      0x08c379a000000000000000000000000000000000000000000000000000000000\n      dup2\n      mstore\n      0x04\n      add\n      tag_83\n      swap1\n      tag_84\n      jump\t// in\n    tag_83:\n      mload(0x40)\n      dup1\n      swap2\n      sub\n      swap1\n      revert\n    tag_82:\n        /* \"Voting.sol\":1174:1179  false */\n      0x00\n        /* \"Voting.sol\":1145:1179  regVoters[msg.sender].voted==false */\n      iszero\n      iszero\n        /* \"Voting.sol\":1145:1154  regVoters */\n      0x02\n        /* \"Voting.sol\":1145:1166  regVoters[msg.sender] */\n      0x00\n        /* \"Voting.sol\":1155:1165  msg.sender */\n      caller\n        /* \"Voting.sol\":1145:1166  regVoters[msg.sender] */\n      0xffffffffffffffffffffffffffffffffffffffff\n      and\n      0xffffffffffffffffffffffffffffffffffffffff\n      and\n      dup2\n      mstore\n      0x20\n      add\n      swap1\n      dup2\n      mstore\n      0x20\n      add\n      0x00\n      keccak256\n        /* \"Voting.sol\":1145:1172  regVoters[msg.sender].voted */\n      0x01\n      add\n      0x14\n      swap1\n      sload\n      swap1\n      0x0100\n      exp\n      swap1\n      div\n      0xff\n      and\n        /* \"Voting.sol\":1145:1179  regVoters[msg.sender].voted==false */\n      iszero\n      iszero\n      eq\n        /* \"Voting.sol\":1137:1205  require(regVoters[msg.sender].voted==false,\"Account already voted!\") */\n      tag_85\n      jumpi\n      mload(0x40)\n      0x08c379a000000000000000000000000000000000000000000000000000000000\n      dup2\n      mstore\n      0x04\n      add\n      tag_86\n      swap1\n      tag_87\n      jump\t// in\n    tag_86:\n      mload(0x40)\n      dup1\n      swap2\n      sub\n      swap1\n      revert\n    tag_85:\n        /* \"Voting.sol\":2131:2148  Poll storage poll */\n      0x00\n        /* \"Voting.sol\":2149:2154  polls */\n      0x01\n        /* \"Voting.sol\":2155:2164  pollIndex */\n      dup5\n        /* \"Voting.sol\":2149:2165  polls[pollIndex] */\n      0xff\n      and\n      dup2\n      sload\n      dup2\n      lt\n      tag_89\n      jumpi\n      tag_90\n      tag_50\n      jump\t// in\n    tag_90:\n    tag_89:\n      swap1\n      0x00\n      mstore\n      keccak256(0x00, 0x20)\n      swap1\n      0x04\n      mul\n      add\n        /* \"Voting.sol\":2131:2165  Poll storage poll=polls[pollIndex] */\n      swap1\n      pop\n        /* \"Voting.sol\":2176:2197  Option storage option */\n      0x00\n        /* \"Voting.sol\":2198:2202  poll */\n      dup2\n        /* \"Voting.sol\":2198:2210  poll.options */\n      0x01\n      add\n        /* \"Voting.sol\":2211:2220  optnIndex */\n      dup5\n        /* \"Voting.sol\":2198:2221  poll.options[optnIndex] */\n      0xff\n      and\n      dup2\n      sload\n      dup2\n      lt\n      tag_92\n      jumpi\n      tag_93\n      tag_50\n      jump\t// in\n    tag_93:\n    tag_92:\n      swap1\n      0x00\n      mstore\n      keccak256(0x00, 0x20)\n      swap1\n      0x03\n      mul\n      add\n        /* \"Voting.sol\":2176:2221  Option storage option=poll.options[optnIndex] */\n      swap1\n      pop\n        /* \"Voting.sol\":2232:2238  option */\n      dup1\n        /* \"Voting.sol\":2232:2244  option.votes */\n      0x01\n      add\n      0x00\n        /* \"Voting.sol\":2232:2246  option.votes++ */\n      dup2\n      dup2\n      swap1\n      sload\n      swap1\n      0x0100\n      exp\n      swap1\n      div\n      0xff\n      and\n      dup1\n      swap3\n      swap2\n      swap1\n      tag_95\n      swap1\n      tag_40\n      jump\t// in\n    tag_95:\n      swap2\n      swap1\n      0x0100\n      exp\n      dup2\n      sload\n      dup2\n      0xff\n      mul\n      not\n      and\n      swap1\n      dup4\n      0xff\n      and\n      mul\n      or\n      swap1\n      sstore\n      pop\n      pop\n        /* \"Voting.sol\":2257:2263  option */\n      dup1\n        /* \"Voting.sol\":2257:2270  option.voters */\n      0x02\n      add\n        /* \"Voting.sol\":2276:2285  regVoters */\n      0x02\n        /* \"Voting.sol\":2276:2297  regVoters[msg.sender] */\n      0x00\n        /* \"Voting.sol\":2286:2296  msg.sender */\n      caller\n        /* \"Voting.sol\":2276:2297  regVoters[msg.sender] */\n      0xffffffffffffffffffffffffffffffffffffffff\n      and\n      0xffffffffffffffffffffffffffffffffffffffff\n      and\n      dup2\n      mstore\n      0x20\n      add\n      swap1\n      dup2\n      mstore\n      0x20\n      add\n      0x00\n      keccak256\n        /* \"Voting.sol\":2257:2298  option.voters.push(regVoters[msg.sender]) */\n      swap1\n      dup1\n      0x01\n      dup2\n      sload\n      add\n      dup1\n      dup3\n      sstore\n      dup1\n      swap2\n      pop\n      pop\n      0x01\n      swap1\n      sub\n      swap1\n      0x00\n      mstore\n      keccak256(0x00, 0x20)\n      swap1\n      0x02\n      mul\n      add\n      0x00\n      swap1\n      swap2\n      swap1\n      swap2\n      swap1\n      swap2\n      pop\n      0x00\n      dup3\n      add\n      dup2\n      0x00\n      add\n      swap1\n      dup1\n      sload\n      tag_97\n      swap1\n      tag_33\n      jump\t// in\n    tag_97:\n      tag_98\n      swap3\n      swap2\n      swap1\n      tag_56\n      jump\t// in\n    tag_98:\n      pop\n      0x01\n      dup3\n      add\n      0x00\n      swap1\n      sload\n      swap1\n      0x0100\n      exp\n      swap1\n      div\n      0xffffffffffffffffffffffffffffffffffffffff\n      and\n      dup2\n      0x01\n      add\n      exp(0x0100, 0x00)\n      dup2\n      sload\n      dup2\n      0xffffffffffffffffffffffffffffffffffffffff\n      mul\n      not\n      and\n      swap1\n      dup4\n      0xffffffffffffffffffffffffffffffffffffffff\n      and\n      mul\n      or\n      swap1\n      sstore\n      pop\n      0x01\n      dup3\n      add\n      0x14\n      swap1\n      sload\n      swap1\n      0x0100\n      exp\n      swap1\n      div\n      0xff\n      and\n      dup2\n      0x01\n      add\n      exp(0x0100, 0x14)\n      dup2\n      sload\n      dup2\n      0xff\n      mul\n      not\n      and\n      swap1\n      dup4\n      iszero\n      iszero\n      mul\n      or\n      swap1\n      sstore\n      pop\n      pop\n      pop\n        /* \"Voting.sol\":2337:2341  true */\n      0x01\n        /* \"Voting.sol\":2309:2318  regVoters */\n      0x02\n        /* \"Voting.sol\":2309:2330  regVoters[msg.sender] */\n      0x00\n        /* \"Voting.sol\":2319:2329  msg.sender */\n      caller\n        /* \"Voting.sol\":2309:2330  regVoters[msg.sender] */\n      0xffffffffffffffffffffffffffffffffffffffff\n      and\n      0xffffffffffffffffffffffffffffffffffffffff\n      and\n      dup2\n      mstore\n      0x20\n      add\n      swap1\n      dup2\n      mstore\n      0x20\n      add\n      0x00\n      keccak256\n        /* \"Voting.sol\":2309:2336  regVoters[msg.sender].voted */\n      0x01\n      add\n      0x14\n        /* \"Voting.sol\":2309:2341  regVoters[msg.sender].voted=true */\n      0x0100\n      exp\n      dup2\n      sload\n      dup2\n      0xff\n      mul\n      not\n      and\n      swap1\n      dup4\n      iszero\n      iszero\n      mul\n      or\n      swap1\n      sstore\n      pop\n        /* \"Voting.sol\":2119:2349  { \r... */\n      pop\n      pop\n        /* \"Voting.sol\":2047:2349  function vote(uint8 pollIndex,uint8 optnIndex) public votable(pollIndex){ \r... */\n      pop\n      pop\n      pop\n      jump\t// out\n        /* \"Voting.sol\":1233:1358  function register(string memory name)public preventTwice{\r... */\n    tag_31:\n        /* \"Voting.sol\":702:722  abi.encodePacked(\"\") */\n      add(0x20, mload(0x40))\n      tag_100\n      swap1\n      tag_79\n      jump\t// in\n    tag_100:\n      mload(0x40)\n      0x20\n      dup2\n      dup4\n      sub\n      sub\n      dup2\n      mstore\n      swap1\n      0x40\n      mstore\n        /* \"Voting.sol\":692:723  keccak256(abi.encodePacked(\"\")) */\n      dup1\n      mload\n      swap1\n      0x20\n      add\n      keccak256\n        /* \"Voting.sol\":662:671  regVoters */\n      0x02\n        /* \"Voting.sol\":662:683  regVoters[msg.sender] */\n      0x00\n        /* \"Voting.sol\":672:682  msg.sender */\n      caller\n        /* \"Voting.sol\":662:683  regVoters[msg.sender] */\n      0xffffffffffffffffffffffffffffffffffffffff\n      and\n      0xffffffffffffffffffffffffffffffffffffffff\n      and\n      dup2\n      mstore\n      0x20\n      add\n      swap1\n      dup2\n      mstore\n      0x20\n      add\n      0x00\n      keccak256\n        /* \"Voting.sol\":662:688  regVoters[msg.sender].name */\n      0x00\n      add\n        /* \"Voting.sol\":645:689  abi.encodePacked(regVoters[msg.sender].name) */\n      add(0x20, mload(0x40))\n      tag_101\n      swap2\n      swap1\n      tag_81\n      jump\t// in\n    tag_101:\n      mload(0x40)\n      0x20\n      dup2\n      dup4\n      sub\n      sub\n      dup2\n      mstore\n      swap1\n      0x40\n      mstore\n        /* \"Voting.sol\":635:690  keccak256(abi.encodePacked(regVoters[msg.sender].name)) */\n      dup1\n      mload\n      swap1\n      0x20\n      add\n      keccak256\n        /* \"Voting.sol\":635:723  keccak256(abi.encodePacked(regVoters[msg.sender].name))==keccak256(abi.encodePacked(\"\")) */\n      eq\n        /* \"Voting.sol\":627:745  require(keccak256(abi.encodePacked(regVoters[msg.sender].name))==keccak256(abi.encodePacked(\"\")),\"Already Registered\") */\n      tag_102\n      jumpi\n      mload(0x40)\n      0x08c379a000000000000000000000000000000000000000000000000000000000\n      dup2\n      mstore\n      0x04\n      add\n      tag_103\n      swap1\n      tag_104\n      jump\t// in\n    tag_103:\n      mload(0x40)\n      dup1\n      swap2\n      sub\n      swap1\n      revert\n    tag_102:\n        /* \"Voting.sol\":1322:1350  Voter(name,msg.sender,false) */\n      mload(0x40)\n      dup1\n      0x60\n      add\n      0x40\n      mstore\n      dup1\n        /* \"Voting.sol\":1328:1332  name */\n      dup3\n        /* \"Voting.sol\":1322:1350  Voter(name,msg.sender,false) */\n      dup2\n      mstore\n      0x20\n      add\n        /* \"Voting.sol\":1333:1343  msg.sender */\n      caller\n        /* \"Voting.sol\":1322:1350  Voter(name,msg.sender,false) */\n      0xffffffffffffffffffffffffffffffffffffffff\n      and\n      dup2\n      mstore\n      0x20\n      add\n        /* \"Voting.sol\":1344:1349  false */\n      0x00\n        /* \"Voting.sol\":1322:1350  Voter(name,msg.sender,false) */\n      iszero\n      iszero\n      dup2\n      mstore\n      pop\n        /* \"Voting.sol\":1300:1309  regVoters */\n      0x02\n        /* \"Voting.sol\":1300:1321  regVoters[msg.sender] */\n      0x00\n        /* \"Voting.sol\":1310:1320  msg.sender */\n      caller\n        /* \"Voting.sol\":1300:1321  regVoters[msg.sender] */\n      0xffffffffffffffffffffffffffffffffffffffff\n      and\n      0xffffffffffffffffffffffffffffffffffffffff\n      and\n      dup2\n      mstore\n      0x20\n      add\n      swap1\n      dup2\n      mstore\n      0x20\n      add\n      0x00\n      keccak256\n        /* \"Voting.sol\":1300:1350  regVoters[msg.sender]=Voter(name,msg.sender,false) */\n      0x00\n      dup3\n      add\n      mload\n      dup2\n      0x00\n      add\n      swap1\n      dup1\n      mload\n      swap1\n      0x20\n      add\n      swap1\n      tag_106\n      swap3\n      swap2\n      swap1\n      tag_52\n      jump\t// in\n    tag_106:\n      pop\n      0x20\n      dup3\n      add\n      mload\n      dup2\n      0x01\n      add\n      exp(0x0100, 0x00)\n      dup2\n      sload\n      dup2\n      0xffffffffffffffffffffffffffffffffffffffff\n      mul\n      not\n      and\n      swap1\n      dup4\n      0xffffffffffffffffffffffffffffffffffffffff\n      and\n      mul\n      or\n      swap1\n      sstore\n      pop\n      0x40\n      dup3\n      add\n      mload\n      dup2\n      0x01\n      add\n      exp(0x0100, 0x14)\n      dup2\n      sload\n      dup2\n      0xff\n      mul\n      not\n      and\n      swap1\n      dup4\n      iszero\n      iszero\n      mul\n      or\n      swap1\n      sstore\n      pop\n      swap1\n      pop\n      pop\n        /* \"Voting.sol\":1233:1358  function register(string memory name)public preventTwice{\r... */\n      pop\n      jump\t// out\n    tag_52:\n      dup3\n      dup1\n      sload\n      tag_107\n      swap1\n      tag_33\n      jump\t// in\n    tag_107:\n      swap1\n      0x00\n      mstore\n      keccak256(0x00, 0x20)\n      swap1\n      0x1f\n      add\n      0x20\n      swap1\n      div\n      dup2\n      add\n      swap3\n      dup3\n      tag_109\n      jumpi\n      0x00\n      dup6\n      sstore\n      jump(tag_108)\n    tag_109:\n      dup3\n      0x1f\n      lt\n      tag_110\n      jumpi\n      dup1\n      mload\n      not(0xff)\n      and\n      dup4\n      dup1\n      add\n      or\n      dup6\n      sstore\n      jump(tag_108)\n    tag_110:\n      dup3\n      dup1\n      add\n      0x01\n      add\n      dup6\n      sstore\n      dup3\n      iszero\n      tag_108\n      jumpi\n      swap2\n      dup3\n      add\n    tag_111:\n      dup3\n      dup2\n      gt\n      iszero\n      tag_112\n      jumpi\n      dup3\n      mload\n      dup3\n      sstore\n      swap2\n      0x20\n      add\n      swap2\n      swap1\n      0x01\n      add\n      swap1\n      jump(tag_111)\n    tag_112:\n    tag_108:\n      pop\n      swap1\n      pop\n      tag_113\n      swap2\n      swap1\n      tag_114\n      jump\t// in\n    tag_113:\n      pop\n      swap1\n      jump\t// out\n    tag_56:\n      dup3\n      dup1\n      sload\n      tag_115\n      swap1\n      tag_33\n      jump\t// in\n    tag_115:\n      swap1\n      0x00\n      mstore\n      keccak256(0x00, 0x20)\n      swap1\n      0x1f\n      add\n      0x20\n      swap1\n      div\n      dup2\n      add\n      swap3\n      dup3\n      tag_117\n      jumpi\n      0x00\n      dup6\n      sstore\n      jump(tag_116)\n    tag_117:\n      dup3\n      0x1f\n      lt\n      tag_118\n      jumpi\n      dup1\n      sload\n      dup6\n      sstore\n      jump(tag_116)\n    tag_118:\n      dup3\n      dup1\n      add\n      0x01\n      add\n      dup6\n      sstore\n      dup3\n      iszero\n      tag_116\n      jumpi\n      0x00\n      mstore\n      keccak256(0x00, 0x20)\n      swap2\n      0x1f\n      add\n      0x20\n      swap1\n      div\n      dup3\n      add\n    tag_119:\n      dup3\n      dup2\n      gt\n      iszero\n      tag_120\n      jumpi\n      dup3\n      sload\n      dup3\n      sstore\n      swap2\n      0x01\n      add\n      swap2\n      swap1\n      0x01\n      add\n      swap1\n      jump(tag_119)\n    tag_120:\n    tag_116:\n      pop\n      swap1\n      pop\n      tag_121\n      swap2\n      swap1\n      tag_114\n      jump\t// in\n    tag_121:\n      pop\n      swap1\n      jump\t// out\n    tag_58:\n      dup3\n      dup1\n      sload\n      dup3\n      dup3\n      sstore\n      swap1\n      0x00\n      mstore\n      keccak256(0x00, 0x20)\n      swap1\n      0x02\n      mul\n      dup2\n      add\n      swap3\n      dup3\n      iszero\n      tag_122\n      jumpi\n      0x00\n      mstore\n      keccak256(0x00, 0x20)\n      swap2\n      0x02\n      mul\n      dup3\n      add\n    tag_123:\n      dup3\n      dup2\n      gt\n      iszero\n      tag_124\n      jumpi\n      dup3\n      dup3\n      0x00\n      dup3\n      add\n      dup2\n      0x00\n      add\n      swap1\n      dup1\n      sload\n      tag_125\n      swap1\n      tag_33\n      jump\t// in\n    tag_125:\n      tag_126\n      swap3\n      swap2\n      swap1\n      tag_56\n      jump\t// in\n    tag_126:\n      pop\n      0x01\n      dup3\n      add\n      0x00\n      swap1\n      sload\n      swap1\n      0x0100\n      exp\n      swap1\n      div\n      0xffffffffffffffffffffffffffffffffffffffff\n      and\n      dup2\n      0x01\n      add\n      exp(0x0100, 0x00)\n      dup2\n      sload\n      dup2\n      0xffffffffffffffffffffffffffffffffffffffff\n      mul\n      not\n      and\n      swap1\n      dup4\n      0xffffffffffffffffffffffffffffffffffffffff\n      and\n      mul\n      or\n      swap1\n      sstore\n      pop\n      0x01\n      dup3\n      add\n      0x14\n      swap1\n      sload\n      swap1\n      0x0100\n      exp\n      swap1\n      div\n      0xff\n      and\n      dup2\n      0x01\n      add\n      exp(0x0100, 0x14)\n      dup2\n      sload\n      dup2\n      0xff\n      mul\n      not\n      and\n      swap1\n      dup4\n      iszero\n      iszero\n      mul\n      or\n      swap1\n      sstore\n      pop\n      pop\n      pop\n      swap2\n      0x02\n      add\n      swap2\n      swap1\n      0x02\n      add\n      swap1\n      jump(tag_123)\n    tag_124:\n    tag_122:\n      pop\n      swap1\n      pop\n      tag_127\n      swap2\n      swap1\n      tag_128\n      jump\t// in\n    tag_127:\n      pop\n      swap1\n      jump\t// out\n    tag_62:\n      dup3\n      dup1\n      sload\n      dup3\n      dup3\n      sstore\n      swap1\n      0x00\n      mstore\n      keccak256(0x00, 0x20)\n      swap1\n      0x03\n      mul\n      dup2\n      add\n      swap3\n      dup3\n      iszero\n      tag_129\n      jumpi\n      0x00\n      mstore\n      keccak256(0x00, 0x20)\n      swap2\n      0x03\n      mul\n      dup3\n      add\n    tag_130:\n      dup3\n      dup2\n      gt\n      iszero\n      tag_131\n      jumpi\n      dup3\n      dup3\n      0x00\n      dup3\n      add\n      dup2\n      0x00\n      add\n      swap1\n      dup1\n      sload\n      tag_132\n      swap1\n      tag_33\n      jump\t// in\n    tag_132:\n      tag_133\n      swap3\n      swap2\n      swap1\n      tag_56\n      jump\t// in\n    tag_133:\n      pop\n      0x01\n      dup3\n      add\n      0x00\n      swap1\n      sload\n      swap1\n      0x0100\n      exp\n      swap1\n      div\n      0xff\n      and\n      dup2\n      0x01\n      add\n      exp(0x0100, 0x00)\n      dup2\n      sload\n      dup2\n      0xff\n      mul\n      not\n      and\n      swap1\n      dup4\n      0xff\n      and\n      mul\n      or\n      swap1\n      sstore\n      pop\n      0x02\n      dup3\n      add\n      dup2\n      0x02\n      add\n      swap1\n      dup1\n      sload\n      tag_134\n      swap3\n      swap2\n      swap1\n      tag_58\n      jump\t// in\n    tag_134:\n      pop\n      pop\n      pop\n      swap2\n      0x03\n      add\n      swap2\n      swap1\n      0x03\n      add\n      swap1\n      jump(tag_130)\n    tag_131:\n    tag_129:\n      pop\n      swap1\n      pop\n      tag_135\n      swap2\n      swap1\n      tag_136\n      jump\t// in\n    tag_135:\n      pop\n      swap1\n      jump\t// out\n    tag_114:\n    tag_137:\n      dup1\n      dup3\n      gt\n      iszero\n      tag_138\n      jumpi\n      0x00\n      dup2\n      0x00\n      swap1\n      sstore\n      pop\n      0x01\n      add\n      jump(tag_137)\n    tag_138:\n      pop\n      swap1\n      jump\t// out\n    tag_128:\n    tag_139:\n      dup1\n      dup3\n      gt\n      iszero\n      tag_140\n      jumpi\n      0x00\n      dup1\n      dup3\n      add\n      0x00\n      tag_141\n      swap2\n      swap1\n      tag_142\n      jump\t// in\n    tag_141:\n      0x01\n      dup3\n      add\n      exp(0x0100, 0x00)\n      dup2\n      sload\n      swap1\n      0xffffffffffffffffffffffffffffffffffffffff\n      mul\n      not\n      and\n      swap1\n      sstore\n      0x01\n      dup3\n      add\n      exp(0x0100, 0x14)\n      dup2\n      sload\n      swap1\n      0xff\n      mul\n      not\n      and\n      swap1\n      sstore\n      pop\n      0x02\n      add\n      jump(tag_139)\n    tag_140:\n      pop\n      swap1\n      jump\t// out\n    tag_136:\n    tag_143:\n      dup1\n      dup3\n      gt\n      iszero\n      tag_144\n      jumpi\n      0x00\n      dup1\n      dup3\n      add\n      0x00\n      tag_145\n      swap2\n      swap1\n      tag_142\n      jump\t// in\n    tag_145:\n      0x01\n      dup3\n      add\n      exp(0x0100, 0x00)\n      dup2\n      sload\n      swap1\n      0xff\n      mul\n      not\n      and\n      swap1\n      sstore\n      0x02\n      dup3\n      add\n      0x00\n      tag_146\n      swap2\n      swap1\n      tag_147\n      jump\t// in\n    tag_146:\n      pop\n      0x03\n      add\n      jump(tag_143)\n    tag_144:\n      pop\n      swap1\n      jump\t// out\n    tag_142:\n      pop\n      dup1\n      sload\n      tag_148\n      swap1\n      tag_33\n      jump\t// in\n    tag_148:\n      0x00\n      dup3\n      sstore\n      dup1\n      0x1f\n      lt\n      tag_150\n      jumpi\n      pop\n      jump(tag_149)\n    tag_150:\n      0x1f\n      add\n      0x20\n      swap1\n      div\n      swap1\n      0x00\n      mstore\n      keccak256(0x00, 0x20)\n      swap1\n      dup2\n      add\n      swap1\n      tag_151\n      swap2\n      swap1\n      tag_114\n      jump\t// in\n    tag_151:\n    tag_149:\n      pop\n      jump\t// out\n    tag_147:\n      pop\n      dup1\n      sload\n      0x00\n      dup3\n      sstore\n      0x02\n      mul\n      swap1\n      0x00\n      mstore\n      keccak256(0x00, 0x20)\n      swap1\n      dup2\n      add\n      swap1\n      tag_153\n      swap2\n      swap1\n      tag_128\n      jump\t// in\n    tag_153:\n      pop\n      jump\t// out\n        /* \"#utility.yul\":23:980   */\n    tag_155:\n        /* \"#utility.yul\":129:134   */\n      0x00\n        /* \"#utility.yul\":154:245   */\n      tag_157\n        /* \"#utility.yul\":170:244   */\n      tag_158\n        /* \"#utility.yul\":237:243   */\n      dup5\n        /* \"#utility.yul\":170:244   */\n      tag_159\n      jump\t// in\n    tag_158:\n        /* \"#utility.yul\":154:245   */\n      tag_160\n      jump\t// in\n    tag_157:\n        /* \"#utility.yul\":145:245   */\n      swap1\n      pop\n        /* \"#utility.yul\":265:270   */\n      dup1\n        /* \"#utility.yul\":294:300   */\n      dup4\n        /* \"#utility.yul\":287:292   */\n      dup3\n        /* \"#utility.yul\":280:301   */\n      mstore\n        /* \"#utility.yul\":328:332   */\n      0x20\n        /* \"#utility.yul\":321:326   */\n      dup3\n        /* \"#utility.yul\":317:333   */\n      add\n        /* \"#utility.yul\":310:333   */\n      swap1\n      pop\n        /* \"#utility.yul\":354:360   */\n      dup3\n        /* \"#utility.yul\":404:407   */\n      dup6\n        /* \"#utility.yul\":396:400   */\n      0x20\n        /* \"#utility.yul\":388:394   */\n      dup7\n        /* \"#utility.yul\":384:401   */\n      mul\n        /* \"#utility.yul\":379:382   */\n      dup3\n        /* \"#utility.yul\":375:402   */\n      add\n        /* \"#utility.yul\":372:408   */\n      gt\n        /* \"#utility.yul\":369:512   */\n      iszero\n      tag_161\n      jumpi\n        /* \"#utility.yul\":423:502   */\n      tag_162\n      tag_163\n      jump\t// in\n    tag_162:\n        /* \"#utility.yul\":369:512   */\n    tag_161:\n        /* \"#utility.yul\":536:537   */\n      0x00\n        /* \"#utility.yul\":521:974   */\n    tag_164:\n        /* \"#utility.yul\":546:552   */\n      dup6\n        /* \"#utility.yul\":543:544   */\n      dup2\n        /* \"#utility.yul\":540:553   */\n      lt\n        /* \"#utility.yul\":521:974   */\n      iszero\n      tag_166\n      jumpi\n        /* \"#utility.yul\":628:631   */\n      dup2\n        /* \"#utility.yul\":615:632   */\n      calldataload\n        /* \"#utility.yul\":664:682   */\n      0xffffffffffffffff\n        /* \"#utility.yul\":651:662   */\n      dup2\n        /* \"#utility.yul\":648:683   */\n      gt\n        /* \"#utility.yul\":645:767   */\n      iszero\n      tag_167\n      jumpi\n        /* \"#utility.yul\":686:765   */\n      tag_168\n      tag_169\n      jump\t// in\n    tag_168:\n        /* \"#utility.yul\":645:767   */\n    tag_167:\n        /* \"#utility.yul\":810:821   */\n      dup1\n        /* \"#utility.yul\":802:808   */\n      dup7\n        /* \"#utility.yul\":798:822   */\n      add\n        /* \"#utility.yul\":848:895   */\n      tag_170\n        /* \"#utility.yul\":891:894   */\n      dup10\n        /* \"#utility.yul\":879:889   */\n      dup3\n        /* \"#utility.yul\":848:895   */\n      tag_171\n      jump\t// in\n    tag_170:\n        /* \"#utility.yul\":843:846   */\n      dup6\n        /* \"#utility.yul\":836:896   */\n      mstore\n        /* \"#utility.yul\":925:929   */\n      0x20\n        /* \"#utility.yul\":920:923   */\n      dup6\n        /* \"#utility.yul\":916:930   */\n      add\n        /* \"#utility.yul\":909:930   */\n      swap5\n      pop\n        /* \"#utility.yul\":959:963   */\n      0x20\n        /* \"#utility.yul\":954:957   */\n      dup5\n        /* \"#utility.yul\":950:964   */\n      add\n        /* \"#utility.yul\":943:964   */\n      swap4\n      pop\n        /* \"#utility.yul\":581:974   */\n      pop\n      pop\n        /* \"#utility.yul\":568:569   */\n      0x01\n        /* \"#utility.yul\":565:566   */\n      dup2\n        /* \"#utility.yul\":561:570   */\n      add\n        /* \"#utility.yul\":556:570   */\n      swap1\n      pop\n        /* \"#utility.yul\":521:974   */\n      jump(tag_164)\n    tag_166:\n        /* \"#utility.yul\":525:539   */\n      pop\n        /* \"#utility.yul\":135:980   */\n      pop\n      pop\n        /* \"#utility.yul\":23:980   */\n      swap4\n      swap3\n      pop\n      pop\n      pop\n      jump\t// out\n        /* \"#utility.yul\":986:1398   */\n    tag_172:\n        /* \"#utility.yul\":1064:1069   */\n      0x00\n        /* \"#utility.yul\":1089:1155   */\n      tag_174\n        /* \"#utility.yul\":1105:1154   */\n      tag_175\n        /* \"#utility.yul\":1147:1153   */\n      dup5\n        /* \"#utility.yul\":1105:1154   */\n      tag_176\n      jump\t// in\n    tag_175:\n        /* \"#utility.yul\":1089:1155   */\n      tag_160\n      jump\t// in\n    tag_174:\n        /* \"#utility.yul\":1080:1155   */\n      swap1\n      pop\n        /* \"#utility.yul\":1178:1184   */\n      dup3\n        /* \"#utility.yul\":1171:1176   */\n      dup2\n        /* \"#utility.yul\":1164:1185   */\n      mstore\n        /* \"#utility.yul\":1216:1220   */\n      0x20\n        /* \"#utility.yul\":1209:1214   */\n      dup2\n        /* \"#utility.yul\":1205:1221   */\n      add\n        /* \"#utility.yul\":1254:1257   */\n      dup5\n        /* \"#utility.yul\":1245:1251   */\n      dup5\n        /* \"#utility.yul\":1240:1243   */\n      dup5\n        /* \"#utility.yul\":1236:1252   */\n      add\n        /* \"#utility.yul\":1233:1258   */\n      gt\n        /* \"#utility.yul\":1230:1342   */\n      iszero\n      tag_177\n      jumpi\n        /* \"#utility.yul\":1261:1340   */\n      tag_178\n      tag_179\n      jump\t// in\n    tag_178:\n        /* \"#utility.yul\":1230:1342   */\n    tag_177:\n        /* \"#utility.yul\":1351:1392   */\n      tag_180\n        /* \"#utility.yul\":1385:1391   */\n      dup5\n        /* \"#utility.yul\":1380:1383   */\n      dup3\n        /* \"#utility.yul\":1375:1378   */\n      dup6\n        /* \"#utility.yul\":1351:1392   */\n      tag_181\n      jump\t// in\n    tag_180:\n        /* \"#utility.yul\":1070:1398   */\n      pop\n        /* \"#utility.yul\":986:1398   */\n      swap4\n      swap3\n      pop\n      pop\n      pop\n      jump\t// out\n        /* \"#utility.yul\":1404:1543   */\n    tag_182:\n        /* \"#utility.yul\":1450:1455   */\n      0x00\n        /* \"#utility.yul\":1488:1494   */\n      dup2\n        /* \"#utility.yul\":1475:1495   */\n      calldataload\n        /* \"#utility.yul\":1466:1495   */\n      swap1\n      pop\n        /* \"#utility.yul\":1504:1537   */\n      tag_184\n        /* \"#utility.yul\":1531:1536   */\n      dup2\n        /* \"#utility.yul\":1504:1537   */\n      tag_185\n      jump\t// in\n    tag_184:\n        /* \"#utility.yul\":1404:1543   */\n      swap3\n      swap2\n      pop\n      pop\n      jump\t// out\n        /* \"#utility.yul\":1565:1955   */\n    tag_186:\n        /* \"#utility.yul\":1646:1651   */\n      0x00\n        /* \"#utility.yul\":1695:1698   */\n      dup3\n        /* \"#utility.yul\":1688:1692   */\n      0x1f\n        /* \"#utility.yul\":1680:1686   */\n      dup4\n        /* \"#utility.yul\":1676:1693   */\n      add\n        /* \"#utility.yul\":1672:1699   */\n      slt\n        /* \"#utility.yul\":1662:1784   */\n      tag_188\n      jumpi\n        /* \"#utility.yul\":1703:1782   */\n      tag_189\n      tag_169\n      jump\t// in\n    tag_189:\n        /* \"#utility.yul\":1662:1784   */\n    tag_188:\n        /* \"#utility.yul\":1820:1826   */\n      dup2\n        /* \"#utility.yul\":1807:1827   */\n      calldataload\n        /* \"#utility.yul\":1845:1949   */\n      tag_190\n        /* \"#utility.yul\":1945:1948   */\n      dup5\n        /* \"#utility.yul\":1937:1943   */\n      dup3\n        /* \"#utility.yul\":1930:1934   */\n      0x20\n        /* \"#utility.yul\":1922:1928   */\n      dup7\n        /* \"#utility.yul\":1918:1935   */\n      add\n        /* \"#utility.yul\":1845:1949   */\n      tag_155\n      jump\t// in\n    tag_190:\n        /* \"#utility.yul\":1836:1949   */\n      swap2\n      pop\n        /* \"#utility.yul\":1652:1955   */\n      pop\n        /* \"#utility.yul\":1565:1955   */\n      swap3\n      swap2\n      pop\n      pop\n      jump\t// out\n        /* \"#utility.yul\":1975:2315   */\n    tag_171:\n        /* \"#utility.yul\":2031:2036   */\n      0x00\n        /* \"#utility.yul\":2080:2083   */\n      dup3\n        /* \"#utility.yul\":2073:2077   */\n      0x1f\n        /* \"#utility.yul\":2065:2071   */\n      dup4\n        /* \"#utility.yul\":2061:2078   */\n      add\n        /* \"#utility.yul\":2057:2084   */\n      slt\n        /* \"#utility.yul\":2047:2169   */\n      tag_192\n      jumpi\n        /* \"#utility.yul\":2088:2167   */\n      tag_193\n      tag_169\n      jump\t// in\n    tag_193:\n        /* \"#utility.yul\":2047:2169   */\n    tag_192:\n        /* \"#utility.yul\":2205:2211   */\n      dup2\n        /* \"#utility.yul\":2192:2212   */\n      calldataload\n        /* \"#utility.yul\":2230:2309   */\n      tag_194\n        /* \"#utility.yul\":2305:2308   */\n      dup5\n        /* \"#utility.yul\":2297:2303   */\n      dup3\n        /* \"#utility.yul\":2290:2294   */\n      0x20\n        /* \"#utility.yul\":2282:2288   */\n      dup7\n        /* \"#utility.yul\":2278:2295   */\n      add\n        /* \"#utility.yul\":2230:2309   */\n      tag_172\n      jump\t// in\n    tag_194:\n        /* \"#utility.yul\":2221:2309   */\n      swap2\n      pop\n        /* \"#utility.yul\":2037:2315   */\n      pop\n        /* \"#utility.yul\":1975:2315   */\n      swap3\n      swap2\n      pop\n      pop\n      jump\t// out\n        /* \"#utility.yul\":2321:2460   */\n    tag_195:\n        /* \"#utility.yul\":2367:2372   */\n      0x00\n        /* \"#utility.yul\":2405:2411   */\n      dup2\n        /* \"#utility.yul\":2392:2412   */\n      calldataload\n        /* \"#utility.yul\":2383:2412   */\n      swap1\n      pop\n        /* \"#utility.yul\":2421:2454   */\n      tag_197\n        /* \"#utility.yul\":2448:2453   */\n      dup2\n        /* \"#utility.yul\":2421:2454   */\n      tag_198\n      jump\t// in\n    tag_197:\n        /* \"#utility.yul\":2321:2460   */\n      swap3\n      swap2\n      pop\n      pop\n      jump\t// out\n        /* \"#utility.yul\":2466:2601   */\n    tag_199:\n        /* \"#utility.yul\":2510:2515   */\n      0x00\n        /* \"#utility.yul\":2548:2554   */\n      dup2\n        /* \"#utility.yul\":2535:2555   */\n      calldataload\n        /* \"#utility.yul\":2526:2555   */\n      swap1\n      pop\n        /* \"#utility.yul\":2564:2595   */\n      tag_201\n        /* \"#utility.yul\":2589:2594   */\n      dup2\n        /* \"#utility.yul\":2564:2595   */\n      tag_202\n      jump\t// in\n    tag_201:\n        /* \"#utility.yul\":2466:2601   */\n      swap3\n      swap2\n      pop\n      pop\n      jump\t// out\n        /* \"#utility.yul\":2607:2936   */\n    tag_10:\n        /* \"#utility.yul\":2666:2672   */\n      0x00\n        /* \"#utility.yul\":2715:2717   */\n      0x20\n        /* \"#utility.yul\":2703:2712   */\n      dup3\n        /* \"#utility.yul\":2694:2701   */\n      dup5\n        /* \"#utility.yul\":2690:2713   */\n      sub\n        /* \"#utility.yul\":2686:2718   */\n      slt\n        /* \"#utility.yul\":2683:2802   */\n      iszero\n      tag_204\n      jumpi\n        /* \"#utility.yul\":2721:2800   */\n      tag_205\n      tag_206\n      jump\t// in\n    tag_205:\n        /* \"#utility.yul\":2683:2802   */\n    tag_204:\n        /* \"#utility.yul\":2841:2842   */\n      0x00\n        /* \"#utility.yul\":2866:2919   */\n      tag_207\n        /* \"#utility.yul\":2911:2918   */\n      dup5\n        /* \"#utility.yul\":2902:2908   */\n      dup3\n        /* \"#utility.yul\":2891:2900   */\n      dup6\n        /* \"#utility.yul\":2887:2909   */\n      add\n        /* \"#utility.yul\":2866:2919   */\n      tag_182\n      jump\t// in\n    tag_207:\n        /* \"#utility.yul\":2856:2919   */\n      swap2\n      pop\n        /* \"#utility.yul\":2812:2929   */\n      pop\n        /* \"#utility.yul\":2607:2936   */\n      swap3\n      swap2\n      pop\n      pop\n      jump\t// out\n        /* \"#utility.yul\":2942:3646   */\n    tag_16:\n        /* \"#utility.yul\":3045:3051   */\n      0x00\n        /* \"#utility.yul\":3053:3059   */\n      dup1\n        /* \"#utility.yul\":3102:3104   */\n      0x40\n        /* \"#utility.yul\":3090:3099   */\n      dup4\n        /* \"#utility.yul\":3081:3088   */\n      dup6\n        /* \"#utility.yul\":3077:3100   */\n      sub\n        /* \"#utility.yul\":3073:3105   */\n      slt\n        /* \"#utility.yul\":3070:3189   */\n      iszero\n      tag_209\n      jumpi\n        /* \"#utility.yul\":3108:3187   */\n      tag_210\n      tag_206\n      jump\t// in\n    tag_210:\n        /* \"#utility.yul\":3070:3189   */\n    tag_209:\n        /* \"#utility.yul\":3256:3257   */\n      0x00\n        /* \"#utility.yul\":3245:3254   */\n      dup4\n        /* \"#utility.yul\":3241:3258   */\n      add\n        /* \"#utility.yul\":3228:3259   */\n      calldataload\n        /* \"#utility.yul\":3286:3304   */\n      0xffffffffffffffff\n        /* \"#utility.yul\":3278:3284   */\n      dup2\n        /* \"#utility.yul\":3275:3305   */\n      gt\n        /* \"#utility.yul\":3272:3389   */\n      iszero\n      tag_211\n      jumpi\n        /* \"#utility.yul\":3308:3387   */\n      tag_212\n      tag_213\n      jump\t// in\n    tag_212:\n        /* \"#utility.yul\":3272:3389   */\n    tag_211:\n        /* \"#utility.yul\":3413:3501   */\n      tag_214\n        /* \"#utility.yul\":3493:3500   */\n      dup6\n        /* \"#utility.yul\":3484:3490   */\n      dup3\n        /* \"#utility.yul\":3473:3482   */\n      dup7\n        /* \"#utility.yul\":3469:3491   */\n      add\n        /* \"#utility.yul\":3413:3501   */\n      tag_186\n      jump\t// in\n    tag_214:\n        /* \"#utility.yul\":3403:3501   */\n      swap3\n      pop\n        /* \"#utility.yul\":3199:3511   */\n      pop\n        /* \"#utility.yul\":3550:3552   */\n      0x20\n        /* \"#utility.yul\":3576:3629   */\n      tag_215\n        /* \"#utility.yul\":3621:3628   */\n      dup6\n        /* \"#utility.yul\":3612:3618   */\n      dup3\n        /* \"#utility.yul\":3601:3610   */\n      dup7\n        /* \"#utility.yul\":3597:3619   */\n      add\n        /* \"#utility.yul\":3576:3629   */\n      tag_195\n      jump\t// in\n    tag_215:\n        /* \"#utility.yul\":3566:3629   */\n      swap2\n      pop\n        /* \"#utility.yul\":3521:3639   */\n      pop\n        /* \"#utility.yul\":2942:3646   */\n      swap3\n      pop\n      swap3\n      swap1\n      pop\n      jump\t// out\n        /* \"#utility.yul\":3652:4161   */\n    tag_30:\n        /* \"#utility.yul\":3721:3727   */\n      0x00\n        /* \"#utility.yul\":3770:3772   */\n      0x20\n        /* \"#utility.yul\":3758:3767   */\n      dup3\n        /* \"#utility.yul\":3749:3756   */\n      dup5\n        /* \"#utility.yul\":3745:3768   */\n      sub\n        /* \"#utility.yul\":3741:3773   */\n      slt\n        /* \"#utility.yul\":3738:3857   */\n      iszero\n      tag_217\n      jumpi\n        /* \"#utility.yul\":3776:3855   */\n      tag_218\n      tag_206\n      jump\t// in\n    tag_218:\n        /* \"#utility.yul\":3738:3857   */\n    tag_217:\n        /* \"#utility.yul\":3924:3925   */\n      0x00\n        /* \"#utility.yul\":3913:3922   */\n      dup3\n        /* \"#utility.yul\":3909:3926   */\n      add\n        /* \"#utility.yul\":3896:3927   */\n      calldataload\n        /* \"#utility.yul\":3954:3972   */\n      0xffffffffffffffff\n        /* \"#utility.yul\":3946:3952   */\n      dup2\n        /* \"#utility.yul\":3943:3973   */\n      gt\n        /* \"#utility.yul\":3940:4057   */\n      iszero\n      tag_219\n      jumpi\n        /* \"#utility.yul\":3976:4055   */\n      tag_220\n      tag_213\n      jump\t// in\n    tag_220:\n        /* \"#utility.yul\":3940:4057   */\n    tag_219:\n        /* \"#utility.yul\":4081:4144   */\n      tag_221\n        /* \"#utility.yul\":4136:4143   */\n      dup5\n        /* \"#utility.yul\":4127:4133   */\n      dup3\n        /* \"#utility.yul\":4116:4125   */\n      dup6\n        /* \"#utility.yul\":4112:4134   */\n      add\n        /* \"#utility.yul\":4081:4144   */\n      tag_171\n      jump\t// in\n    tag_221:\n        /* \"#utility.yul\":4071:4144   */\n      swap2\n      pop\n        /* \"#utility.yul\":3867:4154   */\n      pop\n        /* \"#utility.yul\":3652:4161   */\n      swap3\n      swap2\n      pop\n      pop\n      jump\t// out\n        /* \"#utility.yul\":4167:4496   */\n    tag_20:\n        /* \"#utility.yul\":4226:4232   */\n      0x00\n        /* \"#utility.yul\":4275:4277   */\n      0x20\n        /* \"#utility.yul\":4263:4272   */\n      dup3\n        /* \"#utility.yul\":4254:4261   */\n      dup5\n        /* \"#utility.yul\":4250:4273   */\n      sub\n        /* \"#utility.yul\":4246:4278   */\n      slt\n        /* \"#utility.yul\":4243:4362   */\n      iszero\n      tag_223\n      jumpi\n        /* \"#utility.yul\":4281:4360   */\n      tag_224\n      tag_206\n      jump\t// in\n    tag_224:\n        /* \"#utility.yul\":4243:4362   */\n    tag_223:\n        /* \"#utility.yul\":4401:4402   */\n      0x00\n        /* \"#utility.yul\":4426:4479   */\n      tag_225\n        /* \"#utility.yul\":4471:4478   */\n      dup5\n        /* \"#utility.yul\":4462:4468   */\n      dup3\n        /* \"#utility.yul\":4451:4460   */\n      dup6\n        /* \"#utility.yul\":4447:4469   */\n      add\n        /* \"#utility.yul\":4426:4479   */\n      tag_195\n      jump\t// in\n    tag_225:\n        /* \"#utility.yul\":4416:4479   */\n      swap2\n      pop\n        /* \"#utility.yul\":4372:4489   */\n      pop\n        /* \"#utility.yul\":4167:4496   */\n      swap3\n      swap2\n      pop\n      pop\n      jump\t// out\n        /* \"#utility.yul\":4502:4968   */\n    tag_26:\n        /* \"#utility.yul\":4566:4572   */\n      0x00\n        /* \"#utility.yul\":4574:4580   */\n      dup1\n        /* \"#utility.yul\":4623:4625   */\n      0x40\n        /* \"#utility.yul\":4611:4620   */\n      dup4\n        /* \"#utility.yul\":4602:4609   */\n      dup6\n        /* \"#utility.yul\":4598:4621   */\n      sub\n        /* \"#utility.yul\":4594:4626   */\n      slt\n        /* \"#utility.yul\":4591:4710   */\n      iszero\n      tag_227\n      jumpi\n        /* \"#utility.yul\":4629:4708   */\n      tag_228\n      tag_206\n      jump\t// in\n    tag_228:\n        /* \"#utility.yul\":4591:4710   */\n    tag_227:\n        /* \"#utility.yul\":4749:4750   */\n      0x00\n        /* \"#utility.yul\":4774:4825   */\n      tag_229\n        /* \"#utility.yul\":4817:4824   */\n      dup6\n        /* \"#utility.yul\":4808:4814   */\n      dup3\n        /* \"#utility.yul\":4797:4806   */\n      dup7\n        /* \"#utility.yul\":4793:4815   */\n      add\n        /* \"#utility.yul\":4774:4825   */\n      tag_199\n      jump\t// in\n    tag_229:\n        /* \"#utility.yul\":4764:4825   */\n      swap3\n      pop\n        /* \"#utility.yul\":4720:4835   */\n      pop\n        /* \"#utility.yul\":4874:4876   */\n      0x20\n        /* \"#utility.yul\":4900:4951   */\n      tag_230\n        /* \"#utility.yul\":4943:4950   */\n      dup6\n        /* \"#utility.yul\":4934:4940   */\n      dup3\n        /* \"#utility.yul\":4923:4932   */\n      dup7\n        /* \"#utility.yul\":4919:4941   */\n      add\n        /* \"#utility.yul\":4900:4951   */\n      tag_199\n      jump\t// in\n    tag_230:\n        /* \"#utility.yul\":4890:4951   */\n      swap2\n      pop\n        /* \"#utility.yul\":4845:4961   */\n      pop\n        /* \"#utility.yul\":4502:4968   */\n      swap3\n      pop\n      swap3\n      swap1\n      pop\n      jump\t// out\n        /* \"#utility.yul\":4974:5092   */\n    tag_231:\n        /* \"#utility.yul\":5061:5085   */\n      tag_233\n        /* \"#utility.yul\":5079:5084   */\n      dup2\n        /* \"#utility.yul\":5061:5085   */\n      tag_234\n      jump\t// in\n    tag_233:\n        /* \"#utility.yul\":5056:5059   */\n      dup3\n        /* \"#utility.yul\":5049:5086   */\n      mstore\n        /* \"#utility.yul\":4974:5092   */\n      pop\n      pop\n      jump\t// out\n        /* \"#utility.yul\":5098:5207   */\n    tag_235:\n        /* \"#utility.yul\":5179:5200   */\n      tag_237\n        /* \"#utility.yul\":5194:5199   */\n      dup2\n        /* \"#utility.yul\":5179:5200   */\n      tag_238\n      jump\t// in\n    tag_237:\n        /* \"#utility.yul\":5174:5177   */\n      dup3\n        /* \"#utility.yul\":5167:5201   */\n      mstore\n        /* \"#utility.yul\":5098:5207   */\n      pop\n      pop\n      jump\t// out\n        /* \"#utility.yul\":5213:5577   */\n    tag_239:\n        /* \"#utility.yul\":5301:5304   */\n      0x00\n        /* \"#utility.yul\":5329:5368   */\n      tag_241\n        /* \"#utility.yul\":5362:5367   */\n      dup3\n        /* \"#utility.yul\":5329:5368   */\n      tag_242\n      jump\t// in\n    tag_241:\n        /* \"#utility.yul\":5384:5455   */\n      tag_243\n        /* \"#utility.yul\":5448:5454   */\n      dup2\n        /* \"#utility.yul\":5443:5446   */\n      dup6\n        /* \"#utility.yul\":5384:5455   */\n      tag_244\n      jump\t// in\n    tag_243:\n        /* \"#utility.yul\":5377:5455   */\n      swap4\n      pop\n        /* \"#utility.yul\":5464:5516   */\n      tag_245\n        /* \"#utility.yul\":5509:5515   */\n      dup2\n        /* \"#utility.yul\":5504:5507   */\n      dup6\n        /* \"#utility.yul\":5497:5501   */\n      0x20\n        /* \"#utility.yul\":5490:5495   */\n      dup7\n        /* \"#utility.yul\":5486:5502   */\n      add\n        /* \"#utility.yul\":5464:5516   */\n      tag_246\n      jump\t// in\n    tag_245:\n        /* \"#utility.yul\":5541:5570   */\n      tag_247\n        /* \"#utility.yul\":5563:5569   */\n      dup2\n        /* \"#utility.yul\":5541:5570   */\n      tag_248\n      jump\t// in\n    tag_247:\n        /* \"#utility.yul\":5536:5539   */\n      dup5\n        /* \"#utility.yul\":5532:5571   */\n      add\n        /* \"#utility.yul\":5525:5571   */\n      swap2\n      pop\n        /* \"#utility.yul\":5305:5577   */\n      pop\n        /* \"#utility.yul\":5213:5577   */\n      swap3\n      swap2\n      pop\n      pop\n      jump\t// out\n        /* \"#utility.yul\":5607:6452   */\n    tag_249:\n        /* \"#utility.yul\":5710:5713   */\n      0x00\n        /* \"#utility.yul\":5747:5752   */\n      dup2\n        /* \"#utility.yul\":5741:5753   */\n      sload\n        /* \"#utility.yul\":5776:5812   */\n      tag_251\n        /* \"#utility.yul\":5802:5811   */\n      dup2\n        /* \"#utility.yul\":5776:5812   */\n      tag_33\n      jump\t// in\n    tag_251:\n        /* \"#utility.yul\":5828:5917   */\n      tag_252\n        /* \"#utility.yul\":5910:5916   */\n      dup2\n        /* \"#utility.yul\":5905:5908   */\n      dup7\n        /* \"#utility.yul\":5828:5917   */\n      tag_253\n      jump\t// in\n    tag_252:\n        /* \"#utility.yul\":5821:5917   */\n      swap5\n      pop\n        /* \"#utility.yul\":5948:5949   */\n      0x01\n        /* \"#utility.yul\":5937:5946   */\n      dup3\n        /* \"#utility.yul\":5933:5950   */\n      and\n        /* \"#utility.yul\":5964:5965   */\n      0x00\n        /* \"#utility.yul\":5959:6096   */\n      dup2\n      eq\n      tag_255\n      jumpi\n        /* \"#utility.yul\":6110:6111   */\n      0x01\n        /* \"#utility.yul\":6105:6446   */\n      dup2\n      eq\n      tag_256\n      jumpi\n        /* \"#utility.yul\":5926:6446   */\n      jump(tag_254)\n        /* \"#utility.yul\":5959:6096   */\n    tag_255:\n        /* \"#utility.yul\":6043:6047   */\n      0xff\n        /* \"#utility.yul\":6039:6048   */\n      not\n        /* \"#utility.yul\":6028:6037   */\n      dup4\n        /* \"#utility.yul\":6024:6049   */\n      and\n        /* \"#utility.yul\":6019:6022   */\n      dup7\n        /* \"#utility.yul\":6012:6050   */\n      mstore\n        /* \"#utility.yul\":6079:6085   */\n      dup2\n        /* \"#utility.yul\":6074:6077   */\n      dup7\n        /* \"#utility.yul\":6070:6086   */\n      add\n        /* \"#utility.yul\":6063:6086   */\n      swap4\n      pop\n        /* \"#utility.yul\":5959:6096   */\n      jump(tag_254)\n        /* \"#utility.yul\":6105:6446   */\n    tag_256:\n        /* \"#utility.yul\":6172:6210   */\n      tag_257\n        /* \"#utility.yul\":6204:6209   */\n      dup6\n        /* \"#utility.yul\":6172:6210   */\n      tag_258\n      jump\t// in\n    tag_257:\n        /* \"#utility.yul\":6232:6233   */\n      0x00\n        /* \"#utility.yul\":6246:6400   */\n    tag_259:\n        /* \"#utility.yul\":6260:6266   */\n      dup4\n        /* \"#utility.yul\":6257:6258   */\n      dup2\n        /* \"#utility.yul\":6254:6267   */\n      lt\n        /* \"#utility.yul\":6246:6400   */\n      iszero\n      tag_261\n      jumpi\n        /* \"#utility.yul\":6334:6341   */\n      dup2\n        /* \"#utility.yul\":6328:6342   */\n      sload\n        /* \"#utility.yul\":6324:6325   */\n      dup2\n        /* \"#utility.yul\":6319:6322   */\n      dup10\n        /* \"#utility.yul\":6315:6326   */\n      add\n        /* \"#utility.yul\":6308:6343   */\n      mstore\n        /* \"#utility.yul\":6384:6385   */\n      0x01\n        /* \"#utility.yul\":6375:6382   */\n      dup3\n        /* \"#utility.yul\":6371:6386   */\n      add\n        /* \"#utility.yul\":6360:6386   */\n      swap2\n      pop\n        /* \"#utility.yul\":6282:6286   */\n      0x20\n        /* \"#utility.yul\":6279:6280   */\n      dup2\n        /* \"#utility.yul\":6275:6287   */\n      add\n        /* \"#utility.yul\":6270:6287   */\n      swap1\n      pop\n        /* \"#utility.yul\":6246:6400   */\n      jump(tag_259)\n    tag_261:\n        /* \"#utility.yul\":6429:6435   */\n      dup4\n        /* \"#utility.yul\":6424:6427   */\n      dup9\n        /* \"#utility.yul\":6420:6436   */\n      add\n        /* \"#utility.yul\":6413:6436   */\n      swap6\n      pop\n        /* \"#utility.yul\":6112:6446   */\n      pop\n      pop\n        /* \"#utility.yul\":5926:6446   */\n    tag_254:\n      pop\n        /* \"#utility.yul\":5714:6452   */\n      pop\n      pop\n        /* \"#utility.yul\":5607:6452   */\n      swap3\n      swap2\n      pop\n      pop\n      jump\t// out\n        /* \"#utility.yul\":6458:6824   */\n    tag_262:\n        /* \"#utility.yul\":6600:6603   */\n      0x00\n        /* \"#utility.yul\":6621:6688   */\n      tag_264\n        /* \"#utility.yul\":6685:6687   */\n      0x0f\n        /* \"#utility.yul\":6680:6683   */\n      dup4\n        /* \"#utility.yul\":6621:6688   */\n      tag_244\n      jump\t// in\n    tag_264:\n        /* \"#utility.yul\":6614:6688   */\n      swap2\n      pop\n        /* \"#utility.yul\":6697:6790   */\n      tag_265\n        /* \"#utility.yul\":6786:6789   */\n      dup3\n        /* \"#utility.yul\":6697:6790   */\n      tag_266\n      jump\t// in\n    tag_265:\n        /* \"#utility.yul\":6815:6817   */\n      0x20\n        /* \"#utility.yul\":6810:6813   */\n      dup3\n        /* \"#utility.yul\":6806:6818   */\n      add\n        /* \"#utility.yul\":6799:6818   */\n      swap1\n      pop\n        /* \"#utility.yul\":6458:6824   */\n      swap2\n      swap1\n      pop\n      jump\t// out\n        /* \"#utility.yul\":6830:7196   */\n    tag_267:\n        /* \"#utility.yul\":6972:6975   */\n      0x00\n        /* \"#utility.yul\":6993:7060   */\n      tag_269\n        /* \"#utility.yul\":7057:7059   */\n      0x16\n        /* \"#utility.yul\":7052:7055   */\n      dup4\n        /* \"#utility.yul\":6993:7060   */\n      tag_244\n      jump\t// in\n    tag_269:\n        /* \"#utility.yul\":6986:7060   */\n      swap2\n      pop\n        /* \"#utility.yul\":7069:7162   */\n      tag_270\n        /* \"#utility.yul\":7158:7161   */\n      dup3\n        /* \"#utility.yul\":7069:7162   */\n      tag_271\n      jump\t// in\n    tag_270:\n        /* \"#utility.yul\":7187:7189   */\n      0x20\n        /* \"#utility.yul\":7182:7185   */\n      dup3\n        /* \"#utility.yul\":7178:7190   */\n      add\n        /* \"#utility.yul\":7171:7190   */\n      swap1\n      pop\n        /* \"#utility.yul\":6830:7196   */\n      swap2\n      swap1\n      pop\n      jump\t// out\n        /* \"#utility.yul\":7202:7568   */\n    tag_272:\n        /* \"#utility.yul\":7344:7347   */\n      0x00\n        /* \"#utility.yul\":7365:7432   */\n      tag_274\n        /* \"#utility.yul\":7429:7431   */\n      0x12\n        /* \"#utility.yul\":7424:7427   */\n      dup4\n        /* \"#utility.yul\":7365:7432   */\n      tag_244\n      jump\t// in\n    tag_274:\n        /* \"#utility.yul\":7358:7432   */\n      swap2\n      pop\n        /* \"#utility.yul\":7441:7534   */\n      tag_275\n        /* \"#utility.yul\":7530:7533   */\n      dup3\n        /* \"#utility.yul\":7441:7534   */\n      tag_276\n      jump\t// in\n    tag_275:\n        /* \"#utility.yul\":7559:7561   */\n      0x20\n        /* \"#utility.yul\":7554:7557   */\n      dup3\n        /* \"#utility.yul\":7550:7562   */\n      add\n        /* \"#utility.yul\":7543:7562   */\n      swap1\n      pop\n        /* \"#utility.yul\":7202:7568   */\n      swap2\n      swap1\n      pop\n      jump\t// out\n        /* \"#utility.yul\":7574:7974   */\n    tag_277:\n        /* \"#utility.yul\":7734:7737   */\n      0x00\n        /* \"#utility.yul\":7755:7839   */\n      tag_279\n        /* \"#utility.yul\":7837:7838   */\n      0x00\n        /* \"#utility.yul\":7832:7835   */\n      dup4\n        /* \"#utility.yul\":7755:7839   */\n      tag_253\n      jump\t// in\n    tag_279:\n        /* \"#utility.yul\":7748:7839   */\n      swap2\n      pop\n        /* \"#utility.yul\":7848:7941   */\n      tag_280\n        /* \"#utility.yul\":7937:7940   */\n      dup3\n        /* \"#utility.yul\":7848:7941   */\n      tag_281\n      jump\t// in\n    tag_280:\n        /* \"#utility.yul\":7966:7967   */\n      0x00\n        /* \"#utility.yul\":7961:7964   */\n      dup3\n        /* \"#utility.yul\":7957:7968   */\n      add\n        /* \"#utility.yul\":7950:7968   */\n      swap1\n      pop\n        /* \"#utility.yul\":7574:7974   */\n      swap2\n      swap1\n      pop\n      jump\t// out\n        /* \"#utility.yul\":7980:8346   */\n    tag_282:\n        /* \"#utility.yul\":8122:8125   */\n      0x00\n        /* \"#utility.yul\":8143:8210   */\n      tag_284\n        /* \"#utility.yul\":8207:8209   */\n      0x14\n        /* \"#utility.yul\":8202:8205   */\n      dup4\n        /* \"#utility.yul\":8143:8210   */\n      tag_244\n      jump\t// in\n    tag_284:\n        /* \"#utility.yul\":8136:8210   */\n      swap2\n      pop\n        /* \"#utility.yul\":8219:8312   */\n      tag_285\n        /* \"#utility.yul\":8308:8311   */\n      dup3\n        /* \"#utility.yul\":8219:8312   */\n      tag_286\n      jump\t// in\n    tag_285:\n        /* \"#utility.yul\":8337:8339   */\n      0x20\n        /* \"#utility.yul\":8332:8335   */\n      dup3\n        /* \"#utility.yul\":8328:8340   */\n      add\n        /* \"#utility.yul\":8321:8340   */\n      swap1\n      pop\n        /* \"#utility.yul\":7980:8346   */\n      swap2\n      swap1\n      pop\n      jump\t// out\n        /* \"#utility.yul\":8352:8718   */\n    tag_287:\n        /* \"#utility.yul\":8494:8497   */\n      0x00\n        /* \"#utility.yul\":8515:8582   */\n      tag_289\n        /* \"#utility.yul\":8579:8581   */\n      0x16\n        /* \"#utility.yul\":8574:8577   */\n      dup4\n        /* \"#utility.yul\":8515:8582   */\n      tag_244\n      jump\t// in\n    tag_289:\n        /* \"#utility.yul\":8508:8582   */\n      swap2\n      pop\n        /* \"#utility.yul\":8591:8684   */\n      tag_290\n        /* \"#utility.yul\":8680:8683   */\n      dup3\n        /* \"#utility.yul\":8591:8684   */\n      tag_291\n      jump\t// in\n    tag_290:\n        /* \"#utility.yul\":8709:8711   */\n      0x20\n        /* \"#utility.yul\":8704:8707   */\n      dup3\n        /* \"#utility.yul\":8700:8712   */\n      add\n        /* \"#utility.yul\":8693:8712   */\n      swap1\n      pop\n        /* \"#utility.yul\":8352:8718   */\n      swap2\n      swap1\n      pop\n      jump\t// out\n        /* \"#utility.yul\":8724:8842   */\n    tag_292:\n        /* \"#utility.yul\":8811:8835   */\n      tag_294\n        /* \"#utility.yul\":8829:8834   */\n      dup2\n        /* \"#utility.yul\":8811:8835   */\n      tag_295\n      jump\t// in\n    tag_294:\n        /* \"#utility.yul\":8806:8809   */\n      dup3\n        /* \"#utility.yul\":8799:8836   */\n      mstore\n        /* \"#utility.yul\":8724:8842   */\n      pop\n      pop\n      jump\t// out\n        /* \"#utility.yul\":8848:8960   */\n    tag_296:\n        /* \"#utility.yul\":8931:8953   */\n      tag_298\n        /* \"#utility.yul\":8947:8952   */\n      dup2\n        /* \"#utility.yul\":8931:8953   */\n      tag_299\n      jump\t// in\n    tag_298:\n        /* \"#utility.yul\":8926:8929   */\n      dup3\n        /* \"#utility.yul\":8919:8954   */\n      mstore\n        /* \"#utility.yul\":8848:8960   */\n      pop\n      pop\n      jump\t// out\n        /* \"#utility.yul\":8966:9235   */\n    tag_81:\n        /* \"#utility.yul\":9095:9098   */\n      0x00\n        /* \"#utility.yul\":9117:9209   */\n      tag_301\n        /* \"#utility.yul\":9205:9208   */\n      dup3\n        /* \"#utility.yul\":9196:9202   */\n      dup5\n        /* \"#utility.yul\":9117:9209   */\n      tag_249\n      jump\t// in\n    tag_301:\n        /* \"#utility.yul\":9110:9209   */\n      swap2\n      pop\n        /* \"#utility.yul\":9226:9229   */\n      dup2\n        /* \"#utility.yul\":9219:9229   */\n      swap1\n      pop\n        /* \"#utility.yul\":8966:9235   */\n      swap3\n      swap2\n      pop\n      pop\n      jump\t// out\n        /* \"#utility.yul\":9241:9622   */\n    tag_79:\n        /* \"#utility.yul\":9426:9429   */\n      0x00\n        /* \"#utility.yul\":9448:9596   */\n      tag_303\n        /* \"#utility.yul\":9592:9595   */\n      dup3\n        /* \"#utility.yul\":9448:9596   */\n      tag_277\n      jump\t// in\n    tag_303:\n        /* \"#utility.yul\":9441:9596   */\n      swap2\n      pop\n        /* \"#utility.yul\":9613:9616   */\n      dup2\n        /* \"#utility.yul\":9606:9616   */\n      swap1\n      pop\n        /* \"#utility.yul\":9241:9622   */\n      swap2\n      swap1\n      pop\n      jump\t// out\n        /* \"#utility.yul\":9628:10276   */\n    tag_23:\n        /* \"#utility.yul\":9825:9829   */\n      0x00\n        /* \"#utility.yul\":9863:9866   */\n      0xa0\n        /* \"#utility.yul\":9852:9861   */\n      dup3\n        /* \"#utility.yul\":9848:9867   */\n      add\n        /* \"#utility.yul\":9840:9867   */\n      swap1\n      pop\n        /* \"#utility.yul\":9877:9948   */\n      tag_305\n        /* \"#utility.yul\":9945:9946   */\n      0x00\n        /* \"#utility.yul\":9934:9943   */\n      dup4\n        /* \"#utility.yul\":9930:9947   */\n      add\n        /* \"#utility.yul\":9921:9927   */\n      dup9\n        /* \"#utility.yul\":9877:9948   */\n      tag_231\n      jump\t// in\n    tag_305:\n        /* \"#utility.yul\":9958:10026   */\n      tag_306\n        /* \"#utility.yul\":10022:10024   */\n      0x20\n        /* \"#utility.yul\":10011:10020   */\n      dup4\n        /* \"#utility.yul\":10007:10025   */\n      add\n        /* \"#utility.yul\":9998:10004   */\n      dup8\n        /* \"#utility.yul\":9958:10026   */\n      tag_296\n      jump\t// in\n    tag_306:\n        /* \"#utility.yul\":10036:10104   */\n      tag_307\n        /* \"#utility.yul\":10100:10102   */\n      0x40\n        /* \"#utility.yul\":10089:10098   */\n      dup4\n        /* \"#utility.yul\":10085:10103   */\n      add\n        /* \"#utility.yul\":10076:10082   */\n      dup7\n        /* \"#utility.yul\":10036:10104   */\n      tag_296\n      jump\t// in\n    tag_307:\n        /* \"#utility.yul\":10114:10186   */\n      tag_308\n        /* \"#utility.yul\":10182:10184   */\n      0x60\n        /* \"#utility.yul\":10171:10180   */\n      dup4\n        /* \"#utility.yul\":10167:10185   */\n      add\n        /* \"#utility.yul\":10158:10164   */\n      dup6\n        /* \"#utility.yul\":10114:10186   */\n      tag_292\n      jump\t// in\n    tag_308:\n        /* \"#utility.yul\":10196:10269   */\n      tag_309\n        /* \"#utility.yul\":10264:10267   */\n      0x80\n        /* \"#utility.yul\":10253:10262   */\n      dup4\n        /* \"#utility.yul\":10249:10268   */\n      add\n        /* \"#utility.yul\":10240:10246   */\n      dup5\n        /* \"#utility.yul\":10196:10269   */\n      tag_292\n      jump\t// in\n    tag_309:\n        /* \"#utility.yul\":9628:10276   */\n      swap7\n      swap6\n      pop\n      pop\n      pop\n      pop\n      pop\n      pop\n      jump\t// out\n        /* \"#utility.yul\":10282:10803   */\n    tag_13:\n        /* \"#utility.yul\":10445:10449   */\n      0x00\n        /* \"#utility.yul\":10483:10485   */\n      0x60\n        /* \"#utility.yul\":10472:10481   */\n      dup3\n        /* \"#utility.yul\":10468:10486   */\n      add\n        /* \"#utility.yul\":10460:10486   */\n      swap1\n      pop\n        /* \"#utility.yul\":10532:10541   */\n      dup2\n        /* \"#utility.yul\":10526:10530   */\n      dup2\n        /* \"#utility.yul\":10522:10542   */\n      sub\n        /* \"#utility.yul\":10518:10519   */\n      0x00\n        /* \"#utility.yul\":10507:10516   */\n      dup4\n        /* \"#utility.yul\":10503:10520   */\n      add\n        /* \"#utility.yul\":10496:10543   */\n      mstore\n        /* \"#utility.yul\":10560:10638   */\n      tag_311\n        /* \"#utility.yul\":10633:10637   */\n      dup2\n        /* \"#utility.yul\":10624:10630   */\n      dup7\n        /* \"#utility.yul\":10560:10638   */\n      tag_239\n      jump\t// in\n    tag_311:\n        /* \"#utility.yul\":10552:10638   */\n      swap1\n      pop\n        /* \"#utility.yul\":10648:10720   */\n      tag_312\n        /* \"#utility.yul\":10716:10718   */\n      0x20\n        /* \"#utility.yul\":10705:10714   */\n      dup4\n        /* \"#utility.yul\":10701:10719   */\n      add\n        /* \"#utility.yul\":10692:10698   */\n      dup6\n        /* \"#utility.yul\":10648:10720   */\n      tag_231\n      jump\t// in\n    tag_312:\n        /* \"#utility.yul\":10730:10796   */\n      tag_313\n        /* \"#utility.yul\":10792:10794   */\n      0x40\n        /* \"#utility.yul\":10781:10790   */\n      dup4\n        /* \"#utility.yul\":10777:10795   */\n      add\n        /* \"#utility.yul\":10768:10774   */\n      dup5\n        /* \"#utility.yul\":10730:10796   */\n      tag_235\n      jump\t// in\n    tag_313:\n        /* \"#utility.yul\":10282:10803   */\n      swap5\n      swap4\n      pop\n      pop\n      pop\n      pop\n      jump\t// out\n        /* \"#utility.yul\":10809:11228   */\n    tag_84:\n        /* \"#utility.yul\":10975:10979   */\n      0x00\n        /* \"#utility.yul\":11013:11015   */\n      0x20\n        /* \"#utility.yul\":11002:11011   */\n      dup3\n        /* \"#utility.yul\":10998:11016   */\n      add\n        /* \"#utility.yul\":10990:11016   */\n      swap1\n      pop\n        /* \"#utility.yul\":11062:11071   */\n      dup2\n        /* \"#utility.yul\":11056:11060   */\n      dup2\n        /* \"#utility.yul\":11052:11072   */\n      sub\n        /* \"#utility.yul\":11048:11049   */\n      0x00\n        /* \"#utility.yul\":11037:11046   */\n      dup4\n        /* \"#utility.yul\":11033:11050   */\n      add\n        /* \"#utility.yul\":11026:11073   */\n      mstore\n        /* \"#utility.yul\":11090:11221   */\n      tag_315\n        /* \"#utility.yul\":11216:11220   */\n      dup2\n        /* \"#utility.yul\":11090:11221   */\n      tag_262\n      jump\t// in\n    tag_315:\n        /* \"#utility.yul\":11082:11221   */\n      swap1\n      pop\n        /* \"#utility.yul\":10809:11228   */\n      swap2\n      swap1\n      pop\n      jump\t// out\n        /* \"#utility.yul\":11234:11653   */\n    tag_71:\n        /* \"#utility.yul\":11400:11404   */\n      0x00\n        /* \"#utility.yul\":11438:11440   */\n      0x20\n        /* \"#utility.yul\":11427:11436   */\n      dup3\n        /* \"#utility.yul\":11423:11441   */\n      add\n        /* \"#utility.yul\":11415:11441   */\n      swap1\n      pop\n        /* \"#utility.yul\":11487:11496   */\n      dup2\n        /* \"#utility.yul\":11481:11485   */\n      dup2\n        /* \"#utility.yul\":11477:11497   */\n      sub\n        /* \"#utility.yul\":11473:11474   */\n      0x00\n        /* \"#utility.yul\":11462:11471   */\n      dup4\n        /* \"#utility.yul\":11458:11475   */\n      add\n        /* \"#utility.yul\":11451:11498   */\n      mstore\n        /* \"#utility.yul\":11515:11646   */\n      tag_317\n        /* \"#utility.yul\":11641:11645   */\n      dup2\n        /* \"#utility.yul\":11515:11646   */\n      tag_267\n      jump\t// in\n    tag_317:\n        /* \"#utility.yul\":11507:11646   */\n      swap1\n      pop\n        /* \"#utility.yul\":11234:11653   */\n      swap2\n      swap1\n      pop\n      jump\t// out\n        /* \"#utility.yul\":11659:12078   */\n    tag_104:\n        /* \"#utility.yul\":11825:11829   */\n      0x00\n        /* \"#utility.yul\":11863:11865   */\n      0x20\n        /* \"#utility.yul\":11852:11861   */\n      dup3\n        /* \"#utility.yul\":11848:11866   */\n      add\n        /* \"#utility.yul\":11840:11866   */\n      swap1\n      pop\n        /* \"#utility.yul\":11912:11921   */\n      dup2\n        /* \"#utility.yul\":11906:11910   */\n      dup2\n        /* \"#utility.yul\":11902:11922   */\n      sub\n        /* \"#utility.yul\":11898:11899   */\n      0x00\n        /* \"#utility.yul\":11887:11896   */\n      dup4\n        /* \"#utility.yul\":11883:11900   */\n      add\n        /* \"#utility.yul\":11876:11923   */\n      mstore\n        /* \"#utility.yul\":11940:12071   */\n      tag_319\n        /* \"#utility.yul\":12066:12070   */\n      dup2\n        /* \"#utility.yul\":11940:12071   */\n      tag_272\n      jump\t// in\n    tag_319:\n        /* \"#utility.yul\":11932:12071   */\n      swap1\n      pop\n        /* \"#utility.yul\":11659:12078   */\n      swap2\n      swap1\n      pop\n      jump\t// out\n        /* \"#utility.yul\":12084:12503   */\n    tag_77:\n        /* \"#utility.yul\":12250:12254   */\n      0x00\n        /* \"#utility.yul\":12288:12290   */\n      0x20\n        /* \"#utility.yul\":12277:12286   */\n      dup3\n        /* \"#utility.yul\":12273:12291   */\n      add\n        /* \"#utility.yul\":12265:12291   */\n      swap1\n      pop\n        /* \"#utility.yul\":12337:12346   */\n      dup2\n        /* \"#utility.yul\":12331:12335   */\n      dup2\n        /* \"#utility.yul\":12327:12347   */\n      sub\n        /* \"#utility.yul\":12323:12324   */\n      0x00\n        /* \"#utility.yul\":12312:12321   */\n      dup4\n        /* \"#utility.yul\":12308:12325   */\n      add\n        /* \"#utility.yul\":12301:12348   */\n      mstore\n        /* \"#utility.yul\":12365:12496   */\n      tag_321\n        /* \"#utility.yul\":12491:12495   */\n      dup2\n        /* \"#utility.yul\":12365:12496   */\n      tag_282\n      jump\t// in\n    tag_321:\n        /* \"#utility.yul\":12357:12496   */\n      swap1\n      pop\n        /* \"#utility.yul\":12084:12503   */\n      swap2\n      swap1\n      pop\n      jump\t// out\n        /* \"#utility.yul\":12509:12928   */\n    tag_87:\n        /* \"#utility.yul\":12675:12679   */\n      0x00\n        /* \"#utility.yul\":12713:12715   */\n      0x20\n        /* \"#utility.yul\":12702:12711   */\n      dup3\n        /* \"#utility.yul\":12698:12716   */\n      add\n        /* \"#utility.yul\":12690:12716   */\n      swap1\n      pop\n        /* \"#utility.yul\":12762:12771   */\n      dup2\n        /* \"#utility.yul\":12756:12760   */\n      dup2\n        /* \"#utility.yul\":12752:12772   */\n      sub\n        /* \"#utility.yul\":12748:12749   */\n      0x00\n        /* \"#utility.yul\":12737:12746   */\n      dup4\n        /* \"#utility.yul\":12733:12750   */\n      add\n        /* \"#utility.yul\":12726:12773   */\n      mstore\n        /* \"#utility.yul\":12790:12921   */\n      tag_323\n        /* \"#utility.yul\":12916:12920   */\n      dup2\n        /* \"#utility.yul\":12790:12921   */\n      tag_287\n      jump\t// in\n    tag_323:\n        /* \"#utility.yul\":12782:12921   */\n      swap1\n      pop\n        /* \"#utility.yul\":12509:12928   */\n      swap2\n      swap1\n      pop\n      jump\t// out\n        /* \"#utility.yul\":12934:13063   */\n    tag_160:\n        /* \"#utility.yul\":12968:12974   */\n      0x00\n        /* \"#utility.yul\":12995:13015   */\n      tag_325\n      tag_326\n      jump\t// in\n    tag_325:\n        /* \"#utility.yul\":12985:13015   */\n      swap1\n      pop\n        /* \"#utility.yul\":13024:13057   */\n      tag_327\n        /* \"#utility.yul\":13052:13056   */\n      dup3\n        /* \"#utility.yul\":13044:13050   */\n      dup3\n        /* \"#utility.yul\":13024:13057   */\n      tag_328\n      jump\t// in\n    tag_327:\n        /* \"#utility.yul\":12934:13063   */\n      swap2\n      swap1\n      pop\n      jump\t// out\n        /* \"#utility.yul\":13069:13144   */\n    tag_326:\n        /* \"#utility.yul\":13102:13108   */\n      0x00\n        /* \"#utility.yul\":13135:13137   */\n      0x40\n        /* \"#utility.yul\":13129:13138   */\n      mload\n        /* \"#utility.yul\":13119:13138   */\n      swap1\n      pop\n        /* \"#utility.yul\":13069:13144   */\n      swap1\n      jump\t// out\n        /* \"#utility.yul\":13150:13471   */\n    tag_159:\n        /* \"#utility.yul\":13237:13241   */\n      0x00\n        /* \"#utility.yul\":13327:13345   */\n      0xffffffffffffffff\n        /* \"#utility.yul\":13319:13325   */\n      dup3\n        /* \"#utility.yul\":13316:13346   */\n      gt\n        /* \"#utility.yul\":13313:13369   */\n      iszero\n      tag_331\n      jumpi\n        /* \"#utility.yul\":13349:13367   */\n      tag_332\n      tag_333\n      jump\t// in\n    tag_332:\n        /* \"#utility.yul\":13313:13369   */\n    tag_331:\n        /* \"#utility.yul\":13399:13403   */\n      0x20\n        /* \"#utility.yul\":13391:13397   */\n      dup3\n        /* \"#utility.yul\":13387:13404   */\n      mul\n        /* \"#utility.yul\":13379:13404   */\n      swap1\n      pop\n        /* \"#utility.yul\":13459:13463   */\n      0x20\n        /* \"#utility.yul\":13453:13457   */\n      dup2\n        /* \"#utility.yul\":13449:13464   */\n      add\n        /* \"#utility.yul\":13441:13464   */\n      swap1\n      pop\n        /* \"#utility.yul\":13150:13471   */\n      swap2\n      swap1\n      pop\n      jump\t// out\n        /* \"#utility.yul\":13477:13785   */\n    tag_176:\n        /* \"#utility.yul\":13539:13543   */\n      0x00\n        /* \"#utility.yul\":13629:13647   */\n      0xffffffffffffffff\n        /* \"#utility.yul\":13621:13627   */\n      dup3\n        /* \"#utility.yul\":13618:13648   */\n      gt\n        /* \"#utility.yul\":13615:13671   */\n      iszero\n      tag_335\n      jumpi\n        /* \"#utility.yul\":13651:13669   */\n      tag_336\n      tag_333\n      jump\t// in\n    tag_336:\n        /* \"#utility.yul\":13615:13671   */\n    tag_335:\n        /* \"#utility.yul\":13689:13718   */\n      tag_337\n        /* \"#utility.yul\":13711:13717   */\n      dup3\n        /* \"#utility.yul\":13689:13718   */\n      tag_248\n      jump\t// in\n    tag_337:\n        /* \"#utility.yul\":13681:13718   */\n      swap1\n      pop\n        /* \"#utility.yul\":13773:13777   */\n      0x20\n        /* \"#utility.yul\":13767:13771   */\n      dup2\n        /* \"#utility.yul\":13763:13778   */\n      add\n        /* \"#utility.yul\":13755:13778   */\n      swap1\n      pop\n        /* \"#utility.yul\":13477:13785   */\n      swap2\n      swap1\n      pop\n      jump\t// out\n        /* \"#utility.yul\":13791:13932   */\n    tag_258:\n        /* \"#utility.yul\":13840:13844   */\n      0x00\n        /* \"#utility.yul\":13863:13866   */\n      dup2\n        /* \"#utility.yul\":13855:13866   */\n      swap1\n      pop\n        /* \"#utility.yul\":13886:13889   */\n      dup2\n        /* \"#utility.yul\":13883:13884   */\n      0x00\n        /* \"#utility.yul\":13876:13890   */\n      mstore\n        /* \"#utility.yul\":13920:13924   */\n      0x20\n        /* \"#utility.yul\":13917:13918   */\n      0x00\n        /* \"#utility.yul\":13907:13925   */\n      keccak256\n        /* \"#utility.yul\":13899:13925   */\n      swap1\n      pop\n        /* \"#utility.yul\":13791:13932   */\n      swap2\n      swap1\n      pop\n      jump\t// out\n        /* \"#utility.yul\":13938:14037   */\n    tag_242:\n        /* \"#utility.yul\":13990:13996   */\n      0x00\n        /* \"#utility.yul\":14024:14029   */\n      dup2\n        /* \"#utility.yul\":14018:14030   */\n      mload\n        /* \"#utility.yul\":14008:14030   */\n      swap1\n      pop\n        /* \"#utility.yul\":13938:14037   */\n      swap2\n      swap1\n      pop\n      jump\t// out\n        /* \"#utility.yul\":14043:14212   */\n    tag_244:\n        /* \"#utility.yul\":14127:14138   */\n      0x00\n        /* \"#utility.yul\":14161:14167   */\n      dup3\n        /* \"#utility.yul\":14156:14159   */\n      dup3\n        /* \"#utility.yul\":14149:14168   */\n      mstore\n        /* \"#utility.yul\":14201:14205   */\n      0x20\n        /* \"#utility.yul\":14196:14199   */\n      dup3\n        /* \"#utility.yul\":14192:14206   */\n      add\n        /* \"#utility.yul\":14177:14206   */\n      swap1\n      pop\n        /* \"#utility.yul\":14043:14212   */\n      swap3\n      swap2\n      pop\n      pop\n      jump\t// out\n        /* \"#utility.yul\":14218:14366   */\n    tag_253:\n        /* \"#utility.yul\":14320:14331   */\n      0x00\n        /* \"#utility.yul\":14357:14360   */\n      dup2\n        /* \"#utility.yul\":14342:14360   */\n      swap1\n      pop\n        /* \"#utility.yul\":14218:14366   */\n      swap3\n      swap2\n      pop\n      pop\n      jump\t// out\n        /* \"#utility.yul\":14372:14677   */\n    tag_44:\n        /* \"#utility.yul\":14412:14415   */\n      0x00\n        /* \"#utility.yul\":14431:14451   */\n      tag_343\n        /* \"#utility.yul\":14449:14450   */\n      dup3\n        /* \"#utility.yul\":14431:14451   */\n      tag_295\n      jump\t// in\n    tag_343:\n        /* \"#utility.yul\":14426:14451   */\n      swap2\n      pop\n        /* \"#utility.yul\":14465:14485   */\n      tag_344\n        /* \"#utility.yul\":14483:14484   */\n      dup4\n        /* \"#utility.yul\":14465:14485   */\n      tag_295\n      jump\t// in\n    tag_344:\n        /* \"#utility.yul\":14460:14485   */\n      swap3\n      pop\n        /* \"#utility.yul\":14619:14620   */\n      dup3\n        /* \"#utility.yul\":14551:14617   */\n      0xffffffffffffffffffffffffffffffffffffffffffffffffffffffffffffffff\n        /* \"#utility.yul\":14547:14621   */\n      sub\n        /* \"#utility.yul\":14544:14545   */\n      dup3\n        /* \"#utility.yul\":14541:14622   */\n      gt\n        /* \"#utility.yul\":14538:14645   */\n      iszero\n      tag_345\n      jumpi\n        /* \"#utility.yul\":14625:14643   */\n      tag_346\n      tag_347\n      jump\t// in\n    tag_346:\n        /* \"#utility.yul\":14538:14645   */\n    tag_345:\n        /* \"#utility.yul\":14669:14670   */\n      dup3\n        /* \"#utility.yul\":14666:14667   */\n      dup3\n        /* \"#utility.yul\":14662:14671   */\n      add\n        /* \"#utility.yul\":14655:14671   */\n      swap1\n      pop\n        /* \"#utility.yul\":14372:14677   */\n      swap3\n      swap2\n      pop\n      pop\n      jump\t// out\n        /* \"#utility.yul\":14683:15031   */\n    tag_42:\n        /* \"#utility.yul\":14723:14730   */\n      0x00\n        /* \"#utility.yul\":14746:14766   */\n      tag_349\n        /* \"#utility.yul\":14764:14765   */\n      dup3\n        /* \"#utility.yul\":14746:14766   */\n      tag_295\n      jump\t// in\n    tag_349:\n        /* \"#utility.yul\":14741:14766   */\n      swap2\n      pop\n        /* \"#utility.yul\":14780:14800   */\n      tag_350\n        /* \"#utility.yul\":14798:14799   */\n      dup4\n        /* \"#utility.yul\":14780:14800   */\n      tag_295\n      jump\t// in\n    tag_350:\n        /* \"#utility.yul\":14775:14800   */\n      swap3\n      pop\n        /* \"#utility.yul\":14968:14969   */\n      dup2\n        /* \"#utility.yul\":14900:14966   */\n      0xffffffffffffffffffffffffffffffffffffffffffffffffffffffffffffffff\n        /* \"#utility.yul\":14896:14970   */\n      div\n        /* \"#utility.yul\":14893:14894   */\n      dup4\n        /* \"#utility.yul\":14890:14971   */\n      gt\n        /* \"#utility.yul\":14885:14886   */\n      dup3\n        /* \"#utility.yul\":14878:14887   */\n      iszero\n        /* \"#utility.yul\":14871:14888   */\n      iszero\n        /* \"#utility.yul\":14867:14972   */\n      and\n        /* \"#utility.yul\":14864:14995   */\n      iszero\n      tag_351\n      jumpi\n        /* \"#utility.yul\":14975:14993   */\n      tag_352\n      tag_347\n      jump\t// in\n    tag_352:\n        /* \"#utility.yul\":14864:14995   */\n    tag_351:\n        /* \"#utility.yul\":15023:15024   */\n      dup3\n        /* \"#utility.yul\":15020:15021   */\n      dup3\n        /* \"#utility.yul\":15016:15025   */\n      mul\n        /* \"#utility.yul\":15005:15025   */\n      swap1\n      pop\n        /* \"#utility.yul\":14683:15031   */\n      swap3\n      swap2\n      pop\n      pop\n      jump\t// out\n        /* \"#utility.yul\":15037:15133   */\n    tag_234:\n        /* \"#utility.yul\":15074:15081   */\n      0x00\n        /* \"#utility.yul\":15103:15127   */\n      tag_354\n        /* \"#utility.yul\":15121:15126   */\n      dup3\n        /* \"#utility.yul\":15103:15127   */\n      tag_355\n      jump\t// in\n    tag_354:\n        /* \"#utility.yul\":15092:15127   */\n      swap1\n      pop\n        /* \"#utility.yul\":15037:15133   */\n      swap2\n      swap1\n      pop\n      jump\t// out\n        /* \"#utility.yul\":15139:15229   */\n    tag_238:\n        /* \"#utility.yul\":15173:15180   */\n      0x00\n        /* \"#utility.yul\":15216:15221   */\n      dup2\n        /* \"#utility.yul\":15209:15222   */\n      iszero\n        /* \"#utility.yul\":15202:15223   */\n      iszero\n        /* \"#utility.yul\":15191:15223   */\n      swap1\n      pop\n        /* \"#utility.yul\":15139:15229   */\n      swap2\n      swap1\n      pop\n      jump\t// out\n        /* \"#utility.yul\":15235:15361   */\n    tag_355:\n        /* \"#utility.yul\":15272:15279   */\n      0x00\n        /* \"#utility.yul\":15312:15354   */\n      0xffffffffffffffffffffffffffffffffffffffff\n        /* \"#utility.yul\":15305:15310   */\n      dup3\n        /* \"#utility.yul\":15301:15355   */\n      and\n        /* \"#utility.yul\":15290:15355   */\n      swap1\n      pop\n        /* \"#utility.yul\":15235:15361   */\n      swap2\n      swap1\n      pop\n      jump\t// out\n        /* \"#utility.yul\":15367:15444   */\n    tag_295:\n        /* \"#utility.yul\":15404:15411   */\n      0x00\n        /* \"#utility.yul\":15433:15438   */\n      dup2\n        /* \"#utility.yul\":15422:15438   */\n      swap1\n      pop\n        /* \"#utility.yul\":15367:15444   */\n      swap2\n      swap1\n      pop\n      jump\t// out\n        /* \"#utility.yul\":15450:15536   */\n    tag_299:\n        /* \"#utility.yul\":15485:15492   */\n      0x00\n        /* \"#utility.yul\":15525:15529   */\n      0xff\n        /* \"#utility.yul\":15518:15523   */\n      dup3\n        /* \"#utility.yul\":15514:15530   */\n      and\n        /* \"#utility.yul\":15503:15530   */\n      swap1\n      pop\n        /* \"#utility.yul\":15450:15536   */\n      swap2\n      swap1\n      pop\n      jump\t// out\n        /* \"#utility.yul\":15542:15696   */\n    tag_181:\n        /* \"#utility.yul\":15626:15632   */\n      dup3\n        /* \"#utility.yul\":15621:15624   */\n      dup2\n        /* \"#utility.yul\":15616:15619   */\n      dup4\n        /* \"#utility.yul\":15603:15633   */\n      calldatacopy\n        /* \"#utility.yul\":15688:15689   */\n      0x00\n        /* \"#utility.yul\":15679:15685   */\n      dup4\n        /* \"#utility.yul\":15674:15677   */\n      dup4\n        /* \"#utility.yul\":15670:15686   */\n      add\n        /* \"#utility.yul\":15663:15690   */\n      mstore\n        /* \"#utility.yul\":15542:15696   */\n      pop\n      pop\n      pop\n      jump\t// out\n        /* \"#utility.yul\":15702:16009   */\n    tag_246:\n        /* \"#utility.yul\":15770:15771   */\n      0x00\n        /* \"#utility.yul\":15780:15893   */\n    tag_362:\n        /* \"#utility.yul\":15794:15800   */\n      dup4\n        /* \"#utility.yul\":15791:15792   */\n      dup2\n        /* \"#utility.yul\":15788:15801   */\n      lt\n        /* \"#utility.yul\":15780:15893   */\n      iszero\n      tag_364\n      jumpi\n        /* \"#utility.yul\":15879:15880   */\n      dup1\n        /* \"#utility.yul\":15874:15877   */\n      dup3\n        /* \"#utility.yul\":15870:15881   */\n      add\n        /* \"#utility.yul\":15864:15882   */\n      mload\n        /* \"#utility.yul\":15860:15861   */\n      dup2\n        /* \"#utility.yul\":15855:15858   */\n      dup5\n        /* \"#utility.yul\":15851:15862   */\n      add\n        /* \"#utility.yul\":15844:15883   */\n      mstore\n        /* \"#utility.yul\":15816:15818   */\n      0x20\n        /* \"#utility.yul\":15813:15814   */\n      dup2\n        /* \"#utility.yul\":15809:15819   */\n      add\n        /* \"#utility.yul\":15804:15819   */\n      swap1\n      pop\n        /* \"#utility.yul\":15780:15893   */\n      jump(tag_362)\n    tag_364:\n        /* \"#utility.yul\":15911:15917   */\n      dup4\n        /* \"#utility.yul\":15908:15909   */\n      dup2\n        /* \"#utility.yul\":15905:15918   */\n      gt\n        /* \"#utility.yul\":15902:16003   */\n      iszero\n      tag_365\n      jumpi\n        /* \"#utility.yul\":15991:15992   */\n      0x00\n        /* \"#utility.yul\":15982:15988   */\n      dup5\n        /* \"#utility.yul\":15977:15980   */\n      dup5\n        /* \"#utility.yul\":15973:15989   */\n      add\n        /* \"#utility.yul\":15966:15993   */\n      mstore\n        /* \"#utility.yul\":15902:16003   */\n    tag_365:\n        /* \"#utility.yul\":15751:16009   */\n      pop\n        /* \"#utility.yul\":15702:16009   */\n      pop\n      pop\n      pop\n      jump\t// out\n        /* \"#utility.yul\":16015:16335   */\n    tag_33:\n        /* \"#utility.yul\":16059:16065   */\n      0x00\n        /* \"#utility.yul\":16096:16097   */\n      0x02\n        /* \"#utility.yul\":16090:16094   */\n      dup3\n        /* \"#utility.yul\":16086:16098   */\n      div\n        /* \"#utility.yul\":16076:16098   */\n      swap1\n      pop\n        /* \"#utility.yul\":16143:16144   */\n      0x01\n        /* \"#utility.yul\":16137:16141   */\n      dup3\n        /* \"#utility.yul\":16133:16145   */\n      and\n        /* \"#utility.yul\":16164:16182   */\n      dup1\n        /* \"#utility.yul\":16154:16235   */\n      tag_367\n      jumpi\n        /* \"#utility.yul\":16220:16224   */\n      0x7f\n        /* \"#utility.yul\":16212:16218   */\n      dup3\n        /* \"#utility.yul\":16208:16225   */\n      and\n        /* \"#utility.yul\":16198:16225   */\n      swap2\n      pop\n        /* \"#utility.yul\":16154:16235   */\n    tag_367:\n        /* \"#utility.yul\":16282:16284   */\n      0x20\n        /* \"#utility.yul\":16274:16280   */\n      dup3\n        /* \"#utility.yul\":16271:16285   */\n      lt\n        /* \"#utility.yul\":16251:16269   */\n      dup2\n        /* \"#utility.yul\":16248:16286   */\n      eq\n        /* \"#utility.yul\":16245:16329   */\n      iszero\n      tag_368\n      jumpi\n        /* \"#utility.yul\":16301:16319   */\n      tag_369\n      tag_370\n      jump\t// in\n    tag_369:\n        /* \"#utility.yul\":16245:16329   */\n    tag_368:\n        /* \"#utility.yul\":16066:16335   */\n      pop\n        /* \"#utility.yul\":16015:16335   */\n      swap2\n      swap1\n      pop\n      jump\t// out\n        /* \"#utility.yul\":16341:16622   */\n    tag_328:\n        /* \"#utility.yul\":16424:16451   */\n      tag_372\n        /* \"#utility.yul\":16446:16450   */\n      dup3\n        /* \"#utility.yul\":16424:16451   */\n      tag_248\n      jump\t// in\n    tag_372:\n        /* \"#utility.yul\":16416:16422   */\n      dup2\n        /* \"#utility.yul\":16412:16452   */\n      add\n        /* \"#utility.yul\":16554:16560   */\n      dup2\n        /* \"#utility.yul\":16542:16552   */\n      dup2\n        /* \"#utility.yul\":16539:16561   */\n      lt\n        /* \"#utility.yul\":16518:16536   */\n      0xffffffffffffffff\n        /* \"#utility.yul\":16506:16516   */\n      dup3\n        /* \"#utility.yul\":16503:16537   */\n      gt\n        /* \"#utility.yul\":16500:16562   */\n      or\n        /* \"#utility.yul\":16497:16585   */\n      iszero\n      tag_373\n      jumpi\n        /* \"#utility.yul\":16565:16583   */\n      tag_374\n      tag_333\n      jump\t// in\n    tag_374:\n        /* \"#utility.yul\":16497:16585   */\n    tag_373:\n        /* \"#utility.yul\":16605:16615   */\n      dup1\n        /* \"#utility.yul\":16601:16603   */\n      0x40\n        /* \"#utility.yul\":16594:16616   */\n      mstore\n        /* \"#utility.yul\":16384:16622   */\n      pop\n        /* \"#utility.yul\":16341:16622   */\n      pop\n      pop\n      jump\t// out\n        /* \"#utility.yul\":16628:16795   */\n    tag_40:\n        /* \"#utility.yul\":16665:16668   */\n      0x00\n        /* \"#utility.yul\":16688:16710   */\n      tag_376\n        /* \"#utility.yul\":16704:16709   */\n      dup3\n        /* \"#utility.yul\":16688:16710   */\n      tag_299\n      jump\t// in\n    tag_376:\n        /* \"#utility.yul\":16679:16710   */\n      swap2\n      pop\n        /* \"#utility.yul\":16732:16736   */\n      0xff\n        /* \"#utility.yul\":16725:16730   */\n      dup3\n        /* \"#utility.yul\":16722:16737   */\n      eq\n        /* \"#utility.yul\":16719:16760   */\n      iszero\n      tag_377\n      jumpi\n        /* \"#utility.yul\":16740:16758   */\n      tag_378\n      tag_347\n      jump\t// in\n    tag_378:\n        /* \"#utility.yul\":16719:16760   */\n    tag_377:\n        /* \"#utility.yul\":16787:16788   */\n      0x01\n        /* \"#utility.yul\":16780:16785   */\n      dup3\n        /* \"#utility.yul\":16776:16789   */\n      add\n        /* \"#utility.yul\":16769:16789   */\n      swap1\n      pop\n        /* \"#utility.yul\":16628:16795   */\n      swap2\n      swap1\n      pop\n      jump\t// out\n        /* \"#utility.yul\":16801:16981   */\n    tag_347:\n        /* \"#utility.yul\":16849:16926   */\n      0x4e487b7100000000000000000000000000000000000000000000000000000000\n        /* \"#utility.yul\":16846:16847   */\n      0x00\n        /* \"#utility.yul\":16839:16927   */\n      mstore\n        /* \"#utility.yul\":16946:16950   */\n      0x11\n        /* \"#utility.yul\":16943:16944   */\n      0x04\n        /* \"#utility.yul\":16936:16951   */\n      mstore\n        /* \"#utility.yul\":16970:16974   */\n      0x24\n        /* \"#utility.yul\":16967:16968   */\n      0x00\n        /* \"#utility.yul\":16960:16975   */\n      revert\n        /* \"#utility.yul\":16987:17167   */\n    tag_370:\n        /* \"#utility.yul\":17035:17112   */\n      0x4e487b7100000000000000000000000000000000000000000000000000000000\n        /* \"#utility.yul\":17032:17033   */\n      0x00\n        /* \"#utility.yul\":17025:17113   */\n      mstore\n        /* \"#utility.yul\":17132:17136   */\n      0x22\n        /* \"#utility.yul\":17129:17130   */\n      0x04\n        /* \"#utility.yul\":17122:17137   */\n      mstore\n        /* \"#utility.yul\":17156:17160   */\n      0x24\n        /* \"#utility.yul\":17153:17154   */\n      0x00\n        /* \"#utility.yul\":17146:17161   */\n      revert\n        /* \"#utility.yul\":17173:17353   */\n    tag_50:\n        /* \"#utility.yul\":17221:17298   */\n      0x4e487b7100000000000000000000000000000000000000000000000000000000\n        /* \"#utility.yul\":17218:17219   */\n      0x00\n        /* \"#utility.yul\":17211:17299   */\n      mstore\n        /* \"#utility.yul\":17318:17322   */\n      0x32\n        /* \"#utility.yul\":17315:17316   */\n      0x04\n        /* \"#utility.yul\":17308:17323   */\n      mstore\n        /* \"#utility.yul\":17342:17346   */\n      0x24\n        /* \"#utility.yul\":17339:17340   */\n      0x00\n        /* \"#utility.yul\":17332:17347   */\n      revert\n        /* \"#utility.yul\":17359:17539   */\n    tag_333:\n        /* \"#utility.yul\":17407:17484   */\n      0x4e487b7100000000000000000000000000000000000000000000000000000000\n        /* \"#utility.yul\":17404:17405   */\n      0x00\n        /* \"#utility.yul\":17397:17485   */\n      mstore\n        /* \"#utility.yul\":17504:17508   */\n      0x41\n        /* \"#utility.yul\":17501:17502   */\n      0x04\n        /* \"#utility.yul\":17494:17509   */\n      mstore\n        /* \"#utility.yul\":17528:17532   */\n      0x24\n        /* \"#utility.yul\":17525:17526   */\n      0x00\n        /* \"#utility.yul\":17518:17533   */\n      revert\n        /* \"#utility.yul\":17545:17662   */\n    tag_169:\n        /* \"#utility.yul\":17654:17655   */\n      0x00\n        /* \"#utility.yul\":17651:17652   */\n      dup1\n        /* \"#utility.yul\":17644:17656   */\n      revert\n        /* \"#utility.yul\":17668:17785   */\n    tag_163:\n        /* \"#utility.yul\":17777:17778   */\n      0x00\n        /* \"#utility.yul\":17774:17775   */\n      dup1\n        /* \"#utility.yul\":17767:17779   */\n      revert\n        /* \"#utility.yul\":17791:17908   */\n    tag_179:\n        /* \"#utility.yul\":17900:17901   */\n      0x00\n        /* \"#utility.yul\":17897:17898   */\n      dup1\n        /* \"#utility.yul\":17890:17902   */\n      revert\n        /* \"#utility.yul\":17914:18031   */\n    tag_213:\n        /* \"#utility.yul\":18023:18024   */\n      0x00\n        /* \"#utility.yul\":18020:18021   */\n      dup1\n        /* \"#utility.yul\":18013:18025   */\n      revert\n        /* \"#utility.yul\":18037:18154   */\n    tag_206:\n        /* \"#utility.yul\":18146:18147   */\n      0x00\n        /* \"#utility.yul\":18143:18144   */\n      dup1\n        /* \"#utility.yul\":18136:18148   */\n      revert\n        /* \"#utility.yul\":18160:18262   */\n    tag_248:\n        /* \"#utility.yul\":18201:18207   */\n      0x00\n        /* \"#utility.yul\":18252:18254   */\n      0x1f\n        /* \"#utility.yul\":18248:18255   */\n      not\n        /* \"#utility.yul\":18243:18245   */\n      0x1f\n        /* \"#utility.yul\":18236:18241   */\n      dup4\n        /* \"#utility.yul\":18232:18246   */\n      add\n        /* \"#utility.yul\":18228:18256   */\n      and\n        /* \"#utility.yul\":18218:18256   */\n      swap1\n      pop\n        /* \"#utility.yul\":18160:18262   */\n      swap2\n      swap1\n      pop\n      jump\t// out\n        /* \"#utility.yul\":18268:18433   */\n    tag_266:\n        /* \"#utility.yul\":18408:18425   */\n      0x4e6f742072656769737465726564210000000000000000000000000000000000\n        /* \"#utility.yul\":18404:18405   */\n      0x00\n        /* \"#utility.yul\":18396:18402   */\n      dup3\n        /* \"#utility.yul\":18392:18406   */\n      add\n        /* \"#utility.yul\":18385:18426   */\n      mstore\n        /* \"#utility.yul\":18268:18433   */\n      pop\n      jump\t// out\n        /* \"#utility.yul\":18439:18611   */\n    tag_271:\n        /* \"#utility.yul\":18579:18603   */\n      0x566f74696e6720506572696f64206973204f7665722100000000000000000000\n        /* \"#utility.yul\":18575:18576   */\n      0x00\n        /* \"#utility.yul\":18567:18573   */\n      dup3\n        /* \"#utility.yul\":18563:18577   */\n      add\n        /* \"#utility.yul\":18556:18604   */\n      mstore\n        /* \"#utility.yul\":18439:18611   */\n      pop\n      jump\t// out\n        /* \"#utility.yul\":18617:18785   */\n    tag_276:\n        /* \"#utility.yul\":18757:18777   */\n      0x416c726561647920526567697374657265640000000000000000000000000000\n        /* \"#utility.yul\":18753:18754   */\n      0x00\n        /* \"#utility.yul\":18745:18751   */\n      dup3\n        /* \"#utility.yul\":18741:18755   */\n      add\n        /* \"#utility.yul\":18734:18778   */\n      mstore\n        /* \"#utility.yul\":18617:18785   */\n      pop\n      jump\t// out\n        /* \"#utility.yul\":18791:18905   */\n    tag_281:\n      pop\n      jump\t// out\n        /* \"#utility.yul\":18911:19081   */\n    tag_286:\n        /* \"#utility.yul\":19051:19073   */\n      0x43726561746f722063616e6e6f7420766f746521000000000000000000000000\n        /* \"#utility.yul\":19047:19048   */\n      0x00\n        /* \"#utility.yul\":19039:19045   */\n      dup3\n        /* \"#utility.yul\":19035:19049   */\n      add\n        /* \"#utility.yul\":19028:19074   */\n      mstore\n        /* \"#utility.yul\":18911:19081   */\n      pop\n      jump\t// out\n        /* \"#utility.yul\":19087:19259   */\n    tag_291:\n        /* \"#utility.yul\":19227:19251   */\n      0x4163636f756e7420616c726561647920766f7465642100000000000000000000\n        /* \"#utility.yul\":19223:19224   */\n      0x00\n        /* \"#utility.yul\":19215:19221   */\n      dup3\n        /* \"#utility.yul\":19211:19225   */\n      add\n        /* \"#utility.yul\":19204:19252   */\n      mstore\n        /* \"#utility.yul\":19087:19259   */\n      pop\n      jump\t// out\n        /* \"#utility.yul\":19265:19387   */\n    tag_185:\n        /* \"#utility.yul\":19338:19362   */\n      tag_396\n        /* \"#utility.yul\":19356:19361   */\n      dup2\n        /* \"#utility.yul\":19338:19362   */\n      tag_234\n      jump\t// in\n    tag_396:\n        /* \"#utility.yul\":19331:19336   */\n      dup2\n        /* \"#utility.yul\":19328:19363   */\n      eq\n        /* \"#utility.yul\":19318:19381   */\n      tag_397\n      jumpi\n        /* \"#utility.yul\":19377:19378   */\n      0x00\n        /* \"#utility.yul\":19374:19375   */\n      dup1\n        /* \"#utility.yul\":19367:19379   */\n      revert\n        /* \"#utility.yul\":19318:19381   */\n    tag_397:\n        /* \"#utility.yul\":19265:19387   */\n      pop\n      jump\t// out\n        /* \"#utility.yul\":19393:19515   */\n    tag_198:\n        /* \"#utility.yul\":19466:19490   */\n      tag_399\n        /* \"#utility.yul\":19484:19489   */\n      dup2\n        /* \"#utility.yul\":19466:19490   */\n      tag_295\n      jump\t// in\n    tag_399:\n        /* \"#utility.yul\":19459:19464   */\n      dup2\n        /* \"#utility.yul\":19456:19491   */\n      eq\n        /* \"#utility.yul\":19446:19509   */\n      tag_400\n      jumpi\n        /* \"#utility.yul\":19505:19506   */\n      0x00\n        /* \"#utility.yul\":19502:19503   */\n      dup1\n        /* \"#utility.yul\":19495:19507   */\n      revert\n        /* \"#utility.yul\":19446:19509   */\n    tag_400:\n        /* \"#utility.yul\":19393:19515   */\n      pop\n      jump\t// out\n        /* \"#utility.yul\":19521:19639   */\n    tag_202:\n        /* \"#utility.yul\":19592:19614   */\n      tag_402\n        /* \"#utility.yul\":19608:19613   */\n      dup2\n        /* \"#utility.yul\":19592:19614   */\n      tag_299\n      jump\t// in\n    tag_402:\n        /* \"#utility.yul\":19585:19590   */\n      dup2\n        /* \"#utility.yul\":19582:19615   */\n      eq\n        /* \"#utility.yul\":19572:19633   */\n      tag_403\n      jumpi\n        /* \"#utility.yul\":19629:19630   */\n      0x00\n        /* \"#utility.yul\":19626:19627   */\n      dup1\n        /* \"#utility.yul\":19619:19631   */\n      revert\n        /* \"#utility.yul\":19572:19633   */\n    tag_403:\n        /* \"#utility.yul\":19521:19639   */\n      pop\n      jump\t// out\n\n    auxdata: 0xa26469706673582212207dbe84808478ea1145b1766aa48afef86aba3c2ce0d62eba20a47018d1df47ee64736f6c63430008070033\n}\n",
				"bytecode": {
					"linkReferences": {},
					"object": "608060405260008060006101000a81548160ff021916908360ff16021790555034801561002b57600080fd5b50611a5a8061003b6000396000f3fe608060405234801561001057600080fd5b50600436106100565760003560e01c806242c4381461005b57806336dffc3c1461008d578063ac2f0074146100a9578063df49c4de146100dd578063f2c298be146100f9575b600080fd5b61007560048036038101906100709190611135565b610115565b604051610084939291906114b9565b60405180910390f35b6100a760048036038101906100a29190611162565b6101f4565b005b6100c360048036038101906100be9190611207565b6104e1565b6040516100d4959493929190611466565b60405180910390f35b6100f760048036038101906100f29190611234565b610561565b005b610113600480360381019061010e91906111be565b6109f6565b005b60026020528060005260406000206000915090508060000180546101389061179c565b80601f01602080910402602001604051908101604052809291908181526020018280546101649061179c565b80156101b15780601f10610186576101008083540402835291602001916101b1565b820191906000526020600020905b81548152906001019060200180831161019457829003601f168201915b5050505050908060010160009054906101000a900473ffffffffffffffffffffffffffffffffffffffff16908060010160149054906101000a900460ff16905083565b60008081819054906101000a900460ff1680929190610212906117ff565b91906101000a81548160ff021916908360ff1602179055505060006006905033600660000160006101000a81548173ffffffffffffffffffffffffffffffffffffffff021916908373ffffffffffffffffffffffffffffffffffffffff16021790555060008054906101000a900460ff16600660000160146101000a81548160ff021916908360ff160217905550603c826102ad91906116ab565b60066002018190555081426102c29190611655565b60066003018190555060006003905060005b84518160ff1610156103be57848160ff16815181106102f6576102f5611887565b5b6020026020010151826000019080519060200190610315929190610bc0565b508260010182908060018154018082558091505060019003906000526020600020906003020160009091909190915060008201816000019080546103589061179c565b610363929190610c46565b506001820160009054906101000a900460ff168160010160006101000a81548160ff021916908360ff16021790555060028201816002019080546103a8929190610cd3565b50505080806103b6906117ff565b9150506102d4565b5060018290806001815401808255809150506001900390600052602060002090600402016000909190919091506000820160009054906101000a900473ffffffffffffffffffffffffffffffffffffffff168160000160006101000a81548173ffffffffffffffffffffffffffffffffffffffff021916908373ffffffffffffffffffffffffffffffffffffffff1602179055506000820160149054906101000a900460ff168160000160146101000a81548160ff021916908360ff1602179055506000820160159054906101000a900460ff168160000160156101000a81548160ff021916908360ff16021790555060018201816001019080546104c4929190610ddf565b506002820154816002015560038201548160030155505050505050565b600181815481106104f157600080fd5b90600052602060002090600402016000915090508060000160009054906101000a900473ffffffffffffffffffffffffffffffffffffffff16908060000160149054906101000a900460ff16908060000160159054906101000a900460ff16908060020154908060030154905085565b8160ff166001818154811061057957610578611887565b5b90600052602060002090600402016003015442106105cc576040517f08c379a00000000000000000000000000000000000000000000000000000000081526004016105c390611517565b60405180910390fd5b3373ffffffffffffffffffffffffffffffffffffffff16600182815481106105f7576105f6611887565b5b906000526020600020906004020160000160009054906101000a900473ffffffffffffffffffffffffffffffffffffffff1673ffffffffffffffffffffffffffffffffffffffff161415610680576040517f08c379a000000000000000000000000000000000000000000000000000000000815260040161067790611557565b60405180910390fd5b60405160200161068f90611451565b60405160208183030381529060405280519060200120600260003373ffffffffffffffffffffffffffffffffffffffff1673ffffffffffffffffffffffffffffffffffffffff1681526020019081526020016000206000016040516020016106f7919061143a565b60405160208183030381529060405280519060200120141561074e576040517f08c379a0000000000000000000000000000000000000000000000000000000008152600401610745906114f7565b60405180910390fd5b60001515600260003373ffffffffffffffffffffffffffffffffffffffff1673ffffffffffffffffffffffffffffffffffffffff16815260200190815260200160002060010160149054906101000a900460ff161515146107e4576040517f08c379a00000000000000000000000000000000000000000000000000000000081526004016107db90611577565b60405180910390fd5b600060018460ff16815481106107fd576107fc611887565b5b906000526020600020906004020190506000816001018460ff168154811061082857610827611887565b5b9060005260206000209060030201905080600101600081819054906101000a900460ff1680929190610859906117ff565b91906101000a81548160ff021916908360ff1602179055505080600201600260003373ffffffffffffffffffffffffffffffffffffffff1673ffffffffffffffffffffffffffffffffffffffff168152602001908152602001600020908060018154018082558091505060019003906000526020600020906002020160009091909190915060008201816000019080546108f29061179c565b6108fd929190610c46565b506001820160009054906101000a900473ffffffffffffffffffffffffffffffffffffffff168160010160006101000a81548173ffffffffffffffffffffffffffffffffffffffff021916908373ffffffffffffffffffffffffffffffffffffffff1602179055506001820160149054906101000a900460ff168160010160146101000a81548160ff02191690831515021790555050506001600260003373ffffffffffffffffffffffffffffffffffffffff1673ffffffffffffffffffffffffffffffffffffffff16815260200190815260200160002060010160146101000a81548160ff0219169083151502179055505050505050565b604051602001610a0590611451565b60405160208183030381529060405280519060200120600260003373ffffffffffffffffffffffffffffffffffffffff1673ffffffffffffffffffffffffffffffffffffffff168152602001908152602001600020600001604051602001610a6d919061143a565b6040516020818303038152906040528051906020012014610ac3576040517f08c379a0000000000000000000000000000000000000000000000000000000008152600401610aba90611537565b60405180910390fd5b60405180606001604052808281526020013373ffffffffffffffffffffffffffffffffffffffff16815260200160001515815250600260003373ffffffffffffffffffffffffffffffffffffffff1673ffffffffffffffffffffffffffffffffffffffff1681526020019081526020016000206000820151816000019080519060200190610b52929190610bc0565b5060208201518160010160006101000a81548173ffffffffffffffffffffffffffffffffffffffff021916908373ffffffffffffffffffffffffffffffffffffffff16021790555060408201518160010160146101000a81548160ff02191690831515021790555090505050565b828054610bcc9061179c565b90600052602060002090601f016020900481019282610bee5760008555610c35565b82601f10610c0757805160ff1916838001178555610c35565b82800160010185558215610c35579182015b82811115610c34578251825591602001919060010190610c19565b5b509050610c429190610e9c565b5090565b828054610c529061179c565b90600052602060002090601f016020900481019282610c745760008555610cc2565b82601f10610c855780548555610cc2565b82800160010185558215610cc257600052602060002091601f016020900482015b82811115610cc1578254825591600101919060010190610ca6565b5b509050610ccf9190610e9c565b5090565b828054828255906000526020600020906002028101928215610dce5760005260206000209160020282015b82811115610dcd5782826000820181600001908054610d1c9061179c565b610d27929190610c46565b506001820160009054906101000a900473ffffffffffffffffffffffffffffffffffffffff168160010160006101000a81548173ffffffffffffffffffffffffffffffffffffffff021916908373ffffffffffffffffffffffffffffffffffffffff1602179055506001820160149054906101000a900460ff168160010160146101000a81548160ff021916908315150217905550505091600201919060020190610cfe565b5b509050610ddb9190610eb9565b5090565b828054828255906000526020600020906003028101928215610e8b5760005260206000209160030282015b82811115610e8a5782826000820181600001908054610e289061179c565b610e33929190610c46565b506001820160009054906101000a900460ff168160010160006101000a81548160ff021916908360ff1602179055506002820181600201908054610e78929190610cd3565b50505091600301919060030190610e0a565b5b509050610e989190610f1b565b5090565b5b80821115610eb5576000816000905550600101610e9d565b5090565b5b80821115610f175760008082016000610ed39190610f66565b6001820160006101000a81549073ffffffffffffffffffffffffffffffffffffffff02191690556001820160146101000a81549060ff021916905550600201610eba565b5090565b5b80821115610f625760008082016000610f359190610f66565b6001820160006101000a81549060ff0219169055600282016000610f599190610fa6565b50600301610f1c565b5090565b508054610f729061179c565b6000825580601f10610f845750610fa3565b601f016020900490600052602060002090810190610fa29190610e9c565b5b50565b5080546000825560020290600052602060002090810190610fc79190610eb9565b50565b6000610fdd610fd8846115bc565b611597565b9050808382526020820190508285602086028201111561100057610fff6118ea565b5b60005b8581101561104e57813567ffffffffffffffff811115611026576110256118e5565b5b80860161103389826110dd565b85526020850194506020840193505050600181019050611003565b5050509392505050565b600061106b611066846115e8565b611597565b905082815260208101848484011115611087576110866118ef565b5b61109284828561175a565b509392505050565b6000813590506110a9816119df565b92915050565b600082601f8301126110c4576110c36118e5565b5b81356110d4848260208601610fca565b91505092915050565b600082601f8301126110f2576110f16118e5565b5b8135611102848260208601611058565b91505092915050565b60008135905061111a816119f6565b92915050565b60008135905061112f81611a0d565b92915050565b60006020828403121561114b5761114a6118f9565b5b60006111598482850161109a565b91505092915050565b60008060408385031215611179576111786118f9565b5b600083013567ffffffffffffffff811115611197576111966118f4565b5b6111a3858286016110af565b92505060206111b48582860161110b565b9150509250929050565b6000602082840312156111d4576111d36118f9565b5b600082013567ffffffffffffffff8111156111f2576111f16118f4565b5b6111fe848285016110dd565b91505092915050565b60006020828403121561121d5761121c6118f9565b5b600061122b8482850161110b565b91505092915050565b6000806040838503121561124b5761124a6118f9565b5b600061125985828601611120565b925050602061126a85828601611120565b9150509250929050565b61127d81611705565b82525050565b61128c81611717565b82525050565b600061129d8261162e565b6112a78185611639565b93506112b7818560208601611769565b6112c0816118fe565b840191505092915050565b600081546112d88161179c565b6112e2818661164a565b945060018216600081146112fd576001811461130e57611341565b60ff19831686528186019350611341565b61131785611619565b60005b838110156113395781548189015260018201915060208101905061131a565b838801955050505b50505092915050565b6000611357600f83611639565b91506113628261190f565b602082019050919050565b600061137a601683611639565b915061138582611938565b602082019050919050565b600061139d601283611639565b91506113a882611961565b602082019050919050565b60006113c060008361164a565b91506113cb8261198a565b600082019050919050565b60006113e3601483611639565b91506113ee8261198d565b602082019050919050565b6000611406601683611639565b9150611411826119b6565b602082019050919050565b61142581611743565b82525050565b6114348161174d565b82525050565b600061144682846112cb565b915081905092915050565b600061145c826113b3565b9150819050919050565b600060a08201905061147b6000830188611274565b611488602083018761142b565b611495604083018661142b565b6114a2606083018561141c565b6114af608083018461141c565b9695505050505050565b600060608201905081810360008301526114d38186611292565b90506114e26020830185611274565b6114ef6040830184611283565b949350505050565b600060208201905081810360008301526115108161134a565b9050919050565b600060208201905081810360008301526115308161136d565b9050919050565b6000602082019050818103600083015261155081611390565b9050919050565b60006020820190508181036000830152611570816113d6565b9050919050565b60006020820190508181036000830152611590816113f9565b9050919050565b60006115a16115b2565b90506115ad82826117ce565b919050565b6000604051905090565b600067ffffffffffffffff8211156115d7576115d66118b6565b5b602082029050602081019050919050565b600067ffffffffffffffff821115611603576116026118b6565b5b61160c826118fe565b9050602081019050919050565b60008190508160005260206000209050919050565b600081519050919050565b600082825260208201905092915050565b600081905092915050565b600061166082611743565b915061166b83611743565b9250827fffffffffffffffffffffffffffffffffffffffffffffffffffffffffffffffff038211156116a05761169f611829565b5b828201905092915050565b60006116b682611743565b91506116c183611743565b9250817fffffffffffffffffffffffffffffffffffffffffffffffffffffffffffffffff04831182151516156116fa576116f9611829565b5b828202905092915050565b600061171082611723565b9050919050565b60008115159050919050565b600073ffffffffffffffffffffffffffffffffffffffff82169050919050565b6000819050919050565b600060ff82169050919050565b82818337600083830152505050565b60005b8381101561178757808201518184015260208101905061176c565b83811115611796576000848401525b50505050565b600060028204905060018216806117b457607f821691505b602082108114156117c8576117c7611858565b5b50919050565b6117d7826118fe565b810181811067ffffffffffffffff821117156117f6576117f56118b6565b5b80604052505050565b600061180a8261174d565b915060ff82141561181e5761181d611829565b5b600182019050919050565b7f4e487b7100000000000000000000000000000000000000000000000000000000600052601160045260246000fd5b7f4e487b7100000000000000000000000000000000000000000000000000000000600052602260045260246000fd5b7f4e487b7100000000000000000000000000000000000000000000000000000000600052603260045260246000fd5b7f4e487b7100000000000000000000000000000000000000000000000000000000600052604160045260246000fd5b600080fd5b600080fd5b600080fd5b600080fd5b600080fd5b6000601f19601f8301169050919050565b7f4e6f742072656769737465726564210000000000000000000000000000000000600082015250565b7f566f74696e6720506572696f64206973204f7665722100000000000000000000600082015250565b7f416c726561647920526567697374657265640000000000000000000000000000600082015250565b50565b7f43726561746f722063616e6e6f7420766f746521000000000000000000000000600082015250565b7f4163636f756e7420616c726561647920766f7465642100000000000000000000600082015250565b6119e881611705565b81146119f357600080fd5b50565b6119ff81611743565b8114611a0a57600080fd5b50565b611a168161174d565b8114611a2157600080fd5b5056fea26469706673582212207dbe84808478ea1145b1766aa48afef86aba3c2ce0d62eba20a47018d1df47ee64736f6c63430008070033",
					"opcodes": "PUSH1 0x80 PUSH1 0x40 MSTORE PUSH1 0x0 DUP1 PUSH1 0x0 PUSH2 0x100 EXP DUP2 SLOAD DUP2 PUSH1 0xFF MUL NOT AND SWAP1 DUP4 PUSH1 0xFF AND MUL OR SWAP1 SSTORE POP CALLVALUE DUP1 ISZERO PUSH2 0x2B JUMPI PUSH1 0x0 DUP1 REVERT JUMPDEST POP PUSH2 0x1A5A DUP1 PUSH2 0x3B PUSH1 0x0 CODECOPY PUSH1 0x0 RETURN INVALID PUSH1 0x80 PUSH1 0x40 MSTORE CALLVALUE DUP1 ISZERO PUSH2 0x10 JUMPI PUSH1 0x0 DUP1 REVERT JUMPDEST POP PUSH1 0x4 CALLDATASIZE LT PUSH2 0x56 JUMPI PUSH1 0x0 CALLDATALOAD PUSH1 0xE0 SHR DUP1 PUSH3 0x42C438 EQ PUSH2 0x5B JUMPI DUP1 PUSH4 0x36DFFC3C EQ PUSH2 0x8D JUMPI DUP1 PUSH4 0xAC2F0074 EQ PUSH2 0xA9 JUMPI DUP1 PUSH4 0xDF49C4DE EQ PUSH2 0xDD JUMPI DUP1 PUSH4 0xF2C298BE EQ PUSH2 0xF9 JUMPI JUMPDEST PUSH1 0x0 DUP1 REVERT JUMPDEST PUSH2 0x75 PUSH1 0x4 DUP1 CALLDATASIZE SUB DUP2 ADD SWAP1 PUSH2 0x70 SWAP2 SWAP1 PUSH2 0x1135 JUMP JUMPDEST PUSH2 0x115 JUMP JUMPDEST PUSH1 0x40 MLOAD PUSH2 0x84 SWAP4 SWAP3 SWAP2 SWAP1 PUSH2 0x14B9 JUMP JUMPDEST PUSH1 0x40 MLOAD DUP1 SWAP2 SUB SWAP1 RETURN JUMPDEST PUSH2 0xA7 PUSH1 0x4 DUP1 CALLDATASIZE SUB DUP2 ADD SWAP1 PUSH2 0xA2 SWAP2 SWAP1 PUSH2 0x1162 JUMP JUMPDEST PUSH2 0x1F4 JUMP JUMPDEST STOP JUMPDEST PUSH2 0xC3 PUSH1 0x4 DUP1 CALLDATASIZE SUB DUP2 ADD SWAP1 PUSH2 0xBE SWAP2 SWAP1 PUSH2 0x1207 JUMP JUMPDEST PUSH2 0x4E1 JUMP JUMPDEST PUSH1 0x40 MLOAD PUSH2 0xD4 SWAP6 SWAP5 SWAP4 SWAP3 SWAP2 SWAP1 PUSH2 0x1466 JUMP JUMPDEST PUSH1 0x40 MLOAD DUP1 SWAP2 SUB SWAP1 RETURN JUMPDEST PUSH2 0xF7 PUSH1 0x4 DUP1 CALLDATASIZE SUB DUP2 ADD SWAP1 PUSH2 0xF2 SWAP2 SWAP1 PUSH2 0x1234 JUMP JUMPDEST PUSH2 0x561 JUMP JUMPDEST STOP JUMPDEST PUSH2 0x113 PUSH1 0x4 DUP1 CALLDATASIZE SUB DUP2 ADD SWAP1 PUSH2 0x10E SWAP2 SWAP1 PUSH2 0x11BE JUMP JUMPDEST PUSH2 0x9F6 JUMP JUMPDEST STOP JUMPDEST PUSH1 0x2 PUSH1 0x20 MSTORE DUP1 PUSH1 0x0 MSTORE PUSH1 0x40 PUSH1 0x0 KECCAK256 PUSH1 0x0 SWAP2 POP SWAP1 POP DUP1 PUSH1 0x0 ADD DUP1 SLOAD PUSH2 0x138 SWAP1 PUSH2 0x179C JUMP JUMPDEST DUP1 PUSH1 0x1F ADD PUSH1 0x20 DUP1 SWAP2 DIV MUL PUSH1 0x20 ADD PUSH1 0x40 MLOAD SWAP1 DUP2 ADD PUSH1 0x40 MSTORE DUP1 SWAP3 SWAP2 SWAP1 DUP2 DUP2 MSTORE PUSH1 0x20 ADD DUP3 DUP1 SLOAD PUSH2 0x164 SWAP1 PUSH2 0x179C JUMP JUMPDEST DUP1 ISZERO PUSH2 0x1B1 JUMPI DUP1 PUSH1 0x1F LT PUSH2 0x186 JUMPI PUSH2 0x100 DUP1 DUP4 SLOAD DIV MUL DUP4 MSTORE SWAP2 PUSH1 0x20 ADD SWAP2 PUSH2 0x1B1 JUMP JUMPDEST DUP3 ADD SWAP2 SWAP1 PUSH1 0x0 MSTORE PUSH1 0x20 PUSH1 0x0 KECCAK256 SWAP1 JUMPDEST DUP2 SLOAD DUP2 MSTORE SWAP1 PUSH1 0x1 ADD SWAP1 PUSH1 0x20 ADD DUP1 DUP4 GT PUSH2 0x194 JUMPI DUP3 SWAP1 SUB PUSH1 0x1F AND DUP3 ADD SWAP2 JUMPDEST POP POP POP POP POP SWAP1 DUP1 PUSH1 0x1 ADD PUSH1 0x0 SWAP1 SLOAD SWAP1 PUSH2 0x100 EXP SWAP1 DIV PUSH20 0xFFFFFFFFFFFFFFFFFFFFFFFFFFFFFFFFFFFFFFFF AND SWAP1 DUP1 PUSH1 0x1 ADD PUSH1 0x14 SWAP1 SLOAD SWAP1 PUSH2 0x100 EXP SWAP1 DIV PUSH1 0xFF AND SWAP1 POP DUP4 JUMP JUMPDEST PUSH1 0x0 DUP1 DUP2 DUP2 SWAP1 SLOAD SWAP1 PUSH2 0x100 EXP SWAP1 DIV PUSH1 0xFF AND DUP1 SWAP3 SWAP2 SWAP1 PUSH2 0x212 SWAP1 PUSH2 0x17FF JUMP JUMPDEST SWAP2 SWAP1 PUSH2 0x100 EXP DUP2 SLOAD DUP2 PUSH1 0xFF MUL NOT AND SWAP1 DUP4 PUSH1 0xFF AND MUL OR SWAP1 SSTORE POP POP PUSH1 0x0 PUSH1 0x6 SWAP1 POP CALLER PUSH1 0x6 PUSH1 0x0 ADD PUSH1 0x0 PUSH2 0x100 EXP DUP2 SLOAD DUP2 PUSH20 0xFFFFFFFFFFFFFFFFFFFFFFFFFFFFFFFFFFFFFFFF MUL NOT AND SWAP1 DUP4 PUSH20 0xFFFFFFFFFFFFFFFFFFFFFFFFFFFFFFFFFFFFFFFF AND MUL OR SWAP1 SSTORE POP PUSH1 0x0 DUP1 SLOAD SWAP1 PUSH2 0x100 EXP SWAP1 DIV PUSH1 0xFF AND PUSH1 0x6 PUSH1 0x0 ADD PUSH1 0x14 PUSH2 0x100 EXP DUP2 SLOAD DUP2 PUSH1 0xFF MUL NOT AND SWAP1 DUP4 PUSH1 0xFF AND MUL OR SWAP1 SSTORE POP PUSH1 0x3C DUP3 PUSH2 0x2AD SWAP2 SWAP1 PUSH2 0x16AB JUMP JUMPDEST PUSH1 0x6 PUSH1 0x2 ADD DUP2 SWAP1 SSTORE POP DUP2 TIMESTAMP PUSH2 0x2C2 SWAP2 SWAP1 PUSH2 0x1655 JUMP JUMPDEST PUSH1 0x6 PUSH1 0x3 ADD DUP2 SWAP1 SSTORE POP PUSH1 0x0 PUSH1 0x3 SWAP1 POP PUSH1 0x0 JUMPDEST DUP5 MLOAD DUP2 PUSH1 0xFF AND LT ISZERO PUSH2 0x3BE JUMPI DUP5 DUP2 PUSH1 0xFF AND DUP2 MLOAD DUP2 LT PUSH2 0x2F6 JUMPI PUSH2 0x2F5 PUSH2 0x1887 JUMP JUMPDEST JUMPDEST PUSH1 0x20 MUL PUSH1 0x20 ADD ADD MLOAD DUP3 PUSH1 0x0 ADD SWAP1 DUP1 MLOAD SWAP1 PUSH1 0x20 ADD SWAP1 PUSH2 0x315 SWAP3 SWAP2 SWAP1 PUSH2 0xBC0 JUMP JUMPDEST POP DUP3 PUSH1 0x1 ADD DUP3 SWAP1 DUP1 PUSH1 0x1 DUP2 SLOAD ADD DUP1 DUP3 SSTORE DUP1 SWAP2 POP POP PUSH1 0x1 SWAP1 SUB SWAP1 PUSH1 0x0 MSTORE PUSH1 0x20 PUSH1 0x0 KECCAK256 SWAP1 PUSH1 0x3 MUL ADD PUSH1 0x0 SWAP1 SWAP2 SWAP1 SWAP2 SWAP1 SWAP2 POP PUSH1 0x0 DUP3 ADD DUP2 PUSH1 0x0 ADD SWAP1 DUP1 SLOAD PUSH2 0x358 SWAP1 PUSH2 0x179C JUMP JUMPDEST PUSH2 0x363 SWAP3 SWAP2 SWAP1 PUSH2 0xC46 JUMP JUMPDEST POP PUSH1 0x1 DUP3 ADD PUSH1 0x0 SWAP1 SLOAD SWAP1 PUSH2 0x100 EXP SWAP1 DIV PUSH1 0xFF AND DUP2 PUSH1 0x1 ADD PUSH1 0x0 PUSH2 0x100 EXP DUP2 SLOAD DUP2 PUSH1 0xFF MUL NOT AND SWAP1 DUP4 PUSH1 0xFF AND MUL OR SWAP1 SSTORE POP PUSH1 0x2 DUP3 ADD DUP2 PUSH1 0x2 ADD SWAP1 DUP1 SLOAD PUSH2 0x3A8 SWAP3 SWAP2 SWAP1 PUSH2 0xCD3 JUMP JUMPDEST POP POP POP DUP1 DUP1 PUSH2 0x3B6 SWAP1 PUSH2 0x17FF JUMP JUMPDEST SWAP2 POP POP PUSH2 0x2D4 JUMP JUMPDEST POP PUSH1 0x1 DUP3 SWAP1 DUP1 PUSH1 0x1 DUP2 SLOAD ADD DUP1 DUP3 SSTORE DUP1 SWAP2 POP POP PUSH1 0x1 SWAP1 SUB SWAP1 PUSH1 0x0 MSTORE PUSH1 0x20 PUSH1 0x0 KECCAK256 SWAP1 PUSH1 0x4 MUL ADD PUSH1 0x0 SWAP1 SWAP2 SWAP1 SWAP2 SWAP1 SWAP2 POP PUSH1 0x0 DUP3 ADD PUSH1 0x0 SWAP1 SLOAD SWAP1 PUSH2 0x100 EXP SWAP1 DIV PUSH20 0xFFFFFFFFFFFFFFFFFFFFFFFFFFFFFFFFFFFFFFFF AND DUP2 PUSH1 0x0 ADD PUSH1 0x0 PUSH2 0x100 EXP DUP2 SLOAD DUP2 PUSH20 0xFFFFFFFFFFFFFFFFFFFFFFFFFFFFFFFFFFFFFFFF MUL NOT AND SWAP1 DUP4 PUSH20 0xFFFFFFFFFFFFFFFFFFFFFFFFFFFFFFFFFFFFFFFF AND MUL OR SWAP1 SSTORE POP PUSH1 0x0 DUP3 ADD PUSH1 0x14 SWAP1 SLOAD SWAP1 PUSH2 0x100 EXP SWAP1 DIV PUSH1 0xFF AND DUP2 PUSH1 0x0 ADD PUSH1 0x14 PUSH2 0x100 EXP DUP2 SLOAD DUP2 PUSH1 0xFF MUL NOT AND SWAP1 DUP4 PUSH1 0xFF AND MUL OR SWAP1 SSTORE POP PUSH1 0x0 DUP3 ADD PUSH1 0x15 SWAP1 SLOAD SWAP1 PUSH2 0x100 EXP SWAP1 DIV PUSH1 0xFF AND DUP2 PUSH1 0x0 ADD PUSH1 0x15 PUSH2 0x100 EXP DUP2 SLOAD DUP2 PUSH1 0xFF MUL NOT AND SWAP1 DUP4 PUSH1 0xFF AND MUL OR SWAP1 SSTORE POP PUSH1 0x1 DUP3 ADD DUP2 PUSH1 0x1 ADD SWAP1 DUP1 SLOAD PUSH2 0x4C4 SWAP3 SWAP2 SWAP1 PUSH2 0xDDF JUMP JUMPDEST POP PUSH1 0x2 DUP3 ADD SLOAD DUP2 PUSH1 0x2 ADD SSTORE PUSH1 0x3 DUP3 ADD SLOAD DUP2 PUSH1 0x3 ADD SSTORE POP POP POP POP POP POP JUMP JUMPDEST PUSH1 0x1 DUP2 DUP2 SLOAD DUP2 LT PUSH2 0x4F1 JUMPI PUSH1 0x0 DUP1 REVERT JUMPDEST SWAP1 PUSH1 0x0 MSTORE PUSH1 0x20 PUSH1 0x0 KECCAK256 SWAP1 PUSH1 0x4 MUL ADD PUSH1 0x0 SWAP2 POP SWAP1 POP DUP1 PUSH1 0x0 ADD PUSH1 0x0 SWAP1 SLOAD SWAP1 PUSH2 0x100 EXP SWAP1 DIV PUSH20 0xFFFFFFFFFFFFFFFFFFFFFFFFFFFFFFFFFFFFFFFF AND SWAP1 DUP1 PUSH1 0x0 ADD PUSH1 0x14 SWAP1 SLOAD SWAP1 PUSH2 0x100 EXP SWAP1 DIV PUSH1 0xFF AND SWAP1 DUP1 PUSH1 0x0 ADD PUSH1 0x15 SWAP1 SLOAD SWAP1 PUSH2 0x100 EXP SWAP1 DIV PUSH1 0xFF AND SWAP1 DUP1 PUSH1 0x2 ADD SLOAD SWAP1 DUP1 PUSH1 0x3 ADD SLOAD SWAP1 POP DUP6 JUMP JUMPDEST DUP2 PUSH1 0xFF AND PUSH1 0x1 DUP2 DUP2 SLOAD DUP2 LT PUSH2 0x579 JUMPI PUSH2 0x578 PUSH2 0x1887 JUMP JUMPDEST JUMPDEST SWAP1 PUSH1 0x0 MSTORE PUSH1 0x20 PUSH1 0x0 KECCAK256 SWAP1 PUSH1 0x4 MUL ADD PUSH1 0x3 ADD SLOAD TIMESTAMP LT PUSH2 0x5CC JUMPI PUSH1 0x40 MLOAD PUSH32 0x8C379A000000000000000000000000000000000000000000000000000000000 DUP2 MSTORE PUSH1 0x4 ADD PUSH2 0x5C3 SWAP1 PUSH2 0x1517 JUMP JUMPDEST PUSH1 0x40 MLOAD DUP1 SWAP2 SUB SWAP1 REVERT JUMPDEST CALLER PUSH20 0xFFFFFFFFFFFFFFFFFFFFFFFFFFFFFFFFFFFFFFFF AND PUSH1 0x1 DUP3 DUP2 SLOAD DUP2 LT PUSH2 0x5F7 JUMPI PUSH2 0x5F6 PUSH2 0x1887 JUMP JUMPDEST JUMPDEST SWAP1 PUSH1 0x0 MSTORE PUSH1 0x20 PUSH1 0x0 KECCAK256 SWAP1 PUSH1 0x4 MUL ADD PUSH1 0x0 ADD PUSH1 0x0 SWAP1 SLOAD SWAP1 PUSH2 0x100 EXP SWAP1 DIV PUSH20 0xFFFFFFFFFFFFFFFFFFFFFFFFFFFFFFFFFFFFFFFF AND PUSH20 0xFFFFFFFFFFFFFFFFFFFFFFFFFFFFFFFFFFFFFFFF AND EQ ISZERO PUSH2 0x680 JUMPI PUSH1 0x40 MLOAD PUSH32 0x8C379A000000000000000000000000000000000000000000000000000000000 DUP2 MSTORE PUSH1 0x4 ADD PUSH2 0x677 SWAP1 PUSH2 0x1557 JUMP JUMPDEST PUSH1 0x40 MLOAD DUP1 SWAP2 SUB SWAP1 REVERT JUMPDEST PUSH1 0x40 MLOAD PUSH1 0x20 ADD PUSH2 0x68F SWAP1 PUSH2 0x1451 JUMP JUMPDEST PUSH1 0x40 MLOAD PUSH1 0x20 DUP2 DUP4 SUB SUB DUP2 MSTORE SWAP1 PUSH1 0x40 MSTORE DUP1 MLOAD SWAP1 PUSH1 0x20 ADD KECCAK256 PUSH1 0x2 PUSH1 0x0 CALLER PUSH20 0xFFFFFFFFFFFFFFFFFFFFFFFFFFFFFFFFFFFFFFFF AND PUSH20 0xFFFFFFFFFFFFFFFFFFFFFFFFFFFFFFFFFFFFFFFF AND DUP2 MSTORE PUSH1 0x20 ADD SWAP1 DUP2 MSTORE PUSH1 0x20 ADD PUSH1 0x0 KECCAK256 PUSH1 0x0 ADD PUSH1 0x40 MLOAD PUSH1 0x20 ADD PUSH2 0x6F7 SWAP2 SWAP1 PUSH2 0x143A JUMP JUMPDEST PUSH1 0x40 MLOAD PUSH1 0x20 DUP2 DUP4 SUB SUB DUP2 MSTORE SWAP1 PUSH1 0x40 MSTORE DUP1 MLOAD SWAP1 PUSH1 0x20 ADD KECCAK256 EQ ISZERO PUSH2 0x74E JUMPI PUSH1 0x40 MLOAD PUSH32 0x8C379A000000000000000000000000000000000000000000000000000000000 DUP2 MSTORE PUSH1 0x4 ADD PUSH2 0x745 SWAP1 PUSH2 0x14F7 JUMP JUMPDEST PUSH1 0x40 MLOAD DUP1 SWAP2 SUB SWAP1 REVERT JUMPDEST PUSH1 0x0 ISZERO ISZERO PUSH1 0x2 PUSH1 0x0 CALLER PUSH20 0xFFFFFFFFFFFFFFFFFFFFFFFFFFFFFFFFFFFFFFFF AND PUSH20 0xFFFFFFFFFFFFFFFFFFFFFFFFFFFFFFFFFFFFFFFF AND DUP2 MSTORE PUSH1 0x20 ADD SWAP1 DUP2 MSTORE PUSH1 0x20 ADD PUSH1 0x0 KECCAK256 PUSH1 0x1 ADD PUSH1 0x14 SWAP1 SLOAD SWAP1 PUSH2 0x100 EXP SWAP1 DIV PUSH1 0xFF AND ISZERO ISZERO EQ PUSH2 0x7E4 JUMPI PUSH1 0x40 MLOAD PUSH32 0x8C379A000000000000000000000000000000000000000000000000000000000 DUP2 MSTORE PUSH1 0x4 ADD PUSH2 0x7DB SWAP1 PUSH2 0x1577 JUMP JUMPDEST PUSH1 0x40 MLOAD DUP1 SWAP2 SUB SWAP1 REVERT JUMPDEST PUSH1 0x0 PUSH1 0x1 DUP5 PUSH1 0xFF AND DUP2 SLOAD DUP2 LT PUSH2 0x7FD JUMPI PUSH2 0x7FC PUSH2 0x1887 JUMP JUMPDEST JUMPDEST SWAP1 PUSH1 0x0 MSTORE PUSH1 0x20 PUSH1 0x0 KECCAK256 SWAP1 PUSH1 0x4 MUL ADD SWAP1 POP PUSH1 0x0 DUP2 PUSH1 0x1 ADD DUP5 PUSH1 0xFF AND DUP2 SLOAD DUP2 LT PUSH2 0x828 JUMPI PUSH2 0x827 PUSH2 0x1887 JUMP JUMPDEST JUMPDEST SWAP1 PUSH1 0x0 MSTORE PUSH1 0x20 PUSH1 0x0 KECCAK256 SWAP1 PUSH1 0x3 MUL ADD SWAP1 POP DUP1 PUSH1 0x1 ADD PUSH1 0x0 DUP2 DUP2 SWAP1 SLOAD SWAP1 PUSH2 0x100 EXP SWAP1 DIV PUSH1 0xFF AND DUP1 SWAP3 SWAP2 SWAP1 PUSH2 0x859 SWAP1 PUSH2 0x17FF JUMP JUMPDEST SWAP2 SWAP1 PUSH2 0x100 EXP DUP2 SLOAD DUP2 PUSH1 0xFF MUL NOT AND SWAP1 DUP4 PUSH1 0xFF AND MUL OR SWAP1 SSTORE POP POP DUP1 PUSH1 0x2 ADD PUSH1 0x2 PUSH1 0x0 CALLER PUSH20 0xFFFFFFFFFFFFFFFFFFFFFFFFFFFFFFFFFFFFFFFF AND PUSH20 0xFFFFFFFFFFFFFFFFFFFFFFFFFFFFFFFFFFFFFFFF AND DUP2 MSTORE PUSH1 0x20 ADD SWAP1 DUP2 MSTORE PUSH1 0x20 ADD PUSH1 0x0 KECCAK256 SWAP1 DUP1 PUSH1 0x1 DUP2 SLOAD ADD DUP1 DUP3 SSTORE DUP1 SWAP2 POP POP PUSH1 0x1 SWAP1 SUB SWAP1 PUSH1 0x0 MSTORE PUSH1 0x20 PUSH1 0x0 KECCAK256 SWAP1 PUSH1 0x2 MUL ADD PUSH1 0x0 SWAP1 SWAP2 SWAP1 SWAP2 SWAP1 SWAP2 POP PUSH1 0x0 DUP3 ADD DUP2 PUSH1 0x0 ADD SWAP1 DUP1 SLOAD PUSH2 0x8F2 SWAP1 PUSH2 0x179C JUMP JUMPDEST PUSH2 0x8FD SWAP3 SWAP2 SWAP1 PUSH2 0xC46 JUMP JUMPDEST POP PUSH1 0x1 DUP3 ADD PUSH1 0x0 SWAP1 SLOAD SWAP1 PUSH2 0x100 EXP SWAP1 DIV PUSH20 0xFFFFFFFFFFFFFFFFFFFFFFFFFFFFFFFFFFFFFFFF AND DUP2 PUSH1 0x1 ADD PUSH1 0x0 PUSH2 0x100 EXP DUP2 SLOAD DUP2 PUSH20 0xFFFFFFFFFFFFFFFFFFFFFFFFFFFFFFFFFFFFFFFF MUL NOT AND SWAP1 DUP4 PUSH20 0xFFFFFFFFFFFFFFFFFFFFFFFFFFFFFFFFFFFFFFFF AND MUL OR SWAP1 SSTORE POP PUSH1 0x1 DUP3 ADD PUSH1 0x14 SWAP1 SLOAD SWAP1 PUSH2 0x100 EXP SWAP1 DIV PUSH1 0xFF AND DUP2 PUSH1 0x1 ADD PUSH1 0x14 PUSH2 0x100 EXP DUP2 SLOAD DUP2 PUSH1 0xFF MUL NOT AND SWAP1 DUP4 ISZERO ISZERO MUL OR SWAP1 SSTORE POP POP POP PUSH1 0x1 PUSH1 0x2 PUSH1 0x0 CALLER PUSH20 0xFFFFFFFFFFFFFFFFFFFFFFFFFFFFFFFFFFFFFFFF AND PUSH20 0xFFFFFFFFFFFFFFFFFFFFFFFFFFFFFFFFFFFFFFFF AND DUP2 MSTORE PUSH1 0x20 ADD SWAP1 DUP2 MSTORE PUSH1 0x20 ADD PUSH1 0x0 KECCAK256 PUSH1 0x1 ADD PUSH1 0x14 PUSH2 0x100 EXP DUP2 SLOAD DUP2 PUSH1 0xFF MUL NOT AND SWAP1 DUP4 ISZERO ISZERO MUL OR SWAP1 SSTORE POP POP POP POP POP POP JUMP JUMPDEST PUSH1 0x40 MLOAD PUSH1 0x20 ADD PUSH2 0xA05 SWAP1 PUSH2 0x1451 JUMP JUMPDEST PUSH1 0x40 MLOAD PUSH1 0x20 DUP2 DUP4 SUB SUB DUP2 MSTORE SWAP1 PUSH1 0x40 MSTORE DUP1 MLOAD SWAP1 PUSH1 0x20 ADD KECCAK256 PUSH1 0x2 PUSH1 0x0 CALLER PUSH20 0xFFFFFFFFFFFFFFFFFFFFFFFFFFFFFFFFFFFFFFFF AND PUSH20 0xFFFFFFFFFFFFFFFFFFFFFFFFFFFFFFFFFFFFFFFF AND DUP2 MSTORE PUSH1 0x20 ADD SWAP1 DUP2 MSTORE PUSH1 0x20 ADD PUSH1 0x0 KECCAK256 PUSH1 0x0 ADD PUSH1 0x40 MLOAD PUSH1 0x20 ADD PUSH2 0xA6D SWAP2 SWAP1 PUSH2 0x143A JUMP JUMPDEST PUSH1 0x40 MLOAD PUSH1 0x20 DUP2 DUP4 SUB SUB DUP2 MSTORE SWAP1 PUSH1 0x40 MSTORE DUP1 MLOAD SWAP1 PUSH1 0x20 ADD KECCAK256 EQ PUSH2 0xAC3 JUMPI PUSH1 0x40 MLOAD PUSH32 0x8C379A000000000000000000000000000000000000000000000000000000000 DUP2 MSTORE PUSH1 0x4 ADD PUSH2 0xABA SWAP1 PUSH2 0x1537 JUMP JUMPDEST PUSH1 0x40 MLOAD DUP1 SWAP2 SUB SWAP1 REVERT JUMPDEST PUSH1 0x40 MLOAD DUP1 PUSH1 0x60 ADD PUSH1 0x40 MSTORE DUP1 DUP3 DUP2 MSTORE PUSH1 0x20 ADD CALLER PUSH20 0xFFFFFFFFFFFFFFFFFFFFFFFFFFFFFFFFFFFFFFFF AND DUP2 MSTORE PUSH1 0x20 ADD PUSH1 0x0 ISZERO ISZERO DUP2 MSTORE POP PUSH1 0x2 PUSH1 0x0 CALLER PUSH20 0xFFFFFFFFFFFFFFFFFFFFFFFFFFFFFFFFFFFFFFFF AND PUSH20 0xFFFFFFFFFFFFFFFFFFFFFFFFFFFFFFFFFFFFFFFF AND DUP2 MSTORE PUSH1 0x20 ADD SWAP1 DUP2 MSTORE PUSH1 0x20 ADD PUSH1 0x0 KECCAK256 PUSH1 0x0 DUP3 ADD MLOAD DUP2 PUSH1 0x0 ADD SWAP1 DUP1 MLOAD SWAP1 PUSH1 0x20 ADD SWAP1 PUSH2 0xB52 SWAP3 SWAP2 SWAP1 PUSH2 0xBC0 JUMP JUMPDEST POP PUSH1 0x20 DUP3 ADD MLOAD DUP2 PUSH1 0x1 ADD PUSH1 0x0 PUSH2 0x100 EXP DUP2 SLOAD DUP2 PUSH20 0xFFFFFFFFFFFFFFFFFFFFFFFFFFFFFFFFFFFFFFFF MUL NOT AND SWAP1 DUP4 PUSH20 0xFFFFFFFFFFFFFFFFFFFFFFFFFFFFFFFFFFFFFFFF AND MUL OR SWAP1 SSTORE POP PUSH1 0x40 DUP3 ADD MLOAD DUP2 PUSH1 0x1 ADD PUSH1 0x14 PUSH2 0x100 EXP DUP2 SLOAD DUP2 PUSH1 0xFF MUL NOT AND SWAP1 DUP4 ISZERO ISZERO MUL OR SWAP1 SSTORE POP SWAP1 POP POP POP JUMP JUMPDEST DUP3 DUP1 SLOAD PUSH2 0xBCC SWAP1 PUSH2 0x179C JUMP JUMPDEST SWAP1 PUSH1 0x0 MSTORE PUSH1 0x20 PUSH1 0x0 KECCAK256 SWAP1 PUSH1 0x1F ADD PUSH1 0x20 SWAP1 DIV DUP2 ADD SWAP3 DUP3 PUSH2 0xBEE JUMPI PUSH1 0x0 DUP6 SSTORE PUSH2 0xC35 JUMP JUMPDEST DUP3 PUSH1 0x1F LT PUSH2 0xC07 JUMPI DUP1 MLOAD PUSH1 0xFF NOT AND DUP4 DUP1 ADD OR DUP6 SSTORE PUSH2 0xC35 JUMP JUMPDEST DUP3 DUP1 ADD PUSH1 0x1 ADD DUP6 SSTORE DUP3 ISZERO PUSH2 0xC35 JUMPI SWAP2 DUP3 ADD JUMPDEST DUP3 DUP2 GT ISZERO PUSH2 0xC34 JUMPI DUP3 MLOAD DUP3 SSTORE SWAP2 PUSH1 0x20 ADD SWAP2 SWAP1 PUSH1 0x1 ADD SWAP1 PUSH2 0xC19 JUMP JUMPDEST JUMPDEST POP SWAP1 POP PUSH2 0xC42 SWAP2 SWAP1 PUSH2 0xE9C JUMP JUMPDEST POP SWAP1 JUMP JUMPDEST DUP3 DUP1 SLOAD PUSH2 0xC52 SWAP1 PUSH2 0x179C JUMP JUMPDEST SWAP1 PUSH1 0x0 MSTORE PUSH1 0x20 PUSH1 0x0 KECCAK256 SWAP1 PUSH1 0x1F ADD PUSH1 0x20 SWAP1 DIV DUP2 ADD SWAP3 DUP3 PUSH2 0xC74 JUMPI PUSH1 0x0 DUP6 SSTORE PUSH2 0xCC2 JUMP JUMPDEST DUP3 PUSH1 0x1F LT PUSH2 0xC85 JUMPI DUP1 SLOAD DUP6 SSTORE PUSH2 0xCC2 JUMP JUMPDEST DUP3 DUP1 ADD PUSH1 0x1 ADD DUP6 SSTORE DUP3 ISZERO PUSH2 0xCC2 JUMPI PUSH1 0x0 MSTORE PUSH1 0x20 PUSH1 0x0 KECCAK256 SWAP2 PUSH1 0x1F ADD PUSH1 0x20 SWAP1 DIV DUP3 ADD JUMPDEST DUP3 DUP2 GT ISZERO PUSH2 0xCC1 JUMPI DUP3 SLOAD DUP3 SSTORE SWAP2 PUSH1 0x1 ADD SWAP2 SWAP1 PUSH1 0x1 ADD SWAP1 PUSH2 0xCA6 JUMP JUMPDEST JUMPDEST POP SWAP1 POP PUSH2 0xCCF SWAP2 SWAP1 PUSH2 0xE9C JUMP JUMPDEST POP SWAP1 JUMP JUMPDEST DUP3 DUP1 SLOAD DUP3 DUP3 SSTORE SWAP1 PUSH1 0x0 MSTORE PUSH1 0x20 PUSH1 0x0 KECCAK256 SWAP1 PUSH1 0x2 MUL DUP2 ADD SWAP3 DUP3 ISZERO PUSH2 0xDCE JUMPI PUSH1 0x0 MSTORE PUSH1 0x20 PUSH1 0x0 KECCAK256 SWAP2 PUSH1 0x2 MUL DUP3 ADD JUMPDEST DUP3 DUP2 GT ISZERO PUSH2 0xDCD JUMPI DUP3 DUP3 PUSH1 0x0 DUP3 ADD DUP2 PUSH1 0x0 ADD SWAP1 DUP1 SLOAD PUSH2 0xD1C SWAP1 PUSH2 0x179C JUMP JUMPDEST PUSH2 0xD27 SWAP3 SWAP2 SWAP1 PUSH2 0xC46 JUMP JUMPDEST POP PUSH1 0x1 DUP3 ADD PUSH1 0x0 SWAP1 SLOAD SWAP1 PUSH2 0x100 EXP SWAP1 DIV PUSH20 0xFFFFFFFFFFFFFFFFFFFFFFFFFFFFFFFFFFFFFFFF AND DUP2 PUSH1 0x1 ADD PUSH1 0x0 PUSH2 0x100 EXP DUP2 SLOAD DUP2 PUSH20 0xFFFFFFFFFFFFFFFFFFFFFFFFFFFFFFFFFFFFFFFF MUL NOT AND SWAP1 DUP4 PUSH20 0xFFFFFFFFFFFFFFFFFFFFFFFFFFFFFFFFFFFFFFFF AND MUL OR SWAP1 SSTORE POP PUSH1 0x1 DUP3 ADD PUSH1 0x14 SWAP1 SLOAD SWAP1 PUSH2 0x100 EXP SWAP1 DIV PUSH1 0xFF AND DUP2 PUSH1 0x1 ADD PUSH1 0x14 PUSH2 0x100 EXP DUP2 SLOAD DUP2 PUSH1 0xFF MUL NOT AND SWAP1 DUP4 ISZERO ISZERO MUL OR SWAP1 SSTORE POP POP POP SWAP2 PUSH1 0x2 ADD SWAP2 SWAP1 PUSH1 0x2 ADD SWAP1 PUSH2 0xCFE JUMP JUMPDEST JUMPDEST POP SWAP1 POP PUSH2 0xDDB SWAP2 SWAP1 PUSH2 0xEB9 JUMP JUMPDEST POP SWAP1 JUMP JUMPDEST DUP3 DUP1 SLOAD DUP3 DUP3 SSTORE SWAP1 PUSH1 0x0 MSTORE PUSH1 0x20 PUSH1 0x0 KECCAK256 SWAP1 PUSH1 0x3 MUL DUP2 ADD SWAP3 DUP3 ISZERO PUSH2 0xE8B JUMPI PUSH1 0x0 MSTORE PUSH1 0x20 PUSH1 0x0 KECCAK256 SWAP2 PUSH1 0x3 MUL DUP3 ADD JUMPDEST DUP3 DUP2 GT ISZERO PUSH2 0xE8A JUMPI DUP3 DUP3 PUSH1 0x0 DUP3 ADD DUP2 PUSH1 0x0 ADD SWAP1 DUP1 SLOAD PUSH2 0xE28 SWAP1 PUSH2 0x179C JUMP JUMPDEST PUSH2 0xE33 SWAP3 SWAP2 SWAP1 PUSH2 0xC46 JUMP JUMPDEST POP PUSH1 0x1 DUP3 ADD PUSH1 0x0 SWAP1 SLOAD SWAP1 PUSH2 0x100 EXP SWAP1 DIV PUSH1 0xFF AND DUP2 PUSH1 0x1 ADD PUSH1 0x0 PUSH2 0x100 EXP DUP2 SLOAD DUP2 PUSH1 0xFF MUL NOT AND SWAP1 DUP4 PUSH1 0xFF AND MUL OR SWAP1 SSTORE POP PUSH1 0x2 DUP3 ADD DUP2 PUSH1 0x2 ADD SWAP1 DUP1 SLOAD PUSH2 0xE78 SWAP3 SWAP2 SWAP1 PUSH2 0xCD3 JUMP JUMPDEST POP POP POP SWAP2 PUSH1 0x3 ADD SWAP2 SWAP1 PUSH1 0x3 ADD SWAP1 PUSH2 0xE0A JUMP JUMPDEST JUMPDEST POP SWAP1 POP PUSH2 0xE98 SWAP2 SWAP1 PUSH2 0xF1B JUMP JUMPDEST POP SWAP1 JUMP JUMPDEST JUMPDEST DUP1 DUP3 GT ISZERO PUSH2 0xEB5 JUMPI PUSH1 0x0 DUP2 PUSH1 0x0 SWAP1 SSTORE POP PUSH1 0x1 ADD PUSH2 0xE9D JUMP JUMPDEST POP SWAP1 JUMP JUMPDEST JUMPDEST DUP1 DUP3 GT ISZERO PUSH2 0xF17 JUMPI PUSH1 0x0 DUP1 DUP3 ADD PUSH1 0x0 PUSH2 0xED3 SWAP2 SWAP1 PUSH2 0xF66 JUMP JUMPDEST PUSH1 0x1 DUP3 ADD PUSH1 0x0 PUSH2 0x100 EXP DUP2 SLOAD SWAP1 PUSH20 0xFFFFFFFFFFFFFFFFFFFFFFFFFFFFFFFFFFFFFFFF MUL NOT AND SWAP1 SSTORE PUSH1 0x1 DUP3 ADD PUSH1 0x14 PUSH2 0x100 EXP DUP2 SLOAD SWAP1 PUSH1 0xFF MUL NOT AND SWAP1 SSTORE POP PUSH1 0x2 ADD PUSH2 0xEBA JUMP JUMPDEST POP SWAP1 JUMP JUMPDEST JUMPDEST DUP1 DUP3 GT ISZERO PUSH2 0xF62 JUMPI PUSH1 0x0 DUP1 DUP3 ADD PUSH1 0x0 PUSH2 0xF35 SWAP2 SWAP1 PUSH2 0xF66 JUMP JUMPDEST PUSH1 0x1 DUP3 ADD PUSH1 0x0 PUSH2 0x100 EXP DUP2 SLOAD SWAP1 PUSH1 0xFF MUL NOT AND SWAP1 SSTORE PUSH1 0x2 DUP3 ADD PUSH1 0x0 PUSH2 0xF59 SWAP2 SWAP1 PUSH2 0xFA6 JUMP JUMPDEST POP PUSH1 0x3 ADD PUSH2 0xF1C JUMP JUMPDEST POP SWAP1 JUMP JUMPDEST POP DUP1 SLOAD PUSH2 0xF72 SWAP1 PUSH2 0x179C JUMP JUMPDEST PUSH1 0x0 DUP3 SSTORE DUP1 PUSH1 0x1F LT PUSH2 0xF84 JUMPI POP PUSH2 0xFA3 JUMP JUMPDEST PUSH1 0x1F ADD PUSH1 0x20 SWAP1 DIV SWAP1 PUSH1 0x0 MSTORE PUSH1 0x20 PUSH1 0x0 KECCAK256 SWAP1 DUP2 ADD SWAP1 PUSH2 0xFA2 SWAP2 SWAP1 PUSH2 0xE9C JUMP JUMPDEST JUMPDEST POP JUMP JUMPDEST POP DUP1 SLOAD PUSH1 0x0 DUP3 SSTORE PUSH1 0x2 MUL SWAP1 PUSH1 0x0 MSTORE PUSH1 0x20 PUSH1 0x0 KECCAK256 SWAP1 DUP2 ADD SWAP1 PUSH2 0xFC7 SWAP2 SWAP1 PUSH2 0xEB9 JUMP JUMPDEST POP JUMP JUMPDEST PUSH1 0x0 PUSH2 0xFDD PUSH2 0xFD8 DUP5 PUSH2 0x15BC JUMP JUMPDEST PUSH2 0x1597 JUMP JUMPDEST SWAP1 POP DUP1 DUP4 DUP3 MSTORE PUSH1 0x20 DUP3 ADD SWAP1 POP DUP3 DUP6 PUSH1 0x20 DUP7 MUL DUP3 ADD GT ISZERO PUSH2 0x1000 JUMPI PUSH2 0xFFF PUSH2 0x18EA JUMP JUMPDEST JUMPDEST PUSH1 0x0 JUMPDEST DUP6 DUP2 LT ISZERO PUSH2 0x104E JUMPI DUP2 CALLDATALOAD PUSH8 0xFFFFFFFFFFFFFFFF DUP2 GT ISZERO PUSH2 0x1026 JUMPI PUSH2 0x1025 PUSH2 0x18E5 JUMP JUMPDEST JUMPDEST DUP1 DUP7 ADD PUSH2 0x1033 DUP10 DUP3 PUSH2 0x10DD JUMP JUMPDEST DUP6 MSTORE PUSH1 0x20 DUP6 ADD SWAP5 POP PUSH1 0x20 DUP5 ADD SWAP4 POP POP POP PUSH1 0x1 DUP2 ADD SWAP1 POP PUSH2 0x1003 JUMP JUMPDEST POP POP POP SWAP4 SWAP3 POP POP POP JUMP JUMPDEST PUSH1 0x0 PUSH2 0x106B PUSH2 0x1066 DUP5 PUSH2 0x15E8 JUMP JUMPDEST PUSH2 0x1597 JUMP JUMPDEST SWAP1 POP DUP3 DUP2 MSTORE PUSH1 0x20 DUP2 ADD DUP5 DUP5 DUP5 ADD GT ISZERO PUSH2 0x1087 JUMPI PUSH2 0x1086 PUSH2 0x18EF JUMP JUMPDEST JUMPDEST PUSH2 0x1092 DUP5 DUP3 DUP6 PUSH2 0x175A JUMP JUMPDEST POP SWAP4 SWAP3 POP POP POP JUMP JUMPDEST PUSH1 0x0 DUP2 CALLDATALOAD SWAP1 POP PUSH2 0x10A9 DUP2 PUSH2 0x19DF JUMP JUMPDEST SWAP3 SWAP2 POP POP JUMP JUMPDEST PUSH1 0x0 DUP3 PUSH1 0x1F DUP4 ADD SLT PUSH2 0x10C4 JUMPI PUSH2 0x10C3 PUSH2 0x18E5 JUMP JUMPDEST JUMPDEST DUP2 CALLDATALOAD PUSH2 0x10D4 DUP5 DUP3 PUSH1 0x20 DUP7 ADD PUSH2 0xFCA JUMP JUMPDEST SWAP2 POP POP SWAP3 SWAP2 POP POP JUMP JUMPDEST PUSH1 0x0 DUP3 PUSH1 0x1F DUP4 ADD SLT PUSH2 0x10F2 JUMPI PUSH2 0x10F1 PUSH2 0x18E5 JUMP JUMPDEST JUMPDEST DUP2 CALLDATALOAD PUSH2 0x1102 DUP5 DUP3 PUSH1 0x20 DUP7 ADD PUSH2 0x1058 JUMP JUMPDEST SWAP2 POP POP SWAP3 SWAP2 POP POP JUMP JUMPDEST PUSH1 0x0 DUP2 CALLDATALOAD SWAP1 POP PUSH2 0x111A DUP2 PUSH2 0x19F6 JUMP JUMPDEST SWAP3 SWAP2 POP POP JUMP JUMPDEST PUSH1 0x0 DUP2 CALLDATALOAD SWAP1 POP PUSH2 0x112F DUP2 PUSH2 0x1A0D JUMP JUMPDEST SWAP3 SWAP2 POP POP JUMP JUMPDEST PUSH1 0x0 PUSH1 0x20 DUP3 DUP5 SUB SLT ISZERO PUSH2 0x114B JUMPI PUSH2 0x114A PUSH2 0x18F9 JUMP JUMPDEST JUMPDEST PUSH1 0x0 PUSH2 0x1159 DUP5 DUP3 DUP6 ADD PUSH2 0x109A JUMP JUMPDEST SWAP2 POP POP SWAP3 SWAP2 POP POP JUMP JUMPDEST PUSH1 0x0 DUP1 PUSH1 0x40 DUP4 DUP6 SUB SLT ISZERO PUSH2 0x1179 JUMPI PUSH2 0x1178 PUSH2 0x18F9 JUMP JUMPDEST JUMPDEST PUSH1 0x0 DUP4 ADD CALLDATALOAD PUSH8 0xFFFFFFFFFFFFFFFF DUP2 GT ISZERO PUSH2 0x1197 JUMPI PUSH2 0x1196 PUSH2 0x18F4 JUMP JUMPDEST JUMPDEST PUSH2 0x11A3 DUP6 DUP3 DUP7 ADD PUSH2 0x10AF JUMP JUMPDEST SWAP3 POP POP PUSH1 0x20 PUSH2 0x11B4 DUP6 DUP3 DUP7 ADD PUSH2 0x110B JUMP JUMPDEST SWAP2 POP POP SWAP3 POP SWAP3 SWAP1 POP JUMP JUMPDEST PUSH1 0x0 PUSH1 0x20 DUP3 DUP5 SUB SLT ISZERO PUSH2 0x11D4 JUMPI PUSH2 0x11D3 PUSH2 0x18F9 JUMP JUMPDEST JUMPDEST PUSH1 0x0 DUP3 ADD CALLDATALOAD PUSH8 0xFFFFFFFFFFFFFFFF DUP2 GT ISZERO PUSH2 0x11F2 JUMPI PUSH2 0x11F1 PUSH2 0x18F4 JUMP JUMPDEST JUMPDEST PUSH2 0x11FE DUP5 DUP3 DUP6 ADD PUSH2 0x10DD JUMP JUMPDEST SWAP2 POP POP SWAP3 SWAP2 POP POP JUMP JUMPDEST PUSH1 0x0 PUSH1 0x20 DUP3 DUP5 SUB SLT ISZERO PUSH2 0x121D JUMPI PUSH2 0x121C PUSH2 0x18F9 JUMP JUMPDEST JUMPDEST PUSH1 0x0 PUSH2 0x122B DUP5 DUP3 DUP6 ADD PUSH2 0x110B JUMP JUMPDEST SWAP2 POP POP SWAP3 SWAP2 POP POP JUMP JUMPDEST PUSH1 0x0 DUP1 PUSH1 0x40 DUP4 DUP6 SUB SLT ISZERO PUSH2 0x124B JUMPI PUSH2 0x124A PUSH2 0x18F9 JUMP JUMPDEST JUMPDEST PUSH1 0x0 PUSH2 0x1259 DUP6 DUP3 DUP7 ADD PUSH2 0x1120 JUMP JUMPDEST SWAP3 POP POP PUSH1 0x20 PUSH2 0x126A DUP6 DUP3 DUP7 ADD PUSH2 0x1120 JUMP JUMPDEST SWAP2 POP POP SWAP3 POP SWAP3 SWAP1 POP JUMP JUMPDEST PUSH2 0x127D DUP2 PUSH2 0x1705 JUMP JUMPDEST DUP3 MSTORE POP POP JUMP JUMPDEST PUSH2 0x128C DUP2 PUSH2 0x1717 JUMP JUMPDEST DUP3 MSTORE POP POP JUMP JUMPDEST PUSH1 0x0 PUSH2 0x129D DUP3 PUSH2 0x162E JUMP JUMPDEST PUSH2 0x12A7 DUP2 DUP6 PUSH2 0x1639 JUMP JUMPDEST SWAP4 POP PUSH2 0x12B7 DUP2 DUP6 PUSH1 0x20 DUP7 ADD PUSH2 0x1769 JUMP JUMPDEST PUSH2 0x12C0 DUP2 PUSH2 0x18FE JUMP JUMPDEST DUP5 ADD SWAP2 POP POP SWAP3 SWAP2 POP POP JUMP JUMPDEST PUSH1 0x0 DUP2 SLOAD PUSH2 0x12D8 DUP2 PUSH2 0x179C JUMP JUMPDEST PUSH2 0x12E2 DUP2 DUP7 PUSH2 0x164A JUMP JUMPDEST SWAP5 POP PUSH1 0x1 DUP3 AND PUSH1 0x0 DUP2 EQ PUSH2 0x12FD JUMPI PUSH1 0x1 DUP2 EQ PUSH2 0x130E JUMPI PUSH2 0x1341 JUMP JUMPDEST PUSH1 0xFF NOT DUP4 AND DUP7 MSTORE DUP2 DUP7 ADD SWAP4 POP PUSH2 0x1341 JUMP JUMPDEST PUSH2 0x1317 DUP6 PUSH2 0x1619 JUMP JUMPDEST PUSH1 0x0 JUMPDEST DUP4 DUP2 LT ISZERO PUSH2 0x1339 JUMPI DUP2 SLOAD DUP2 DUP10 ADD MSTORE PUSH1 0x1 DUP3 ADD SWAP2 POP PUSH1 0x20 DUP2 ADD SWAP1 POP PUSH2 0x131A JUMP JUMPDEST DUP4 DUP9 ADD SWAP6 POP POP POP JUMPDEST POP POP POP SWAP3 SWAP2 POP POP JUMP JUMPDEST PUSH1 0x0 PUSH2 0x1357 PUSH1 0xF DUP4 PUSH2 0x1639 JUMP JUMPDEST SWAP2 POP PUSH2 0x1362 DUP3 PUSH2 0x190F JUMP JUMPDEST PUSH1 0x20 DUP3 ADD SWAP1 POP SWAP2 SWAP1 POP JUMP JUMPDEST PUSH1 0x0 PUSH2 0x137A PUSH1 0x16 DUP4 PUSH2 0x1639 JUMP JUMPDEST SWAP2 POP PUSH2 0x1385 DUP3 PUSH2 0x1938 JUMP JUMPDEST PUSH1 0x20 DUP3 ADD SWAP1 POP SWAP2 SWAP1 POP JUMP JUMPDEST PUSH1 0x0 PUSH2 0x139D PUSH1 0x12 DUP4 PUSH2 0x1639 JUMP JUMPDEST SWAP2 POP PUSH2 0x13A8 DUP3 PUSH2 0x1961 JUMP JUMPDEST PUSH1 0x20 DUP3 ADD SWAP1 POP SWAP2 SWAP1 POP JUMP JUMPDEST PUSH1 0x0 PUSH2 0x13C0 PUSH1 0x0 DUP4 PUSH2 0x164A JUMP JUMPDEST SWAP2 POP PUSH2 0x13CB DUP3 PUSH2 0x198A JUMP JUMPDEST PUSH1 0x0 DUP3 ADD SWAP1 POP SWAP2 SWAP1 POP JUMP JUMPDEST PUSH1 0x0 PUSH2 0x13E3 PUSH1 0x14 DUP4 PUSH2 0x1639 JUMP JUMPDEST SWAP2 POP PUSH2 0x13EE DUP3 PUSH2 0x198D JUMP JUMPDEST PUSH1 0x20 DUP3 ADD SWAP1 POP SWAP2 SWAP1 POP JUMP JUMPDEST PUSH1 0x0 PUSH2 0x1406 PUSH1 0x16 DUP4 PUSH2 0x1639 JUMP JUMPDEST SWAP2 POP PUSH2 0x1411 DUP3 PUSH2 0x19B6 JUMP JUMPDEST PUSH1 0x20 DUP3 ADD SWAP1 POP SWAP2 SWAP1 POP JUMP JUMPDEST PUSH2 0x1425 DUP2 PUSH2 0x1743 JUMP JUMPDEST DUP3 MSTORE POP POP JUMP JUMPDEST PUSH2 0x1434 DUP2 PUSH2 0x174D JUMP JUMPDEST DUP3 MSTORE POP POP JUMP JUMPDEST PUSH1 0x0 PUSH2 0x1446 DUP3 DUP5 PUSH2 0x12CB JUMP JUMPDEST SWAP2 POP DUP2 SWAP1 POP SWAP3 SWAP2 POP POP JUMP JUMPDEST PUSH1 0x0 PUSH2 0x145C DUP3 PUSH2 0x13B3 JUMP JUMPDEST SWAP2 POP DUP2 SWAP1 POP SWAP2 SWAP1 POP JUMP JUMPDEST PUSH1 0x0 PUSH1 0xA0 DUP3 ADD SWAP1 POP PUSH2 0x147B PUSH1 0x0 DUP4 ADD DUP9 PUSH2 0x1274 JUMP JUMPDEST PUSH2 0x1488 PUSH1 0x20 DUP4 ADD DUP8 PUSH2 0x142B JUMP JUMPDEST PUSH2 0x1495 PUSH1 0x40 DUP4 ADD DUP7 PUSH2 0x142B JUMP JUMPDEST PUSH2 0x14A2 PUSH1 0x60 DUP4 ADD DUP6 PUSH2 0x141C JUMP JUMPDEST PUSH2 0x14AF PUSH1 0x80 DUP4 ADD DUP5 PUSH2 0x141C JUMP JUMPDEST SWAP7 SWAP6 POP POP POP POP POP POP JUMP JUMPDEST PUSH1 0x0 PUSH1 0x60 DUP3 ADD SWAP1 POP DUP2 DUP2 SUB PUSH1 0x0 DUP4 ADD MSTORE PUSH2 0x14D3 DUP2 DUP7 PUSH2 0x1292 JUMP JUMPDEST SWAP1 POP PUSH2 0x14E2 PUSH1 0x20 DUP4 ADD DUP6 PUSH2 0x1274 JUMP JUMPDEST PUSH2 0x14EF PUSH1 0x40 DUP4 ADD DUP5 PUSH2 0x1283 JUMP JUMPDEST SWAP5 SWAP4 POP POP POP POP JUMP JUMPDEST PUSH1 0x0 PUSH1 0x20 DUP3 ADD SWAP1 POP DUP2 DUP2 SUB PUSH1 0x0 DUP4 ADD MSTORE PUSH2 0x1510 DUP2 PUSH2 0x134A JUMP JUMPDEST SWAP1 POP SWAP2 SWAP1 POP JUMP JUMPDEST PUSH1 0x0 PUSH1 0x20 DUP3 ADD SWAP1 POP DUP2 DUP2 SUB PUSH1 0x0 DUP4 ADD MSTORE PUSH2 0x1530 DUP2 PUSH2 0x136D JUMP JUMPDEST SWAP1 POP SWAP2 SWAP1 POP JUMP JUMPDEST PUSH1 0x0 PUSH1 0x20 DUP3 ADD SWAP1 POP DUP2 DUP2 SUB PUSH1 0x0 DUP4 ADD MSTORE PUSH2 0x1550 DUP2 PUSH2 0x1390 JUMP JUMPDEST SWAP1 POP SWAP2 SWAP1 POP JUMP JUMPDEST PUSH1 0x0 PUSH1 0x20 DUP3 ADD SWAP1 POP DUP2 DUP2 SUB PUSH1 0x0 DUP4 ADD MSTORE PUSH2 0x1570 DUP2 PUSH2 0x13D6 JUMP JUMPDEST SWAP1 POP SWAP2 SWAP1 POP JUMP JUMPDEST PUSH1 0x0 PUSH1 0x20 DUP3 ADD SWAP1 POP DUP2 DUP2 SUB PUSH1 0x0 DUP4 ADD MSTORE PUSH2 0x1590 DUP2 PUSH2 0x13F9 JUMP JUMPDEST SWAP1 POP SWAP2 SWAP1 POP JUMP JUMPDEST PUSH1 0x0 PUSH2 0x15A1 PUSH2 0x15B2 JUMP JUMPDEST SWAP1 POP PUSH2 0x15AD DUP3 DUP3 PUSH2 0x17CE JUMP JUMPDEST SWAP2 SWAP1 POP JUMP JUMPDEST PUSH1 0x0 PUSH1 0x40 MLOAD SWAP1 POP SWAP1 JUMP JUMPDEST PUSH1 0x0 PUSH8 0xFFFFFFFFFFFFFFFF DUP3 GT ISZERO PUSH2 0x15D7 JUMPI PUSH2 0x15D6 PUSH2 0x18B6 JUMP JUMPDEST JUMPDEST PUSH1 0x20 DUP3 MUL SWAP1 POP PUSH1 0x20 DUP2 ADD SWAP1 POP SWAP2 SWAP1 POP JUMP JUMPDEST PUSH1 0x0 PUSH8 0xFFFFFFFFFFFFFFFF DUP3 GT ISZERO PUSH2 0x1603 JUMPI PUSH2 0x1602 PUSH2 0x18B6 JUMP JUMPDEST JUMPDEST PUSH2 0x160C DUP3 PUSH2 0x18FE JUMP JUMPDEST SWAP1 POP PUSH1 0x20 DUP2 ADD SWAP1 POP SWAP2 SWAP1 POP JUMP JUMPDEST PUSH1 0x0 DUP2 SWAP1 POP DUP2 PUSH1 0x0 MSTORE PUSH1 0x20 PUSH1 0x0 KECCAK256 SWAP1 POP SWAP2 SWAP1 POP JUMP JUMPDEST PUSH1 0x0 DUP2 MLOAD SWAP1 POP SWAP2 SWAP1 POP JUMP JUMPDEST PUSH1 0x0 DUP3 DUP3 MSTORE PUSH1 0x20 DUP3 ADD SWAP1 POP SWAP3 SWAP2 POP POP JUMP JUMPDEST PUSH1 0x0 DUP2 SWAP1 POP SWAP3 SWAP2 POP POP JUMP JUMPDEST PUSH1 0x0 PUSH2 0x1660 DUP3 PUSH2 0x1743 JUMP JUMPDEST SWAP2 POP PUSH2 0x166B DUP4 PUSH2 0x1743 JUMP JUMPDEST SWAP3 POP DUP3 PUSH32 0xFFFFFFFFFFFFFFFFFFFFFFFFFFFFFFFFFFFFFFFFFFFFFFFFFFFFFFFFFFFFFFFF SUB DUP3 GT ISZERO PUSH2 0x16A0 JUMPI PUSH2 0x169F PUSH2 0x1829 JUMP JUMPDEST JUMPDEST DUP3 DUP3 ADD SWAP1 POP SWAP3 SWAP2 POP POP JUMP JUMPDEST PUSH1 0x0 PUSH2 0x16B6 DUP3 PUSH2 0x1743 JUMP JUMPDEST SWAP2 POP PUSH2 0x16C1 DUP4 PUSH2 0x1743 JUMP JUMPDEST SWAP3 POP DUP2 PUSH32 0xFFFFFFFFFFFFFFFFFFFFFFFFFFFFFFFFFFFFFFFFFFFFFFFFFFFFFFFFFFFFFFFF DIV DUP4 GT DUP3 ISZERO ISZERO AND ISZERO PUSH2 0x16FA JUMPI PUSH2 0x16F9 PUSH2 0x1829 JUMP JUMPDEST JUMPDEST DUP3 DUP3 MUL SWAP1 POP SWAP3 SWAP2 POP POP JUMP JUMPDEST PUSH1 0x0 PUSH2 0x1710 DUP3 PUSH2 0x1723 JUMP JUMPDEST SWAP1 POP SWAP2 SWAP1 POP JUMP JUMPDEST PUSH1 0x0 DUP2 ISZERO ISZERO SWAP1 POP SWAP2 SWAP1 POP JUMP JUMPDEST PUSH1 0x0 PUSH20 0xFFFFFFFFFFFFFFFFFFFFFFFFFFFFFFFFFFFFFFFF DUP3 AND SWAP1 POP SWAP2 SWAP1 POP JUMP JUMPDEST PUSH1 0x0 DUP2 SWAP1 POP SWAP2 SWAP1 POP JUMP JUMPDEST PUSH1 0x0 PUSH1 0xFF DUP3 AND SWAP1 POP SWAP2 SWAP1 POP JUMP JUMPDEST DUP3 DUP2 DUP4 CALLDATACOPY PUSH1 0x0 DUP4 DUP4 ADD MSTORE POP POP POP JUMP JUMPDEST PUSH1 0x0 JUMPDEST DUP4 DUP2 LT ISZERO PUSH2 0x1787 JUMPI DUP1 DUP3 ADD MLOAD DUP2 DUP5 ADD MSTORE PUSH1 0x20 DUP2 ADD SWAP1 POP PUSH2 0x176C JUMP JUMPDEST DUP4 DUP2 GT ISZERO PUSH2 0x1796 JUMPI PUSH1 0x0 DUP5 DUP5 ADD MSTORE JUMPDEST POP POP POP POP JUMP JUMPDEST PUSH1 0x0 PUSH1 0x2 DUP3 DIV SWAP1 POP PUSH1 0x1 DUP3 AND DUP1 PUSH2 0x17B4 JUMPI PUSH1 0x7F DUP3 AND SWAP2 POP JUMPDEST PUSH1 0x20 DUP3 LT DUP2 EQ ISZERO PUSH2 0x17C8 JUMPI PUSH2 0x17C7 PUSH2 0x1858 JUMP JUMPDEST JUMPDEST POP SWAP2 SWAP1 POP JUMP JUMPDEST PUSH2 0x17D7 DUP3 PUSH2 0x18FE JUMP JUMPDEST DUP2 ADD DUP2 DUP2 LT PUSH8 0xFFFFFFFFFFFFFFFF DUP3 GT OR ISZERO PUSH2 0x17F6 JUMPI PUSH2 0x17F5 PUSH2 0x18B6 JUMP JUMPDEST JUMPDEST DUP1 PUSH1 0x40 MSTORE POP POP POP JUMP JUMPDEST PUSH1 0x0 PUSH2 0x180A DUP3 PUSH2 0x174D JUMP JUMPDEST SWAP2 POP PUSH1 0xFF DUP3 EQ ISZERO PUSH2 0x181E JUMPI PUSH2 0x181D PUSH2 0x1829 JUMP JUMPDEST JUMPDEST PUSH1 0x1 DUP3 ADD SWAP1 POP SWAP2 SWAP1 POP JUMP JUMPDEST PUSH32 0x4E487B7100000000000000000000000000000000000000000000000000000000 PUSH1 0x0 MSTORE PUSH1 0x11 PUSH1 0x4 MSTORE PUSH1 0x24 PUSH1 0x0 REVERT JUMPDEST PUSH32 0x4E487B7100000000000000000000000000000000000000000000000000000000 PUSH1 0x0 MSTORE PUSH1 0x22 PUSH1 0x4 MSTORE PUSH1 0x24 PUSH1 0x0 REVERT JUMPDEST PUSH32 0x4E487B7100000000000000000000000000000000000000000000000000000000 PUSH1 0x0 MSTORE PUSH1 0x32 PUSH1 0x4 MSTORE PUSH1 0x24 PUSH1 0x0 REVERT JUMPDEST PUSH32 0x4E487B7100000000000000000000000000000000000000000000000000000000 PUSH1 0x0 MSTORE PUSH1 0x41 PUSH1 0x4 MSTORE PUSH1 0x24 PUSH1 0x0 REVERT JUMPDEST PUSH1 0x0 DUP1 REVERT JUMPDEST PUSH1 0x0 DUP1 REVERT JUMPDEST PUSH1 0x0 DUP1 REVERT JUMPDEST PUSH1 0x0 DUP1 REVERT JUMPDEST PUSH1 0x0 DUP1 REVERT JUMPDEST PUSH1 0x0 PUSH1 0x1F NOT PUSH1 0x1F DUP4 ADD AND SWAP1 POP SWAP2 SWAP1 POP JUMP JUMPDEST PUSH32 0x4E6F742072656769737465726564210000000000000000000000000000000000 PUSH1 0x0 DUP3 ADD MSTORE POP JUMP JUMPDEST PUSH32 0x566F74696E6720506572696F64206973204F7665722100000000000000000000 PUSH1 0x0 DUP3 ADD MSTORE POP JUMP JUMPDEST PUSH32 0x416C726561647920526567697374657265640000000000000000000000000000 PUSH1 0x0 DUP3 ADD MSTORE POP JUMP JUMPDEST POP JUMP JUMPDEST PUSH32 0x43726561746F722063616E6E6F7420766F746521000000000000000000000000 PUSH1 0x0 DUP3 ADD MSTORE POP JUMP JUMPDEST PUSH32 0x4163636F756E7420616C726561647920766F7465642100000000000000000000 PUSH1 0x0 DUP3 ADD MSTORE POP JUMP JUMPDEST PUSH2 0x19E8 DUP2 PUSH2 0x1705 JUMP JUMPDEST DUP2 EQ PUSH2 0x19F3 JUMPI PUSH1 0x0 DUP1 REVERT JUMPDEST POP JUMP JUMPDEST PUSH2 0x19FF DUP2 PUSH2 0x1743 JUMP JUMPDEST DUP2 EQ PUSH2 0x1A0A JUMPI PUSH1 0x0 DUP1 REVERT JUMPDEST POP JUMP JUMPDEST PUSH2 0x1A16 DUP2 PUSH2 0x174D JUMP JUMPDEST DUP2 EQ PUSH2 0x1A21 JUMPI PUSH1 0x0 DUP1 REVERT JUMPDEST POP JUMP INVALID LOG2 PUSH5 0x6970667358 0x22 SLT KECCAK256 PUSH30 0xBE84808478EA1145B1766AA48AFEF86ABA3C2CE0D62EBA20A47018D1DF47 0xEE PUSH5 0x736F6C6343 STOP ADDMOD SMOD STOP CALLER "
				},
				"gasEstimates": {
					"creation": {
						"codeDepositCost": "1349200",
						"executionCost": "25670",
						"totalCost": "1374870"
					},
					"external": {
						"createPoll(string[],uint256)": "infinite",
						"polls(uint256)": "infinite",
						"regVoters(address)": "infinite",
						"register(string)": "infinite",
						"vote(uint8,uint8)": "infinite"
					}
				},
				"methodIdentifiers": {
					"createPoll(string[],uint256)": "36dffc3c",
					"polls(uint256)": "ac2f0074",
					"regVoters(address)": "0042c438",
					"register(string)": "f2c298be",
					"vote(uint8,uint8)": "df49c4de"
				}
			},
			"storageLayout": {
				"storage": [
					{
						"astId": 4,
						"contract": "Voting.sol:Voting",
						"label": "globalPollNo",
						"offset": 0,
						"slot": "0",
						"type": "t_uint8"
					},
					{
						"astId": 39,
						"contract": "Voting.sol:Voting",
						"label": "polls",
						"offset": 0,
						"slot": "1",
						"type": "t_array(t_struct(Poll)35_storage)dyn_storage"
					},
					{
						"astId": 44,
						"contract": "Voting.sol:Voting",
						"label": "regVoters",
						"offset": 0,
						"slot": "2",
						"type": "t_mapping(t_address,t_struct(Voter)11_storage)"
					},
					{
						"astId": 47,
						"contract": "Voting.sol:Voting",
						"label": "temp",
						"offset": 0,
						"slot": "3",
						"type": "t_struct(Option)20_storage"
					},
					{
						"astId": 50,
						"contract": "Voting.sol:Voting",
						"label": "tempPoll",
						"offset": 0,
						"slot": "6",
						"type": "t_struct(Poll)35_storage"
					}
				],
				"types": {
					"t_address": {
						"encoding": "inplace",
						"label": "address",
						"numberOfBytes": "20"
					},
					"t_array(t_struct(Option)20_storage)dyn_storage": {
						"base": "t_struct(Option)20_storage",
						"encoding": "dynamic_array",
						"label": "struct Voting.Option[]",
						"numberOfBytes": "32"
					},
					"t_array(t_struct(Poll)35_storage)dyn_storage": {
						"base": "t_struct(Poll)35_storage",
						"encoding": "dynamic_array",
						"label": "struct Voting.Poll[]",
						"numberOfBytes": "32"
					},
					"t_array(t_struct(Voter)11_storage)dyn_storage": {
						"base": "t_struct(Voter)11_storage",
						"encoding": "dynamic_array",
						"label": "struct Voting.Voter[]",
						"numberOfBytes": "32"
					},
					"t_bool": {
						"encoding": "inplace",
						"label": "bool",
						"numberOfBytes": "1"
					},
					"t_mapping(t_address,t_struct(Voter)11_storage)": {
						"encoding": "mapping",
						"key": "t_address",
						"label": "mapping(address => struct Voting.Voter)",
						"numberOfBytes": "32",
						"value": "t_struct(Voter)11_storage"
					},
					"t_string_storage": {
						"encoding": "bytes",
						"label": "string",
						"numberOfBytes": "32"
					},
					"t_struct(Option)20_storage": {
						"encoding": "inplace",
						"label": "struct Voting.Option",
						"members": [
							{
								"astId": 13,
								"contract": "Voting.sol:Voting",
								"label": "name",
								"offset": 0,
								"slot": "0",
								"type": "t_string_storage"
							},
							{
								"astId": 15,
								"contract": "Voting.sol:Voting",
								"label": "votes",
								"offset": 0,
								"slot": "1",
								"type": "t_uint8"
							},
							{
								"astId": 19,
								"contract": "Voting.sol:Voting",
								"label": "voters",
								"offset": 0,
								"slot": "2",
								"type": "t_array(t_struct(Voter)11_storage)dyn_storage"
							}
						],
						"numberOfBytes": "96"
					},
					"t_struct(Poll)35_storage": {
						"encoding": "inplace",
						"label": "struct Voting.Poll",
						"members": [
							{
								"astId": 22,
								"contract": "Voting.sol:Voting",
								"label": "creator",
								"offset": 0,
								"slot": "0",
								"type": "t_address"
							},
							{
								"astId": 24,
								"contract": "Voting.sol:Voting",
								"label": "pollNo",
								"offset": 20,
								"slot": "0",
								"type": "t_uint8"
							},
							{
								"astId": 26,
								"contract": "Voting.sol:Voting",
								"label": "nOptn",
								"offset": 21,
								"slot": "0",
								"type": "t_uint8"
							},
							{
								"astId": 30,
								"contract": "Voting.sol:Voting",
								"label": "options",
								"offset": 0,
								"slot": "1",
								"type": "t_array(t_struct(Option)20_storage)dyn_storage"
							},
							{
								"astId": 32,
								"contract": "Voting.sol:Voting",
								"label": "duration",
								"offset": 0,
								"slot": "2",
								"type": "t_uint256"
							},
							{
								"astId": 34,
								"contract": "Voting.sol:Voting",
								"label": "endTime",
								"offset": 0,
								"slot": "3",
								"type": "t_uint256"
							}
						],
						"numberOfBytes": "128"
					},
					"t_struct(Voter)11_storage": {
						"encoding": "inplace",
						"label": "struct Voting.Voter",
						"members": [
							{
								"astId": 6,
								"contract": "Voting.sol:Voting",
								"label": "name",
								"offset": 0,
								"slot": "0",
								"type": "t_string_storage"
							},
							{
								"astId": 8,
								"contract": "Voting.sol:Voting",
								"label": "addr",
								"offset": 0,
								"slot": "1",
								"type": "t_address"
							},
							{
								"astId": 10,
								"contract": "Voting.sol:Voting",
								"label": "voted",
								"offset": 20,
								"slot": "1",
								"type": "t_bool"
							}
						],
						"numberOfBytes": "64"
					},
					"t_uint256": {
						"encoding": "inplace",
						"label": "uint256",
						"numberOfBytes": "32"
					},
					"t_uint8": {
						"encoding": "inplace",
						"label": "uint8",
						"numberOfBytes": "1"
					}
				}
			},
			"userdoc": {
				"kind": "user",
				"methods": {},
				"version": 1
			}
		}
	}
}