{
	"Voting.sol": {
		"Voting": {
			"abi": [
				{
					"inputs": [
						{
							"internalType": "string[]",
							"name": "options",
							"type": "string[]"
						},
						{
							"internalType": "uint256",
							"name": "start",
							"type": "uint256"
						},
						{
							"internalType": "uint256",
							"name": "end",
							"type": "uint256"
						}
					],
					"name": "createPoll",
					"outputs": [],
					"stateMutability": "nonpayable",
					"type": "function"
				},
				{
					"inputs": [
						{
							"internalType": "uint256",
							"name": "",
							"type": "uint256"
						}
					],
					"name": "polls",
					"outputs": [
						{
							"internalType": "address",
							"name": "creator",
							"type": "address"
						},
						{
							"internalType": "uint8",
							"name": "pollNo",
							"type": "uint8"
						},
						{
							"internalType": "uint8",
							"name": "nOptn",
							"type": "uint8"
						},
						{
							"internalType": "uint256",
							"name": "startTime",
							"type": "uint256"
						},
						{
							"internalType": "uint256",
							"name": "endTime",
							"type": "uint256"
						}
					],
					"stateMutability": "view",
					"type": "function"
				}
			],
			"devdoc": {
				"kind": "dev",
				"methods": {},
				"version": 1
			},
			"evm": {
				"assembly": "    /* \"Voting.sol\":60:1264  contract Voting{\r... */\n  mstore(0x40, 0x80)\n    /* \"Voting.sol\":103:104  0 */\n  0x00\n    /* \"Voting.sol\":84:104  uint8 globalPollNo=0 */\n  dup1\n  exp(0x0100, 0x00)\n  dup2\n  sload\n  dup2\n  0xff\n  mul\n  not\n  and\n  swap1\n  dup4\n  0xff\n  and\n  mul\n  or\n  swap1\n  sstore\n  pop\n    /* \"Voting.sol\":60:1264  contract Voting{\r... */\n  callvalue\n  dup1\n  iszero\n  tag_1\n  jumpi\n  0x00\n  dup1\n  revert\ntag_1:\n  pop\n  dataSize(sub_0)\n  dup1\n  dataOffset(sub_0)\n  0x00\n  codecopy\n  0x00\n  return\nstop\n\nsub_0: assembly {\n        /* \"Voting.sol\":60:1264  contract Voting{\r... */\n      mstore(0x40, 0x80)\n      callvalue\n      dup1\n      iszero\n      tag_1\n      jumpi\n      0x00\n      dup1\n      revert\n    tag_1:\n      pop\n      jumpi(tag_2, lt(calldatasize, 0x04))\n      shr(0xe0, calldataload(0x00))\n      dup1\n      0x357d0d48\n      eq\n      tag_3\n      jumpi\n      dup1\n      0xac2f0074\n      eq\n      tag_4\n      jumpi\n    tag_2:\n      0x00\n      dup1\n      revert\n        /* \"Voting.sol\":570:1259  function createPoll(string[] memory options, uint start, uint end)public{ //check memory or storage\r... */\n    tag_3:\n      tag_5\n      0x04\n      dup1\n      calldatasize\n      sub\n      dup2\n      add\n      swap1\n      tag_6\n      swap2\n      swap1\n      tag_7\n      jump\t// in\n    tag_6:\n      tag_8\n      jump\t// in\n    tag_5:\n      stop\n        /* \"Voting.sol\":479:498  Poll[] public polls */\n    tag_4:\n      tag_9\n      0x04\n      dup1\n      calldatasize\n      sub\n      dup2\n      add\n      swap1\n      tag_10\n      swap2\n      swap1\n      tag_11\n      jump\t// in\n    tag_10:\n      tag_12\n      jump\t// in\n    tag_9:\n      mload(0x40)\n      tag_13\n      swap6\n      swap5\n      swap4\n      swap3\n      swap2\n      swap1\n      tag_14\n      jump\t// in\n    tag_13:\n      mload(0x40)\n      dup1\n      swap2\n      sub\n      swap1\n      return\n        /* \"Voting.sol\":570:1259  function createPoll(string[] memory options, uint start, uint end)public{ //check memory or storage\r... */\n    tag_8:\n        /* \"Voting.sol\":679:691  globalPollNo */\n      0x00\n      dup1\n        /* \"Voting.sol\":679:693  globalPollNo++ */\n      dup2\n      dup2\n      swap1\n      sload\n      swap1\n      0x0100\n      exp\n      swap1\n      div\n      0xff\n      and\n      dup1\n      swap3\n      swap2\n      swap1\n      tag_16\n      swap1\n      tag_17\n      jump\t// in\n    tag_16:\n      swap2\n      swap1\n      0x0100\n      exp\n      dup2\n      sload\n      dup2\n      0xff\n      mul\n      not\n      and\n      swap1\n      dup4\n      0xff\n      and\n      mul\n      or\n      swap1\n      sstore\n      pop\n      pop\n        /* \"Voting.sol\":706:728  Poll storage _tempPoll */\n      0x00\n        /* \"Voting.sol\":729:737  tempPoll */\n      0x06\n        /* \"Voting.sol\":706:737  Poll storage _tempPoll=tempPoll */\n      swap1\n      pop\n        /* \"Voting.sol\":765:775  msg.sender */\n      caller\n        /* \"Voting.sol\":748:756  tempPoll */\n      0x06\n        /* \"Voting.sol\":748:764  tempPoll.creator */\n      0x00\n      add\n      0x00\n        /* \"Voting.sol\":748:775  tempPoll.creator=msg.sender */\n      0x0100\n      exp\n      dup2\n      sload\n      dup2\n      0xffffffffffffffffffffffffffffffffffffffff\n      mul\n      not\n      and\n      swap1\n      dup4\n      0xffffffffffffffffffffffffffffffffffffffff\n      and\n      mul\n      or\n      swap1\n      sstore\n      pop\n        /* \"Voting.sol\":802:814  globalPollNo */\n      0x00\n      dup1\n      sload\n      swap1\n      0x0100\n      exp\n      swap1\n      div\n      0xff\n      and\n        /* \"Voting.sol\":786:794  tempPoll */\n      0x06\n        /* \"Voting.sol\":786:801  tempPoll.pollNo */\n      0x00\n      add\n      0x14\n        /* \"Voting.sol\":786:814  tempPoll.pollNo=globalPollNo */\n      0x0100\n      exp\n      dup2\n      sload\n      dup2\n      0xff\n      mul\n      not\n      and\n      swap1\n      dup4\n      0xff\n      and\n      mul\n      or\n      swap1\n      sstore\n      pop\n        /* \"Voting.sol\":844:849  start */\n      dup3\n        /* \"Voting.sol\":825:833  tempPoll */\n      0x06\n        /* \"Voting.sol\":825:843  tempPoll.startTime */\n      0x02\n      add\n        /* \"Voting.sol\":825:849  tempPoll.startTime=start */\n      dup2\n      swap1\n      sstore\n      pop\n        /* \"Voting.sol\":877:880  end */\n      dup2\n        /* \"Voting.sol\":860:868  tempPoll */\n      0x06\n        /* \"Voting.sol\":860:876  tempPoll.endTime */\n      0x03\n      add\n        /* \"Voting.sol\":860:880  tempPoll.endTime=end */\n      dup2\n      swap1\n      sstore\n      pop\n        /* \"Voting.sol\":938:965  Option[] storage _tempOptns */\n      0x00\n        /* \"Voting.sol\":966:975  tempOptns */\n      0x02\n        /* \"Voting.sol\":938:975  Option[] storage _tempOptns=tempOptns */\n      swap1\n      pop\n        /* \"Voting.sol\":994:1014  Option storage _temp */\n      0x00\n        /* \"Voting.sol\":1015:1019  temp */\n      0x03\n        /* \"Voting.sol\":994:1019  Option storage _temp=temp */\n      swap1\n      pop\n        /* \"Voting.sol\":1034:1041  uint8 i */\n      0x00\n        /* \"Voting.sol\":1030:1150  for(uint8 i=0;i<options.length;i++){\r... */\n    tag_18:\n        /* \"Voting.sol\":1046:1053  options */\n      dup7\n        /* \"Voting.sol\":1046:1060  options.length */\n      mload\n        /* \"Voting.sol\":1044:1045  i */\n      dup2\n        /* \"Voting.sol\":1044:1060  i<options.length */\n      0xff\n      and\n      lt\n        /* \"Voting.sol\":1030:1150  for(uint8 i=0;i<options.length;i++){\r... */\n      iszero\n      tag_19\n      jumpi\n        /* \"Voting.sol\":1091:1098  options */\n      dup7\n        /* \"Voting.sol\":1099:1100  i */\n      dup2\n        /* \"Voting.sol\":1091:1101  options[i] */\n      0xff\n      and\n      dup2\n      mload\n      dup2\n      lt\n      tag_21\n      jumpi\n      tag_22\n      tag_23\n      jump\t// in\n    tag_22:\n    tag_21:\n      0x20\n      mul\n      0x20\n      add\n      add\n      mload\n        /* \"Voting.sol\":1080:1085  _temp */\n      dup3\n        /* \"Voting.sol\":1080:1090  _temp.name */\n      0x00\n      add\n        /* \"Voting.sol\":1080:1101  _temp.name=options[i] */\n      swap1\n      dup1\n      mload\n      swap1\n      0x20\n      add\n      swap1\n      tag_24\n      swap3\n      swap2\n      swap1\n      tag_25\n      jump\t// in\n    tag_24:\n      pop\n        /* \"Voting.sol\":1116:1126  _tempOptns */\n      dup3\n        /* \"Voting.sol\":1132:1137  _temp */\n      dup3\n        /* \"Voting.sol\":1116:1138  _tempOptns.push(_temp) */\n      swap1\n      dup1\n      0x01\n      dup2\n      sload\n      add\n      dup1\n      dup3\n      sstore\n      dup1\n      swap2\n      pop\n      pop\n      0x01\n      swap1\n      sub\n      swap1\n      0x00\n      mstore\n      keccak256(0x00, 0x20)\n      swap1\n      0x03\n      mul\n      add\n      0x00\n      swap1\n      swap2\n      swap1\n      swap2\n      swap1\n      swap2\n      pop\n      0x00\n      dup3\n      add\n      dup2\n      0x00\n      add\n      swap1\n      dup1\n      sload\n      tag_27\n      swap1\n      tag_28\n      jump\t// in\n    tag_27:\n      tag_29\n      swap3\n      swap2\n      swap1\n      tag_30\n      jump\t// in\n    tag_29:\n      pop\n      0x01\n      dup3\n      add\n      0x00\n      swap1\n      sload\n      swap1\n      0x0100\n      exp\n      swap1\n      div\n      0xff\n      and\n      dup2\n      0x01\n      add\n      exp(0x0100, 0x00)\n      dup2\n      sload\n      dup2\n      0xff\n      mul\n      not\n      and\n      swap1\n      dup4\n      0xff\n      and\n      mul\n      or\n      swap1\n      sstore\n      pop\n      0x02\n      dup3\n      add\n      dup2\n      0x02\n      add\n      swap1\n      dup1\n      sload\n      tag_31\n      swap3\n      swap2\n      swap1\n      tag_32\n      jump\t// in\n    tag_31:\n      pop\n      pop\n      pop\n        /* \"Voting.sol\":1061:1064  i++ */\n      dup1\n      dup1\n      tag_33\n      swap1\n      tag_17\n      jump\t// in\n    tag_33:\n      swap2\n      pop\n      pop\n        /* \"Voting.sol\":1030:1150  for(uint8 i=0;i<options.length;i++){\r... */\n      jump(tag_18)\n    tag_19:\n      pop\n        /* \"Voting.sol\":1207:1217  _tempOptns */\n      dup2\n        /* \"Voting.sol\":1190:1198  tempPoll */\n      0x06\n        /* \"Voting.sol\":1190:1206  tempPoll.options */\n      0x01\n      add\n        /* \"Voting.sol\":1190:1217  tempPoll.options=_tempOptns */\n      swap1\n      dup1\n      sload\n      tag_34\n      swap3\n      swap2\n      swap1\n      tag_35\n      jump\t// in\n    tag_34:\n      pop\n        /* \"Voting.sol\":1228:1233  polls */\n      0x01\n        /* \"Voting.sol\":1239:1248  _tempPoll */\n      dup4\n        /* \"Voting.sol\":1228:1249  polls.push(_tempPoll) */\n      swap1\n      dup1\n      0x01\n      dup2\n      sload\n      add\n      dup1\n      dup3\n      sstore\n      dup1\n      swap2\n      pop\n      pop\n      0x01\n      swap1\n      sub\n      swap1\n      0x00\n      mstore\n      keccak256(0x00, 0x20)\n      swap1\n      0x04\n      mul\n      add\n      0x00\n      swap1\n      swap2\n      swap1\n      swap2\n      swap1\n      swap2\n      pop\n      0x00\n      dup3\n      add\n      0x00\n      swap1\n      sload\n      swap1\n      0x0100\n      exp\n      swap1\n      div\n      0xffffffffffffffffffffffffffffffffffffffff\n      and\n      dup2\n      0x00\n      add\n      exp(0x0100, 0x00)\n      dup2\n      sload\n      dup2\n      0xffffffffffffffffffffffffffffffffffffffff\n      mul\n      not\n      and\n      swap1\n      dup4\n      0xffffffffffffffffffffffffffffffffffffffff\n      and\n      mul\n      or\n      swap1\n      sstore\n      pop\n      0x00\n      dup3\n      add\n      0x14\n      swap1\n      sload\n      swap1\n      0x0100\n      exp\n      swap1\n      div\n      0xff\n      and\n      dup2\n      0x00\n      add\n      exp(0x0100, 0x14)\n      dup2\n      sload\n      dup2\n      0xff\n      mul\n      not\n      and\n      swap1\n      dup4\n      0xff\n      and\n      mul\n      or\n      swap1\n      sstore\n      pop\n      0x00\n      dup3\n      add\n      0x15\n      swap1\n      sload\n      swap1\n      0x0100\n      exp\n      swap1\n      div\n      0xff\n      and\n      dup2\n      0x00\n      add\n      exp(0x0100, 0x15)\n      dup2\n      sload\n      dup2\n      0xff\n      mul\n      not\n      and\n      swap1\n      dup4\n      0xff\n      and\n      mul\n      or\n      swap1\n      sstore\n      pop\n      0x01\n      dup3\n      add\n      dup2\n      0x01\n      add\n      swap1\n      dup1\n      sload\n      tag_37\n      swap3\n      swap2\n      swap1\n      tag_38\n      jump\t// in\n    tag_37:\n      pop\n      0x02\n      dup3\n      add\n      sload\n      dup2\n      0x02\n      add\n      sstore\n      0x03\n      dup3\n      add\n      sload\n      dup2\n      0x03\n      add\n      sstore\n      pop\n      pop\n        /* \"Voting.sol\":642:1259  { //check memory or storage\r... */\n      pop\n      pop\n      pop\n        /* \"Voting.sol\":570:1259  function createPoll(string[] memory options, uint start, uint end)public{ //check memory or storage\r... */\n      pop\n      pop\n      pop\n      jump\t// out\n        /* \"Voting.sol\":479:498  Poll[] public polls */\n    tag_12:\n      0x01\n      dup2\n      dup2\n      sload\n      dup2\n      lt\n      tag_39\n      jumpi\n      0x00\n      dup1\n      revert\n    tag_39:\n      swap1\n      0x00\n      mstore\n      keccak256(0x00, 0x20)\n      swap1\n      0x04\n      mul\n      add\n      0x00\n      swap2\n      pop\n      swap1\n      pop\n      dup1\n      0x00\n      add\n      0x00\n      swap1\n      sload\n      swap1\n      0x0100\n      exp\n      swap1\n      div\n      0xffffffffffffffffffffffffffffffffffffffff\n      and\n      swap1\n      dup1\n      0x00\n      add\n      0x14\n      swap1\n      sload\n      swap1\n      0x0100\n      exp\n      swap1\n      div\n      0xff\n      and\n      swap1\n      dup1\n      0x00\n      add\n      0x15\n      swap1\n      sload\n      swap1\n      0x0100\n      exp\n      swap1\n      div\n      0xff\n      and\n      swap1\n      dup1\n      0x02\n      add\n      sload\n      swap1\n      dup1\n      0x03\n      add\n      sload\n      swap1\n      pop\n      dup6\n      jump\t// out\n    tag_25:\n      dup3\n      dup1\n      sload\n      tag_41\n      swap1\n      tag_28\n      jump\t// in\n    tag_41:\n      swap1\n      0x00\n      mstore\n      keccak256(0x00, 0x20)\n      swap1\n      0x1f\n      add\n      0x20\n      swap1\n      div\n      dup2\n      add\n      swap3\n      dup3\n      tag_43\n      jumpi\n      0x00\n      dup6\n      sstore\n      jump(tag_42)\n    tag_43:\n      dup3\n      0x1f\n      lt\n      tag_44\n      jumpi\n      dup1\n      mload\n      not(0xff)\n      and\n      dup4\n      dup1\n      add\n      or\n      dup6\n      sstore\n      jump(tag_42)\n    tag_44:\n      dup3\n      dup1\n      add\n      0x01\n      add\n      dup6\n      sstore\n      dup3\n      iszero\n      tag_42\n      jumpi\n      swap2\n      dup3\n      add\n    tag_45:\n      dup3\n      dup2\n      gt\n      iszero\n      tag_46\n      jumpi\n      dup3\n      mload\n      dup3\n      sstore\n      swap2\n      0x20\n      add\n      swap2\n      swap1\n      0x01\n      add\n      swap1\n      jump(tag_45)\n    tag_46:\n    tag_42:\n      pop\n      swap1\n      pop\n      tag_47\n      swap2\n      swap1\n      tag_48\n      jump\t// in\n    tag_47:\n      pop\n      swap1\n      jump\t// out\n    tag_30:\n      dup3\n      dup1\n      sload\n      tag_49\n      swap1\n      tag_28\n      jump\t// in\n    tag_49:\n      swap1\n      0x00\n      mstore\n      keccak256(0x00, 0x20)\n      swap1\n      0x1f\n      add\n      0x20\n      swap1\n      div\n      dup2\n      add\n      swap3\n      dup3\n      tag_51\n      jumpi\n      0x00\n      dup6\n      sstore\n      jump(tag_50)\n    tag_51:\n      dup3\n      0x1f\n      lt\n      tag_52\n      jumpi\n      dup1\n      sload\n      dup6\n      sstore\n      jump(tag_50)\n    tag_52:\n      dup3\n      dup1\n      add\n      0x01\n      add\n      dup6\n      sstore\n      dup3\n      iszero\n      tag_50\n      jumpi\n      0x00\n      mstore\n      keccak256(0x00, 0x20)\n      swap2\n      0x1f\n      add\n      0x20\n      swap1\n      div\n      dup3\n      add\n    tag_53:\n      dup3\n      dup2\n      gt\n      iszero\n      tag_54\n      jumpi\n      dup3\n      sload\n      dup3\n      sstore\n      swap2\n      0x01\n      add\n      swap2\n      swap1\n      0x01\n      add\n      swap1\n      jump(tag_53)\n    tag_54:\n    tag_50:\n      pop\n      swap1\n      pop\n      tag_55\n      swap2\n      swap1\n      tag_48\n      jump\t// in\n    tag_55:\n      pop\n      swap1\n      jump\t// out\n    tag_32:\n      dup3\n      dup1\n      sload\n      dup3\n      dup3\n      sstore\n      swap1\n      0x00\n      mstore\n      keccak256(0x00, 0x20)\n      swap1\n      0x02\n      mul\n      dup2\n      add\n      swap3\n      dup3\n      iszero\n      tag_56\n      jumpi\n      0x00\n      mstore\n      keccak256(0x00, 0x20)\n      swap2\n      0x02\n      mul\n      dup3\n      add\n    tag_57:\n      dup3\n      dup2\n      gt\n      iszero\n      tag_58\n      jumpi\n      dup3\n      dup3\n      0x00\n      dup3\n      add\n      dup2\n      0x00\n      add\n      swap1\n      dup1\n      sload\n      tag_59\n      swap1\n      tag_28\n      jump\t// in\n    tag_59:\n      tag_60\n      swap3\n      swap2\n      swap1\n      tag_30\n      jump\t// in\n    tag_60:\n      pop\n      0x01\n      dup3\n      add\n      0x00\n      swap1\n      sload\n      swap1\n      0x0100\n      exp\n      swap1\n      div\n      0xffffffffffffffffffffffffffffffffffffffff\n      and\n      dup2\n      0x01\n      add\n      exp(0x0100, 0x00)\n      dup2\n      sload\n      dup2\n      0xffffffffffffffffffffffffffffffffffffffff\n      mul\n      not\n      and\n      swap1\n      dup4\n      0xffffffffffffffffffffffffffffffffffffffff\n      and\n      mul\n      or\n      swap1\n      sstore\n      pop\n      0x01\n      dup3\n      add\n      0x14\n      swap1\n      sload\n      swap1\n      0x0100\n      exp\n      swap1\n      div\n      0xff\n      and\n      dup2\n      0x01\n      add\n      exp(0x0100, 0x14)\n      dup2\n      sload\n      dup2\n      0xff\n      mul\n      not\n      and\n      swap1\n      dup4\n      iszero\n      iszero\n      mul\n      or\n      swap1\n      sstore\n      pop\n      pop\n      pop\n      swap2\n      0x02\n      add\n      swap2\n      swap1\n      0x02\n      add\n      swap1\n      jump(tag_57)\n    tag_58:\n    tag_56:\n      pop\n      swap1\n      pop\n      tag_61\n      swap2\n      swap1\n      tag_62\n      jump\t// in\n    tag_61:\n      pop\n      swap1\n      jump\t// out\n    tag_35:\n      dup3\n      dup1\n      sload\n      dup3\n      dup3\n      sstore\n      swap1\n      0x00\n      mstore\n      keccak256(0x00, 0x20)\n      swap1\n      0x03\n      mul\n      dup2\n      add\n      swap3\n      dup3\n      iszero\n      tag_63\n      jumpi\n      0x00\n      mstore\n      keccak256(0x00, 0x20)\n      swap2\n      0x03\n      mul\n      dup3\n      add\n    tag_64:\n      dup3\n      dup2\n      gt\n      iszero\n      tag_65\n      jumpi\n      dup3\n      dup3\n      0x00\n      dup3\n      add\n      dup2\n      0x00\n      add\n      swap1\n      dup1\n      sload\n      tag_66\n      swap1\n      tag_28\n      jump\t// in\n    tag_66:\n      tag_67\n      swap3\n      swap2\n      swap1\n      tag_30\n      jump\t// in\n    tag_67:\n      pop\n      0x01\n      dup3\n      add\n      0x00\n      swap1\n      sload\n      swap1\n      0x0100\n      exp\n      swap1\n      div\n      0xff\n      and\n      dup2\n      0x01\n      add\n      exp(0x0100, 0x00)\n      dup2\n      sload\n      dup2\n      0xff\n      mul\n      not\n      and\n      swap1\n      dup4\n      0xff\n      and\n      mul\n      or\n      swap1\n      sstore\n      pop\n      0x02\n      dup3\n      add\n      dup2\n      0x02\n      add\n      swap1\n      dup1\n      sload\n      tag_68\n      swap3\n      swap2\n      swap1\n      tag_32\n      jump\t// in\n    tag_68:\n      pop\n      pop\n      pop\n      swap2\n      0x03\n      add\n      swap2\n      swap1\n      0x03\n      add\n      swap1\n      jump(tag_64)\n    tag_65:\n    tag_63:\n      pop\n      swap1\n      pop\n      tag_69\n      swap2\n      swap1\n      tag_70\n      jump\t// in\n    tag_69:\n      pop\n      swap1\n      jump\t// out\n    tag_38:\n      dup3\n      dup1\n      sload\n      dup3\n      dup3\n      sstore\n      swap1\n      0x00\n      mstore\n      keccak256(0x00, 0x20)\n      swap1\n      0x03\n      mul\n      dup2\n      add\n      swap3\n      dup3\n      iszero\n      tag_71\n      jumpi\n      0x00\n      mstore\n      keccak256(0x00, 0x20)\n      swap2\n      0x03\n      mul\n      dup3\n      add\n    tag_72:\n      dup3\n      dup2\n      gt\n      iszero\n      tag_73\n      jumpi\n      dup3\n      dup3\n      0x00\n      dup3\n      add\n      dup2\n      0x00\n      add\n      swap1\n      dup1\n      sload\n      tag_74\n      swap1\n      tag_28\n      jump\t// in\n    tag_74:\n      tag_75\n      swap3\n      swap2\n      swap1\n      tag_30\n      jump\t// in\n    tag_75:\n      pop\n      0x01\n      dup3\n      add\n      0x00\n      swap1\n      sload\n      swap1\n      0x0100\n      exp\n      swap1\n      div\n      0xff\n      and\n      dup2\n      0x01\n      add\n      exp(0x0100, 0x00)\n      dup2\n      sload\n      dup2\n      0xff\n      mul\n      not\n      and\n      swap1\n      dup4\n      0xff\n      and\n      mul\n      or\n      swap1\n      sstore\n      pop\n      0x02\n      dup3\n      add\n      dup2\n      0x02\n      add\n      swap1\n      dup1\n      sload\n      tag_76\n      swap3\n      swap2\n      swap1\n      tag_32\n      jump\t// in\n    tag_76:\n      pop\n      pop\n      pop\n      swap2\n      0x03\n      add\n      swap2\n      swap1\n      0x03\n      add\n      swap1\n      jump(tag_72)\n    tag_73:\n    tag_71:\n      pop\n      swap1\n      pop\n      tag_77\n      swap2\n      swap1\n      tag_70\n      jump\t// in\n    tag_77:\n      pop\n      swap1\n      jump\t// out\n    tag_48:\n    tag_78:\n      dup1\n      dup3\n      gt\n      iszero\n      tag_79\n      jumpi\n      0x00\n      dup2\n      0x00\n      swap1\n      sstore\n      pop\n      0x01\n      add\n      jump(tag_78)\n    tag_79:\n      pop\n      swap1\n      jump\t// out\n    tag_62:\n    tag_80:\n      dup1\n      dup3\n      gt\n      iszero\n      tag_81\n      jumpi\n      0x00\n      dup1\n      dup3\n      add\n      0x00\n      tag_82\n      swap2\n      swap1\n      tag_83\n      jump\t// in\n    tag_82:\n      0x01\n      dup3\n      add\n      exp(0x0100, 0x00)\n      dup2\n      sload\n      swap1\n      0xffffffffffffffffffffffffffffffffffffffff\n      mul\n      not\n      and\n      swap1\n      sstore\n      0x01\n      dup3\n      add\n      exp(0x0100, 0x14)\n      dup2\n      sload\n      swap1\n      0xff\n      mul\n      not\n      and\n      swap1\n      sstore\n      pop\n      0x02\n      add\n      jump(tag_80)\n    tag_81:\n      pop\n      swap1\n      jump\t// out\n    tag_70:\n    tag_84:\n      dup1\n      dup3\n      gt\n      iszero\n      tag_85\n      jumpi\n      0x00\n      dup1\n      dup3\n      add\n      0x00\n      tag_86\n      swap2\n      swap1\n      tag_83\n      jump\t// in\n    tag_86:\n      0x01\n      dup3\n      add\n      exp(0x0100, 0x00)\n      dup2\n      sload\n      swap1\n      0xff\n      mul\n      not\n      and\n      swap1\n      sstore\n      0x02\n      dup3\n      add\n      0x00\n      tag_87\n      swap2\n      swap1\n      tag_88\n      jump\t// in\n    tag_87:\n      pop\n      0x03\n      add\n      jump(tag_84)\n    tag_85:\n      pop\n      swap1\n      jump\t// out\n    tag_83:\n      pop\n      dup1\n      sload\n      tag_89\n      swap1\n      tag_28\n      jump\t// in\n    tag_89:\n      0x00\n      dup3\n      sstore\n      dup1\n      0x1f\n      lt\n      tag_91\n      jumpi\n      pop\n      jump(tag_90)\n    tag_91:\n      0x1f\n      add\n      0x20\n      swap1\n      div\n      swap1\n      0x00\n      mstore\n      keccak256(0x00, 0x20)\n      swap1\n      dup2\n      add\n      swap1\n      tag_92\n      swap2\n      swap1\n      tag_48\n      jump\t// in\n    tag_92:\n    tag_90:\n      pop\n      jump\t// out\n    tag_88:\n      pop\n      dup1\n      sload\n      0x00\n      dup3\n      sstore\n      0x02\n      mul\n      swap1\n      0x00\n      mstore\n      keccak256(0x00, 0x20)\n      swap1\n      dup2\n      add\n      swap1\n      tag_94\n      swap2\n      swap1\n      tag_62\n      jump\t// in\n    tag_94:\n      pop\n      jump\t// out\n        /* \"#utility.yul\":23:980   */\n    tag_96:\n        /* \"#utility.yul\":129:134   */\n      0x00\n        /* \"#utility.yul\":154:245   */\n      tag_98\n        /* \"#utility.yul\":170:244   */\n      tag_99\n        /* \"#utility.yul\":237:243   */\n      dup5\n        /* \"#utility.yul\":170:244   */\n      tag_100\n      jump\t// in\n    tag_99:\n        /* \"#utility.yul\":154:245   */\n      tag_101\n      jump\t// in\n    tag_98:\n        /* \"#utility.yul\":145:245   */\n      swap1\n      pop\n        /* \"#utility.yul\":265:270   */\n      dup1\n        /* \"#utility.yul\":294:300   */\n      dup4\n        /* \"#utility.yul\":287:292   */\n      dup3\n        /* \"#utility.yul\":280:301   */\n      mstore\n        /* \"#utility.yul\":328:332   */\n      0x20\n        /* \"#utility.yul\":321:326   */\n      dup3\n        /* \"#utility.yul\":317:333   */\n      add\n        /* \"#utility.yul\":310:333   */\n      swap1\n      pop\n        /* \"#utility.yul\":354:360   */\n      dup3\n        /* \"#utility.yul\":404:407   */\n      dup6\n        /* \"#utility.yul\":396:400   */\n      0x20\n        /* \"#utility.yul\":388:394   */\n      dup7\n        /* \"#utility.yul\":384:401   */\n      mul\n        /* \"#utility.yul\":379:382   */\n      dup3\n        /* \"#utility.yul\":375:402   */\n      add\n        /* \"#utility.yul\":372:408   */\n      gt\n        /* \"#utility.yul\":369:512   */\n      iszero\n      tag_102\n      jumpi\n        /* \"#utility.yul\":423:502   */\n      tag_103\n      tag_104\n      jump\t// in\n    tag_103:\n        /* \"#utility.yul\":369:512   */\n    tag_102:\n        /* \"#utility.yul\":536:537   */\n      0x00\n        /* \"#utility.yul\":521:974   */\n    tag_105:\n        /* \"#utility.yul\":546:552   */\n      dup6\n        /* \"#utility.yul\":543:544   */\n      dup2\n        /* \"#utility.yul\":540:553   */\n      lt\n        /* \"#utility.yul\":521:974   */\n      iszero\n      tag_107\n      jumpi\n        /* \"#utility.yul\":628:631   */\n      dup2\n        /* \"#utility.yul\":615:632   */\n      calldataload\n        /* \"#utility.yul\":664:682   */\n      0xffffffffffffffff\n        /* \"#utility.yul\":651:662   */\n      dup2\n        /* \"#utility.yul\":648:683   */\n      gt\n        /* \"#utility.yul\":645:767   */\n      iszero\n      tag_108\n      jumpi\n        /* \"#utility.yul\":686:765   */\n      tag_109\n      tag_110\n      jump\t// in\n    tag_109:\n        /* \"#utility.yul\":645:767   */\n    tag_108:\n        /* \"#utility.yul\":810:821   */\n      dup1\n        /* \"#utility.yul\":802:808   */\n      dup7\n        /* \"#utility.yul\":798:822   */\n      add\n        /* \"#utility.yul\":848:895   */\n      tag_111\n        /* \"#utility.yul\":891:894   */\n      dup10\n        /* \"#utility.yul\":879:889   */\n      dup3\n        /* \"#utility.yul\":848:895   */\n      tag_112\n      jump\t// in\n    tag_111:\n        /* \"#utility.yul\":843:846   */\n      dup6\n        /* \"#utility.yul\":836:896   */\n      mstore\n        /* \"#utility.yul\":925:929   */\n      0x20\n        /* \"#utility.yul\":920:923   */\n      dup6\n        /* \"#utility.yul\":916:930   */\n      add\n        /* \"#utility.yul\":909:930   */\n      swap5\n      pop\n        /* \"#utility.yul\":959:963   */\n      0x20\n        /* \"#utility.yul\":954:957   */\n      dup5\n        /* \"#utility.yul\":950:964   */\n      add\n        /* \"#utility.yul\":943:964   */\n      swap4\n      pop\n        /* \"#utility.yul\":581:974   */\n      pop\n      pop\n        /* \"#utility.yul\":568:569   */\n      0x01\n        /* \"#utility.yul\":565:566   */\n      dup2\n        /* \"#utility.yul\":561:570   */\n      add\n        /* \"#utility.yul\":556:570   */\n      swap1\n      pop\n        /* \"#utility.yul\":521:974   */\n      jump(tag_105)\n    tag_107:\n        /* \"#utility.yul\":525:539   */\n      pop\n        /* \"#utility.yul\":135:980   */\n      pop\n      pop\n        /* \"#utility.yul\":23:980   */\n      swap4\n      swap3\n      pop\n      pop\n      pop\n      jump\t// out\n        /* \"#utility.yul\":986:1398   */\n    tag_113:\n        /* \"#utility.yul\":1064:1069   */\n      0x00\n        /* \"#utility.yul\":1089:1155   */\n      tag_115\n        /* \"#utility.yul\":1105:1154   */\n      tag_116\n        /* \"#utility.yul\":1147:1153   */\n      dup5\n        /* \"#utility.yul\":1105:1154   */\n      tag_117\n      jump\t// in\n    tag_116:\n        /* \"#utility.yul\":1089:1155   */\n      tag_101\n      jump\t// in\n    tag_115:\n        /* \"#utility.yul\":1080:1155   */\n      swap1\n      pop\n        /* \"#utility.yul\":1178:1184   */\n      dup3\n        /* \"#utility.yul\":1171:1176   */\n      dup2\n        /* \"#utility.yul\":1164:1185   */\n      mstore\n        /* \"#utility.yul\":1216:1220   */\n      0x20\n        /* \"#utility.yul\":1209:1214   */\n      dup2\n        /* \"#utility.yul\":1205:1221   */\n      add\n        /* \"#utility.yul\":1254:1257   */\n      dup5\n        /* \"#utility.yul\":1245:1251   */\n      dup5\n        /* \"#utility.yul\":1240:1243   */\n      dup5\n        /* \"#utility.yul\":1236:1252   */\n      add\n        /* \"#utility.yul\":1233:1258   */\n      gt\n        /* \"#utility.yul\":1230:1342   */\n      iszero\n      tag_118\n      jumpi\n        /* \"#utility.yul\":1261:1340   */\n      tag_119\n      tag_120\n      jump\t// in\n    tag_119:\n        /* \"#utility.yul\":1230:1342   */\n    tag_118:\n        /* \"#utility.yul\":1351:1392   */\n      tag_121\n        /* \"#utility.yul\":1385:1391   */\n      dup5\n        /* \"#utility.yul\":1380:1383   */\n      dup3\n        /* \"#utility.yul\":1375:1378   */\n      dup6\n        /* \"#utility.yul\":1351:1392   */\n      tag_122\n      jump\t// in\n    tag_121:\n        /* \"#utility.yul\":1070:1398   */\n      pop\n        /* \"#utility.yul\":986:1398   */\n      swap4\n      swap3\n      pop\n      pop\n      pop\n      jump\t// out\n        /* \"#utility.yul\":1420:1810   */\n    tag_123:\n        /* \"#utility.yul\":1501:1506   */\n      0x00\n        /* \"#utility.yul\":1550:1553   */\n      dup3\n        /* \"#utility.yul\":1543:1547   */\n      0x1f\n        /* \"#utility.yul\":1535:1541   */\n      dup4\n        /* \"#utility.yul\":1531:1548   */\n      add\n        /* \"#utility.yul\":1527:1554   */\n      slt\n        /* \"#utility.yul\":1517:1639   */\n      tag_125\n      jumpi\n        /* \"#utility.yul\":1558:1637   */\n      tag_126\n      tag_110\n      jump\t// in\n    tag_126:\n        /* \"#utility.yul\":1517:1639   */\n    tag_125:\n        /* \"#utility.yul\":1675:1681   */\n      dup2\n        /* \"#utility.yul\":1662:1682   */\n      calldataload\n        /* \"#utility.yul\":1700:1804   */\n      tag_127\n        /* \"#utility.yul\":1800:1803   */\n      dup5\n        /* \"#utility.yul\":1792:1798   */\n      dup3\n        /* \"#utility.yul\":1785:1789   */\n      0x20\n        /* \"#utility.yul\":1777:1783   */\n      dup7\n        /* \"#utility.yul\":1773:1790   */\n      add\n        /* \"#utility.yul\":1700:1804   */\n      tag_96\n      jump\t// in\n    tag_127:\n        /* \"#utility.yul\":1691:1804   */\n      swap2\n      pop\n        /* \"#utility.yul\":1507:1810   */\n      pop\n        /* \"#utility.yul\":1420:1810   */\n      swap3\n      swap2\n      pop\n      pop\n      jump\t// out\n        /* \"#utility.yul\":1830:2170   */\n    tag_112:\n        /* \"#utility.yul\":1886:1891   */\n      0x00\n        /* \"#utility.yul\":1935:1938   */\n      dup3\n        /* \"#utility.yul\":1928:1932   */\n      0x1f\n        /* \"#utility.yul\":1920:1926   */\n      dup4\n        /* \"#utility.yul\":1916:1933   */\n      add\n        /* \"#utility.yul\":1912:1939   */\n      slt\n        /* \"#utility.yul\":1902:2024   */\n      tag_129\n      jumpi\n        /* \"#utility.yul\":1943:2022   */\n      tag_130\n      tag_110\n      jump\t// in\n    tag_130:\n        /* \"#utility.yul\":1902:2024   */\n    tag_129:\n        /* \"#utility.yul\":2060:2066   */\n      dup2\n        /* \"#utility.yul\":2047:2067   */\n      calldataload\n        /* \"#utility.yul\":2085:2164   */\n      tag_131\n        /* \"#utility.yul\":2160:2163   */\n      dup5\n        /* \"#utility.yul\":2152:2158   */\n      dup3\n        /* \"#utility.yul\":2145:2149   */\n      0x20\n        /* \"#utility.yul\":2137:2143   */\n      dup7\n        /* \"#utility.yul\":2133:2150   */\n      add\n        /* \"#utility.yul\":2085:2164   */\n      tag_113\n      jump\t// in\n    tag_131:\n        /* \"#utility.yul\":2076:2164   */\n      swap2\n      pop\n        /* \"#utility.yul\":1892:2170   */\n      pop\n        /* \"#utility.yul\":1830:2170   */\n      swap3\n      swap2\n      pop\n      pop\n      jump\t// out\n        /* \"#utility.yul\":2176:2315   */\n    tag_132:\n        /* \"#utility.yul\":2222:2227   */\n      0x00\n        /* \"#utility.yul\":2260:2266   */\n      dup2\n        /* \"#utility.yul\":2247:2267   */\n      calldataload\n        /* \"#utility.yul\":2238:2267   */\n      swap1\n      pop\n        /* \"#utility.yul\":2276:2309   */\n      tag_134\n        /* \"#utility.yul\":2303:2308   */\n      dup2\n        /* \"#utility.yul\":2276:2309   */\n      tag_135\n      jump\t// in\n    tag_134:\n        /* \"#utility.yul\":2176:2315   */\n      swap3\n      swap2\n      pop\n      pop\n      jump\t// out\n        /* \"#utility.yul\":2321:3170   */\n    tag_7:\n        /* \"#utility.yul\":2433:2439   */\n      0x00\n        /* \"#utility.yul\":2441:2447   */\n      dup1\n        /* \"#utility.yul\":2449:2455   */\n      0x00\n        /* \"#utility.yul\":2498:2500   */\n      0x60\n        /* \"#utility.yul\":2486:2495   */\n      dup5\n        /* \"#utility.yul\":2477:2484   */\n      dup7\n        /* \"#utility.yul\":2473:2496   */\n      sub\n        /* \"#utility.yul\":2469:2501   */\n      slt\n        /* \"#utility.yul\":2466:2585   */\n      iszero\n      tag_137\n      jumpi\n        /* \"#utility.yul\":2504:2583   */\n      tag_138\n      tag_139\n      jump\t// in\n    tag_138:\n        /* \"#utility.yul\":2466:2585   */\n    tag_137:\n        /* \"#utility.yul\":2652:2653   */\n      0x00\n        /* \"#utility.yul\":2641:2650   */\n      dup5\n        /* \"#utility.yul\":2637:2654   */\n      add\n        /* \"#utility.yul\":2624:2655   */\n      calldataload\n        /* \"#utility.yul\":2682:2700   */\n      0xffffffffffffffff\n        /* \"#utility.yul\":2674:2680   */\n      dup2\n        /* \"#utility.yul\":2671:2701   */\n      gt\n        /* \"#utility.yul\":2668:2785   */\n      iszero\n      tag_140\n      jumpi\n        /* \"#utility.yul\":2704:2783   */\n      tag_141\n      tag_142\n      jump\t// in\n    tag_141:\n        /* \"#utility.yul\":2668:2785   */\n    tag_140:\n        /* \"#utility.yul\":2809:2897   */\n      tag_143\n        /* \"#utility.yul\":2889:2896   */\n      dup7\n        /* \"#utility.yul\":2880:2886   */\n      dup3\n        /* \"#utility.yul\":2869:2878   */\n      dup8\n        /* \"#utility.yul\":2865:2887   */\n      add\n        /* \"#utility.yul\":2809:2897   */\n      tag_123\n      jump\t// in\n    tag_143:\n        /* \"#utility.yul\":2799:2897   */\n      swap4\n      pop\n        /* \"#utility.yul\":2595:2907   */\n      pop\n        /* \"#utility.yul\":2946:2948   */\n      0x20\n        /* \"#utility.yul\":2972:3025   */\n      tag_144\n        /* \"#utility.yul\":3017:3024   */\n      dup7\n        /* \"#utility.yul\":3008:3014   */\n      dup3\n        /* \"#utility.yul\":2997:3006   */\n      dup8\n        /* \"#utility.yul\":2993:3015   */\n      add\n        /* \"#utility.yul\":2972:3025   */\n      tag_132\n      jump\t// in\n    tag_144:\n        /* \"#utility.yul\":2962:3025   */\n      swap3\n      pop\n        /* \"#utility.yul\":2917:3035   */\n      pop\n        /* \"#utility.yul\":3074:3076   */\n      0x40\n        /* \"#utility.yul\":3100:3153   */\n      tag_145\n        /* \"#utility.yul\":3145:3152   */\n      dup7\n        /* \"#utility.yul\":3136:3142   */\n      dup3\n        /* \"#utility.yul\":3125:3134   */\n      dup8\n        /* \"#utility.yul\":3121:3143   */\n      add\n        /* \"#utility.yul\":3100:3153   */\n      tag_132\n      jump\t// in\n    tag_145:\n        /* \"#utility.yul\":3090:3153   */\n      swap2\n      pop\n        /* \"#utility.yul\":3045:3163   */\n      pop\n        /* \"#utility.yul\":2321:3170   */\n      swap3\n      pop\n      swap3\n      pop\n      swap3\n      jump\t// out\n        /* \"#utility.yul\":3176:3505   */\n    tag_11:\n        /* \"#utility.yul\":3235:3241   */\n      0x00\n        /* \"#utility.yul\":3284:3286   */\n      0x20\n        /* \"#utility.yul\":3272:3281   */\n      dup3\n        /* \"#utility.yul\":3263:3270   */\n      dup5\n        /* \"#utility.yul\":3259:3282   */\n      sub\n        /* \"#utility.yul\":3255:3287   */\n      slt\n        /* \"#utility.yul\":3252:3371   */\n      iszero\n      tag_147\n      jumpi\n        /* \"#utility.yul\":3290:3369   */\n      tag_148\n      tag_139\n      jump\t// in\n    tag_148:\n        /* \"#utility.yul\":3252:3371   */\n    tag_147:\n        /* \"#utility.yul\":3410:3411   */\n      0x00\n        /* \"#utility.yul\":3435:3488   */\n      tag_149\n        /* \"#utility.yul\":3480:3487   */\n      dup5\n        /* \"#utility.yul\":3471:3477   */\n      dup3\n        /* \"#utility.yul\":3460:3469   */\n      dup6\n        /* \"#utility.yul\":3456:3478   */\n      add\n        /* \"#utility.yul\":3435:3488   */\n      tag_132\n      jump\t// in\n    tag_149:\n        /* \"#utility.yul\":3425:3488   */\n      swap2\n      pop\n        /* \"#utility.yul\":3381:3498   */\n      pop\n        /* \"#utility.yul\":3176:3505   */\n      swap3\n      swap2\n      pop\n      pop\n      jump\t// out\n        /* \"#utility.yul\":3511:3629   */\n    tag_150:\n        /* \"#utility.yul\":3598:3622   */\n      tag_152\n        /* \"#utility.yul\":3616:3621   */\n      dup2\n        /* \"#utility.yul\":3598:3622   */\n      tag_153\n      jump\t// in\n    tag_152:\n        /* \"#utility.yul\":3593:3596   */\n      dup3\n        /* \"#utility.yul\":3586:3623   */\n      mstore\n        /* \"#utility.yul\":3511:3629   */\n      pop\n      pop\n      jump\t// out\n        /* \"#utility.yul\":3635:3753   */\n    tag_154:\n        /* \"#utility.yul\":3722:3746   */\n      tag_156\n        /* \"#utility.yul\":3740:3745   */\n      dup2\n        /* \"#utility.yul\":3722:3746   */\n      tag_157\n      jump\t// in\n    tag_156:\n        /* \"#utility.yul\":3717:3720   */\n      dup3\n        /* \"#utility.yul\":3710:3747   */\n      mstore\n        /* \"#utility.yul\":3635:3753   */\n      pop\n      pop\n      jump\t// out\n        /* \"#utility.yul\":3759:3871   */\n    tag_158:\n        /* \"#utility.yul\":3842:3864   */\n      tag_160\n        /* \"#utility.yul\":3858:3863   */\n      dup2\n        /* \"#utility.yul\":3842:3864   */\n      tag_161\n      jump\t// in\n    tag_160:\n        /* \"#utility.yul\":3837:3840   */\n      dup3\n        /* \"#utility.yul\":3830:3865   */\n      mstore\n        /* \"#utility.yul\":3759:3871   */\n      pop\n      pop\n      jump\t// out\n        /* \"#utility.yul\":3877:4525   */\n    tag_14:\n        /* \"#utility.yul\":4074:4078   */\n      0x00\n        /* \"#utility.yul\":4112:4115   */\n      0xa0\n        /* \"#utility.yul\":4101:4110   */\n      dup3\n        /* \"#utility.yul\":4097:4116   */\n      add\n        /* \"#utility.yul\":4089:4116   */\n      swap1\n      pop\n        /* \"#utility.yul\":4126:4197   */\n      tag_163\n        /* \"#utility.yul\":4194:4195   */\n      0x00\n        /* \"#utility.yul\":4183:4192   */\n      dup4\n        /* \"#utility.yul\":4179:4196   */\n      add\n        /* \"#utility.yul\":4170:4176   */\n      dup9\n        /* \"#utility.yul\":4126:4197   */\n      tag_150\n      jump\t// in\n    tag_163:\n        /* \"#utility.yul\":4207:4275   */\n      tag_164\n        /* \"#utility.yul\":4271:4273   */\n      0x20\n        /* \"#utility.yul\":4260:4269   */\n      dup4\n        /* \"#utility.yul\":4256:4274   */\n      add\n        /* \"#utility.yul\":4247:4253   */\n      dup8\n        /* \"#utility.yul\":4207:4275   */\n      tag_158\n      jump\t// in\n    tag_164:\n        /* \"#utility.yul\":4285:4353   */\n      tag_165\n        /* \"#utility.yul\":4349:4351   */\n      0x40\n        /* \"#utility.yul\":4338:4347   */\n      dup4\n        /* \"#utility.yul\":4334:4352   */\n      add\n        /* \"#utility.yul\":4325:4331   */\n      dup7\n        /* \"#utility.yul\":4285:4353   */\n      tag_158\n      jump\t// in\n    tag_165:\n        /* \"#utility.yul\":4363:4435   */\n      tag_166\n        /* \"#utility.yul\":4431:4433   */\n      0x60\n        /* \"#utility.yul\":4420:4429   */\n      dup4\n        /* \"#utility.yul\":4416:4434   */\n      add\n        /* \"#utility.yul\":4407:4413   */\n      dup6\n        /* \"#utility.yul\":4363:4435   */\n      tag_154\n      jump\t// in\n    tag_166:\n        /* \"#utility.yul\":4445:4518   */\n      tag_167\n        /* \"#utility.yul\":4513:4516   */\n      0x80\n        /* \"#utility.yul\":4502:4511   */\n      dup4\n        /* \"#utility.yul\":4498:4517   */\n      add\n        /* \"#utility.yul\":4489:4495   */\n      dup5\n        /* \"#utility.yul\":4445:4518   */\n      tag_154\n      jump\t// in\n    tag_167:\n        /* \"#utility.yul\":3877:4525   */\n      swap7\n      swap6\n      pop\n      pop\n      pop\n      pop\n      pop\n      pop\n      jump\t// out\n        /* \"#utility.yul\":4531:4660   */\n    tag_101:\n        /* \"#utility.yul\":4565:4571   */\n      0x00\n        /* \"#utility.yul\":4592:4612   */\n      tag_169\n      tag_170\n      jump\t// in\n    tag_169:\n        /* \"#utility.yul\":4582:4612   */\n      swap1\n      pop\n        /* \"#utility.yul\":4621:4654   */\n      tag_171\n        /* \"#utility.yul\":4649:4653   */\n      dup3\n        /* \"#utility.yul\":4641:4647   */\n      dup3\n        /* \"#utility.yul\":4621:4654   */\n      tag_172\n      jump\t// in\n    tag_171:\n        /* \"#utility.yul\":4531:4660   */\n      swap2\n      swap1\n      pop\n      jump\t// out\n        /* \"#utility.yul\":4666:4741   */\n    tag_170:\n        /* \"#utility.yul\":4699:4705   */\n      0x00\n        /* \"#utility.yul\":4732:4734   */\n      0x40\n        /* \"#utility.yul\":4726:4735   */\n      mload\n        /* \"#utility.yul\":4716:4735   */\n      swap1\n      pop\n        /* \"#utility.yul\":4666:4741   */\n      swap1\n      jump\t// out\n        /* \"#utility.yul\":4747:5068   */\n    tag_100:\n        /* \"#utility.yul\":4834:4838   */\n      0x00\n        /* \"#utility.yul\":4924:4942   */\n      0xffffffffffffffff\n        /* \"#utility.yul\":4916:4922   */\n      dup3\n        /* \"#utility.yul\":4913:4943   */\n      gt\n        /* \"#utility.yul\":4910:4966   */\n      iszero\n      tag_175\n      jumpi\n        /* \"#utility.yul\":4946:4964   */\n      tag_176\n      tag_177\n      jump\t// in\n    tag_176:\n        /* \"#utility.yul\":4910:4966   */\n    tag_175:\n        /* \"#utility.yul\":4996:5000   */\n      0x20\n        /* \"#utility.yul\":4988:4994   */\n      dup3\n        /* \"#utility.yul\":4984:5001   */\n      mul\n        /* \"#utility.yul\":4976:5001   */\n      swap1\n      pop\n        /* \"#utility.yul\":5056:5060   */\n      0x20\n        /* \"#utility.yul\":5050:5054   */\n      dup2\n        /* \"#utility.yul\":5046:5061   */\n      add\n        /* \"#utility.yul\":5038:5061   */\n      swap1\n      pop\n        /* \"#utility.yul\":4747:5068   */\n      swap2\n      swap1\n      pop\n      jump\t// out\n        /* \"#utility.yul\":5074:5382   */\n    tag_117:\n        /* \"#utility.yul\":5136:5140   */\n      0x00\n        /* \"#utility.yul\":5226:5244   */\n      0xffffffffffffffff\n        /* \"#utility.yul\":5218:5224   */\n      dup3\n        /* \"#utility.yul\":5215:5245   */\n      gt\n        /* \"#utility.yul\":5212:5268   */\n      iszero\n      tag_179\n      jumpi\n        /* \"#utility.yul\":5248:5266   */\n      tag_180\n      tag_177\n      jump\t// in\n    tag_180:\n        /* \"#utility.yul\":5212:5268   */\n    tag_179:\n        /* \"#utility.yul\":5286:5315   */\n      tag_181\n        /* \"#utility.yul\":5308:5314   */\n      dup3\n        /* \"#utility.yul\":5286:5315   */\n      tag_182\n      jump\t// in\n    tag_181:\n        /* \"#utility.yul\":5278:5315   */\n      swap1\n      pop\n        /* \"#utility.yul\":5370:5374   */\n      0x20\n        /* \"#utility.yul\":5364:5368   */\n      dup2\n        /* \"#utility.yul\":5360:5375   */\n      add\n        /* \"#utility.yul\":5352:5375   */\n      swap1\n      pop\n        /* \"#utility.yul\":5074:5382   */\n      swap2\n      swap1\n      pop\n      jump\t// out\n        /* \"#utility.yul\":5388:5484   */\n    tag_153:\n        /* \"#utility.yul\":5425:5432   */\n      0x00\n        /* \"#utility.yul\":5454:5478   */\n      tag_184\n        /* \"#utility.yul\":5472:5477   */\n      dup3\n        /* \"#utility.yul\":5454:5478   */\n      tag_185\n      jump\t// in\n    tag_184:\n        /* \"#utility.yul\":5443:5478   */\n      swap1\n      pop\n        /* \"#utility.yul\":5388:5484   */\n      swap2\n      swap1\n      pop\n      jump\t// out\n        /* \"#utility.yul\":5490:5616   */\n    tag_185:\n        /* \"#utility.yul\":5527:5534   */\n      0x00\n        /* \"#utility.yul\":5567:5609   */\n      0xffffffffffffffffffffffffffffffffffffffff\n        /* \"#utility.yul\":5560:5565   */\n      dup3\n        /* \"#utility.yul\":5556:5610   */\n      and\n        /* \"#utility.yul\":5545:5610   */\n      swap1\n      pop\n        /* \"#utility.yul\":5490:5616   */\n      swap2\n      swap1\n      pop\n      jump\t// out\n        /* \"#utility.yul\":5622:5699   */\n    tag_157:\n        /* \"#utility.yul\":5659:5666   */\n      0x00\n        /* \"#utility.yul\":5688:5693   */\n      dup2\n        /* \"#utility.yul\":5677:5693   */\n      swap1\n      pop\n        /* \"#utility.yul\":5622:5699   */\n      swap2\n      swap1\n      pop\n      jump\t// out\n        /* \"#utility.yul\":5705:5791   */\n    tag_161:\n        /* \"#utility.yul\":5740:5747   */\n      0x00\n        /* \"#utility.yul\":5780:5784   */\n      0xff\n        /* \"#utility.yul\":5773:5778   */\n      dup3\n        /* \"#utility.yul\":5769:5785   */\n      and\n        /* \"#utility.yul\":5758:5785   */\n      swap1\n      pop\n        /* \"#utility.yul\":5705:5791   */\n      swap2\n      swap1\n      pop\n      jump\t// out\n        /* \"#utility.yul\":5797:5951   */\n    tag_122:\n        /* \"#utility.yul\":5881:5887   */\n      dup3\n        /* \"#utility.yul\":5876:5879   */\n      dup2\n        /* \"#utility.yul\":5871:5874   */\n      dup4\n        /* \"#utility.yul\":5858:5888   */\n      calldatacopy\n        /* \"#utility.yul\":5943:5944   */\n      0x00\n        /* \"#utility.yul\":5934:5940   */\n      dup4\n        /* \"#utility.yul\":5929:5932   */\n      dup4\n        /* \"#utility.yul\":5925:5941   */\n      add\n        /* \"#utility.yul\":5918:5945   */\n      mstore\n        /* \"#utility.yul\":5797:5951   */\n      pop\n      pop\n      pop\n      jump\t// out\n        /* \"#utility.yul\":5957:6277   */\n    tag_28:\n        /* \"#utility.yul\":6001:6007   */\n      0x00\n        /* \"#utility.yul\":6038:6039   */\n      0x02\n        /* \"#utility.yul\":6032:6036   */\n      dup3\n        /* \"#utility.yul\":6028:6040   */\n      div\n        /* \"#utility.yul\":6018:6040   */\n      swap1\n      pop\n        /* \"#utility.yul\":6085:6086   */\n      0x01\n        /* \"#utility.yul\":6079:6083   */\n      dup3\n        /* \"#utility.yul\":6075:6087   */\n      and\n        /* \"#utility.yul\":6106:6124   */\n      dup1\n        /* \"#utility.yul\":6096:6177   */\n      tag_191\n      jumpi\n        /* \"#utility.yul\":6162:6166   */\n      0x7f\n        /* \"#utility.yul\":6154:6160   */\n      dup3\n        /* \"#utility.yul\":6150:6167   */\n      and\n        /* \"#utility.yul\":6140:6167   */\n      swap2\n      pop\n        /* \"#utility.yul\":6096:6177   */\n    tag_191:\n        /* \"#utility.yul\":6224:6226   */\n      0x20\n        /* \"#utility.yul\":6216:6222   */\n      dup3\n        /* \"#utility.yul\":6213:6227   */\n      lt\n        /* \"#utility.yul\":6193:6211   */\n      dup2\n        /* \"#utility.yul\":6190:6228   */\n      eq\n        /* \"#utility.yul\":6187:6271   */\n      iszero\n      tag_192\n      jumpi\n        /* \"#utility.yul\":6243:6261   */\n      tag_193\n      tag_194\n      jump\t// in\n    tag_193:\n        /* \"#utility.yul\":6187:6271   */\n    tag_192:\n        /* \"#utility.yul\":6008:6277   */\n      pop\n        /* \"#utility.yul\":5957:6277   */\n      swap2\n      swap1\n      pop\n      jump\t// out\n        /* \"#utility.yul\":6283:6564   */\n    tag_172:\n        /* \"#utility.yul\":6366:6393   */\n      tag_196\n        /* \"#utility.yul\":6388:6392   */\n      dup3\n        /* \"#utility.yul\":6366:6393   */\n      tag_182\n      jump\t// in\n    tag_196:\n        /* \"#utility.yul\":6358:6364   */\n      dup2\n        /* \"#utility.yul\":6354:6394   */\n      add\n        /* \"#utility.yul\":6496:6502   */\n      dup2\n        /* \"#utility.yul\":6484:6494   */\n      dup2\n        /* \"#utility.yul\":6481:6503   */\n      lt\n        /* \"#utility.yul\":6460:6478   */\n      0xffffffffffffffff\n        /* \"#utility.yul\":6448:6458   */\n      dup3\n        /* \"#utility.yul\":6445:6479   */\n      gt\n        /* \"#utility.yul\":6442:6504   */\n      or\n        /* \"#utility.yul\":6439:6527   */\n      iszero\n      tag_197\n      jumpi\n        /* \"#utility.yul\":6507:6525   */\n      tag_198\n      tag_177\n      jump\t// in\n    tag_198:\n        /* \"#utility.yul\":6439:6527   */\n    tag_197:\n        /* \"#utility.yul\":6547:6557   */\n      dup1\n        /* \"#utility.yul\":6543:6545   */\n      0x40\n        /* \"#utility.yul\":6536:6558   */\n      mstore\n        /* \"#utility.yul\":6326:6564   */\n      pop\n        /* \"#utility.yul\":6283:6564   */\n      pop\n      pop\n      jump\t// out\n        /* \"#utility.yul\":6570:6737   */\n    tag_17:\n        /* \"#utility.yul\":6607:6610   */\n      0x00\n        /* \"#utility.yul\":6630:6652   */\n      tag_200\n        /* \"#utility.yul\":6646:6651   */\n      dup3\n        /* \"#utility.yul\":6630:6652   */\n      tag_161\n      jump\t// in\n    tag_200:\n        /* \"#utility.yul\":6621:6652   */\n      swap2\n      pop\n        /* \"#utility.yul\":6674:6678   */\n      0xff\n        /* \"#utility.yul\":6667:6672   */\n      dup3\n        /* \"#utility.yul\":6664:6679   */\n      eq\n        /* \"#utility.yul\":6661:6702   */\n      iszero\n      tag_201\n      jumpi\n        /* \"#utility.yul\":6682:6700   */\n      tag_202\n      tag_203\n      jump\t// in\n    tag_202:\n        /* \"#utility.yul\":6661:6702   */\n    tag_201:\n        /* \"#utility.yul\":6729:6730   */\n      0x01\n        /* \"#utility.yul\":6722:6727   */\n      dup3\n        /* \"#utility.yul\":6718:6731   */\n      add\n        /* \"#utility.yul\":6711:6731   */\n      swap1\n      pop\n        /* \"#utility.yul\":6570:6737   */\n      swap2\n      swap1\n      pop\n      jump\t// out\n        /* \"#utility.yul\":6743:6923   */\n    tag_203:\n        /* \"#utility.yul\":6791:6868   */\n      0x4e487b7100000000000000000000000000000000000000000000000000000000\n        /* \"#utility.yul\":6788:6789   */\n      0x00\n        /* \"#utility.yul\":6781:6869   */\n      mstore\n        /* \"#utility.yul\":6888:6892   */\n      0x11\n        /* \"#utility.yul\":6885:6886   */\n      0x04\n        /* \"#utility.yul\":6878:6893   */\n      mstore\n        /* \"#utility.yul\":6912:6916   */\n      0x24\n        /* \"#utility.yul\":6909:6910   */\n      0x00\n        /* \"#utility.yul\":6902:6917   */\n      revert\n        /* \"#utility.yul\":6929:7109   */\n    tag_194:\n        /* \"#utility.yul\":6977:7054   */\n      0x4e487b7100000000000000000000000000000000000000000000000000000000\n        /* \"#utility.yul\":6974:6975   */\n      0x00\n        /* \"#utility.yul\":6967:7055   */\n      mstore\n        /* \"#utility.yul\":7074:7078   */\n      0x22\n        /* \"#utility.yul\":7071:7072   */\n      0x04\n        /* \"#utility.yul\":7064:7079   */\n      mstore\n        /* \"#utility.yul\":7098:7102   */\n      0x24\n        /* \"#utility.yul\":7095:7096   */\n      0x00\n        /* \"#utility.yul\":7088:7103   */\n      revert\n        /* \"#utility.yul\":7115:7295   */\n    tag_23:\n        /* \"#utility.yul\":7163:7240   */\n      0x4e487b7100000000000000000000000000000000000000000000000000000000\n        /* \"#utility.yul\":7160:7161   */\n      0x00\n        /* \"#utility.yul\":7153:7241   */\n      mstore\n        /* \"#utility.yul\":7260:7264   */\n      0x32\n        /* \"#utility.yul\":7257:7258   */\n      0x04\n        /* \"#utility.yul\":7250:7265   */\n      mstore\n        /* \"#utility.yul\":7284:7288   */\n      0x24\n        /* \"#utility.yul\":7281:7282   */\n      0x00\n        /* \"#utility.yul\":7274:7289   */\n      revert\n        /* \"#utility.yul\":7301:7481   */\n    tag_177:\n        /* \"#utility.yul\":7349:7426   */\n      0x4e487b7100000000000000000000000000000000000000000000000000000000\n        /* \"#utility.yul\":7346:7347   */\n      0x00\n        /* \"#utility.yul\":7339:7427   */\n      mstore\n        /* \"#utility.yul\":7446:7450   */\n      0x41\n        /* \"#utility.yul\":7443:7444   */\n      0x04\n        /* \"#utility.yul\":7436:7451   */\n      mstore\n        /* \"#utility.yul\":7470:7474   */\n      0x24\n        /* \"#utility.yul\":7467:7468   */\n      0x00\n        /* \"#utility.yul\":7460:7475   */\n      revert\n        /* \"#utility.yul\":7487:7604   */\n    tag_110:\n        /* \"#utility.yul\":7596:7597   */\n      0x00\n        /* \"#utility.yul\":7593:7594   */\n      dup1\n        /* \"#utility.yul\":7586:7598   */\n      revert\n        /* \"#utility.yul\":7610:7727   */\n    tag_104:\n        /* \"#utility.yul\":7719:7720   */\n      0x00\n        /* \"#utility.yul\":7716:7717   */\n      dup1\n        /* \"#utility.yul\":7709:7721   */\n      revert\n        /* \"#utility.yul\":7733:7850   */\n    tag_120:\n        /* \"#utility.yul\":7842:7843   */\n      0x00\n        /* \"#utility.yul\":7839:7840   */\n      dup1\n        /* \"#utility.yul\":7832:7844   */\n      revert\n        /* \"#utility.yul\":7856:7973   */\n    tag_142:\n        /* \"#utility.yul\":7965:7966   */\n      0x00\n        /* \"#utility.yul\":7962:7963   */\n      dup1\n        /* \"#utility.yul\":7955:7967   */\n      revert\n        /* \"#utility.yul\":7979:8096   */\n    tag_139:\n        /* \"#utility.yul\":8088:8089   */\n      0x00\n        /* \"#utility.yul\":8085:8086   */\n      dup1\n        /* \"#utility.yul\":8078:8090   */\n      revert\n        /* \"#utility.yul\":8102:8204   */\n    tag_182:\n        /* \"#utility.yul\":8143:8149   */\n      0x00\n        /* \"#utility.yul\":8194:8196   */\n      0x1f\n        /* \"#utility.yul\":8190:8197   */\n      not\n        /* \"#utility.yul\":8185:8187   */\n      0x1f\n        /* \"#utility.yul\":8178:8183   */\n      dup4\n        /* \"#utility.yul\":8174:8188   */\n      add\n        /* \"#utility.yul\":8170:8198   */\n      and\n        /* \"#utility.yul\":8160:8198   */\n      swap1\n      pop\n        /* \"#utility.yul\":8102:8204   */\n      swap2\n      swap1\n      pop\n      jump\t// out\n        /* \"#utility.yul\":8210:8332   */\n    tag_135:\n        /* \"#utility.yul\":8283:8307   */\n      tag_215\n        /* \"#utility.yul\":8301:8306   */\n      dup2\n        /* \"#utility.yul\":8283:8307   */\n      tag_157\n      jump\t// in\n    tag_215:\n        /* \"#utility.yul\":8276:8281   */\n      dup2\n        /* \"#utility.yul\":8273:8308   */\n      eq\n        /* \"#utility.yul\":8263:8326   */\n      tag_216\n      jumpi\n        /* \"#utility.yul\":8322:8323   */\n      0x00\n        /* \"#utility.yul\":8319:8320   */\n      dup1\n        /* \"#utility.yul\":8312:8324   */\n      revert\n        /* \"#utility.yul\":8263:8326   */\n    tag_216:\n        /* \"#utility.yul\":8210:8332   */\n      pop\n      jump\t// out\n\n    auxdata: 0xa264697066735822122086d631e23b4e877591218bf45d057f0347f2e1bbf9dc32db39fe2cdc4d34a35c64736f6c63430008070033\n}\n",
				"bytecode": {
					"linkReferences": {},
					"object": "608060405260008060006101000a81548160ff021916908360ff16021790555034801561002b57600080fd5b50610db98061003b6000396000f3fe608060405234801561001057600080fd5b50600436106100365760003560e01c8063357d0d481461003b578063ac2f007414610057575b600080fd5b61005560048036038101906100509190610a03565b61008b565b005b610071600480360381019061006c9190610a72565b61037b565b604051610082959493929190610acc565b60405180910390f35b60008081819054906101000a900460ff16809291906100a990610c5c565b91906101000a81548160ff021916908360ff1602179055505060006006905033600660000160006101000a81548173ffffffffffffffffffffffffffffffffffffffff021916908373ffffffffffffffffffffffffffffffffffffffff16021790555060008054906101000a900460ff16600660000160146101000a81548160ff021916908360ff160217905550826006600201819055508160066003018190555060006002905060006003905060005b86518160ff16101561024157868160ff168151811061017c5761017b610ce4565b5b602002602001015182600001908051906020019061019b9291906103fb565b508282908060018154018082558091505060019003906000526020600020906003020160009091909190915060008201816000019080546101db90610bf9565b6101e6929190610481565b506001820160009054906101000a900460ff168160010160006101000a81548160ff021916908360ff160217905550600282018160020190805461022b92919061050e565b505050808061023990610c5c565b91505061015a565b5081600660010190805461025692919061061a565b5060018390806001815401808255809150506001900390600052602060002090600402016000909190919091506000820160009054906101000a900473ffffffffffffffffffffffffffffffffffffffff168160000160006101000a81548173ffffffffffffffffffffffffffffffffffffffff021916908373ffffffffffffffffffffffffffffffffffffffff1602179055506000820160149054906101000a900460ff168160000160146101000a81548160ff021916908360ff1602179055506000820160159054906101000a900460ff168160000160156101000a81548160ff021916908360ff160217905550600182018160010190805461035c9291906106d7565b5060028201548160020155600382015481600301555050505050505050565b6001818154811061038b57600080fd5b90600052602060002090600402016000915090508060000160009054906101000a900473ffffffffffffffffffffffffffffffffffffffff16908060000160149054906101000a900460ff16908060000160159054906101000a900460ff16908060020154908060030154905085565b82805461040790610bf9565b90600052602060002090601f0160209004810192826104295760008555610470565b82601f1061044257805160ff1916838001178555610470565b82800160010185558215610470579182015b8281111561046f578251825591602001919060010190610454565b5b50905061047d9190610794565b5090565b82805461048d90610bf9565b90600052602060002090601f0160209004810192826104af57600085556104fd565b82601f106104c057805485556104fd565b828001600101855582156104fd57600052602060002091601f016020900482015b828111156104fc5782548255916001019190600101906104e1565b5b50905061050a9190610794565b5090565b8280548282559060005260206000209060020281019282156106095760005260206000209160020282015b82811115610608578282600082018160000190805461055790610bf9565b610562929190610481565b506001820160009054906101000a900473ffffffffffffffffffffffffffffffffffffffff168160010160006101000a81548173ffffffffffffffffffffffffffffffffffffffff021916908373ffffffffffffffffffffffffffffffffffffffff1602179055506001820160149054906101000a900460ff168160010160146101000a81548160ff021916908315150217905550505091600201919060020190610539565b5b50905061061691906107b1565b5090565b8280548282559060005260206000209060030281019282156106c65760005260206000209160030282015b828111156106c5578282600082018160000190805461066390610bf9565b61066e929190610481565b506001820160009054906101000a900460ff168160010160006101000a81548160ff021916908360ff16021790555060028201816002019080546106b392919061050e565b50505091600301919060030190610645565b5b5090506106d39190610813565b5090565b8280548282559060005260206000209060030281019282156107835760005260206000209160030282015b82811115610782578282600082018160000190805461072090610bf9565b61072b929190610481565b506001820160009054906101000a900460ff168160010160006101000a81548160ff021916908360ff160217905550600282018160020190805461077092919061050e565b50505091600301919060030190610702565b5b5090506107909190610813565b5090565b5b808211156107ad576000816000905550600101610795565b5090565b5b8082111561080f57600080820160006107cb919061085e565b6001820160006101000a81549073ffffffffffffffffffffffffffffffffffffffff02191690556001820160146101000a81549060ff0219169055506002016107b2565b5090565b5b8082111561085a576000808201600061082d919061085e565b6001820160006101000a81549060ff0219169055600282016000610851919061089e565b50600301610814565b5090565b50805461086a90610bf9565b6000825580601f1061087c575061089b565b601f01602090049060005260206000209081019061089a9190610794565b5b50565b50805460008255600202906000526020600020908101906108bf91906107b1565b50565b60006108d56108d084610b44565b610b1f565b905080838252602082019050828560208602820111156108f8576108f7610d47565b5b60005b8581101561094657813567ffffffffffffffff81111561091e5761091d610d42565b5b80860161092b89826109c0565b855260208501945060208401935050506001810190506108fb565b5050509392505050565b600061096361095e84610b70565b610b1f565b90508281526020810184848401111561097f5761097e610d4c565b5b61098a848285610bea565b509392505050565b600082601f8301126109a7576109a6610d42565b5b81356109b78482602086016108c2565b91505092915050565b600082601f8301126109d5576109d4610d42565b5b81356109e5848260208601610950565b91505092915050565b6000813590506109fd81610d6c565b92915050565b600080600060608486031215610a1c57610a1b610d56565b5b600084013567ffffffffffffffff811115610a3a57610a39610d51565b5b610a4686828701610992565b9350506020610a57868287016109ee565b9250506040610a68868287016109ee565b9150509250925092565b600060208284031215610a8857610a87610d56565b5b6000610a96848285016109ee565b91505092915050565b610aa881610ba1565b82525050565b610ab781610bd3565b82525050565b610ac681610bdd565b82525050565b600060a082019050610ae16000830188610a9f565b610aee6020830187610abd565b610afb6040830186610abd565b610b086060830185610aae565b610b156080830184610aae565b9695505050505050565b6000610b29610b3a565b9050610b358282610c2b565b919050565b6000604051905090565b600067ffffffffffffffff821115610b5f57610b5e610d13565b5b602082029050602081019050919050565b600067ffffffffffffffff821115610b8b57610b8a610d13565b5b610b9482610d5b565b9050602081019050919050565b6000610bac82610bb3565b9050919050565b600073ffffffffffffffffffffffffffffffffffffffff82169050919050565b6000819050919050565b600060ff82169050919050565b82818337600083830152505050565b60006002820490506001821680610c1157607f821691505b60208210811415610c2557610c24610cb5565b5b50919050565b610c3482610d5b565b810181811067ffffffffffffffff82111715610c5357610c52610d13565b5b80604052505050565b6000610c6782610bdd565b915060ff821415610c7b57610c7a610c86565b5b600182019050919050565b7f4e487b7100000000000000000000000000000000000000000000000000000000600052601160045260246000fd5b7f4e487b7100000000000000000000000000000000000000000000000000000000600052602260045260246000fd5b7f4e487b7100000000000000000000000000000000000000000000000000000000600052603260045260246000fd5b7f4e487b7100000000000000000000000000000000000000000000000000000000600052604160045260246000fd5b600080fd5b600080fd5b600080fd5b600080fd5b600080fd5b6000601f19601f8301169050919050565b610d7581610bd3565b8114610d8057600080fd5b5056fea264697066735822122086d631e23b4e877591218bf45d057f0347f2e1bbf9dc32db39fe2cdc4d34a35c64736f6c63430008070033",
					"opcodes": "PUSH1 0x80 PUSH1 0x40 MSTORE PUSH1 0x0 DUP1 PUSH1 0x0 PUSH2 0x100 EXP DUP2 SLOAD DUP2 PUSH1 0xFF MUL NOT AND SWAP1 DUP4 PUSH1 0xFF AND MUL OR SWAP1 SSTORE POP CALLVALUE DUP1 ISZERO PUSH2 0x2B JUMPI PUSH1 0x0 DUP1 REVERT JUMPDEST POP PUSH2 0xDB9 DUP1 PUSH2 0x3B PUSH1 0x0 CODECOPY PUSH1 0x0 RETURN INVALID PUSH1 0x80 PUSH1 0x40 MSTORE CALLVALUE DUP1 ISZERO PUSH2 0x10 JUMPI PUSH1 0x0 DUP1 REVERT JUMPDEST POP PUSH1 0x4 CALLDATASIZE LT PUSH2 0x36 JUMPI PUSH1 0x0 CALLDATALOAD PUSH1 0xE0 SHR DUP1 PUSH4 0x357D0D48 EQ PUSH2 0x3B JUMPI DUP1 PUSH4 0xAC2F0074 EQ PUSH2 0x57 JUMPI JUMPDEST PUSH1 0x0 DUP1 REVERT JUMPDEST PUSH2 0x55 PUSH1 0x4 DUP1 CALLDATASIZE SUB DUP2 ADD SWAP1 PUSH2 0x50 SWAP2 SWAP1 PUSH2 0xA03 JUMP JUMPDEST PUSH2 0x8B JUMP JUMPDEST STOP JUMPDEST PUSH2 0x71 PUSH1 0x4 DUP1 CALLDATASIZE SUB DUP2 ADD SWAP1 PUSH2 0x6C SWAP2 SWAP1 PUSH2 0xA72 JUMP JUMPDEST PUSH2 0x37B JUMP JUMPDEST PUSH1 0x40 MLOAD PUSH2 0x82 SWAP6 SWAP5 SWAP4 SWAP3 SWAP2 SWAP1 PUSH2 0xACC JUMP JUMPDEST PUSH1 0x40 MLOAD DUP1 SWAP2 SUB SWAP1 RETURN JUMPDEST PUSH1 0x0 DUP1 DUP2 DUP2 SWAP1 SLOAD SWAP1 PUSH2 0x100 EXP SWAP1 DIV PUSH1 0xFF AND DUP1 SWAP3 SWAP2 SWAP1 PUSH2 0xA9 SWAP1 PUSH2 0xC5C JUMP JUMPDEST SWAP2 SWAP1 PUSH2 0x100 EXP DUP2 SLOAD DUP2 PUSH1 0xFF MUL NOT AND SWAP1 DUP4 PUSH1 0xFF AND MUL OR SWAP1 SSTORE POP POP PUSH1 0x0 PUSH1 0x6 SWAP1 POP CALLER PUSH1 0x6 PUSH1 0x0 ADD PUSH1 0x0 PUSH2 0x100 EXP DUP2 SLOAD DUP2 PUSH20 0xFFFFFFFFFFFFFFFFFFFFFFFFFFFFFFFFFFFFFFFF MUL NOT AND SWAP1 DUP4 PUSH20 0xFFFFFFFFFFFFFFFFFFFFFFFFFFFFFFFFFFFFFFFF AND MUL OR SWAP1 SSTORE POP PUSH1 0x0 DUP1 SLOAD SWAP1 PUSH2 0x100 EXP SWAP1 DIV PUSH1 0xFF AND PUSH1 0x6 PUSH1 0x0 ADD PUSH1 0x14 PUSH2 0x100 EXP DUP2 SLOAD DUP2 PUSH1 0xFF MUL NOT AND SWAP1 DUP4 PUSH1 0xFF AND MUL OR SWAP1 SSTORE POP DUP3 PUSH1 0x6 PUSH1 0x2 ADD DUP2 SWAP1 SSTORE POP DUP2 PUSH1 0x6 PUSH1 0x3 ADD DUP2 SWAP1 SSTORE POP PUSH1 0x0 PUSH1 0x2 SWAP1 POP PUSH1 0x0 PUSH1 0x3 SWAP1 POP PUSH1 0x0 JUMPDEST DUP7 MLOAD DUP2 PUSH1 0xFF AND LT ISZERO PUSH2 0x241 JUMPI DUP7 DUP2 PUSH1 0xFF AND DUP2 MLOAD DUP2 LT PUSH2 0x17C JUMPI PUSH2 0x17B PUSH2 0xCE4 JUMP JUMPDEST JUMPDEST PUSH1 0x20 MUL PUSH1 0x20 ADD ADD MLOAD DUP3 PUSH1 0x0 ADD SWAP1 DUP1 MLOAD SWAP1 PUSH1 0x20 ADD SWAP1 PUSH2 0x19B SWAP3 SWAP2 SWAP1 PUSH2 0x3FB JUMP JUMPDEST POP DUP3 DUP3 SWAP1 DUP1 PUSH1 0x1 DUP2 SLOAD ADD DUP1 DUP3 SSTORE DUP1 SWAP2 POP POP PUSH1 0x1 SWAP1 SUB SWAP1 PUSH1 0x0 MSTORE PUSH1 0x20 PUSH1 0x0 KECCAK256 SWAP1 PUSH1 0x3 MUL ADD PUSH1 0x0 SWAP1 SWAP2 SWAP1 SWAP2 SWAP1 SWAP2 POP PUSH1 0x0 DUP3 ADD DUP2 PUSH1 0x0 ADD SWAP1 DUP1 SLOAD PUSH2 0x1DB SWAP1 PUSH2 0xBF9 JUMP JUMPDEST PUSH2 0x1E6 SWAP3 SWAP2 SWAP1 PUSH2 0x481 JUMP JUMPDEST POP PUSH1 0x1 DUP3 ADD PUSH1 0x0 SWAP1 SLOAD SWAP1 PUSH2 0x100 EXP SWAP1 DIV PUSH1 0xFF AND DUP2 PUSH1 0x1 ADD PUSH1 0x0 PUSH2 0x100 EXP DUP2 SLOAD DUP2 PUSH1 0xFF MUL NOT AND SWAP1 DUP4 PUSH1 0xFF AND MUL OR SWAP1 SSTORE POP PUSH1 0x2 DUP3 ADD DUP2 PUSH1 0x2 ADD SWAP1 DUP1 SLOAD PUSH2 0x22B SWAP3 SWAP2 SWAP1 PUSH2 0x50E JUMP JUMPDEST POP POP POP DUP1 DUP1 PUSH2 0x239 SWAP1 PUSH2 0xC5C JUMP JUMPDEST SWAP2 POP POP PUSH2 0x15A JUMP JUMPDEST POP DUP2 PUSH1 0x6 PUSH1 0x1 ADD SWAP1 DUP1 SLOAD PUSH2 0x256 SWAP3 SWAP2 SWAP1 PUSH2 0x61A JUMP JUMPDEST POP PUSH1 0x1 DUP4 SWAP1 DUP1 PUSH1 0x1 DUP2 SLOAD ADD DUP1 DUP3 SSTORE DUP1 SWAP2 POP POP PUSH1 0x1 SWAP1 SUB SWAP1 PUSH1 0x0 MSTORE PUSH1 0x20 PUSH1 0x0 KECCAK256 SWAP1 PUSH1 0x4 MUL ADD PUSH1 0x0 SWAP1 SWAP2 SWAP1 SWAP2 SWAP1 SWAP2 POP PUSH1 0x0 DUP3 ADD PUSH1 0x0 SWAP1 SLOAD SWAP1 PUSH2 0x100 EXP SWAP1 DIV PUSH20 0xFFFFFFFFFFFFFFFFFFFFFFFFFFFFFFFFFFFFFFFF AND DUP2 PUSH1 0x0 ADD PUSH1 0x0 PUSH2 0x100 EXP DUP2 SLOAD DUP2 PUSH20 0xFFFFFFFFFFFFFFFFFFFFFFFFFFFFFFFFFFFFFFFF MUL NOT AND SWAP1 DUP4 PUSH20 0xFFFFFFFFFFFFFFFFFFFFFFFFFFFFFFFFFFFFFFFF AND MUL OR SWAP1 SSTORE POP PUSH1 0x0 DUP3 ADD PUSH1 0x14 SWAP1 SLOAD SWAP1 PUSH2 0x100 EXP SWAP1 DIV PUSH1 0xFF AND DUP2 PUSH1 0x0 ADD PUSH1 0x14 PUSH2 0x100 EXP DUP2 SLOAD DUP2 PUSH1 0xFF MUL NOT AND SWAP1 DUP4 PUSH1 0xFF AND MUL OR SWAP1 SSTORE POP PUSH1 0x0 DUP3 ADD PUSH1 0x15 SWAP1 SLOAD SWAP1 PUSH2 0x100 EXP SWAP1 DIV PUSH1 0xFF AND DUP2 PUSH1 0x0 ADD PUSH1 0x15 PUSH2 0x100 EXP DUP2 SLOAD DUP2 PUSH1 0xFF MUL NOT AND SWAP1 DUP4 PUSH1 0xFF AND MUL OR SWAP1 SSTORE POP PUSH1 0x1 DUP3 ADD DUP2 PUSH1 0x1 ADD SWAP1 DUP1 SLOAD PUSH2 0x35C SWAP3 SWAP2 SWAP1 PUSH2 0x6D7 JUMP JUMPDEST POP PUSH1 0x2 DUP3 ADD SLOAD DUP2 PUSH1 0x2 ADD SSTORE PUSH1 0x3 DUP3 ADD SLOAD DUP2 PUSH1 0x3 ADD SSTORE POP POP POP POP POP POP POP POP JUMP JUMPDEST PUSH1 0x1 DUP2 DUP2 SLOAD DUP2 LT PUSH2 0x38B JUMPI PUSH1 0x0 DUP1 REVERT JUMPDEST SWAP1 PUSH1 0x0 MSTORE PUSH1 0x20 PUSH1 0x0 KECCAK256 SWAP1 PUSH1 0x4 MUL ADD PUSH1 0x0 SWAP2 POP SWAP1 POP DUP1 PUSH1 0x0 ADD PUSH1 0x0 SWAP1 SLOAD SWAP1 PUSH2 0x100 EXP SWAP1 DIV PUSH20 0xFFFFFFFFFFFFFFFFFFFFFFFFFFFFFFFFFFFFFFFF AND SWAP1 DUP1 PUSH1 0x0 ADD PUSH1 0x14 SWAP1 SLOAD SWAP1 PUSH2 0x100 EXP SWAP1 DIV PUSH1 0xFF AND SWAP1 DUP1 PUSH1 0x0 ADD PUSH1 0x15 SWAP1 SLOAD SWAP1 PUSH2 0x100 EXP SWAP1 DIV PUSH1 0xFF AND SWAP1 DUP1 PUSH1 0x2 ADD SLOAD SWAP1 DUP1 PUSH1 0x3 ADD SLOAD SWAP1 POP DUP6 JUMP JUMPDEST DUP3 DUP1 SLOAD PUSH2 0x407 SWAP1 PUSH2 0xBF9 JUMP JUMPDEST SWAP1 PUSH1 0x0 MSTORE PUSH1 0x20 PUSH1 0x0 KECCAK256 SWAP1 PUSH1 0x1F ADD PUSH1 0x20 SWAP1 DIV DUP2 ADD SWAP3 DUP3 PUSH2 0x429 JUMPI PUSH1 0x0 DUP6 SSTORE PUSH2 0x470 JUMP JUMPDEST DUP3 PUSH1 0x1F LT PUSH2 0x442 JUMPI DUP1 MLOAD PUSH1 0xFF NOT AND DUP4 DUP1 ADD OR DUP6 SSTORE PUSH2 0x470 JUMP JUMPDEST DUP3 DUP1 ADD PUSH1 0x1 ADD DUP6 SSTORE DUP3 ISZERO PUSH2 0x470 JUMPI SWAP2 DUP3 ADD JUMPDEST DUP3 DUP2 GT ISZERO PUSH2 0x46F JUMPI DUP3 MLOAD DUP3 SSTORE SWAP2 PUSH1 0x20 ADD SWAP2 SWAP1 PUSH1 0x1 ADD SWAP1 PUSH2 0x454 JUMP JUMPDEST JUMPDEST POP SWAP1 POP PUSH2 0x47D SWAP2 SWAP1 PUSH2 0x794 JUMP JUMPDEST POP SWAP1 JUMP JUMPDEST DUP3 DUP1 SLOAD PUSH2 0x48D SWAP1 PUSH2 0xBF9 JUMP JUMPDEST SWAP1 PUSH1 0x0 MSTORE PUSH1 0x20 PUSH1 0x0 KECCAK256 SWAP1 PUSH1 0x1F ADD PUSH1 0x20 SWAP1 DIV DUP2 ADD SWAP3 DUP3 PUSH2 0x4AF JUMPI PUSH1 0x0 DUP6 SSTORE PUSH2 0x4FD JUMP JUMPDEST DUP3 PUSH1 0x1F LT PUSH2 0x4C0 JUMPI DUP1 SLOAD DUP6 SSTORE PUSH2 0x4FD JUMP JUMPDEST DUP3 DUP1 ADD PUSH1 0x1 ADD DUP6 SSTORE DUP3 ISZERO PUSH2 0x4FD JUMPI PUSH1 0x0 MSTORE PUSH1 0x20 PUSH1 0x0 KECCAK256 SWAP2 PUSH1 0x1F ADD PUSH1 0x20 SWAP1 DIV DUP3 ADD JUMPDEST DUP3 DUP2 GT ISZERO PUSH2 0x4FC JUMPI DUP3 SLOAD DUP3 SSTORE SWAP2 PUSH1 0x1 ADD SWAP2 SWAP1 PUSH1 0x1 ADD SWAP1 PUSH2 0x4E1 JUMP JUMPDEST JUMPDEST POP SWAP1 POP PUSH2 0x50A SWAP2 SWAP1 PUSH2 0x794 JUMP JUMPDEST POP SWAP1 JUMP JUMPDEST DUP3 DUP1 SLOAD DUP3 DUP3 SSTORE SWAP1 PUSH1 0x0 MSTORE PUSH1 0x20 PUSH1 0x0 KECCAK256 SWAP1 PUSH1 0x2 MUL DUP2 ADD SWAP3 DUP3 ISZERO PUSH2 0x609 JUMPI PUSH1 0x0 MSTORE PUSH1 0x20 PUSH1 0x0 KECCAK256 SWAP2 PUSH1 0x2 MUL DUP3 ADD JUMPDEST DUP3 DUP2 GT ISZERO PUSH2 0x608 JUMPI DUP3 DUP3 PUSH1 0x0 DUP3 ADD DUP2 PUSH1 0x0 ADD SWAP1 DUP1 SLOAD PUSH2 0x557 SWAP1 PUSH2 0xBF9 JUMP JUMPDEST PUSH2 0x562 SWAP3 SWAP2 SWAP1 PUSH2 0x481 JUMP JUMPDEST POP PUSH1 0x1 DUP3 ADD PUSH1 0x0 SWAP1 SLOAD SWAP1 PUSH2 0x100 EXP SWAP1 DIV PUSH20 0xFFFFFFFFFFFFFFFFFFFFFFFFFFFFFFFFFFFFFFFF AND DUP2 PUSH1 0x1 ADD PUSH1 0x0 PUSH2 0x100 EXP DUP2 SLOAD DUP2 PUSH20 0xFFFFFFFFFFFFFFFFFFFFFFFFFFFFFFFFFFFFFFFF MUL NOT AND SWAP1 DUP4 PUSH20 0xFFFFFFFFFFFFFFFFFFFFFFFFFFFFFFFFFFFFFFFF AND MUL OR SWAP1 SSTORE POP PUSH1 0x1 DUP3 ADD PUSH1 0x14 SWAP1 SLOAD SWAP1 PUSH2 0x100 EXP SWAP1 DIV PUSH1 0xFF AND DUP2 PUSH1 0x1 ADD PUSH1 0x14 PUSH2 0x100 EXP DUP2 SLOAD DUP2 PUSH1 0xFF MUL NOT AND SWAP1 DUP4 ISZERO ISZERO MUL OR SWAP1 SSTORE POP POP POP SWAP2 PUSH1 0x2 ADD SWAP2 SWAP1 PUSH1 0x2 ADD SWAP1 PUSH2 0x539 JUMP JUMPDEST JUMPDEST POP SWAP1 POP PUSH2 0x616 SWAP2 SWAP1 PUSH2 0x7B1 JUMP JUMPDEST POP SWAP1 JUMP JUMPDEST DUP3 DUP1 SLOAD DUP3 DUP3 SSTORE SWAP1 PUSH1 0x0 MSTORE PUSH1 0x20 PUSH1 0x0 KECCAK256 SWAP1 PUSH1 0x3 MUL DUP2 ADD SWAP3 DUP3 ISZERO PUSH2 0x6C6 JUMPI PUSH1 0x0 MSTORE PUSH1 0x20 PUSH1 0x0 KECCAK256 SWAP2 PUSH1 0x3 MUL DUP3 ADD JUMPDEST DUP3 DUP2 GT ISZERO PUSH2 0x6C5 JUMPI DUP3 DUP3 PUSH1 0x0 DUP3 ADD DUP2 PUSH1 0x0 ADD SWAP1 DUP1 SLOAD PUSH2 0x663 SWAP1 PUSH2 0xBF9 JUMP JUMPDEST PUSH2 0x66E SWAP3 SWAP2 SWAP1 PUSH2 0x481 JUMP JUMPDEST POP PUSH1 0x1 DUP3 ADD PUSH1 0x0 SWAP1 SLOAD SWAP1 PUSH2 0x100 EXP SWAP1 DIV PUSH1 0xFF AND DUP2 PUSH1 0x1 ADD PUSH1 0x0 PUSH2 0x100 EXP DUP2 SLOAD DUP2 PUSH1 0xFF MUL NOT AND SWAP1 DUP4 PUSH1 0xFF AND MUL OR SWAP1 SSTORE POP PUSH1 0x2 DUP3 ADD DUP2 PUSH1 0x2 ADD SWAP1 DUP1 SLOAD PUSH2 0x6B3 SWAP3 SWAP2 SWAP1 PUSH2 0x50E JUMP JUMPDEST POP POP POP SWAP2 PUSH1 0x3 ADD SWAP2 SWAP1 PUSH1 0x3 ADD SWAP1 PUSH2 0x645 JUMP JUMPDEST JUMPDEST POP SWAP1 POP PUSH2 0x6D3 SWAP2 SWAP1 PUSH2 0x813 JUMP JUMPDEST POP SWAP1 JUMP JUMPDEST DUP3 DUP1 SLOAD DUP3 DUP3 SSTORE SWAP1 PUSH1 0x0 MSTORE PUSH1 0x20 PUSH1 0x0 KECCAK256 SWAP1 PUSH1 0x3 MUL DUP2 ADD SWAP3 DUP3 ISZERO PUSH2 0x783 JUMPI PUSH1 0x0 MSTORE PUSH1 0x20 PUSH1 0x0 KECCAK256 SWAP2 PUSH1 0x3 MUL DUP3 ADD JUMPDEST DUP3 DUP2 GT ISZERO PUSH2 0x782 JUMPI DUP3 DUP3 PUSH1 0x0 DUP3 ADD DUP2 PUSH1 0x0 ADD SWAP1 DUP1 SLOAD PUSH2 0x720 SWAP1 PUSH2 0xBF9 JUMP JUMPDEST PUSH2 0x72B SWAP3 SWAP2 SWAP1 PUSH2 0x481 JUMP JUMPDEST POP PUSH1 0x1 DUP3 ADD PUSH1 0x0 SWAP1 SLOAD SWAP1 PUSH2 0x100 EXP SWAP1 DIV PUSH1 0xFF AND DUP2 PUSH1 0x1 ADD PUSH1 0x0 PUSH2 0x100 EXP DUP2 SLOAD DUP2 PUSH1 0xFF MUL NOT AND SWAP1 DUP4 PUSH1 0xFF AND MUL OR SWAP1 SSTORE POP PUSH1 0x2 DUP3 ADD DUP2 PUSH1 0x2 ADD SWAP1 DUP1 SLOAD PUSH2 0x770 SWAP3 SWAP2 SWAP1 PUSH2 0x50E JUMP JUMPDEST POP POP POP SWAP2 PUSH1 0x3 ADD SWAP2 SWAP1 PUSH1 0x3 ADD SWAP1 PUSH2 0x702 JUMP JUMPDEST JUMPDEST POP SWAP1 POP PUSH2 0x790 SWAP2 SWAP1 PUSH2 0x813 JUMP JUMPDEST POP SWAP1 JUMP JUMPDEST JUMPDEST DUP1 DUP3 GT ISZERO PUSH2 0x7AD JUMPI PUSH1 0x0 DUP2 PUSH1 0x0 SWAP1 SSTORE POP PUSH1 0x1 ADD PUSH2 0x795 JUMP JUMPDEST POP SWAP1 JUMP JUMPDEST JUMPDEST DUP1 DUP3 GT ISZERO PUSH2 0x80F JUMPI PUSH1 0x0 DUP1 DUP3 ADD PUSH1 0x0 PUSH2 0x7CB SWAP2 SWAP1 PUSH2 0x85E JUMP JUMPDEST PUSH1 0x1 DUP3 ADD PUSH1 0x0 PUSH2 0x100 EXP DUP2 SLOAD SWAP1 PUSH20 0xFFFFFFFFFFFFFFFFFFFFFFFFFFFFFFFFFFFFFFFF MUL NOT AND SWAP1 SSTORE PUSH1 0x1 DUP3 ADD PUSH1 0x14 PUSH2 0x100 EXP DUP2 SLOAD SWAP1 PUSH1 0xFF MUL NOT AND SWAP1 SSTORE POP PUSH1 0x2 ADD PUSH2 0x7B2 JUMP JUMPDEST POP SWAP1 JUMP JUMPDEST JUMPDEST DUP1 DUP3 GT ISZERO PUSH2 0x85A JUMPI PUSH1 0x0 DUP1 DUP3 ADD PUSH1 0x0 PUSH2 0x82D SWAP2 SWAP1 PUSH2 0x85E JUMP JUMPDEST PUSH1 0x1 DUP3 ADD PUSH1 0x0 PUSH2 0x100 EXP DUP2 SLOAD SWAP1 PUSH1 0xFF MUL NOT AND SWAP1 SSTORE PUSH1 0x2 DUP3 ADD PUSH1 0x0 PUSH2 0x851 SWAP2 SWAP1 PUSH2 0x89E JUMP JUMPDEST POP PUSH1 0x3 ADD PUSH2 0x814 JUMP JUMPDEST POP SWAP1 JUMP JUMPDEST POP DUP1 SLOAD PUSH2 0x86A SWAP1 PUSH2 0xBF9 JUMP JUMPDEST PUSH1 0x0 DUP3 SSTORE DUP1 PUSH1 0x1F LT PUSH2 0x87C JUMPI POP PUSH2 0x89B JUMP JUMPDEST PUSH1 0x1F ADD PUSH1 0x20 SWAP1 DIV SWAP1 PUSH1 0x0 MSTORE PUSH1 0x20 PUSH1 0x0 KECCAK256 SWAP1 DUP2 ADD SWAP1 PUSH2 0x89A SWAP2 SWAP1 PUSH2 0x794 JUMP JUMPDEST JUMPDEST POP JUMP JUMPDEST POP DUP1 SLOAD PUSH1 0x0 DUP3 SSTORE PUSH1 0x2 MUL SWAP1 PUSH1 0x0 MSTORE PUSH1 0x20 PUSH1 0x0 KECCAK256 SWAP1 DUP2 ADD SWAP1 PUSH2 0x8BF SWAP2 SWAP1 PUSH2 0x7B1 JUMP JUMPDEST POP JUMP JUMPDEST PUSH1 0x0 PUSH2 0x8D5 PUSH2 0x8D0 DUP5 PUSH2 0xB44 JUMP JUMPDEST PUSH2 0xB1F JUMP JUMPDEST SWAP1 POP DUP1 DUP4 DUP3 MSTORE PUSH1 0x20 DUP3 ADD SWAP1 POP DUP3 DUP6 PUSH1 0x20 DUP7 MUL DUP3 ADD GT ISZERO PUSH2 0x8F8 JUMPI PUSH2 0x8F7 PUSH2 0xD47 JUMP JUMPDEST JUMPDEST PUSH1 0x0 JUMPDEST DUP6 DUP2 LT ISZERO PUSH2 0x946 JUMPI DUP2 CALLDATALOAD PUSH8 0xFFFFFFFFFFFFFFFF DUP2 GT ISZERO PUSH2 0x91E JUMPI PUSH2 0x91D PUSH2 0xD42 JUMP JUMPDEST JUMPDEST DUP1 DUP7 ADD PUSH2 0x92B DUP10 DUP3 PUSH2 0x9C0 JUMP JUMPDEST DUP6 MSTORE PUSH1 0x20 DUP6 ADD SWAP5 POP PUSH1 0x20 DUP5 ADD SWAP4 POP POP POP PUSH1 0x1 DUP2 ADD SWAP1 POP PUSH2 0x8FB JUMP JUMPDEST POP POP POP SWAP4 SWAP3 POP POP POP JUMP JUMPDEST PUSH1 0x0 PUSH2 0x963 PUSH2 0x95E DUP5 PUSH2 0xB70 JUMP JUMPDEST PUSH2 0xB1F JUMP JUMPDEST SWAP1 POP DUP3 DUP2 MSTORE PUSH1 0x20 DUP2 ADD DUP5 DUP5 DUP5 ADD GT ISZERO PUSH2 0x97F JUMPI PUSH2 0x97E PUSH2 0xD4C JUMP JUMPDEST JUMPDEST PUSH2 0x98A DUP5 DUP3 DUP6 PUSH2 0xBEA JUMP JUMPDEST POP SWAP4 SWAP3 POP POP POP JUMP JUMPDEST PUSH1 0x0 DUP3 PUSH1 0x1F DUP4 ADD SLT PUSH2 0x9A7 JUMPI PUSH2 0x9A6 PUSH2 0xD42 JUMP JUMPDEST JUMPDEST DUP2 CALLDATALOAD PUSH2 0x9B7 DUP5 DUP3 PUSH1 0x20 DUP7 ADD PUSH2 0x8C2 JUMP JUMPDEST SWAP2 POP POP SWAP3 SWAP2 POP POP JUMP JUMPDEST PUSH1 0x0 DUP3 PUSH1 0x1F DUP4 ADD SLT PUSH2 0x9D5 JUMPI PUSH2 0x9D4 PUSH2 0xD42 JUMP JUMPDEST JUMPDEST DUP2 CALLDATALOAD PUSH2 0x9E5 DUP5 DUP3 PUSH1 0x20 DUP7 ADD PUSH2 0x950 JUMP JUMPDEST SWAP2 POP POP SWAP3 SWAP2 POP POP JUMP JUMPDEST PUSH1 0x0 DUP2 CALLDATALOAD SWAP1 POP PUSH2 0x9FD DUP2 PUSH2 0xD6C JUMP JUMPDEST SWAP3 SWAP2 POP POP JUMP JUMPDEST PUSH1 0x0 DUP1 PUSH1 0x0 PUSH1 0x60 DUP5 DUP7 SUB SLT ISZERO PUSH2 0xA1C JUMPI PUSH2 0xA1B PUSH2 0xD56 JUMP JUMPDEST JUMPDEST PUSH1 0x0 DUP5 ADD CALLDATALOAD PUSH8 0xFFFFFFFFFFFFFFFF DUP2 GT ISZERO PUSH2 0xA3A JUMPI PUSH2 0xA39 PUSH2 0xD51 JUMP JUMPDEST JUMPDEST PUSH2 0xA46 DUP7 DUP3 DUP8 ADD PUSH2 0x992 JUMP JUMPDEST SWAP4 POP POP PUSH1 0x20 PUSH2 0xA57 DUP7 DUP3 DUP8 ADD PUSH2 0x9EE JUMP JUMPDEST SWAP3 POP POP PUSH1 0x40 PUSH2 0xA68 DUP7 DUP3 DUP8 ADD PUSH2 0x9EE JUMP JUMPDEST SWAP2 POP POP SWAP3 POP SWAP3 POP SWAP3 JUMP JUMPDEST PUSH1 0x0 PUSH1 0x20 DUP3 DUP5 SUB SLT ISZERO PUSH2 0xA88 JUMPI PUSH2 0xA87 PUSH2 0xD56 JUMP JUMPDEST JUMPDEST PUSH1 0x0 PUSH2 0xA96 DUP5 DUP3 DUP6 ADD PUSH2 0x9EE JUMP JUMPDEST SWAP2 POP POP SWAP3 SWAP2 POP POP JUMP JUMPDEST PUSH2 0xAA8 DUP2 PUSH2 0xBA1 JUMP JUMPDEST DUP3 MSTORE POP POP JUMP JUMPDEST PUSH2 0xAB7 DUP2 PUSH2 0xBD3 JUMP JUMPDEST DUP3 MSTORE POP POP JUMP JUMPDEST PUSH2 0xAC6 DUP2 PUSH2 0xBDD JUMP JUMPDEST DUP3 MSTORE POP POP JUMP JUMPDEST PUSH1 0x0 PUSH1 0xA0 DUP3 ADD SWAP1 POP PUSH2 0xAE1 PUSH1 0x0 DUP4 ADD DUP9 PUSH2 0xA9F JUMP JUMPDEST PUSH2 0xAEE PUSH1 0x20 DUP4 ADD DUP8 PUSH2 0xABD JUMP JUMPDEST PUSH2 0xAFB PUSH1 0x40 DUP4 ADD DUP7 PUSH2 0xABD JUMP JUMPDEST PUSH2 0xB08 PUSH1 0x60 DUP4 ADD DUP6 PUSH2 0xAAE JUMP JUMPDEST PUSH2 0xB15 PUSH1 0x80 DUP4 ADD DUP5 PUSH2 0xAAE JUMP JUMPDEST SWAP7 SWAP6 POP POP POP POP POP POP JUMP JUMPDEST PUSH1 0x0 PUSH2 0xB29 PUSH2 0xB3A JUMP JUMPDEST SWAP1 POP PUSH2 0xB35 DUP3 DUP3 PUSH2 0xC2B JUMP JUMPDEST SWAP2 SWAP1 POP JUMP JUMPDEST PUSH1 0x0 PUSH1 0x40 MLOAD SWAP1 POP SWAP1 JUMP JUMPDEST PUSH1 0x0 PUSH8 0xFFFFFFFFFFFFFFFF DUP3 GT ISZERO PUSH2 0xB5F JUMPI PUSH2 0xB5E PUSH2 0xD13 JUMP JUMPDEST JUMPDEST PUSH1 0x20 DUP3 MUL SWAP1 POP PUSH1 0x20 DUP2 ADD SWAP1 POP SWAP2 SWAP1 POP JUMP JUMPDEST PUSH1 0x0 PUSH8 0xFFFFFFFFFFFFFFFF DUP3 GT ISZERO PUSH2 0xB8B JUMPI PUSH2 0xB8A PUSH2 0xD13 JUMP JUMPDEST JUMPDEST PUSH2 0xB94 DUP3 PUSH2 0xD5B JUMP JUMPDEST SWAP1 POP PUSH1 0x20 DUP2 ADD SWAP1 POP SWAP2 SWAP1 POP JUMP JUMPDEST PUSH1 0x0 PUSH2 0xBAC DUP3 PUSH2 0xBB3 JUMP JUMPDEST SWAP1 POP SWAP2 SWAP1 POP JUMP JUMPDEST PUSH1 0x0 PUSH20 0xFFFFFFFFFFFFFFFFFFFFFFFFFFFFFFFFFFFFFFFF DUP3 AND SWAP1 POP SWAP2 SWAP1 POP JUMP JUMPDEST PUSH1 0x0 DUP2 SWAP1 POP SWAP2 SWAP1 POP JUMP JUMPDEST PUSH1 0x0 PUSH1 0xFF DUP3 AND SWAP1 POP SWAP2 SWAP1 POP JUMP JUMPDEST DUP3 DUP2 DUP4 CALLDATACOPY PUSH1 0x0 DUP4 DUP4 ADD MSTORE POP POP POP JUMP JUMPDEST PUSH1 0x0 PUSH1 0x2 DUP3 DIV SWAP1 POP PUSH1 0x1 DUP3 AND DUP1 PUSH2 0xC11 JUMPI PUSH1 0x7F DUP3 AND SWAP2 POP JUMPDEST PUSH1 0x20 DUP3 LT DUP2 EQ ISZERO PUSH2 0xC25 JUMPI PUSH2 0xC24 PUSH2 0xCB5 JUMP JUMPDEST JUMPDEST POP SWAP2 SWAP1 POP JUMP JUMPDEST PUSH2 0xC34 DUP3 PUSH2 0xD5B JUMP JUMPDEST DUP2 ADD DUP2 DUP2 LT PUSH8 0xFFFFFFFFFFFFFFFF DUP3 GT OR ISZERO PUSH2 0xC53 JUMPI PUSH2 0xC52 PUSH2 0xD13 JUMP JUMPDEST JUMPDEST DUP1 PUSH1 0x40 MSTORE POP POP POP JUMP JUMPDEST PUSH1 0x0 PUSH2 0xC67 DUP3 PUSH2 0xBDD JUMP JUMPDEST SWAP2 POP PUSH1 0xFF DUP3 EQ ISZERO PUSH2 0xC7B JUMPI PUSH2 0xC7A PUSH2 0xC86 JUMP JUMPDEST JUMPDEST PUSH1 0x1 DUP3 ADD SWAP1 POP SWAP2 SWAP1 POP JUMP JUMPDEST PUSH32 0x4E487B7100000000000000000000000000000000000000000000000000000000 PUSH1 0x0 MSTORE PUSH1 0x11 PUSH1 0x4 MSTORE PUSH1 0x24 PUSH1 0x0 REVERT JUMPDEST PUSH32 0x4E487B7100000000000000000000000000000000000000000000000000000000 PUSH1 0x0 MSTORE PUSH1 0x22 PUSH1 0x4 MSTORE PUSH1 0x24 PUSH1 0x0 REVERT JUMPDEST PUSH32 0x4E487B7100000000000000000000000000000000000000000000000000000000 PUSH1 0x0 MSTORE PUSH1 0x32 PUSH1 0x4 MSTORE PUSH1 0x24 PUSH1 0x0 REVERT JUMPDEST PUSH32 0x4E487B7100000000000000000000000000000000000000000000000000000000 PUSH1 0x0 MSTORE PUSH1 0x41 PUSH1 0x4 MSTORE PUSH1 0x24 PUSH1 0x0 REVERT JUMPDEST PUSH1 0x0 DUP1 REVERT JUMPDEST PUSH1 0x0 DUP1 REVERT JUMPDEST PUSH1 0x0 DUP1 REVERT JUMPDEST PUSH1 0x0 DUP1 REVERT JUMPDEST PUSH1 0x0 DUP1 REVERT JUMPDEST PUSH1 0x0 PUSH1 0x1F NOT PUSH1 0x1F DUP4 ADD AND SWAP1 POP SWAP2 SWAP1 POP JUMP JUMPDEST PUSH2 0xD75 DUP2 PUSH2 0xBD3 JUMP JUMPDEST DUP2 EQ PUSH2 0xD80 JUMPI PUSH1 0x0 DUP1 REVERT JUMPDEST POP JUMP INVALID LOG2 PUSH5 0x6970667358 0x22 SLT KECCAK256 DUP7 0xD6 BALANCE 0xE2 EXTCODESIZE 0x4E DUP8 PUSH22 0x91218BF45D057F0347F2E1BBF9DC32DB39FE2CDC4D34 LOG3 0x5C PUSH5 0x736F6C6343 STOP ADDMOD SMOD STOP CALLER "
				},
				"gasEstimates": {
					"creation": {
						"codeDepositCost": "702600",
						"executionCost": "25001",
						"totalCost": "727601"
					},
					"external": {
						"createPoll(string[],uint256,uint256)": "infinite",
						"polls(uint256)": "infinite"
					}
				},
				"methodIdentifiers": {
					"createPoll(string[],uint256,uint256)": "357d0d48",
					"polls(uint256)": "ac2f0074"
				}
			},
			"storageLayout": {
				"storage": [
					{
						"astId": 4,
						"contract": "Voting.sol:Voting",
						"label": "globalPollNo",
						"offset": 0,
						"slot": "0",
						"type": "t_uint8"
					},
					{
						"astId": 39,
						"contract": "Voting.sol:Voting",
						"label": "polls",
						"offset": 0,
						"slot": "1",
						"type": "t_array(t_struct(Poll)35_storage)dyn_storage"
					},
					{
						"astId": 43,
						"contract": "Voting.sol:Voting",
						"label": "tempOptns",
						"offset": 0,
						"slot": "2",
						"type": "t_array(t_struct(Option)20_storage)dyn_storage"
					},
					{
						"astId": 46,
						"contract": "Voting.sol:Voting",
						"label": "temp",
						"offset": 0,
						"slot": "3",
						"type": "t_struct(Option)20_storage"
					},
					{
						"astId": 49,
						"contract": "Voting.sol:Voting",
						"label": "tempPoll",
						"offset": 0,
						"slot": "6",
						"type": "t_struct(Poll)35_storage"
					}
				],
				"types": {
					"t_address": {
						"encoding": "inplace",
						"label": "address",
						"numberOfBytes": "20"
					},
					"t_array(t_struct(Option)20_storage)dyn_storage": {
						"base": "t_struct(Option)20_storage",
						"encoding": "dynamic_array",
						"label": "struct Voting.Option[]",
						"numberOfBytes": "32"
					},
					"t_array(t_struct(Poll)35_storage)dyn_storage": {
						"base": "t_struct(Poll)35_storage",
						"encoding": "dynamic_array",
						"label": "struct Voting.Poll[]",
						"numberOfBytes": "32"
					},
					"t_array(t_struct(Voter)11_storage)dyn_storage": {
						"base": "t_struct(Voter)11_storage",
						"encoding": "dynamic_array",
						"label": "struct Voting.Voter[]",
						"numberOfBytes": "32"
					},
					"t_bool": {
						"encoding": "inplace",
						"label": "bool",
						"numberOfBytes": "1"
					},
					"t_string_storage": {
						"encoding": "bytes",
						"label": "string",
						"numberOfBytes": "32"
					},
					"t_struct(Option)20_storage": {
						"encoding": "inplace",
						"label": "struct Voting.Option",
						"members": [
							{
								"astId": 13,
								"contract": "Voting.sol:Voting",
								"label": "name",
								"offset": 0,
								"slot": "0",
								"type": "t_string_storage"
							},
							{
								"astId": 15,
								"contract": "Voting.sol:Voting",
								"label": "votes",
								"offset": 0,
								"slot": "1",
								"type": "t_uint8"
							},
							{
								"astId": 19,
								"contract": "Voting.sol:Voting",
								"label": "voters",
								"offset": 0,
								"slot": "2",
								"type": "t_array(t_struct(Voter)11_storage)dyn_storage"
							}
						],
						"numberOfBytes": "96"
					},
					"t_struct(Poll)35_storage": {
						"encoding": "inplace",
						"label": "struct Voting.Poll",
						"members": [
							{
								"astId": 22,
								"contract": "Voting.sol:Voting",
								"label": "creator",
								"offset": 0,
								"slot": "0",
								"type": "t_address"
							},
							{
								"astId": 24,
								"contract": "Voting.sol:Voting",
								"label": "pollNo",
								"offset": 20,
								"slot": "0",
								"type": "t_uint8"
							},
							{
								"astId": 26,
								"contract": "Voting.sol:Voting",
								"label": "nOptn",
								"offset": 21,
								"slot": "0",
								"type": "t_uint8"
							},
							{
								"astId": 30,
								"contract": "Voting.sol:Voting",
								"label": "options",
								"offset": 0,
								"slot": "1",
								"type": "t_array(t_struct(Option)20_storage)dyn_storage"
							},
							{
								"astId": 32,
								"contract": "Voting.sol:Voting",
								"label": "startTime",
								"offset": 0,
								"slot": "2",
								"type": "t_uint256"
							},
							{
								"astId": 34,
								"contract": "Voting.sol:Voting",
								"label": "endTime",
								"offset": 0,
								"slot": "3",
								"type": "t_uint256"
							}
						],
						"numberOfBytes": "128"
					},
					"t_struct(Voter)11_storage": {
						"encoding": "inplace",
						"label": "struct Voting.Voter",
						"members": [
							{
								"astId": 6,
								"contract": "Voting.sol:Voting",
								"label": "name",
								"offset": 0,
								"slot": "0",
								"type": "t_string_storage"
							},
							{
								"astId": 8,
								"contract": "Voting.sol:Voting",
								"label": "addr",
								"offset": 0,
								"slot": "1",
								"type": "t_address"
							},
							{
								"astId": 10,
								"contract": "Voting.sol:Voting",
								"label": "voted",
								"offset": 20,
								"slot": "1",
								"type": "t_bool"
							}
						],
						"numberOfBytes": "64"
					},
					"t_uint256": {
						"encoding": "inplace",
						"label": "uint256",
						"numberOfBytes": "32"
					},
					"t_uint8": {
						"encoding": "inplace",
						"label": "uint8",
						"numberOfBytes": "1"
					}
				}
			},
			"userdoc": {
				"kind": "user",
				"methods": {},
				"version": 1
			}
		}
	}
}