{
	"Voting.sol": {
		"Voting": {
			"abi": [
				{
					"inputs": [
						{
							"components": [
								{
									"internalType": "string",
									"name": "name",
									"type": "string"
								},
								{
									"internalType": "uint8",
									"name": "votes",
									"type": "uint8"
								},
								{
									"components": [
										{
											"internalType": "string",
											"name": "name",
											"type": "string"
										},
										{
											"internalType": "address",
											"name": "addr",
											"type": "address"
										},
										{
											"internalType": "bool",
											"name": "voted",
											"type": "bool"
										}
									],
									"internalType": "struct Voting.voter[]",
									"name": "voters",
									"type": "tuple[]"
								}
							],
							"internalType": "struct Voting.option[]",
							"name": "options",
							"type": "tuple[]"
						},
						{
							"internalType": "uint256",
							"name": "start",
							"type": "uint256"
						},
						{
							"internalType": "uint256",
							"name": "end",
							"type": "uint256"
						}
					],
					"name": "createPoll",
					"outputs": [],
					"stateMutability": "nonpayable",
					"type": "function"
				},
				{
					"inputs": [
						{
							"internalType": "uint256",
							"name": "",
							"type": "uint256"
						}
					],
					"name": "polls",
					"outputs": [
						{
							"internalType": "address",
							"name": "creator",
							"type": "address"
						},
						{
							"internalType": "uint8",
							"name": "pollNo",
							"type": "uint8"
						},
						{
							"internalType": "uint8",
							"name": "nOptn",
							"type": "uint8"
						},
						{
							"internalType": "uint256",
							"name": "startTime",
							"type": "uint256"
						},
						{
							"internalType": "uint256",
							"name": "endTime",
							"type": "uint256"
						}
					],
					"stateMutability": "view",
					"type": "function"
				}
			],
			"devdoc": {
				"kind": "dev",
				"methods": {},
				"version": 1
			},
			"evm": {
				"assembly": "    /* \"Voting.sol\":60:566  contract Voting{\r... */\n  mstore(0x40, 0x80)\n  callvalue\n  dup1\n  iszero\n  tag_1\n  jumpi\n  0x00\n  dup1\n  revert\ntag_1:\n  pop\n  dataSize(sub_0)\n  dup1\n  dataOffset(sub_0)\n  0x00\n  codecopy\n  0x00\n  return\nstop\n\nsub_0: assembly {\n        /* \"Voting.sol\":60:566  contract Voting{\r... */\n      mstore(0x40, 0x80)\n      callvalue\n      dup1\n      iszero\n      tag_1\n      jumpi\n      0x00\n      dup1\n      revert\n    tag_1:\n      pop\n      jumpi(tag_2, lt(calldatasize, 0x04))\n      shr(0xe0, calldataload(0x00))\n      dup1\n      0xa9c0b2a2\n      eq\n      tag_3\n      jumpi\n      dup1\n      0xac2f0074\n      eq\n      tag_4\n      jumpi\n    tag_2:\n      0x00\n      dup1\n      revert\n        /* \"Voting.sol\":479:561  function createPoll(option[] memory options, uint start, uint end)public{\r... */\n    tag_3:\n      tag_5\n      0x04\n      dup1\n      calldatasize\n      sub\n      dup2\n      add\n      swap1\n      tag_6\n      swap2\n      swap1\n      tag_7\n      jump\t// in\n    tag_6:\n      tag_8\n      jump\t// in\n    tag_5:\n      stop\n        /* \"Voting.sol\":449:468  poll[] public polls */\n    tag_4:\n      tag_9\n      0x04\n      dup1\n      calldatasize\n      sub\n      dup2\n      add\n      swap1\n      tag_10\n      swap2\n      swap1\n      tag_11\n      jump\t// in\n    tag_10:\n      tag_12\n      jump\t// in\n    tag_9:\n      mload(0x40)\n      tag_13\n      swap6\n      swap5\n      swap4\n      swap3\n      swap2\n      swap1\n      tag_14\n      jump\t// in\n    tag_13:\n      mload(0x40)\n      dup1\n      swap2\n      sub\n      swap1\n      return\n        /* \"Voting.sol\":479:561  function createPoll(option[] memory options, uint start, uint end)public{\r... */\n    tag_8:\n      pop\n      pop\n      pop\n      jump\t// out\n        /* \"Voting.sol\":449:468  poll[] public polls */\n    tag_12:\n      0x00\n      dup2\n      dup2\n      sload\n      dup2\n      lt\n      tag_16\n      jumpi\n      0x00\n      dup1\n      revert\n    tag_16:\n      swap1\n      0x00\n      mstore\n      keccak256(0x00, 0x20)\n      swap1\n      0x04\n      mul\n      add\n      0x00\n      swap2\n      pop\n      swap1\n      pop\n      dup1\n      0x00\n      add\n      0x00\n      swap1\n      sload\n      swap1\n      0x0100\n      exp\n      swap1\n      div\n      0xffffffffffffffffffffffffffffffffffffffff\n      and\n      swap1\n      dup1\n      0x00\n      add\n      0x14\n      swap1\n      sload\n      swap1\n      0x0100\n      exp\n      swap1\n      div\n      0xff\n      and\n      swap1\n      dup1\n      0x00\n      add\n      0x15\n      swap1\n      sload\n      swap1\n      0x0100\n      exp\n      swap1\n      div\n      0xff\n      and\n      swap1\n      dup1\n      0x02\n      add\n      sload\n      swap1\n      dup1\n      0x03\n      add\n      sload\n      swap1\n      pop\n      dup6\n      jump\t// out\n        /* \"#utility.yul\":37:1030   */\n    tag_19:\n        /* \"#utility.yul\":155:160   */\n      0x00\n        /* \"#utility.yul\":180:283   */\n      tag_21\n        /* \"#utility.yul\":196:282   */\n      tag_22\n        /* \"#utility.yul\":275:281   */\n      dup5\n        /* \"#utility.yul\":196:282   */\n      tag_23\n      jump\t// in\n    tag_22:\n        /* \"#utility.yul\":180:283   */\n      tag_24\n      jump\t// in\n    tag_21:\n        /* \"#utility.yul\":171:283   */\n      swap1\n      pop\n        /* \"#utility.yul\":303:308   */\n      dup1\n        /* \"#utility.yul\":332:338   */\n      dup4\n        /* \"#utility.yul\":325:330   */\n      dup3\n        /* \"#utility.yul\":318:339   */\n      mstore\n        /* \"#utility.yul\":366:370   */\n      0x20\n        /* \"#utility.yul\":359:364   */\n      dup3\n        /* \"#utility.yul\":355:371   */\n      add\n        /* \"#utility.yul\":348:371   */\n      swap1\n      pop\n        /* \"#utility.yul\":392:398   */\n      dup3\n        /* \"#utility.yul\":442:445   */\n      dup6\n        /* \"#utility.yul\":434:438   */\n      0x20\n        /* \"#utility.yul\":426:432   */\n      dup7\n        /* \"#utility.yul\":422:439   */\n      mul\n        /* \"#utility.yul\":417:420   */\n      dup3\n        /* \"#utility.yul\":413:440   */\n      add\n        /* \"#utility.yul\":410:446   */\n      gt\n        /* \"#utility.yul\":407:550   */\n      iszero\n      tag_25\n      jumpi\n        /* \"#utility.yul\":461:540   */\n      tag_26\n      tag_27\n      jump\t// in\n    tag_26:\n        /* \"#utility.yul\":407:550   */\n    tag_25:\n        /* \"#utility.yul\":574:575   */\n      0x00\n        /* \"#utility.yul\":559:1024   */\n    tag_28:\n        /* \"#utility.yul\":584:590   */\n      dup6\n        /* \"#utility.yul\":581:582   */\n      dup2\n        /* \"#utility.yul\":578:591   */\n      lt\n        /* \"#utility.yul\":559:1024   */\n      iszero\n      tag_30\n      jumpi\n        /* \"#utility.yul\":666:669   */\n      dup2\n        /* \"#utility.yul\":653:670   */\n      calldataload\n        /* \"#utility.yul\":702:720   */\n      0xffffffffffffffff\n        /* \"#utility.yul\":689:700   */\n      dup2\n        /* \"#utility.yul\":686:721   */\n      gt\n        /* \"#utility.yul\":683:805   */\n      iszero\n      tag_31\n      jumpi\n        /* \"#utility.yul\":724:803   */\n      tag_32\n      tag_33\n      jump\t// in\n    tag_32:\n        /* \"#utility.yul\":683:805   */\n    tag_31:\n        /* \"#utility.yul\":848:859   */\n      dup1\n        /* \"#utility.yul\":840:846   */\n      dup7\n        /* \"#utility.yul\":836:860   */\n      add\n        /* \"#utility.yul\":886:945   */\n      tag_34\n        /* \"#utility.yul\":941:944   */\n      dup10\n        /* \"#utility.yul\":929:939   */\n      dup3\n        /* \"#utility.yul\":886:945   */\n      tag_35\n      jump\t// in\n    tag_34:\n        /* \"#utility.yul\":881:884   */\n      dup6\n        /* \"#utility.yul\":874:946   */\n      mstore\n        /* \"#utility.yul\":975:979   */\n      0x20\n        /* \"#utility.yul\":970:973   */\n      dup6\n        /* \"#utility.yul\":966:980   */\n      add\n        /* \"#utility.yul\":959:980   */\n      swap5\n      pop\n        /* \"#utility.yul\":1009:1013   */\n      0x20\n        /* \"#utility.yul\":1004:1007   */\n      dup5\n        /* \"#utility.yul\":1000:1014   */\n      add\n        /* \"#utility.yul\":993:1014   */\n      swap4\n      pop\n        /* \"#utility.yul\":619:1024   */\n      pop\n      pop\n        /* \"#utility.yul\":606:607   */\n      0x01\n        /* \"#utility.yul\":603:604   */\n      dup2\n        /* \"#utility.yul\":599:608   */\n      add\n        /* \"#utility.yul\":594:608   */\n      swap1\n      pop\n        /* \"#utility.yul\":559:1024   */\n      jump(tag_28)\n    tag_30:\n        /* \"#utility.yul\":563:577   */\n      pop\n        /* \"#utility.yul\":161:1030   */\n      pop\n      pop\n        /* \"#utility.yul\":37:1030   */\n      swap4\n      swap3\n      pop\n      pop\n      pop\n      jump\t// out\n        /* \"#utility.yul\":1065:2052   */\n    tag_36:\n        /* \"#utility.yul\":1181:1186   */\n      0x00\n        /* \"#utility.yul\":1206:1307   */\n      tag_38\n        /* \"#utility.yul\":1222:1306   */\n      tag_39\n        /* \"#utility.yul\":1299:1305   */\n      dup5\n        /* \"#utility.yul\":1222:1306   */\n      tag_40\n      jump\t// in\n    tag_39:\n        /* \"#utility.yul\":1206:1307   */\n      tag_24\n      jump\t// in\n    tag_38:\n        /* \"#utility.yul\":1197:1307   */\n      swap1\n      pop\n        /* \"#utility.yul\":1327:1332   */\n      dup1\n        /* \"#utility.yul\":1356:1362   */\n      dup4\n        /* \"#utility.yul\":1349:1354   */\n      dup3\n        /* \"#utility.yul\":1342:1363   */\n      mstore\n        /* \"#utility.yul\":1390:1394   */\n      0x20\n        /* \"#utility.yul\":1383:1388   */\n      dup3\n        /* \"#utility.yul\":1379:1395   */\n      add\n        /* \"#utility.yul\":1372:1395   */\n      swap1\n      pop\n        /* \"#utility.yul\":1416:1422   */\n      dup3\n        /* \"#utility.yul\":1466:1469   */\n      dup6\n        /* \"#utility.yul\":1458:1462   */\n      0x20\n        /* \"#utility.yul\":1450:1456   */\n      dup7\n        /* \"#utility.yul\":1446:1463   */\n      mul\n        /* \"#utility.yul\":1441:1444   */\n      dup3\n        /* \"#utility.yul\":1437:1464   */\n      add\n        /* \"#utility.yul\":1434:1470   */\n      gt\n        /* \"#utility.yul\":1431:1574   */\n      iszero\n      tag_41\n      jumpi\n        /* \"#utility.yul\":1485:1564   */\n      tag_42\n      tag_27\n      jump\t// in\n    tag_42:\n        /* \"#utility.yul\":1431:1574   */\n    tag_41:\n        /* \"#utility.yul\":1598:1599   */\n      0x00\n        /* \"#utility.yul\":1583:2046   */\n    tag_43:\n        /* \"#utility.yul\":1608:1614   */\n      dup6\n        /* \"#utility.yul\":1605:1606   */\n      dup2\n        /* \"#utility.yul\":1602:1615   */\n      lt\n        /* \"#utility.yul\":1583:2046   */\n      iszero\n      tag_45\n      jumpi\n        /* \"#utility.yul\":1690:1693   */\n      dup2\n        /* \"#utility.yul\":1677:1694   */\n      calldataload\n        /* \"#utility.yul\":1726:1744   */\n      0xffffffffffffffff\n        /* \"#utility.yul\":1713:1724   */\n      dup2\n        /* \"#utility.yul\":1710:1745   */\n      gt\n        /* \"#utility.yul\":1707:1829   */\n      iszero\n      tag_46\n      jumpi\n        /* \"#utility.yul\":1748:1827   */\n      tag_47\n      tag_33\n      jump\t// in\n    tag_47:\n        /* \"#utility.yul\":1707:1829   */\n    tag_46:\n        /* \"#utility.yul\":1872:1883   */\n      dup1\n        /* \"#utility.yul\":1864:1870   */\n      dup7\n        /* \"#utility.yul\":1860:1884   */\n      add\n        /* \"#utility.yul\":1910:1967   */\n      tag_48\n        /* \"#utility.yul\":1963:1966   */\n      dup10\n        /* \"#utility.yul\":1951:1961   */\n      dup3\n        /* \"#utility.yul\":1910:1967   */\n      tag_49\n      jump\t// in\n    tag_48:\n        /* \"#utility.yul\":1905:1908   */\n      dup6\n        /* \"#utility.yul\":1898:1968   */\n      mstore\n        /* \"#utility.yul\":1997:2001   */\n      0x20\n        /* \"#utility.yul\":1992:1995   */\n      dup6\n        /* \"#utility.yul\":1988:2002   */\n      add\n        /* \"#utility.yul\":1981:2002   */\n      swap5\n      pop\n        /* \"#utility.yul\":2031:2035   */\n      0x20\n        /* \"#utility.yul\":2026:2029   */\n      dup5\n        /* \"#utility.yul\":2022:2036   */\n      add\n        /* \"#utility.yul\":2015:2036   */\n      swap4\n      pop\n        /* \"#utility.yul\":1643:2046   */\n      pop\n      pop\n        /* \"#utility.yul\":1630:1631   */\n      0x01\n        /* \"#utility.yul\":1627:1628   */\n      dup2\n        /* \"#utility.yul\":1623:1632   */\n      add\n        /* \"#utility.yul\":1618:1632   */\n      swap1\n      pop\n        /* \"#utility.yul\":1583:2046   */\n      jump(tag_43)\n    tag_45:\n        /* \"#utility.yul\":1587:1601   */\n      pop\n        /* \"#utility.yul\":1187:2052   */\n      pop\n      pop\n        /* \"#utility.yul\":1065:2052   */\n      swap4\n      swap3\n      pop\n      pop\n      pop\n      jump\t// out\n        /* \"#utility.yul\":2058:2470   */\n    tag_50:\n        /* \"#utility.yul\":2136:2141   */\n      0x00\n        /* \"#utility.yul\":2161:2227   */\n      tag_52\n        /* \"#utility.yul\":2177:2226   */\n      tag_53\n        /* \"#utility.yul\":2219:2225   */\n      dup5\n        /* \"#utility.yul\":2177:2226   */\n      tag_54\n      jump\t// in\n    tag_53:\n        /* \"#utility.yul\":2161:2227   */\n      tag_24\n      jump\t// in\n    tag_52:\n        /* \"#utility.yul\":2152:2227   */\n      swap1\n      pop\n        /* \"#utility.yul\":2250:2256   */\n      dup3\n        /* \"#utility.yul\":2243:2248   */\n      dup2\n        /* \"#utility.yul\":2236:2257   */\n      mstore\n        /* \"#utility.yul\":2288:2292   */\n      0x20\n        /* \"#utility.yul\":2281:2286   */\n      dup2\n        /* \"#utility.yul\":2277:2293   */\n      add\n        /* \"#utility.yul\":2326:2329   */\n      dup5\n        /* \"#utility.yul\":2317:2323   */\n      dup5\n        /* \"#utility.yul\":2312:2315   */\n      dup5\n        /* \"#utility.yul\":2308:2324   */\n      add\n        /* \"#utility.yul\":2305:2330   */\n      gt\n        /* \"#utility.yul\":2302:2414   */\n      iszero\n      tag_55\n      jumpi\n        /* \"#utility.yul\":2333:2412   */\n      tag_56\n      tag_57\n      jump\t// in\n    tag_56:\n        /* \"#utility.yul\":2302:2414   */\n    tag_55:\n        /* \"#utility.yul\":2423:2464   */\n      tag_58\n        /* \"#utility.yul\":2457:2463   */\n      dup5\n        /* \"#utility.yul\":2452:2455   */\n      dup3\n        /* \"#utility.yul\":2447:2450   */\n      dup6\n        /* \"#utility.yul\":2423:2464   */\n      tag_59\n      jump\t// in\n    tag_58:\n        /* \"#utility.yul\":2142:2470   */\n      pop\n        /* \"#utility.yul\":2058:2470   */\n      swap4\n      swap3\n      pop\n      pop\n      pop\n      jump\t// out\n        /* \"#utility.yul\":2476:2615   */\n    tag_60:\n        /* \"#utility.yul\":2522:2527   */\n      0x00\n        /* \"#utility.yul\":2560:2566   */\n      dup2\n        /* \"#utility.yul\":2547:2567   */\n      calldataload\n        /* \"#utility.yul\":2538:2567   */\n      swap1\n      pop\n        /* \"#utility.yul\":2576:2609   */\n      tag_62\n        /* \"#utility.yul\":2603:2608   */\n      dup2\n        /* \"#utility.yul\":2576:2609   */\n      tag_63\n      jump\t// in\n    tag_62:\n        /* \"#utility.yul\":2476:2615   */\n      swap3\n      swap2\n      pop\n      pop\n      jump\t// out\n        /* \"#utility.yul\":2651:3065   */\n    tag_64:\n        /* \"#utility.yul\":2744:2749   */\n      0x00\n        /* \"#utility.yul\":2793:2796   */\n      dup3\n        /* \"#utility.yul\":2786:2790   */\n      0x1f\n        /* \"#utility.yul\":2778:2784   */\n      dup4\n        /* \"#utility.yul\":2774:2791   */\n      add\n        /* \"#utility.yul\":2770:2797   */\n      slt\n        /* \"#utility.yul\":2760:2882   */\n      tag_66\n      jumpi\n        /* \"#utility.yul\":2801:2880   */\n      tag_67\n      tag_33\n      jump\t// in\n    tag_67:\n        /* \"#utility.yul\":2760:2882   */\n    tag_66:\n        /* \"#utility.yul\":2918:2924   */\n      dup2\n        /* \"#utility.yul\":2905:2925   */\n      calldataload\n        /* \"#utility.yul\":2943:3059   */\n      tag_68\n        /* \"#utility.yul\":3055:3058   */\n      dup5\n        /* \"#utility.yul\":3047:3053   */\n      dup3\n        /* \"#utility.yul\":3040:3044   */\n      0x20\n        /* \"#utility.yul\":3032:3038   */\n      dup7\n        /* \"#utility.yul\":3028:3045   */\n      add\n        /* \"#utility.yul\":2943:3059   */\n      tag_19\n      jump\t// in\n    tag_68:\n        /* \"#utility.yul\":2934:3059   */\n      swap2\n      pop\n        /* \"#utility.yul\":2750:3065   */\n      pop\n        /* \"#utility.yul\":2651:3065   */\n      swap3\n      swap2\n      pop\n      pop\n      jump\t// out\n        /* \"#utility.yul\":3100:3510   */\n    tag_69:\n        /* \"#utility.yul\":3191:3196   */\n      0x00\n        /* \"#utility.yul\":3240:3243   */\n      dup3\n        /* \"#utility.yul\":3233:3237   */\n      0x1f\n        /* \"#utility.yul\":3225:3231   */\n      dup4\n        /* \"#utility.yul\":3221:3238   */\n      add\n        /* \"#utility.yul\":3217:3244   */\n      slt\n        /* \"#utility.yul\":3207:3329   */\n      tag_71\n      jumpi\n        /* \"#utility.yul\":3248:3327   */\n      tag_72\n      tag_33\n      jump\t// in\n    tag_72:\n        /* \"#utility.yul\":3207:3329   */\n    tag_71:\n        /* \"#utility.yul\":3365:3371   */\n      dup2\n        /* \"#utility.yul\":3352:3372   */\n      calldataload\n        /* \"#utility.yul\":3390:3504   */\n      tag_73\n        /* \"#utility.yul\":3500:3503   */\n      dup5\n        /* \"#utility.yul\":3492:3498   */\n      dup3\n        /* \"#utility.yul\":3485:3489   */\n      0x20\n        /* \"#utility.yul\":3477:3483   */\n      dup7\n        /* \"#utility.yul\":3473:3490   */\n      add\n        /* \"#utility.yul\":3390:3504   */\n      tag_36\n      jump\t// in\n    tag_73:\n        /* \"#utility.yul\":3381:3504   */\n      swap2\n      pop\n        /* \"#utility.yul\":3197:3510   */\n      pop\n        /* \"#utility.yul\":3100:3510   */\n      swap3\n      swap2\n      pop\n      pop\n      jump\t// out\n        /* \"#utility.yul\":3516:3649   */\n    tag_74:\n        /* \"#utility.yul\":3559:3564   */\n      0x00\n        /* \"#utility.yul\":3597:3603   */\n      dup2\n        /* \"#utility.yul\":3584:3604   */\n      calldataload\n        /* \"#utility.yul\":3575:3604   */\n      swap1\n      pop\n        /* \"#utility.yul\":3613:3643   */\n      tag_76\n        /* \"#utility.yul\":3637:3642   */\n      dup2\n        /* \"#utility.yul\":3613:3643   */\n      tag_77\n      jump\t// in\n    tag_76:\n        /* \"#utility.yul\":3516:3649   */\n      swap3\n      swap2\n      pop\n      pop\n      jump\t// out\n        /* \"#utility.yul\":3669:4009   */\n    tag_78:\n        /* \"#utility.yul\":3725:3730   */\n      0x00\n        /* \"#utility.yul\":3774:3777   */\n      dup3\n        /* \"#utility.yul\":3767:3771   */\n      0x1f\n        /* \"#utility.yul\":3759:3765   */\n      dup4\n        /* \"#utility.yul\":3755:3772   */\n      add\n        /* \"#utility.yul\":3751:3778   */\n      slt\n        /* \"#utility.yul\":3741:3863   */\n      tag_80\n      jumpi\n        /* \"#utility.yul\":3782:3861   */\n      tag_81\n      tag_33\n      jump\t// in\n    tag_81:\n        /* \"#utility.yul\":3741:3863   */\n    tag_80:\n        /* \"#utility.yul\":3899:3905   */\n      dup2\n        /* \"#utility.yul\":3886:3906   */\n      calldataload\n        /* \"#utility.yul\":3924:4003   */\n      tag_82\n        /* \"#utility.yul\":3999:4002   */\n      dup5\n        /* \"#utility.yul\":3991:3997   */\n      dup3\n        /* \"#utility.yul\":3984:3988   */\n      0x20\n        /* \"#utility.yul\":3976:3982   */\n      dup7\n        /* \"#utility.yul\":3972:3989   */\n      add\n        /* \"#utility.yul\":3924:4003   */\n      tag_50\n      jump\t// in\n    tag_82:\n        /* \"#utility.yul\":3915:4003   */\n      swap2\n      pop\n        /* \"#utility.yul\":3731:4009   */\n      pop\n        /* \"#utility.yul\":3669:4009   */\n      swap3\n      swap2\n      pop\n      pop\n      jump\t// out\n        /* \"#utility.yul\":4043:5151   */\n    tag_35:\n        /* \"#utility.yul\":4114:4119   */\n      0x00\n        /* \"#utility.yul\":4158:4162   */\n      0x60\n        /* \"#utility.yul\":4146:4155   */\n      dup3\n        /* \"#utility.yul\":4141:4144   */\n      dup5\n        /* \"#utility.yul\":4137:4156   */\n      sub\n        /* \"#utility.yul\":4133:4163   */\n      slt\n        /* \"#utility.yul\":4130:4247   */\n      iszero\n      tag_84\n      jumpi\n        /* \"#utility.yul\":4166:4245   */\n      tag_85\n      tag_86\n      jump\t// in\n    tag_85:\n        /* \"#utility.yul\":4130:4247   */\n    tag_84:\n        /* \"#utility.yul\":4265:4286   */\n      tag_87\n        /* \"#utility.yul\":4281:4285   */\n      0x60\n        /* \"#utility.yul\":4265:4286   */\n      tag_24\n      jump\t// in\n    tag_87:\n        /* \"#utility.yul\":4256:4286   */\n      swap1\n      pop\n        /* \"#utility.yul\":4373:4374   */\n      0x00\n        /* \"#utility.yul\":4362:4371   */\n      dup3\n        /* \"#utility.yul\":4358:4375   */\n      add\n        /* \"#utility.yul\":4345:4376   */\n      calldataload\n        /* \"#utility.yul\":4403:4421   */\n      0xffffffffffffffff\n        /* \"#utility.yul\":4395:4401   */\n      dup2\n        /* \"#utility.yul\":4392:4422   */\n      gt\n        /* \"#utility.yul\":4389:4506   */\n      iszero\n      tag_88\n      jumpi\n        /* \"#utility.yul\":4425:4504   */\n      tag_89\n      tag_90\n      jump\t// in\n    tag_89:\n        /* \"#utility.yul\":4389:4506   */\n    tag_88:\n        /* \"#utility.yul\":4545:4604   */\n      tag_91\n        /* \"#utility.yul\":4600:4603   */\n      dup5\n        /* \"#utility.yul\":4591:4597   */\n      dup3\n        /* \"#utility.yul\":4580:4589   */\n      dup6\n        /* \"#utility.yul\":4576:4598   */\n      add\n        /* \"#utility.yul\":4545:4604   */\n      tag_78\n      jump\t// in\n    tag_91:\n        /* \"#utility.yul\":4538:4542   */\n      0x00\n        /* \"#utility.yul\":4531:4536   */\n      dup4\n        /* \"#utility.yul\":4527:4543   */\n      add\n        /* \"#utility.yul\":4520:4605   */\n      mstore\n        /* \"#utility.yul\":4296:4616   */\n      pop\n        /* \"#utility.yul\":4676:4678   */\n      0x20\n        /* \"#utility.yul\":4717:4764   */\n      tag_92\n        /* \"#utility.yul\":4760:4763   */\n      dup5\n        /* \"#utility.yul\":4751:4757   */\n      dup3\n        /* \"#utility.yul\":4740:4749   */\n      dup6\n        /* \"#utility.yul\":4736:4758   */\n      add\n        /* \"#utility.yul\":4717:4764   */\n      tag_93\n      jump\t// in\n    tag_92:\n        /* \"#utility.yul\":4710:4714   */\n      0x20\n        /* \"#utility.yul\":4703:4708   */\n      dup4\n        /* \"#utility.yul\":4699:4715   */\n      add\n        /* \"#utility.yul\":4692:4765   */\n      mstore\n        /* \"#utility.yul\":4626:4776   */\n      pop\n        /* \"#utility.yul\":4865:4867   */\n      0x40\n        /* \"#utility.yul\":4854:4863   */\n      dup3\n        /* \"#utility.yul\":4850:4868   */\n      add\n        /* \"#utility.yul\":4837:4869   */\n      calldataload\n        /* \"#utility.yul\":4896:4914   */\n      0xffffffffffffffff\n        /* \"#utility.yul\":4888:4894   */\n      dup2\n        /* \"#utility.yul\":4885:4915   */\n      gt\n        /* \"#utility.yul\":4882:4999   */\n      iszero\n      tag_94\n      jumpi\n        /* \"#utility.yul\":4918:4997   */\n      tag_95\n      tag_90\n      jump\t// in\n    tag_95:\n        /* \"#utility.yul\":4882:4999   */\n    tag_94:\n        /* \"#utility.yul\":5038:5132   */\n      tag_96\n        /* \"#utility.yul\":5128:5131   */\n      dup5\n        /* \"#utility.yul\":5119:5125   */\n      dup3\n        /* \"#utility.yul\":5108:5117   */\n      dup6\n        /* \"#utility.yul\":5104:5126   */\n      add\n        /* \"#utility.yul\":5038:5132   */\n      tag_69\n      jump\t// in\n    tag_96:\n        /* \"#utility.yul\":5031:5035   */\n      0x40\n        /* \"#utility.yul\":5024:5029   */\n      dup4\n        /* \"#utility.yul\":5020:5036   */\n      add\n        /* \"#utility.yul\":5013:5133   */\n      mstore\n        /* \"#utility.yul\":4786:5144   */\n      pop\n        /* \"#utility.yul\":4043:5151   */\n      swap3\n      swap2\n      pop\n      pop\n      jump\t// out\n        /* \"#utility.yul\":5184:6082   */\n    tag_49:\n        /* \"#utility.yul\":5253:5258   */\n      0x00\n        /* \"#utility.yul\":5297:5301   */\n      0x60\n        /* \"#utility.yul\":5285:5294   */\n      dup3\n        /* \"#utility.yul\":5280:5283   */\n      dup5\n        /* \"#utility.yul\":5276:5295   */\n      sub\n        /* \"#utility.yul\":5272:5302   */\n      slt\n        /* \"#utility.yul\":5269:5386   */\n      iszero\n      tag_98\n      jumpi\n        /* \"#utility.yul\":5305:5384   */\n      tag_99\n      tag_86\n      jump\t// in\n    tag_99:\n        /* \"#utility.yul\":5269:5386   */\n    tag_98:\n        /* \"#utility.yul\":5404:5425   */\n      tag_100\n        /* \"#utility.yul\":5420:5424   */\n      0x60\n        /* \"#utility.yul\":5404:5425   */\n      tag_24\n      jump\t// in\n    tag_100:\n        /* \"#utility.yul\":5395:5425   */\n      swap1\n      pop\n        /* \"#utility.yul\":5512:5513   */\n      0x00\n        /* \"#utility.yul\":5501:5510   */\n      dup3\n        /* \"#utility.yul\":5497:5514   */\n      add\n        /* \"#utility.yul\":5484:5515   */\n      calldataload\n        /* \"#utility.yul\":5542:5560   */\n      0xffffffffffffffff\n        /* \"#utility.yul\":5534:5540   */\n      dup2\n        /* \"#utility.yul\":5531:5561   */\n      gt\n        /* \"#utility.yul\":5528:5645   */\n      iszero\n      tag_101\n      jumpi\n        /* \"#utility.yul\":5564:5643   */\n      tag_102\n      tag_90\n      jump\t// in\n    tag_102:\n        /* \"#utility.yul\":5528:5645   */\n    tag_101:\n        /* \"#utility.yul\":5684:5743   */\n      tag_103\n        /* \"#utility.yul\":5739:5742   */\n      dup5\n        /* \"#utility.yul\":5730:5736   */\n      dup3\n        /* \"#utility.yul\":5719:5728   */\n      dup6\n        /* \"#utility.yul\":5715:5737   */\n      add\n        /* \"#utility.yul\":5684:5743   */\n      tag_78\n      jump\t// in\n    tag_103:\n        /* \"#utility.yul\":5677:5681   */\n      0x00\n        /* \"#utility.yul\":5670:5675   */\n      dup4\n        /* \"#utility.yul\":5666:5682   */\n      add\n        /* \"#utility.yul\":5659:5744   */\n      mstore\n        /* \"#utility.yul\":5435:5755   */\n      pop\n        /* \"#utility.yul\":5814:5816   */\n      0x20\n        /* \"#utility.yul\":5855:5904   */\n      tag_104\n        /* \"#utility.yul\":5900:5903   */\n      dup5\n        /* \"#utility.yul\":5891:5897   */\n      dup3\n        /* \"#utility.yul\":5880:5889   */\n      dup6\n        /* \"#utility.yul\":5876:5898   */\n      add\n        /* \"#utility.yul\":5855:5904   */\n      tag_60\n      jump\t// in\n    tag_104:\n        /* \"#utility.yul\":5848:5852   */\n      0x20\n        /* \"#utility.yul\":5841:5846   */\n      dup4\n        /* \"#utility.yul\":5837:5853   */\n      add\n        /* \"#utility.yul\":5830:5905   */\n      mstore\n        /* \"#utility.yul\":5765:5916   */\n      pop\n        /* \"#utility.yul\":5976:5978   */\n      0x40\n        /* \"#utility.yul\":6017:6063   */\n      tag_105\n        /* \"#utility.yul\":6059:6062   */\n      dup5\n        /* \"#utility.yul\":6050:6056   */\n      dup3\n        /* \"#utility.yul\":6039:6048   */\n      dup6\n        /* \"#utility.yul\":6035:6057   */\n      add\n        /* \"#utility.yul\":6017:6063   */\n      tag_74\n      jump\t// in\n    tag_105:\n        /* \"#utility.yul\":6010:6014   */\n      0x40\n        /* \"#utility.yul\":6003:6008   */\n      dup4\n        /* \"#utility.yul\":5999:6015   */\n      add\n        /* \"#utility.yul\":5992:6064   */\n      mstore\n        /* \"#utility.yul\":5926:6075   */\n      pop\n        /* \"#utility.yul\":5184:6082   */\n      swap3\n      swap2\n      pop\n      pop\n      jump\t// out\n        /* \"#utility.yul\":6088:6227   */\n    tag_106:\n        /* \"#utility.yul\":6134:6139   */\n      0x00\n        /* \"#utility.yul\":6172:6178   */\n      dup2\n        /* \"#utility.yul\":6159:6179   */\n      calldataload\n        /* \"#utility.yul\":6150:6179   */\n      swap1\n      pop\n        /* \"#utility.yul\":6188:6221   */\n      tag_108\n        /* \"#utility.yul\":6215:6220   */\n      dup2\n        /* \"#utility.yul\":6188:6221   */\n      tag_109\n      jump\t// in\n    tag_108:\n        /* \"#utility.yul\":6088:6227   */\n      swap3\n      swap2\n      pop\n      pop\n      jump\t// out\n        /* \"#utility.yul\":6233:6368   */\n    tag_93:\n        /* \"#utility.yul\":6277:6282   */\n      0x00\n        /* \"#utility.yul\":6315:6321   */\n      dup2\n        /* \"#utility.yul\":6302:6322   */\n      calldataload\n        /* \"#utility.yul\":6293:6322   */\n      swap1\n      pop\n        /* \"#utility.yul\":6331:6362   */\n      tag_111\n        /* \"#utility.yul\":6356:6361   */\n      dup2\n        /* \"#utility.yul\":6331:6362   */\n      tag_112\n      jump\t// in\n    tag_111:\n        /* \"#utility.yul\":6233:6368   */\n      swap3\n      swap2\n      pop\n      pop\n      jump\t// out\n        /* \"#utility.yul\":6374:7247   */\n    tag_7:\n        /* \"#utility.yul\":6498:6504   */\n      0x00\n        /* \"#utility.yul\":6506:6512   */\n      dup1\n        /* \"#utility.yul\":6514:6520   */\n      0x00\n        /* \"#utility.yul\":6563:6565   */\n      0x60\n        /* \"#utility.yul\":6551:6560   */\n      dup5\n        /* \"#utility.yul\":6542:6549   */\n      dup7\n        /* \"#utility.yul\":6538:6561   */\n      sub\n        /* \"#utility.yul\":6534:6566   */\n      slt\n        /* \"#utility.yul\":6531:6650   */\n      iszero\n      tag_114\n      jumpi\n        /* \"#utility.yul\":6569:6648   */\n      tag_115\n      tag_116\n      jump\t// in\n    tag_115:\n        /* \"#utility.yul\":6531:6650   */\n    tag_114:\n        /* \"#utility.yul\":6717:6718   */\n      0x00\n        /* \"#utility.yul\":6706:6715   */\n      dup5\n        /* \"#utility.yul\":6702:6719   */\n      add\n        /* \"#utility.yul\":6689:6720   */\n      calldataload\n        /* \"#utility.yul\":6747:6765   */\n      0xffffffffffffffff\n        /* \"#utility.yul\":6739:6745   */\n      dup2\n        /* \"#utility.yul\":6736:6766   */\n      gt\n        /* \"#utility.yul\":6733:6850   */\n      iszero\n      tag_117\n      jumpi\n        /* \"#utility.yul\":6769:6848   */\n      tag_118\n      tag_119\n      jump\t// in\n    tag_118:\n        /* \"#utility.yul\":6733:6850   */\n    tag_117:\n        /* \"#utility.yul\":6874:6974   */\n      tag_120\n        /* \"#utility.yul\":6966:6973   */\n      dup7\n        /* \"#utility.yul\":6957:6963   */\n      dup3\n        /* \"#utility.yul\":6946:6955   */\n      dup8\n        /* \"#utility.yul\":6942:6964   */\n      add\n        /* \"#utility.yul\":6874:6974   */\n      tag_64\n      jump\t// in\n    tag_120:\n        /* \"#utility.yul\":6864:6974   */\n      swap4\n      pop\n        /* \"#utility.yul\":6660:6984   */\n      pop\n        /* \"#utility.yul\":7023:7025   */\n      0x20\n        /* \"#utility.yul\":7049:7102   */\n      tag_121\n        /* \"#utility.yul\":7094:7101   */\n      dup7\n        /* \"#utility.yul\":7085:7091   */\n      dup3\n        /* \"#utility.yul\":7074:7083   */\n      dup8\n        /* \"#utility.yul\":7070:7092   */\n      add\n        /* \"#utility.yul\":7049:7102   */\n      tag_106\n      jump\t// in\n    tag_121:\n        /* \"#utility.yul\":7039:7102   */\n      swap3\n      pop\n        /* \"#utility.yul\":6994:7112   */\n      pop\n        /* \"#utility.yul\":7151:7153   */\n      0x40\n        /* \"#utility.yul\":7177:7230   */\n      tag_122\n        /* \"#utility.yul\":7222:7229   */\n      dup7\n        /* \"#utility.yul\":7213:7219   */\n      dup3\n        /* \"#utility.yul\":7202:7211   */\n      dup8\n        /* \"#utility.yul\":7198:7220   */\n      add\n        /* \"#utility.yul\":7177:7230   */\n      tag_106\n      jump\t// in\n    tag_122:\n        /* \"#utility.yul\":7167:7230   */\n      swap2\n      pop\n        /* \"#utility.yul\":7122:7240   */\n      pop\n        /* \"#utility.yul\":6374:7247   */\n      swap3\n      pop\n      swap3\n      pop\n      swap3\n      jump\t// out\n        /* \"#utility.yul\":7253:7582   */\n    tag_11:\n        /* \"#utility.yul\":7312:7318   */\n      0x00\n        /* \"#utility.yul\":7361:7363   */\n      0x20\n        /* \"#utility.yul\":7349:7358   */\n      dup3\n        /* \"#utility.yul\":7340:7347   */\n      dup5\n        /* \"#utility.yul\":7336:7359   */\n      sub\n        /* \"#utility.yul\":7332:7364   */\n      slt\n        /* \"#utility.yul\":7329:7448   */\n      iszero\n      tag_124\n      jumpi\n        /* \"#utility.yul\":7367:7446   */\n      tag_125\n      tag_116\n      jump\t// in\n    tag_125:\n        /* \"#utility.yul\":7329:7448   */\n    tag_124:\n        /* \"#utility.yul\":7487:7488   */\n      0x00\n        /* \"#utility.yul\":7512:7565   */\n      tag_126\n        /* \"#utility.yul\":7557:7564   */\n      dup5\n        /* \"#utility.yul\":7548:7554   */\n      dup3\n        /* \"#utility.yul\":7537:7546   */\n      dup6\n        /* \"#utility.yul\":7533:7555   */\n      add\n        /* \"#utility.yul\":7512:7565   */\n      tag_106\n      jump\t// in\n    tag_126:\n        /* \"#utility.yul\":7502:7565   */\n      swap2\n      pop\n        /* \"#utility.yul\":7458:7575   */\n      pop\n        /* \"#utility.yul\":7253:7582   */\n      swap3\n      swap2\n      pop\n      pop\n      jump\t// out\n        /* \"#utility.yul\":7588:7706   */\n    tag_127:\n        /* \"#utility.yul\":7675:7699   */\n      tag_129\n        /* \"#utility.yul\":7693:7698   */\n      dup2\n        /* \"#utility.yul\":7675:7699   */\n      tag_130\n      jump\t// in\n    tag_129:\n        /* \"#utility.yul\":7670:7673   */\n      dup3\n        /* \"#utility.yul\":7663:7700   */\n      mstore\n        /* \"#utility.yul\":7588:7706   */\n      pop\n      pop\n      jump\t// out\n        /* \"#utility.yul\":7712:7830   */\n    tag_131:\n        /* \"#utility.yul\":7799:7823   */\n      tag_133\n        /* \"#utility.yul\":7817:7822   */\n      dup2\n        /* \"#utility.yul\":7799:7823   */\n      tag_134\n      jump\t// in\n    tag_133:\n        /* \"#utility.yul\":7794:7797   */\n      dup3\n        /* \"#utility.yul\":7787:7824   */\n      mstore\n        /* \"#utility.yul\":7712:7830   */\n      pop\n      pop\n      jump\t// out\n        /* \"#utility.yul\":7836:7948   */\n    tag_135:\n        /* \"#utility.yul\":7919:7941   */\n      tag_137\n        /* \"#utility.yul\":7935:7940   */\n      dup2\n        /* \"#utility.yul\":7919:7941   */\n      tag_138\n      jump\t// in\n    tag_137:\n        /* \"#utility.yul\":7914:7917   */\n      dup3\n        /* \"#utility.yul\":7907:7942   */\n      mstore\n        /* \"#utility.yul\":7836:7948   */\n      pop\n      pop\n      jump\t// out\n        /* \"#utility.yul\":7954:8602   */\n    tag_14:\n        /* \"#utility.yul\":8151:8155   */\n      0x00\n        /* \"#utility.yul\":8189:8192   */\n      0xa0\n        /* \"#utility.yul\":8178:8187   */\n      dup3\n        /* \"#utility.yul\":8174:8193   */\n      add\n        /* \"#utility.yul\":8166:8193   */\n      swap1\n      pop\n        /* \"#utility.yul\":8203:8274   */\n      tag_140\n        /* \"#utility.yul\":8271:8272   */\n      0x00\n        /* \"#utility.yul\":8260:8269   */\n      dup4\n        /* \"#utility.yul\":8256:8273   */\n      add\n        /* \"#utility.yul\":8247:8253   */\n      dup9\n        /* \"#utility.yul\":8203:8274   */\n      tag_127\n      jump\t// in\n    tag_140:\n        /* \"#utility.yul\":8284:8352   */\n      tag_141\n        /* \"#utility.yul\":8348:8350   */\n      0x20\n        /* \"#utility.yul\":8337:8346   */\n      dup4\n        /* \"#utility.yul\":8333:8351   */\n      add\n        /* \"#utility.yul\":8324:8330   */\n      dup8\n        /* \"#utility.yul\":8284:8352   */\n      tag_135\n      jump\t// in\n    tag_141:\n        /* \"#utility.yul\":8362:8430   */\n      tag_142\n        /* \"#utility.yul\":8426:8428   */\n      0x40\n        /* \"#utility.yul\":8415:8424   */\n      dup4\n        /* \"#utility.yul\":8411:8429   */\n      add\n        /* \"#utility.yul\":8402:8408   */\n      dup7\n        /* \"#utility.yul\":8362:8430   */\n      tag_135\n      jump\t// in\n    tag_142:\n        /* \"#utility.yul\":8440:8512   */\n      tag_143\n        /* \"#utility.yul\":8508:8510   */\n      0x60\n        /* \"#utility.yul\":8497:8506   */\n      dup4\n        /* \"#utility.yul\":8493:8511   */\n      add\n        /* \"#utility.yul\":8484:8490   */\n      dup6\n        /* \"#utility.yul\":8440:8512   */\n      tag_131\n      jump\t// in\n    tag_143:\n        /* \"#utility.yul\":8522:8595   */\n      tag_144\n        /* \"#utility.yul\":8590:8593   */\n      0x80\n        /* \"#utility.yul\":8579:8588   */\n      dup4\n        /* \"#utility.yul\":8575:8594   */\n      add\n        /* \"#utility.yul\":8566:8572   */\n      dup5\n        /* \"#utility.yul\":8522:8595   */\n      tag_131\n      jump\t// in\n    tag_144:\n        /* \"#utility.yul\":7954:8602   */\n      swap7\n      swap6\n      pop\n      pop\n      pop\n      pop\n      pop\n      pop\n      jump\t// out\n        /* \"#utility.yul\":8608:8737   */\n    tag_24:\n        /* \"#utility.yul\":8642:8648   */\n      0x00\n        /* \"#utility.yul\":8669:8689   */\n      tag_146\n      tag_147\n      jump\t// in\n    tag_146:\n        /* \"#utility.yul\":8659:8689   */\n      swap1\n      pop\n        /* \"#utility.yul\":8698:8731   */\n      tag_148\n        /* \"#utility.yul\":8726:8730   */\n      dup3\n        /* \"#utility.yul\":8718:8724   */\n      dup3\n        /* \"#utility.yul\":8698:8731   */\n      tag_149\n      jump\t// in\n    tag_148:\n        /* \"#utility.yul\":8608:8737   */\n      swap2\n      swap1\n      pop\n      jump\t// out\n        /* \"#utility.yul\":8743:8818   */\n    tag_147:\n        /* \"#utility.yul\":8776:8782   */\n      0x00\n        /* \"#utility.yul\":8809:8811   */\n      0x40\n        /* \"#utility.yul\":8803:8812   */\n      mload\n        /* \"#utility.yul\":8793:8812   */\n      swap1\n      pop\n        /* \"#utility.yul\":8743:8818   */\n      swap1\n      jump\t// out\n        /* \"#utility.yul\":8824:9157   */\n    tag_23:\n        /* \"#utility.yul\":8923:8927   */\n      0x00\n        /* \"#utility.yul\":9013:9031   */\n      0xffffffffffffffff\n        /* \"#utility.yul\":9005:9011   */\n      dup3\n        /* \"#utility.yul\":9002:9032   */\n      gt\n        /* \"#utility.yul\":8999:9055   */\n      iszero\n      tag_152\n      jumpi\n        /* \"#utility.yul\":9035:9053   */\n      tag_153\n      tag_154\n      jump\t// in\n    tag_153:\n        /* \"#utility.yul\":8999:9055   */\n    tag_152:\n        /* \"#utility.yul\":9085:9089   */\n      0x20\n        /* \"#utility.yul\":9077:9083   */\n      dup3\n        /* \"#utility.yul\":9073:9090   */\n      mul\n        /* \"#utility.yul\":9065:9090   */\n      swap1\n      pop\n        /* \"#utility.yul\":9145:9149   */\n      0x20\n        /* \"#utility.yul\":9139:9143   */\n      dup2\n        /* \"#utility.yul\":9135:9150   */\n      add\n        /* \"#utility.yul\":9127:9150   */\n      swap1\n      pop\n        /* \"#utility.yul\":8824:9157   */\n      swap2\n      swap1\n      pop\n      jump\t// out\n        /* \"#utility.yul\":9163:9494   */\n    tag_40:\n        /* \"#utility.yul\":9260:9264   */\n      0x00\n        /* \"#utility.yul\":9350:9368   */\n      0xffffffffffffffff\n        /* \"#utility.yul\":9342:9348   */\n      dup3\n        /* \"#utility.yul\":9339:9369   */\n      gt\n        /* \"#utility.yul\":9336:9392   */\n      iszero\n      tag_156\n      jumpi\n        /* \"#utility.yul\":9372:9390   */\n      tag_157\n      tag_154\n      jump\t// in\n    tag_157:\n        /* \"#utility.yul\":9336:9392   */\n    tag_156:\n        /* \"#utility.yul\":9422:9426   */\n      0x20\n        /* \"#utility.yul\":9414:9420   */\n      dup3\n        /* \"#utility.yul\":9410:9427   */\n      mul\n        /* \"#utility.yul\":9402:9427   */\n      swap1\n      pop\n        /* \"#utility.yul\":9482:9486   */\n      0x20\n        /* \"#utility.yul\":9476:9480   */\n      dup2\n        /* \"#utility.yul\":9472:9487   */\n      add\n        /* \"#utility.yul\":9464:9487   */\n      swap1\n      pop\n        /* \"#utility.yul\":9163:9494   */\n      swap2\n      swap1\n      pop\n      jump\t// out\n        /* \"#utility.yul\":9500:9808   */\n    tag_54:\n        /* \"#utility.yul\":9562:9566   */\n      0x00\n        /* \"#utility.yul\":9652:9670   */\n      0xffffffffffffffff\n        /* \"#utility.yul\":9644:9650   */\n      dup3\n        /* \"#utility.yul\":9641:9671   */\n      gt\n        /* \"#utility.yul\":9638:9694   */\n      iszero\n      tag_159\n      jumpi\n        /* \"#utility.yul\":9674:9692   */\n      tag_160\n      tag_154\n      jump\t// in\n    tag_160:\n        /* \"#utility.yul\":9638:9694   */\n    tag_159:\n        /* \"#utility.yul\":9712:9741   */\n      tag_161\n        /* \"#utility.yul\":9734:9740   */\n      dup3\n        /* \"#utility.yul\":9712:9741   */\n      tag_162\n      jump\t// in\n    tag_161:\n        /* \"#utility.yul\":9704:9741   */\n      swap1\n      pop\n        /* \"#utility.yul\":9796:9800   */\n      0x20\n        /* \"#utility.yul\":9790:9794   */\n      dup2\n        /* \"#utility.yul\":9786:9801   */\n      add\n        /* \"#utility.yul\":9778:9801   */\n      swap1\n      pop\n        /* \"#utility.yul\":9500:9808   */\n      swap2\n      swap1\n      pop\n      jump\t// out\n        /* \"#utility.yul\":9814:9910   */\n    tag_130:\n        /* \"#utility.yul\":9851:9858   */\n      0x00\n        /* \"#utility.yul\":9880:9904   */\n      tag_164\n        /* \"#utility.yul\":9898:9903   */\n      dup3\n        /* \"#utility.yul\":9880:9904   */\n      tag_165\n      jump\t// in\n    tag_164:\n        /* \"#utility.yul\":9869:9904   */\n      swap1\n      pop\n        /* \"#utility.yul\":9814:9910   */\n      swap2\n      swap1\n      pop\n      jump\t// out\n        /* \"#utility.yul\":9916:10006   */\n    tag_166:\n        /* \"#utility.yul\":9950:9957   */\n      0x00\n        /* \"#utility.yul\":9993:9998   */\n      dup2\n        /* \"#utility.yul\":9986:9999   */\n      iszero\n        /* \"#utility.yul\":9979:10000   */\n      iszero\n        /* \"#utility.yul\":9968:10000   */\n      swap1\n      pop\n        /* \"#utility.yul\":9916:10006   */\n      swap2\n      swap1\n      pop\n      jump\t// out\n        /* \"#utility.yul\":10012:10138   */\n    tag_165:\n        /* \"#utility.yul\":10049:10056   */\n      0x00\n        /* \"#utility.yul\":10089:10131   */\n      0xffffffffffffffffffffffffffffffffffffffff\n        /* \"#utility.yul\":10082:10087   */\n      dup3\n        /* \"#utility.yul\":10078:10132   */\n      and\n        /* \"#utility.yul\":10067:10132   */\n      swap1\n      pop\n        /* \"#utility.yul\":10012:10138   */\n      swap2\n      swap1\n      pop\n      jump\t// out\n        /* \"#utility.yul\":10144:10221   */\n    tag_134:\n        /* \"#utility.yul\":10181:10188   */\n      0x00\n        /* \"#utility.yul\":10210:10215   */\n      dup2\n        /* \"#utility.yul\":10199:10215   */\n      swap1\n      pop\n        /* \"#utility.yul\":10144:10221   */\n      swap2\n      swap1\n      pop\n      jump\t// out\n        /* \"#utility.yul\":10227:10313   */\n    tag_138:\n        /* \"#utility.yul\":10262:10269   */\n      0x00\n        /* \"#utility.yul\":10302:10306   */\n      0xff\n        /* \"#utility.yul\":10295:10300   */\n      dup3\n        /* \"#utility.yul\":10291:10307   */\n      and\n        /* \"#utility.yul\":10280:10307   */\n      swap1\n      pop\n        /* \"#utility.yul\":10227:10313   */\n      swap2\n      swap1\n      pop\n      jump\t// out\n        /* \"#utility.yul\":10319:10473   */\n    tag_59:\n        /* \"#utility.yul\":10403:10409   */\n      dup3\n        /* \"#utility.yul\":10398:10401   */\n      dup2\n        /* \"#utility.yul\":10393:10396   */\n      dup4\n        /* \"#utility.yul\":10380:10410   */\n      calldatacopy\n        /* \"#utility.yul\":10465:10466   */\n      0x00\n        /* \"#utility.yul\":10456:10462   */\n      dup4\n        /* \"#utility.yul\":10451:10454   */\n      dup4\n        /* \"#utility.yul\":10447:10463   */\n      add\n        /* \"#utility.yul\":10440:10467   */\n      mstore\n        /* \"#utility.yul\":10319:10473   */\n      pop\n      pop\n      pop\n      jump\t// out\n        /* \"#utility.yul\":10479:10760   */\n    tag_149:\n        /* \"#utility.yul\":10562:10589   */\n      tag_173\n        /* \"#utility.yul\":10584:10588   */\n      dup3\n        /* \"#utility.yul\":10562:10589   */\n      tag_162\n      jump\t// in\n    tag_173:\n        /* \"#utility.yul\":10554:10560   */\n      dup2\n        /* \"#utility.yul\":10550:10590   */\n      add\n        /* \"#utility.yul\":10692:10698   */\n      dup2\n        /* \"#utility.yul\":10680:10690   */\n      dup2\n        /* \"#utility.yul\":10677:10699   */\n      lt\n        /* \"#utility.yul\":10656:10674   */\n      0xffffffffffffffff\n        /* \"#utility.yul\":10644:10654   */\n      dup3\n        /* \"#utility.yul\":10641:10675   */\n      gt\n        /* \"#utility.yul\":10638:10700   */\n      or\n        /* \"#utility.yul\":10635:10723   */\n      iszero\n      tag_174\n      jumpi\n        /* \"#utility.yul\":10703:10721   */\n      tag_175\n      tag_154\n      jump\t// in\n    tag_175:\n        /* \"#utility.yul\":10635:10723   */\n    tag_174:\n        /* \"#utility.yul\":10743:10753   */\n      dup1\n        /* \"#utility.yul\":10739:10741   */\n      0x40\n        /* \"#utility.yul\":10732:10754   */\n      mstore\n        /* \"#utility.yul\":10522:10760   */\n      pop\n        /* \"#utility.yul\":10479:10760   */\n      pop\n      pop\n      jump\t// out\n        /* \"#utility.yul\":10766:10946   */\n    tag_154:\n        /* \"#utility.yul\":10814:10891   */\n      0x4e487b7100000000000000000000000000000000000000000000000000000000\n        /* \"#utility.yul\":10811:10812   */\n      0x00\n        /* \"#utility.yul\":10804:10892   */\n      mstore\n        /* \"#utility.yul\":10911:10915   */\n      0x41\n        /* \"#utility.yul\":10908:10909   */\n      0x04\n        /* \"#utility.yul\":10901:10916   */\n      mstore\n        /* \"#utility.yul\":10935:10939   */\n      0x24\n        /* \"#utility.yul\":10932:10933   */\n      0x00\n        /* \"#utility.yul\":10925:10940   */\n      revert\n        /* \"#utility.yul\":10952:11069   */\n    tag_33:\n        /* \"#utility.yul\":11061:11062   */\n      0x00\n        /* \"#utility.yul\":11058:11059   */\n      dup1\n        /* \"#utility.yul\":11051:11063   */\n      revert\n        /* \"#utility.yul\":11075:11192   */\n    tag_86:\n        /* \"#utility.yul\":11184:11185   */\n      0x00\n        /* \"#utility.yul\":11181:11182   */\n      dup1\n        /* \"#utility.yul\":11174:11186   */\n      revert\n        /* \"#utility.yul\":11198:11315   */\n    tag_90:\n        /* \"#utility.yul\":11307:11308   */\n      0x00\n        /* \"#utility.yul\":11304:11305   */\n      dup1\n        /* \"#utility.yul\":11297:11309   */\n      revert\n        /* \"#utility.yul\":11321:11438   */\n    tag_27:\n        /* \"#utility.yul\":11430:11431   */\n      0x00\n        /* \"#utility.yul\":11427:11428   */\n      dup1\n        /* \"#utility.yul\":11420:11432   */\n      revert\n        /* \"#utility.yul\":11444:11561   */\n    tag_57:\n        /* \"#utility.yul\":11553:11554   */\n      0x00\n        /* \"#utility.yul\":11550:11551   */\n      dup1\n        /* \"#utility.yul\":11543:11555   */\n      revert\n        /* \"#utility.yul\":11567:11684   */\n    tag_119:\n        /* \"#utility.yul\":11676:11677   */\n      0x00\n        /* \"#utility.yul\":11673:11674   */\n      dup1\n        /* \"#utility.yul\":11666:11678   */\n      revert\n        /* \"#utility.yul\":11690:11807   */\n    tag_116:\n        /* \"#utility.yul\":11799:11800   */\n      0x00\n        /* \"#utility.yul\":11796:11797   */\n      dup1\n        /* \"#utility.yul\":11789:11801   */\n      revert\n        /* \"#utility.yul\":11813:11915   */\n    tag_162:\n        /* \"#utility.yul\":11854:11860   */\n      0x00\n        /* \"#utility.yul\":11905:11907   */\n      0x1f\n        /* \"#utility.yul\":11901:11908   */\n      not\n        /* \"#utility.yul\":11896:11898   */\n      0x1f\n        /* \"#utility.yul\":11889:11894   */\n      dup4\n        /* \"#utility.yul\":11885:11899   */\n      add\n        /* \"#utility.yul\":11881:11909   */\n      and\n        /* \"#utility.yul\":11871:11909   */\n      swap1\n      pop\n        /* \"#utility.yul\":11813:11915   */\n      swap2\n      swap1\n      pop\n      jump\t// out\n        /* \"#utility.yul\":11921:12043   */\n    tag_63:\n        /* \"#utility.yul\":11994:12018   */\n      tag_186\n        /* \"#utility.yul\":12012:12017   */\n      dup2\n        /* \"#utility.yul\":11994:12018   */\n      tag_130\n      jump\t// in\n    tag_186:\n        /* \"#utility.yul\":11987:11992   */\n      dup2\n        /* \"#utility.yul\":11984:12019   */\n      eq\n        /* \"#utility.yul\":11974:12037   */\n      tag_187\n      jumpi\n        /* \"#utility.yul\":12033:12034   */\n      0x00\n        /* \"#utility.yul\":12030:12031   */\n      dup1\n        /* \"#utility.yul\":12023:12035   */\n      revert\n        /* \"#utility.yul\":11974:12037   */\n    tag_187:\n        /* \"#utility.yul\":11921:12043   */\n      pop\n      jump\t// out\n        /* \"#utility.yul\":12049:12165   */\n    tag_77:\n        /* \"#utility.yul\":12119:12140   */\n      tag_189\n        /* \"#utility.yul\":12134:12139   */\n      dup2\n        /* \"#utility.yul\":12119:12140   */\n      tag_166\n      jump\t// in\n    tag_189:\n        /* \"#utility.yul\":12112:12117   */\n      dup2\n        /* \"#utility.yul\":12109:12141   */\n      eq\n        /* \"#utility.yul\":12099:12159   */\n      tag_190\n      jumpi\n        /* \"#utility.yul\":12155:12156   */\n      0x00\n        /* \"#utility.yul\":12152:12153   */\n      dup1\n        /* \"#utility.yul\":12145:12157   */\n      revert\n        /* \"#utility.yul\":12099:12159   */\n    tag_190:\n        /* \"#utility.yul\":12049:12165   */\n      pop\n      jump\t// out\n        /* \"#utility.yul\":12171:12293   */\n    tag_109:\n        /* \"#utility.yul\":12244:12268   */\n      tag_192\n        /* \"#utility.yul\":12262:12267   */\n      dup2\n        /* \"#utility.yul\":12244:12268   */\n      tag_134\n      jump\t// in\n    tag_192:\n        /* \"#utility.yul\":12237:12242   */\n      dup2\n        /* \"#utility.yul\":12234:12269   */\n      eq\n        /* \"#utility.yul\":12224:12287   */\n      tag_193\n      jumpi\n        /* \"#utility.yul\":12283:12284   */\n      0x00\n        /* \"#utility.yul\":12280:12281   */\n      dup1\n        /* \"#utility.yul\":12273:12285   */\n      revert\n        /* \"#utility.yul\":12224:12287   */\n    tag_193:\n        /* \"#utility.yul\":12171:12293   */\n      pop\n      jump\t// out\n        /* \"#utility.yul\":12299:12417   */\n    tag_112:\n        /* \"#utility.yul\":12370:12392   */\n      tag_195\n        /* \"#utility.yul\":12386:12391   */\n      dup2\n        /* \"#utility.yul\":12370:12392   */\n      tag_138\n      jump\t// in\n    tag_195:\n        /* \"#utility.yul\":12363:12368   */\n      dup2\n        /* \"#utility.yul\":12360:12393   */\n      eq\n        /* \"#utility.yul\":12350:12411   */\n      tag_196\n      jumpi\n        /* \"#utility.yul\":12407:12408   */\n      0x00\n        /* \"#utility.yul\":12404:12405   */\n      dup1\n        /* \"#utility.yul\":12397:12409   */\n      revert\n        /* \"#utility.yul\":12350:12411   */\n    tag_196:\n        /* \"#utility.yul\":12299:12417   */\n      pop\n      jump\t// out\n\n    auxdata: 0xa26469706673582212205149222afabb113e6e9560bcd81c3a05a3472afaafab052cab8a34b7065242c864736f6c63430008070033\n}\n",
				"bytecode": {
					"linkReferences": {},
					"object": "608060405234801561001057600080fd5b506107bc806100206000396000f3fe608060405234801561001057600080fd5b50600436106100365760003560e01c8063a9c0b2a21461003b578063ac2f007414610057575b600080fd5b61005560048036038101906100509190610468565b61008b565b005b610071600480360381019061006c91906104d7565b610090565b604051610082959493929190610531565b60405180910390f35b505050565b600081815481106100a057600080fd5b90600052602060002090600402016000915090508060000160009054906101000a900473ffffffffffffffffffffffffffffffffffffffff16908060000160149054906101000a900460ff16908060000160159054906101000a900460ff16908060020154908060030154905085565b600061012361011e846105a9565b610584565b9050808382526020820190508285602086028201111561014657610145610705565b5b60005b8581101561019457813567ffffffffffffffff81111561016c5761016b6106f6565b5b8086016101798982610322565b85526020850194506020840193505050600181019050610149565b5050509392505050565b60006101b16101ac846105d5565b610584565b905080838252602082019050828560208602820111156101d4576101d3610705565b5b60005b8581101561022257813567ffffffffffffffff8111156101fa576101f96106f6565b5b80860161020789826103be565b855260208501945060208401935050506001810190506101d7565b5050509392505050565b600061023f61023a84610601565b610584565b90508281526020810184848401111561025b5761025a61070a565b5b610266848285610687565b509392505050565b60008135905061027d8161072a565b92915050565b600082601f830112610298576102976106f6565b5b81356102a8848260208601610110565b91505092915050565b600082601f8301126102c6576102c56106f6565b5b81356102d684826020860161019e565b91505092915050565b6000813590506102ee81610741565b92915050565b600082601f830112610309576103086106f6565b5b813561031984826020860161022c565b91505092915050565b600060608284031215610338576103376106fb565b5b6103426060610584565b9050600082013567ffffffffffffffff81111561036257610361610700565b5b61036e848285016102f4565b600083015250602061038284828501610453565b602083015250604082013567ffffffffffffffff8111156103a6576103a5610700565b5b6103b2848285016102b1565b60408301525092915050565b6000606082840312156103d4576103d36106fb565b5b6103de6060610584565b9050600082013567ffffffffffffffff8111156103fe576103fd610700565b5b61040a848285016102f4565b600083015250602061041e8482850161026e565b6020830152506040610432848285016102df565b60408301525092915050565b60008135905061044d81610758565b92915050565b6000813590506104628161076f565b92915050565b60008060006060848603121561048157610480610714565b5b600084013567ffffffffffffffff81111561049f5761049e61070f565b5b6104ab86828701610283565b93505060206104bc8682870161043e565b92505060406104cd8682870161043e565b9150509250925092565b6000602082840312156104ed576104ec610714565b5b60006104fb8482850161043e565b91505092915050565b61050d81610632565b82525050565b61051c81610670565b82525050565b61052b8161067a565b82525050565b600060a0820190506105466000830188610504565b6105536020830187610522565b6105606040830186610522565b61056d6060830185610513565b61057a6080830184610513565b9695505050505050565b600061058e61059f565b905061059a8282610696565b919050565b6000604051905090565b600067ffffffffffffffff8211156105c4576105c36106c7565b5b602082029050602081019050919050565b600067ffffffffffffffff8211156105f0576105ef6106c7565b5b602082029050602081019050919050565b600067ffffffffffffffff82111561061c5761061b6106c7565b5b61062582610719565b9050602081019050919050565b600061063d82610650565b9050919050565b60008115159050919050565b600073ffffffffffffffffffffffffffffffffffffffff82169050919050565b6000819050919050565b600060ff82169050919050565b82818337600083830152505050565b61069f82610719565b810181811067ffffffffffffffff821117156106be576106bd6106c7565b5b80604052505050565b7f4e487b7100000000000000000000000000000000000000000000000000000000600052604160045260246000fd5b600080fd5b600080fd5b600080fd5b600080fd5b600080fd5b600080fd5b600080fd5b6000601f19601f8301169050919050565b61073381610632565b811461073e57600080fd5b50565b61074a81610644565b811461075557600080fd5b50565b61076181610670565b811461076c57600080fd5b50565b6107788161067a565b811461078357600080fd5b5056fea26469706673582212205149222afabb113e6e9560bcd81c3a05a3472afaafab052cab8a34b7065242c864736f6c63430008070033",
					"opcodes": "PUSH1 0x80 PUSH1 0x40 MSTORE CALLVALUE DUP1 ISZERO PUSH2 0x10 JUMPI PUSH1 0x0 DUP1 REVERT JUMPDEST POP PUSH2 0x7BC DUP1 PUSH2 0x20 PUSH1 0x0 CODECOPY PUSH1 0x0 RETURN INVALID PUSH1 0x80 PUSH1 0x40 MSTORE CALLVALUE DUP1 ISZERO PUSH2 0x10 JUMPI PUSH1 0x0 DUP1 REVERT JUMPDEST POP PUSH1 0x4 CALLDATASIZE LT PUSH2 0x36 JUMPI PUSH1 0x0 CALLDATALOAD PUSH1 0xE0 SHR DUP1 PUSH4 0xA9C0B2A2 EQ PUSH2 0x3B JUMPI DUP1 PUSH4 0xAC2F0074 EQ PUSH2 0x57 JUMPI JUMPDEST PUSH1 0x0 DUP1 REVERT JUMPDEST PUSH2 0x55 PUSH1 0x4 DUP1 CALLDATASIZE SUB DUP2 ADD SWAP1 PUSH2 0x50 SWAP2 SWAP1 PUSH2 0x468 JUMP JUMPDEST PUSH2 0x8B JUMP JUMPDEST STOP JUMPDEST PUSH2 0x71 PUSH1 0x4 DUP1 CALLDATASIZE SUB DUP2 ADD SWAP1 PUSH2 0x6C SWAP2 SWAP1 PUSH2 0x4D7 JUMP JUMPDEST PUSH2 0x90 JUMP JUMPDEST PUSH1 0x40 MLOAD PUSH2 0x82 SWAP6 SWAP5 SWAP4 SWAP3 SWAP2 SWAP1 PUSH2 0x531 JUMP JUMPDEST PUSH1 0x40 MLOAD DUP1 SWAP2 SUB SWAP1 RETURN JUMPDEST POP POP POP JUMP JUMPDEST PUSH1 0x0 DUP2 DUP2 SLOAD DUP2 LT PUSH2 0xA0 JUMPI PUSH1 0x0 DUP1 REVERT JUMPDEST SWAP1 PUSH1 0x0 MSTORE PUSH1 0x20 PUSH1 0x0 KECCAK256 SWAP1 PUSH1 0x4 MUL ADD PUSH1 0x0 SWAP2 POP SWAP1 POP DUP1 PUSH1 0x0 ADD PUSH1 0x0 SWAP1 SLOAD SWAP1 PUSH2 0x100 EXP SWAP1 DIV PUSH20 0xFFFFFFFFFFFFFFFFFFFFFFFFFFFFFFFFFFFFFFFF AND SWAP1 DUP1 PUSH1 0x0 ADD PUSH1 0x14 SWAP1 SLOAD SWAP1 PUSH2 0x100 EXP SWAP1 DIV PUSH1 0xFF AND SWAP1 DUP1 PUSH1 0x0 ADD PUSH1 0x15 SWAP1 SLOAD SWAP1 PUSH2 0x100 EXP SWAP1 DIV PUSH1 0xFF AND SWAP1 DUP1 PUSH1 0x2 ADD SLOAD SWAP1 DUP1 PUSH1 0x3 ADD SLOAD SWAP1 POP DUP6 JUMP JUMPDEST PUSH1 0x0 PUSH2 0x123 PUSH2 0x11E DUP5 PUSH2 0x5A9 JUMP JUMPDEST PUSH2 0x584 JUMP JUMPDEST SWAP1 POP DUP1 DUP4 DUP3 MSTORE PUSH1 0x20 DUP3 ADD SWAP1 POP DUP3 DUP6 PUSH1 0x20 DUP7 MUL DUP3 ADD GT ISZERO PUSH2 0x146 JUMPI PUSH2 0x145 PUSH2 0x705 JUMP JUMPDEST JUMPDEST PUSH1 0x0 JUMPDEST DUP6 DUP2 LT ISZERO PUSH2 0x194 JUMPI DUP2 CALLDATALOAD PUSH8 0xFFFFFFFFFFFFFFFF DUP2 GT ISZERO PUSH2 0x16C JUMPI PUSH2 0x16B PUSH2 0x6F6 JUMP JUMPDEST JUMPDEST DUP1 DUP7 ADD PUSH2 0x179 DUP10 DUP3 PUSH2 0x322 JUMP JUMPDEST DUP6 MSTORE PUSH1 0x20 DUP6 ADD SWAP5 POP PUSH1 0x20 DUP5 ADD SWAP4 POP POP POP PUSH1 0x1 DUP2 ADD SWAP1 POP PUSH2 0x149 JUMP JUMPDEST POP POP POP SWAP4 SWAP3 POP POP POP JUMP JUMPDEST PUSH1 0x0 PUSH2 0x1B1 PUSH2 0x1AC DUP5 PUSH2 0x5D5 JUMP JUMPDEST PUSH2 0x584 JUMP JUMPDEST SWAP1 POP DUP1 DUP4 DUP3 MSTORE PUSH1 0x20 DUP3 ADD SWAP1 POP DUP3 DUP6 PUSH1 0x20 DUP7 MUL DUP3 ADD GT ISZERO PUSH2 0x1D4 JUMPI PUSH2 0x1D3 PUSH2 0x705 JUMP JUMPDEST JUMPDEST PUSH1 0x0 JUMPDEST DUP6 DUP2 LT ISZERO PUSH2 0x222 JUMPI DUP2 CALLDATALOAD PUSH8 0xFFFFFFFFFFFFFFFF DUP2 GT ISZERO PUSH2 0x1FA JUMPI PUSH2 0x1F9 PUSH2 0x6F6 JUMP JUMPDEST JUMPDEST DUP1 DUP7 ADD PUSH2 0x207 DUP10 DUP3 PUSH2 0x3BE JUMP JUMPDEST DUP6 MSTORE PUSH1 0x20 DUP6 ADD SWAP5 POP PUSH1 0x20 DUP5 ADD SWAP4 POP POP POP PUSH1 0x1 DUP2 ADD SWAP1 POP PUSH2 0x1D7 JUMP JUMPDEST POP POP POP SWAP4 SWAP3 POP POP POP JUMP JUMPDEST PUSH1 0x0 PUSH2 0x23F PUSH2 0x23A DUP5 PUSH2 0x601 JUMP JUMPDEST PUSH2 0x584 JUMP JUMPDEST SWAP1 POP DUP3 DUP2 MSTORE PUSH1 0x20 DUP2 ADD DUP5 DUP5 DUP5 ADD GT ISZERO PUSH2 0x25B JUMPI PUSH2 0x25A PUSH2 0x70A JUMP JUMPDEST JUMPDEST PUSH2 0x266 DUP5 DUP3 DUP6 PUSH2 0x687 JUMP JUMPDEST POP SWAP4 SWAP3 POP POP POP JUMP JUMPDEST PUSH1 0x0 DUP2 CALLDATALOAD SWAP1 POP PUSH2 0x27D DUP2 PUSH2 0x72A JUMP JUMPDEST SWAP3 SWAP2 POP POP JUMP JUMPDEST PUSH1 0x0 DUP3 PUSH1 0x1F DUP4 ADD SLT PUSH2 0x298 JUMPI PUSH2 0x297 PUSH2 0x6F6 JUMP JUMPDEST JUMPDEST DUP2 CALLDATALOAD PUSH2 0x2A8 DUP5 DUP3 PUSH1 0x20 DUP7 ADD PUSH2 0x110 JUMP JUMPDEST SWAP2 POP POP SWAP3 SWAP2 POP POP JUMP JUMPDEST PUSH1 0x0 DUP3 PUSH1 0x1F DUP4 ADD SLT PUSH2 0x2C6 JUMPI PUSH2 0x2C5 PUSH2 0x6F6 JUMP JUMPDEST JUMPDEST DUP2 CALLDATALOAD PUSH2 0x2D6 DUP5 DUP3 PUSH1 0x20 DUP7 ADD PUSH2 0x19E JUMP JUMPDEST SWAP2 POP POP SWAP3 SWAP2 POP POP JUMP JUMPDEST PUSH1 0x0 DUP2 CALLDATALOAD SWAP1 POP PUSH2 0x2EE DUP2 PUSH2 0x741 JUMP JUMPDEST SWAP3 SWAP2 POP POP JUMP JUMPDEST PUSH1 0x0 DUP3 PUSH1 0x1F DUP4 ADD SLT PUSH2 0x309 JUMPI PUSH2 0x308 PUSH2 0x6F6 JUMP JUMPDEST JUMPDEST DUP2 CALLDATALOAD PUSH2 0x319 DUP5 DUP3 PUSH1 0x20 DUP7 ADD PUSH2 0x22C JUMP JUMPDEST SWAP2 POP POP SWAP3 SWAP2 POP POP JUMP JUMPDEST PUSH1 0x0 PUSH1 0x60 DUP3 DUP5 SUB SLT ISZERO PUSH2 0x338 JUMPI PUSH2 0x337 PUSH2 0x6FB JUMP JUMPDEST JUMPDEST PUSH2 0x342 PUSH1 0x60 PUSH2 0x584 JUMP JUMPDEST SWAP1 POP PUSH1 0x0 DUP3 ADD CALLDATALOAD PUSH8 0xFFFFFFFFFFFFFFFF DUP2 GT ISZERO PUSH2 0x362 JUMPI PUSH2 0x361 PUSH2 0x700 JUMP JUMPDEST JUMPDEST PUSH2 0x36E DUP5 DUP3 DUP6 ADD PUSH2 0x2F4 JUMP JUMPDEST PUSH1 0x0 DUP4 ADD MSTORE POP PUSH1 0x20 PUSH2 0x382 DUP5 DUP3 DUP6 ADD PUSH2 0x453 JUMP JUMPDEST PUSH1 0x20 DUP4 ADD MSTORE POP PUSH1 0x40 DUP3 ADD CALLDATALOAD PUSH8 0xFFFFFFFFFFFFFFFF DUP2 GT ISZERO PUSH2 0x3A6 JUMPI PUSH2 0x3A5 PUSH2 0x700 JUMP JUMPDEST JUMPDEST PUSH2 0x3B2 DUP5 DUP3 DUP6 ADD PUSH2 0x2B1 JUMP JUMPDEST PUSH1 0x40 DUP4 ADD MSTORE POP SWAP3 SWAP2 POP POP JUMP JUMPDEST PUSH1 0x0 PUSH1 0x60 DUP3 DUP5 SUB SLT ISZERO PUSH2 0x3D4 JUMPI PUSH2 0x3D3 PUSH2 0x6FB JUMP JUMPDEST JUMPDEST PUSH2 0x3DE PUSH1 0x60 PUSH2 0x584 JUMP JUMPDEST SWAP1 POP PUSH1 0x0 DUP3 ADD CALLDATALOAD PUSH8 0xFFFFFFFFFFFFFFFF DUP2 GT ISZERO PUSH2 0x3FE JUMPI PUSH2 0x3FD PUSH2 0x700 JUMP JUMPDEST JUMPDEST PUSH2 0x40A DUP5 DUP3 DUP6 ADD PUSH2 0x2F4 JUMP JUMPDEST PUSH1 0x0 DUP4 ADD MSTORE POP PUSH1 0x20 PUSH2 0x41E DUP5 DUP3 DUP6 ADD PUSH2 0x26E JUMP JUMPDEST PUSH1 0x20 DUP4 ADD MSTORE POP PUSH1 0x40 PUSH2 0x432 DUP5 DUP3 DUP6 ADD PUSH2 0x2DF JUMP JUMPDEST PUSH1 0x40 DUP4 ADD MSTORE POP SWAP3 SWAP2 POP POP JUMP JUMPDEST PUSH1 0x0 DUP2 CALLDATALOAD SWAP1 POP PUSH2 0x44D DUP2 PUSH2 0x758 JUMP JUMPDEST SWAP3 SWAP2 POP POP JUMP JUMPDEST PUSH1 0x0 DUP2 CALLDATALOAD SWAP1 POP PUSH2 0x462 DUP2 PUSH2 0x76F JUMP JUMPDEST SWAP3 SWAP2 POP POP JUMP JUMPDEST PUSH1 0x0 DUP1 PUSH1 0x0 PUSH1 0x60 DUP5 DUP7 SUB SLT ISZERO PUSH2 0x481 JUMPI PUSH2 0x480 PUSH2 0x714 JUMP JUMPDEST JUMPDEST PUSH1 0x0 DUP5 ADD CALLDATALOAD PUSH8 0xFFFFFFFFFFFFFFFF DUP2 GT ISZERO PUSH2 0x49F JUMPI PUSH2 0x49E PUSH2 0x70F JUMP JUMPDEST JUMPDEST PUSH2 0x4AB DUP7 DUP3 DUP8 ADD PUSH2 0x283 JUMP JUMPDEST SWAP4 POP POP PUSH1 0x20 PUSH2 0x4BC DUP7 DUP3 DUP8 ADD PUSH2 0x43E JUMP JUMPDEST SWAP3 POP POP PUSH1 0x40 PUSH2 0x4CD DUP7 DUP3 DUP8 ADD PUSH2 0x43E JUMP JUMPDEST SWAP2 POP POP SWAP3 POP SWAP3 POP SWAP3 JUMP JUMPDEST PUSH1 0x0 PUSH1 0x20 DUP3 DUP5 SUB SLT ISZERO PUSH2 0x4ED JUMPI PUSH2 0x4EC PUSH2 0x714 JUMP JUMPDEST JUMPDEST PUSH1 0x0 PUSH2 0x4FB DUP5 DUP3 DUP6 ADD PUSH2 0x43E JUMP JUMPDEST SWAP2 POP POP SWAP3 SWAP2 POP POP JUMP JUMPDEST PUSH2 0x50D DUP2 PUSH2 0x632 JUMP JUMPDEST DUP3 MSTORE POP POP JUMP JUMPDEST PUSH2 0x51C DUP2 PUSH2 0x670 JUMP JUMPDEST DUP3 MSTORE POP POP JUMP JUMPDEST PUSH2 0x52B DUP2 PUSH2 0x67A JUMP JUMPDEST DUP3 MSTORE POP POP JUMP JUMPDEST PUSH1 0x0 PUSH1 0xA0 DUP3 ADD SWAP1 POP PUSH2 0x546 PUSH1 0x0 DUP4 ADD DUP9 PUSH2 0x504 JUMP JUMPDEST PUSH2 0x553 PUSH1 0x20 DUP4 ADD DUP8 PUSH2 0x522 JUMP JUMPDEST PUSH2 0x560 PUSH1 0x40 DUP4 ADD DUP7 PUSH2 0x522 JUMP JUMPDEST PUSH2 0x56D PUSH1 0x60 DUP4 ADD DUP6 PUSH2 0x513 JUMP JUMPDEST PUSH2 0x57A PUSH1 0x80 DUP4 ADD DUP5 PUSH2 0x513 JUMP JUMPDEST SWAP7 SWAP6 POP POP POP POP POP POP JUMP JUMPDEST PUSH1 0x0 PUSH2 0x58E PUSH2 0x59F JUMP JUMPDEST SWAP1 POP PUSH2 0x59A DUP3 DUP3 PUSH2 0x696 JUMP JUMPDEST SWAP2 SWAP1 POP JUMP JUMPDEST PUSH1 0x0 PUSH1 0x40 MLOAD SWAP1 POP SWAP1 JUMP JUMPDEST PUSH1 0x0 PUSH8 0xFFFFFFFFFFFFFFFF DUP3 GT ISZERO PUSH2 0x5C4 JUMPI PUSH2 0x5C3 PUSH2 0x6C7 JUMP JUMPDEST JUMPDEST PUSH1 0x20 DUP3 MUL SWAP1 POP PUSH1 0x20 DUP2 ADD SWAP1 POP SWAP2 SWAP1 POP JUMP JUMPDEST PUSH1 0x0 PUSH8 0xFFFFFFFFFFFFFFFF DUP3 GT ISZERO PUSH2 0x5F0 JUMPI PUSH2 0x5EF PUSH2 0x6C7 JUMP JUMPDEST JUMPDEST PUSH1 0x20 DUP3 MUL SWAP1 POP PUSH1 0x20 DUP2 ADD SWAP1 POP SWAP2 SWAP1 POP JUMP JUMPDEST PUSH1 0x0 PUSH8 0xFFFFFFFFFFFFFFFF DUP3 GT ISZERO PUSH2 0x61C JUMPI PUSH2 0x61B PUSH2 0x6C7 JUMP JUMPDEST JUMPDEST PUSH2 0x625 DUP3 PUSH2 0x719 JUMP JUMPDEST SWAP1 POP PUSH1 0x20 DUP2 ADD SWAP1 POP SWAP2 SWAP1 POP JUMP JUMPDEST PUSH1 0x0 PUSH2 0x63D DUP3 PUSH2 0x650 JUMP JUMPDEST SWAP1 POP SWAP2 SWAP1 POP JUMP JUMPDEST PUSH1 0x0 DUP2 ISZERO ISZERO SWAP1 POP SWAP2 SWAP1 POP JUMP JUMPDEST PUSH1 0x0 PUSH20 0xFFFFFFFFFFFFFFFFFFFFFFFFFFFFFFFFFFFFFFFF DUP3 AND SWAP1 POP SWAP2 SWAP1 POP JUMP JUMPDEST PUSH1 0x0 DUP2 SWAP1 POP SWAP2 SWAP1 POP JUMP JUMPDEST PUSH1 0x0 PUSH1 0xFF DUP3 AND SWAP1 POP SWAP2 SWAP1 POP JUMP JUMPDEST DUP3 DUP2 DUP4 CALLDATACOPY PUSH1 0x0 DUP4 DUP4 ADD MSTORE POP POP POP JUMP JUMPDEST PUSH2 0x69F DUP3 PUSH2 0x719 JUMP JUMPDEST DUP2 ADD DUP2 DUP2 LT PUSH8 0xFFFFFFFFFFFFFFFF DUP3 GT OR ISZERO PUSH2 0x6BE JUMPI PUSH2 0x6BD PUSH2 0x6C7 JUMP JUMPDEST JUMPDEST DUP1 PUSH1 0x40 MSTORE POP POP POP JUMP JUMPDEST PUSH32 0x4E487B7100000000000000000000000000000000000000000000000000000000 PUSH1 0x0 MSTORE PUSH1 0x41 PUSH1 0x4 MSTORE PUSH1 0x24 PUSH1 0x0 REVERT JUMPDEST PUSH1 0x0 DUP1 REVERT JUMPDEST PUSH1 0x0 DUP1 REVERT JUMPDEST PUSH1 0x0 DUP1 REVERT JUMPDEST PUSH1 0x0 DUP1 REVERT JUMPDEST PUSH1 0x0 DUP1 REVERT JUMPDEST PUSH1 0x0 DUP1 REVERT JUMPDEST PUSH1 0x0 DUP1 REVERT JUMPDEST PUSH1 0x0 PUSH1 0x1F NOT PUSH1 0x1F DUP4 ADD AND SWAP1 POP SWAP2 SWAP1 POP JUMP JUMPDEST PUSH2 0x733 DUP2 PUSH2 0x632 JUMP JUMPDEST DUP2 EQ PUSH2 0x73E JUMPI PUSH1 0x0 DUP1 REVERT JUMPDEST POP JUMP JUMPDEST PUSH2 0x74A DUP2 PUSH2 0x644 JUMP JUMPDEST DUP2 EQ PUSH2 0x755 JUMPI PUSH1 0x0 DUP1 REVERT JUMPDEST POP JUMP JUMPDEST PUSH2 0x761 DUP2 PUSH2 0x670 JUMP JUMPDEST DUP2 EQ PUSH2 0x76C JUMPI PUSH1 0x0 DUP1 REVERT JUMPDEST POP JUMP JUMPDEST PUSH2 0x778 DUP2 PUSH2 0x67A JUMP JUMPDEST DUP2 EQ PUSH2 0x783 JUMPI PUSH1 0x0 DUP1 REVERT JUMPDEST POP JUMP INVALID LOG2 PUSH5 0x6970667358 0x22 SLT KECCAK256 MLOAD 0x49 0x22 0x2A STATICCALL 0xBB GT RETURNDATACOPY PUSH15 0x9560BCD81C3A05A3472AFAAFAB052C 0xAB DUP11 CALLVALUE 0xB7 MOD MSTORE TIMESTAMP 0xC8 PUSH5 0x736F6C6343 STOP ADDMOD SMOD STOP CALLER "
				},
				"gasEstimates": {
					"creation": {
						"codeDepositCost": "396000",
						"executionCost": "430",
						"totalCost": "396430"
					},
					"external": {
						"createPoll((string,uint8,(string,address,bool)[])[],uint256,uint256)": "infinite",
						"polls(uint256)": "infinite"
					}
				},
				"methodIdentifiers": {
					"createPoll((string,uint8,(string,address,bool)[])[],uint256,uint256)": "a9c0b2a2",
					"polls(uint256)": "ac2f0074"
				}
			},
			"storageLayout": {
				"storage": [
					{
						"astId": 36,
						"contract": "Voting.sol:Voting",
						"label": "polls",
						"offset": 0,
						"slot": "0",
						"type": "t_array(t_struct(poll)32_storage)dyn_storage"
					}
				],
				"types": {
					"t_address": {
						"encoding": "inplace",
						"label": "address",
						"numberOfBytes": "20"
					},
					"t_array(t_struct(option)17_storage)dyn_storage": {
						"base": "t_struct(option)17_storage",
						"encoding": "dynamic_array",
						"label": "struct Voting.option[]",
						"numberOfBytes": "32"
					},
					"t_array(t_struct(poll)32_storage)dyn_storage": {
						"base": "t_struct(poll)32_storage",
						"encoding": "dynamic_array",
						"label": "struct Voting.poll[]",
						"numberOfBytes": "32"
					},
					"t_array(t_struct(voter)8_storage)dyn_storage": {
						"base": "t_struct(voter)8_storage",
						"encoding": "dynamic_array",
						"label": "struct Voting.voter[]",
						"numberOfBytes": "32"
					},
					"t_bool": {
						"encoding": "inplace",
						"label": "bool",
						"numberOfBytes": "1"
					},
					"t_string_storage": {
						"encoding": "bytes",
						"label": "string",
						"numberOfBytes": "32"
					},
					"t_struct(option)17_storage": {
						"encoding": "inplace",
						"label": "struct Voting.option",
						"members": [
							{
								"astId": 10,
								"contract": "Voting.sol:Voting",
								"label": "name",
								"offset": 0,
								"slot": "0",
								"type": "t_string_storage"
							},
							{
								"astId": 12,
								"contract": "Voting.sol:Voting",
								"label": "votes",
								"offset": 0,
								"slot": "1",
								"type": "t_uint8"
							},
							{
								"astId": 16,
								"contract": "Voting.sol:Voting",
								"label": "voters",
								"offset": 0,
								"slot": "2",
								"type": "t_array(t_struct(voter)8_storage)dyn_storage"
							}
						],
						"numberOfBytes": "96"
					},
					"t_struct(poll)32_storage": {
						"encoding": "inplace",
						"label": "struct Voting.poll",
						"members": [
							{
								"astId": 19,
								"contract": "Voting.sol:Voting",
								"label": "creator",
								"offset": 0,
								"slot": "0",
								"type": "t_address"
							},
							{
								"astId": 21,
								"contract": "Voting.sol:Voting",
								"label": "pollNo",
								"offset": 20,
								"slot": "0",
								"type": "t_uint8"
							},
							{
								"astId": 23,
								"contract": "Voting.sol:Voting",
								"label": "nOptn",
								"offset": 21,
								"slot": "0",
								"type": "t_uint8"
							},
							{
								"astId": 27,
								"contract": "Voting.sol:Voting",
								"label": "options",
								"offset": 0,
								"slot": "1",
								"type": "t_array(t_struct(option)17_storage)dyn_storage"
							},
							{
								"astId": 29,
								"contract": "Voting.sol:Voting",
								"label": "startTime",
								"offset": 0,
								"slot": "2",
								"type": "t_uint256"
							},
							{
								"astId": 31,
								"contract": "Voting.sol:Voting",
								"label": "endTime",
								"offset": 0,
								"slot": "3",
								"type": "t_uint256"
							}
						],
						"numberOfBytes": "128"
					},
					"t_struct(voter)8_storage": {
						"encoding": "inplace",
						"label": "struct Voting.voter",
						"members": [
							{
								"astId": 3,
								"contract": "Voting.sol:Voting",
								"label": "name",
								"offset": 0,
								"slot": "0",
								"type": "t_string_storage"
							},
							{
								"astId": 5,
								"contract": "Voting.sol:Voting",
								"label": "addr",
								"offset": 0,
								"slot": "1",
								"type": "t_address"
							},
							{
								"astId": 7,
								"contract": "Voting.sol:Voting",
								"label": "voted",
								"offset": 20,
								"slot": "1",
								"type": "t_bool"
							}
						],
						"numberOfBytes": "64"
					},
					"t_uint256": {
						"encoding": "inplace",
						"label": "uint256",
						"numberOfBytes": "32"
					},
					"t_uint8": {
						"encoding": "inplace",
						"label": "uint8",
						"numberOfBytes": "1"
					}
				}
			},
			"userdoc": {
				"kind": "user",
				"methods": {},
				"version": 1
			}
		}
	}
}