{
	"data": {
		"bytecode": {
			"linkReferences": {},
			"object": "608060405260008060006101000a81548160ff021916908360ff16021790555034801561002b57600080fd5b50611b718061003b6000396000f3fe608060405234801561001057600080fd5b50600436106100615760003560e01c806242c4381461006657806336dffc3c1461009857806398568366146100b4578063ac2f0074146100d2578063df49c4de14610106578063f2c298be14610122575b600080fd5b610080600480360381019061007b9190611231565b61013e565b60405161008f939291906115b5565b60405180910390f35b6100b260048036038101906100ad919061125e565b61021d565b005b6100bc610513565b6040516100c99190611693565b60405180910390f35b6100ec60048036038101906100e79190611303565b61051b565b6040516100fd959493929190611562565b60405180910390f35b610120600480360381019061011b9190611330565b61059b565b005b61013c600480360381019061013791906112ba565b610a30565b005b6002602052806000526040600020600091509050806000018054610161906118b3565b80601f016020809104026020016040519081016040528092919081815260200182805461018d906118b3565b80156101da5780601f106101af576101008083540402835291602001916101da565b820191906000526020600020905b8154815290600101906020018083116101bd57829003601f168201915b5050505050908060010160009054906101000a900473ffffffffffffffffffffffffffffffffffffffff16908060010160149054906101000a900460ff16905083565b60008081819054906101000a900460ff168092919061023b90611916565b91906101000a81548160ff021916908360ff1602179055505060006006905033600660000160006101000a81548173ffffffffffffffffffffffffffffffffffffffff021916908373ffffffffffffffffffffffffffffffffffffffff16021790555060008054906101000a900460ff16600660000160146101000a81548160ff021916908360ff160217905550603c826102d691906117c2565b6006600201819055506102e842610bfa565b81426102f4919061176c565b60066003018190555060006003905060005b84518160ff1610156103f057848160ff16815181106103285761032761199e565b5b6020026020010151826000019080519060200190610347929190610cbc565b5082600101829080600181540180825580915050600190039060005260206000209060030201600090919091909150600082018160000190805461038a906118b3565b610395929190610d42565b506001820160009054906101000a900460ff168160010160006101000a81548160ff021916908360ff16021790555060028201816002019080546103da929190610dcf565b50505080806103e890611916565b915050610306565b5060018290806001815401808255809150506001900390600052602060002090600402016000909190919091506000820160009054906101000a900473ffffffffffffffffffffffffffffffffffffffff168160000160006101000a81548173ffffffffffffffffffffffffffffffffffffffff021916908373ffffffffffffffffffffffffffffffffffffffff1602179055506000820160149054906101000a900460ff168160000160146101000a81548160ff021916908360ff1602179055506000820160159054906101000a900460ff168160000160156101000a81548160ff021916908360ff16021790555060018201816001019080546104f6929190610edb565b506002820154816002015560038201548160030155505050505050565b600042905090565b6001818154811061052b57600080fd5b90600052602060002090600402016000915090508060000160009054906101000a900473ffffffffffffffffffffffffffffffffffffffff16908060000160149054906101000a900460ff16908060000160159054906101000a900460ff16908060020154908060030154905085565b8160ff16600181815481106105b3576105b261199e565b5b9060005260206000209060040201600301544210610606576040517f08c379a00000000000000000000000000000000000000000000000000000000081526004016105fd90611613565b60405180910390fd5b3373ffffffffffffffffffffffffffffffffffffffff16600182815481106106315761063061199e565b5b906000526020600020906004020160000160009054906101000a900473ffffffffffffffffffffffffffffffffffffffff1673ffffffffffffffffffffffffffffffffffffffff1614156106ba576040517f08c379a00000000000000000000000000000000000000000000000000000000081526004016106b190611653565b60405180910390fd5b6040516020016106c99061154d565b60405160208183030381529060405280519060200120600260003373ffffffffffffffffffffffffffffffffffffffff1673ffffffffffffffffffffffffffffffffffffffff1681526020019081526020016000206000016040516020016107319190611536565b604051602081830303815290604052805190602001201415610788576040517f08c379a000000000000000000000000000000000000000000000000000000000815260040161077f906115f3565b60405180910390fd5b60001515600260003373ffffffffffffffffffffffffffffffffffffffff1673ffffffffffffffffffffffffffffffffffffffff16815260200190815260200160002060010160149054906101000a900460ff1615151461081e576040517f08c379a000000000000000000000000000000000000000000000000000000000815260040161081590611673565b60405180910390fd5b600060018460ff16815481106108375761083661199e565b5b906000526020600020906004020190506000816001018460ff16815481106108625761086161199e565b5b9060005260206000209060030201905080600101600081819054906101000a900460ff168092919061089390611916565b91906101000a81548160ff021916908360ff1602179055505080600201600260003373ffffffffffffffffffffffffffffffffffffffff1673ffffffffffffffffffffffffffffffffffffffff1681526020019081526020016000209080600181540180825580915050600190039060005260206000209060020201600090919091909150600082018160000190805461092c906118b3565b610937929190610d42565b506001820160009054906101000a900473ffffffffffffffffffffffffffffffffffffffff168160010160006101000a81548173ffffffffffffffffffffffffffffffffffffffff021916908373ffffffffffffffffffffffffffffffffffffffff1602179055506001820160149054906101000a900460ff168160010160146101000a81548160ff02191690831515021790555050506001600260003373ffffffffffffffffffffffffffffffffffffffff1673ffffffffffffffffffffffffffffffffffffffff16815260200190815260200160002060010160146101000a81548160ff0219169083151502179055505050505050565b604051602001610a3f9061154d565b60405160208183030381529060405280519060200120600260003373ffffffffffffffffffffffffffffffffffffffff1673ffffffffffffffffffffffffffffffffffffffff168152602001908152602001600020600001604051602001610aa79190611536565b6040516020818303038152906040528051906020012014610afd576040517f08c379a0000000000000000000000000000000000000000000000000000000008152600401610af490611633565b60405180910390fd5b60405180606001604052808281526020013373ffffffffffffffffffffffffffffffffffffffff16815260200160001515815250600260003373ffffffffffffffffffffffffffffffffffffffff1673ffffffffffffffffffffffffffffffffffffffff1681526020019081526020016000206000820151816000019080519060200190610b8c929190610cbc565b5060208201518160010160006101000a81548173ffffffffffffffffffffffffffffffffffffffff021916908373ffffffffffffffffffffffffffffffffffffffff16021790555060408201518160010160146101000a81548160ff02191690831515021790555090505050565b610c9081604051602401610c0e9190611693565b6040516020818303038152906040527ff82c50f1000000000000000000000000000000000000000000000000000000007bffffffffffffffffffffffffffffffffffffffffffffffffffffffff19166020820180517bffffffffffffffffffffffffffffffffffffffffffffffffffffffff8381831617835250505050610c93565b50565b60008151905060006a636f6e736f6c652e6c6f679050602083016000808483855afa5050505050565b828054610cc8906118b3565b90600052602060002090601f016020900481019282610cea5760008555610d31565b82601f10610d0357805160ff1916838001178555610d31565b82800160010185558215610d31579182015b82811115610d30578251825591602001919060010190610d15565b5b509050610d3e9190610f98565b5090565b828054610d4e906118b3565b90600052602060002090601f016020900481019282610d705760008555610dbe565b82601f10610d815780548555610dbe565b82800160010185558215610dbe57600052602060002091601f016020900482015b82811115610dbd578254825591600101919060010190610da2565b5b509050610dcb9190610f98565b5090565b828054828255906000526020600020906002028101928215610eca5760005260206000209160020282015b82811115610ec95782826000820181600001908054610e18906118b3565b610e23929190610d42565b506001820160009054906101000a900473ffffffffffffffffffffffffffffffffffffffff168160010160006101000a81548173ffffffffffffffffffffffffffffffffffffffff021916908373ffffffffffffffffffffffffffffffffffffffff1602179055506001820160149054906101000a900460ff168160010160146101000a81548160ff021916908315150217905550505091600201919060020190610dfa565b5b509050610ed79190610fb5565b5090565b828054828255906000526020600020906003028101928215610f875760005260206000209160030282015b82811115610f865782826000820181600001908054610f24906118b3565b610f2f929190610d42565b506001820160009054906101000a900460ff168160010160006101000a81548160ff021916908360ff1602179055506002820181600201908054610f74929190610dcf565b50505091600301919060030190610f06565b5b509050610f949190611017565b5090565b5b80821115610fb1576000816000905550600101610f99565b5090565b5b808211156110135760008082016000610fcf9190611062565b6001820160006101000a81549073ffffffffffffffffffffffffffffffffffffffff02191690556001820160146101000a81549060ff021916905550600201610fb6565b5090565b5b8082111561105e57600080820160006110319190611062565b6001820160006101000a81549060ff021916905560028201600061105591906110a2565b50600301611018565b5090565b50805461106e906118b3565b6000825580601f10611080575061109f565b601f01602090049060005260206000209081019061109e9190610f98565b5b50565b50805460008255600202906000526020600020908101906110c39190610fb5565b50565b60006110d96110d4846116d3565b6116ae565b905080838252602082019050828560208602820111156110fc576110fb611a01565b5b60005b8581101561114a57813567ffffffffffffffff811115611122576111216119fc565b5b80860161112f89826111d9565b855260208501945060208401935050506001810190506110ff565b5050509392505050565b6000611167611162846116ff565b6116ae565b90508281526020810184848401111561118357611182611a06565b5b61118e848285611871565b509392505050565b6000813590506111a581611af6565b92915050565b600082601f8301126111c0576111bf6119fc565b5b81356111d08482602086016110c6565b91505092915050565b600082601f8301126111ee576111ed6119fc565b5b81356111fe848260208601611154565b91505092915050565b60008135905061121681611b0d565b92915050565b60008135905061122b81611b24565b92915050565b60006020828403121561124757611246611a10565b5b600061125584828501611196565b91505092915050565b6000806040838503121561127557611274611a10565b5b600083013567ffffffffffffffff81111561129357611292611a0b565b5b61129f858286016111ab565b92505060206112b085828601611207565b9150509250929050565b6000602082840312156112d0576112cf611a10565b5b600082013567ffffffffffffffff8111156112ee576112ed611a0b565b5b6112fa848285016111d9565b91505092915050565b60006020828403121561131957611318611a10565b5b600061132784828501611207565b91505092915050565b6000806040838503121561134757611346611a10565b5b60006113558582860161121c565b92505060206113668582860161121c565b9150509250929050565b6113798161181c565b82525050565b6113888161182e565b82525050565b600061139982611745565b6113a38185611750565b93506113b3818560208601611880565b6113bc81611a15565b840191505092915050565b600081546113d4816118b3565b6113de8186611761565b945060018216600081146113f9576001811461140a5761143d565b60ff1983168652818601935061143d565b61141385611730565b60005b8381101561143557815481890152600182019150602081019050611416565b838801955050505b50505092915050565b6000611453600f83611750565b915061145e82611a26565b602082019050919050565b6000611476601683611750565b915061148182611a4f565b602082019050919050565b6000611499601283611750565b91506114a482611a78565b602082019050919050565b60006114bc600083611761565b91506114c782611aa1565b600082019050919050565b60006114df601483611750565b91506114ea82611aa4565b602082019050919050565b6000611502601683611750565b915061150d82611acd565b602082019050919050565b6115218161185a565b82525050565b61153081611864565b82525050565b600061154282846113c7565b915081905092915050565b6000611558826114af565b9150819050919050565b600060a0820190506115776000830188611370565b6115846020830187611527565b6115916040830186611527565b61159e6060830185611518565b6115ab6080830184611518565b9695505050505050565b600060608201905081810360008301526115cf818661138e565b90506115de6020830185611370565b6115eb604083018461137f565b949350505050565b6000602082019050818103600083015261160c81611446565b9050919050565b6000602082019050818103600083015261162c81611469565b9050919050565b6000602082019050818103600083015261164c8161148c565b9050919050565b6000602082019050818103600083015261166c816114d2565b9050919050565b6000602082019050818103600083015261168c816114f5565b9050919050565b60006020820190506116a86000830184611518565b92915050565b60006116b86116c9565b90506116c482826118e5565b919050565b6000604051905090565b600067ffffffffffffffff8211156116ee576116ed6119cd565b5b602082029050602081019050919050565b600067ffffffffffffffff82111561171a576117196119cd565b5b61172382611a15565b9050602081019050919050565b60008190508160005260206000209050919050565b600081519050919050565b600082825260208201905092915050565b600081905092915050565b60006117778261185a565b91506117828361185a565b9250827fffffffffffffffffffffffffffffffffffffffffffffffffffffffffffffffff038211156117b7576117b6611940565b5b828201905092915050565b60006117cd8261185a565b91506117d88361185a565b9250817fffffffffffffffffffffffffffffffffffffffffffffffffffffffffffffffff048311821515161561181157611810611940565b5b828202905092915050565b60006118278261183a565b9050919050565b60008115159050919050565b600073ffffffffffffffffffffffffffffffffffffffff82169050919050565b6000819050919050565b600060ff82169050919050565b82818337600083830152505050565b60005b8381101561189e578082015181840152602081019050611883565b838111156118ad576000848401525b50505050565b600060028204905060018216806118cb57607f821691505b602082108114156118df576118de61196f565b5b50919050565b6118ee82611a15565b810181811067ffffffffffffffff8211171561190d5761190c6119cd565b5b80604052505050565b600061192182611864565b915060ff82141561193557611934611940565b5b600182019050919050565b7f4e487b7100000000000000000000000000000000000000000000000000000000600052601160045260246000fd5b7f4e487b7100000000000000000000000000000000000000000000000000000000600052602260045260246000fd5b7f4e487b7100000000000000000000000000000000000000000000000000000000600052603260045260246000fd5b7f4e487b7100000000000000000000000000000000000000000000000000000000600052604160045260246000fd5b600080fd5b600080fd5b600080fd5b600080fd5b600080fd5b6000601f19601f8301169050919050565b7f4e6f742072656769737465726564210000000000000000000000000000000000600082015250565b7f566f74696e6720506572696f64206973204f7665722100000000000000000000600082015250565b7f416c726561647920526567697374657265640000000000000000000000000000600082015250565b50565b7f43726561746f722063616e6e6f7420766f746521000000000000000000000000600082015250565b7f4163636f756e7420616c726561647920766f7465642100000000000000000000600082015250565b611aff8161181c565b8114611b0a57600080fd5b50565b611b168161185a565b8114611b2157600080fd5b50565b611b2d81611864565b8114611b3857600080fd5b5056fea2646970667358221220d6f1d27c709d4ab64f4a287bde2206dfeeee27e226831b917f589941e700260864736f6c63430008070033",
			"opcodes": "PUSH1 0x80 PUSH1 0x40 MSTORE PUSH1 0x0 DUP1 PUSH1 0x0 PUSH2 0x100 EXP DUP2 SLOAD DUP2 PUSH1 0xFF MUL NOT AND SWAP1 DUP4 PUSH1 0xFF AND MUL OR SWAP1 SSTORE POP CALLVALUE DUP1 ISZERO PUSH2 0x2B JUMPI PUSH1 0x0 DUP1 REVERT JUMPDEST POP PUSH2 0x1B71 DUP1 PUSH2 0x3B PUSH1 0x0 CODECOPY PUSH1 0x0 RETURN INVALID PUSH1 0x80 PUSH1 0x40 MSTORE CALLVALUE DUP1 ISZERO PUSH2 0x10 JUMPI PUSH1 0x0 DUP1 REVERT JUMPDEST POP PUSH1 0x4 CALLDATASIZE LT PUSH2 0x61 JUMPI PUSH1 0x0 CALLDATALOAD PUSH1 0xE0 SHR DUP1 PUSH3 0x42C438 EQ PUSH2 0x66 JUMPI DUP1 PUSH4 0x36DFFC3C EQ PUSH2 0x98 JUMPI DUP1 PUSH4 0x98568366 EQ PUSH2 0xB4 JUMPI DUP1 PUSH4 0xAC2F0074 EQ PUSH2 0xD2 JUMPI DUP1 PUSH4 0xDF49C4DE EQ PUSH2 0x106 JUMPI DUP1 PUSH4 0xF2C298BE EQ PUSH2 0x122 JUMPI JUMPDEST PUSH1 0x0 DUP1 REVERT JUMPDEST PUSH2 0x80 PUSH1 0x4 DUP1 CALLDATASIZE SUB DUP2 ADD SWAP1 PUSH2 0x7B SWAP2 SWAP1 PUSH2 0x1231 JUMP JUMPDEST PUSH2 0x13E JUMP JUMPDEST PUSH1 0x40 MLOAD PUSH2 0x8F SWAP4 SWAP3 SWAP2 SWAP1 PUSH2 0x15B5 JUMP JUMPDEST PUSH1 0x40 MLOAD DUP1 SWAP2 SUB SWAP1 RETURN JUMPDEST PUSH2 0xB2 PUSH1 0x4 DUP1 CALLDATASIZE SUB DUP2 ADD SWAP1 PUSH2 0xAD SWAP2 SWAP1 PUSH2 0x125E JUMP JUMPDEST PUSH2 0x21D JUMP JUMPDEST STOP JUMPDEST PUSH2 0xBC PUSH2 0x513 JUMP JUMPDEST PUSH1 0x40 MLOAD PUSH2 0xC9 SWAP2 SWAP1 PUSH2 0x1693 JUMP JUMPDEST PUSH1 0x40 MLOAD DUP1 SWAP2 SUB SWAP1 RETURN JUMPDEST PUSH2 0xEC PUSH1 0x4 DUP1 CALLDATASIZE SUB DUP2 ADD SWAP1 PUSH2 0xE7 SWAP2 SWAP1 PUSH2 0x1303 JUMP JUMPDEST PUSH2 0x51B JUMP JUMPDEST PUSH1 0x40 MLOAD PUSH2 0xFD SWAP6 SWAP5 SWAP4 SWAP3 SWAP2 SWAP1 PUSH2 0x1562 JUMP JUMPDEST PUSH1 0x40 MLOAD DUP1 SWAP2 SUB SWAP1 RETURN JUMPDEST PUSH2 0x120 PUSH1 0x4 DUP1 CALLDATASIZE SUB DUP2 ADD SWAP1 PUSH2 0x11B SWAP2 SWAP1 PUSH2 0x1330 JUMP JUMPDEST PUSH2 0x59B JUMP JUMPDEST STOP JUMPDEST PUSH2 0x13C PUSH1 0x4 DUP1 CALLDATASIZE SUB DUP2 ADD SWAP1 PUSH2 0x137 SWAP2 SWAP1 PUSH2 0x12BA JUMP JUMPDEST PUSH2 0xA30 JUMP JUMPDEST STOP JUMPDEST PUSH1 0x2 PUSH1 0x20 MSTORE DUP1 PUSH1 0x0 MSTORE PUSH1 0x40 PUSH1 0x0 KECCAK256 PUSH1 0x0 SWAP2 POP SWAP1 POP DUP1 PUSH1 0x0 ADD DUP1 SLOAD PUSH2 0x161 SWAP1 PUSH2 0x18B3 JUMP JUMPDEST DUP1 PUSH1 0x1F ADD PUSH1 0x20 DUP1 SWAP2 DIV MUL PUSH1 0x20 ADD PUSH1 0x40 MLOAD SWAP1 DUP2 ADD PUSH1 0x40 MSTORE DUP1 SWAP3 SWAP2 SWAP1 DUP2 DUP2 MSTORE PUSH1 0x20 ADD DUP3 DUP1 SLOAD PUSH2 0x18D SWAP1 PUSH2 0x18B3 JUMP JUMPDEST DUP1 ISZERO PUSH2 0x1DA JUMPI DUP1 PUSH1 0x1F LT PUSH2 0x1AF JUMPI PUSH2 0x100 DUP1 DUP4 SLOAD DIV MUL DUP4 MSTORE SWAP2 PUSH1 0x20 ADD SWAP2 PUSH2 0x1DA JUMP JUMPDEST DUP3 ADD SWAP2 SWAP1 PUSH1 0x0 MSTORE PUSH1 0x20 PUSH1 0x0 KECCAK256 SWAP1 JUMPDEST DUP2 SLOAD DUP2 MSTORE SWAP1 PUSH1 0x1 ADD SWAP1 PUSH1 0x20 ADD DUP1 DUP4 GT PUSH2 0x1BD JUMPI DUP3 SWAP1 SUB PUSH1 0x1F AND DUP3 ADD SWAP2 JUMPDEST POP POP POP POP POP SWAP1 DUP1 PUSH1 0x1 ADD PUSH1 0x0 SWAP1 SLOAD SWAP1 PUSH2 0x100 EXP SWAP1 DIV PUSH20 0xFFFFFFFFFFFFFFFFFFFFFFFFFFFFFFFFFFFFFFFF AND SWAP1 DUP1 PUSH1 0x1 ADD PUSH1 0x14 SWAP1 SLOAD SWAP1 PUSH2 0x100 EXP SWAP1 DIV PUSH1 0xFF AND SWAP1 POP DUP4 JUMP JUMPDEST PUSH1 0x0 DUP1 DUP2 DUP2 SWAP1 SLOAD SWAP1 PUSH2 0x100 EXP SWAP1 DIV PUSH1 0xFF AND DUP1 SWAP3 SWAP2 SWAP1 PUSH2 0x23B SWAP1 PUSH2 0x1916 JUMP JUMPDEST SWAP2 SWAP1 PUSH2 0x100 EXP DUP2 SLOAD DUP2 PUSH1 0xFF MUL NOT AND SWAP1 DUP4 PUSH1 0xFF AND MUL OR SWAP1 SSTORE POP POP PUSH1 0x0 PUSH1 0x6 SWAP1 POP CALLER PUSH1 0x6 PUSH1 0x0 ADD PUSH1 0x0 PUSH2 0x100 EXP DUP2 SLOAD DUP2 PUSH20 0xFFFFFFFFFFFFFFFFFFFFFFFFFFFFFFFFFFFFFFFF MUL NOT AND SWAP1 DUP4 PUSH20 0xFFFFFFFFFFFFFFFFFFFFFFFFFFFFFFFFFFFFFFFF AND MUL OR SWAP1 SSTORE POP PUSH1 0x0 DUP1 SLOAD SWAP1 PUSH2 0x100 EXP SWAP1 DIV PUSH1 0xFF AND PUSH1 0x6 PUSH1 0x0 ADD PUSH1 0x14 PUSH2 0x100 EXP DUP2 SLOAD DUP2 PUSH1 0xFF MUL NOT AND SWAP1 DUP4 PUSH1 0xFF AND MUL OR SWAP1 SSTORE POP PUSH1 0x3C DUP3 PUSH2 0x2D6 SWAP2 SWAP1 PUSH2 0x17C2 JUMP JUMPDEST PUSH1 0x6 PUSH1 0x2 ADD DUP2 SWAP1 SSTORE POP PUSH2 0x2E8 TIMESTAMP PUSH2 0xBFA JUMP JUMPDEST DUP2 TIMESTAMP PUSH2 0x2F4 SWAP2 SWAP1 PUSH2 0x176C JUMP JUMPDEST PUSH1 0x6 PUSH1 0x3 ADD DUP2 SWAP1 SSTORE POP PUSH1 0x0 PUSH1 0x3 SWAP1 POP PUSH1 0x0 JUMPDEST DUP5 MLOAD DUP2 PUSH1 0xFF AND LT ISZERO PUSH2 0x3F0 JUMPI DUP5 DUP2 PUSH1 0xFF AND DUP2 MLOAD DUP2 LT PUSH2 0x328 JUMPI PUSH2 0x327 PUSH2 0x199E JUMP JUMPDEST JUMPDEST PUSH1 0x20 MUL PUSH1 0x20 ADD ADD MLOAD DUP3 PUSH1 0x0 ADD SWAP1 DUP1 MLOAD SWAP1 PUSH1 0x20 ADD SWAP1 PUSH2 0x347 SWAP3 SWAP2 SWAP1 PUSH2 0xCBC JUMP JUMPDEST POP DUP3 PUSH1 0x1 ADD DUP3 SWAP1 DUP1 PUSH1 0x1 DUP2 SLOAD ADD DUP1 DUP3 SSTORE DUP1 SWAP2 POP POP PUSH1 0x1 SWAP1 SUB SWAP1 PUSH1 0x0 MSTORE PUSH1 0x20 PUSH1 0x0 KECCAK256 SWAP1 PUSH1 0x3 MUL ADD PUSH1 0x0 SWAP1 SWAP2 SWAP1 SWAP2 SWAP1 SWAP2 POP PUSH1 0x0 DUP3 ADD DUP2 PUSH1 0x0 ADD SWAP1 DUP1 SLOAD PUSH2 0x38A SWAP1 PUSH2 0x18B3 JUMP JUMPDEST PUSH2 0x395 SWAP3 SWAP2 SWAP1 PUSH2 0xD42 JUMP JUMPDEST POP PUSH1 0x1 DUP3 ADD PUSH1 0x0 SWAP1 SLOAD SWAP1 PUSH2 0x100 EXP SWAP1 DIV PUSH1 0xFF AND DUP2 PUSH1 0x1 ADD PUSH1 0x0 PUSH2 0x100 EXP DUP2 SLOAD DUP2 PUSH1 0xFF MUL NOT AND SWAP1 DUP4 PUSH1 0xFF AND MUL OR SWAP1 SSTORE POP PUSH1 0x2 DUP3 ADD DUP2 PUSH1 0x2 ADD SWAP1 DUP1 SLOAD PUSH2 0x3DA SWAP3 SWAP2 SWAP1 PUSH2 0xDCF JUMP JUMPDEST POP POP POP DUP1 DUP1 PUSH2 0x3E8 SWAP1 PUSH2 0x1916 JUMP JUMPDEST SWAP2 POP POP PUSH2 0x306 JUMP JUMPDEST POP PUSH1 0x1 DUP3 SWAP1 DUP1 PUSH1 0x1 DUP2 SLOAD ADD DUP1 DUP3 SSTORE DUP1 SWAP2 POP POP PUSH1 0x1 SWAP1 SUB SWAP1 PUSH1 0x0 MSTORE PUSH1 0x20 PUSH1 0x0 KECCAK256 SWAP1 PUSH1 0x4 MUL ADD PUSH1 0x0 SWAP1 SWAP2 SWAP1 SWAP2 SWAP1 SWAP2 POP PUSH1 0x0 DUP3 ADD PUSH1 0x0 SWAP1 SLOAD SWAP1 PUSH2 0x100 EXP SWAP1 DIV PUSH20 0xFFFFFFFFFFFFFFFFFFFFFFFFFFFFFFFFFFFFFFFF AND DUP2 PUSH1 0x0 ADD PUSH1 0x0 PUSH2 0x100 EXP DUP2 SLOAD DUP2 PUSH20 0xFFFFFFFFFFFFFFFFFFFFFFFFFFFFFFFFFFFFFFFF MUL NOT AND SWAP1 DUP4 PUSH20 0xFFFFFFFFFFFFFFFFFFFFFFFFFFFFFFFFFFFFFFFF AND MUL OR SWAP1 SSTORE POP PUSH1 0x0 DUP3 ADD PUSH1 0x14 SWAP1 SLOAD SWAP1 PUSH2 0x100 EXP SWAP1 DIV PUSH1 0xFF AND DUP2 PUSH1 0x0 ADD PUSH1 0x14 PUSH2 0x100 EXP DUP2 SLOAD DUP2 PUSH1 0xFF MUL NOT AND SWAP1 DUP4 PUSH1 0xFF AND MUL OR SWAP1 SSTORE POP PUSH1 0x0 DUP3 ADD PUSH1 0x15 SWAP1 SLOAD SWAP1 PUSH2 0x100 EXP SWAP1 DIV PUSH1 0xFF AND DUP2 PUSH1 0x0 ADD PUSH1 0x15 PUSH2 0x100 EXP DUP2 SLOAD DUP2 PUSH1 0xFF MUL NOT AND SWAP1 DUP4 PUSH1 0xFF AND MUL OR SWAP1 SSTORE POP PUSH1 0x1 DUP3 ADD DUP2 PUSH1 0x1 ADD SWAP1 DUP1 SLOAD PUSH2 0x4F6 SWAP3 SWAP2 SWAP1 PUSH2 0xEDB JUMP JUMPDEST POP PUSH1 0x2 DUP3 ADD SLOAD DUP2 PUSH1 0x2 ADD SSTORE PUSH1 0x3 DUP3 ADD SLOAD DUP2 PUSH1 0x3 ADD SSTORE POP POP POP POP POP POP JUMP JUMPDEST PUSH1 0x0 TIMESTAMP SWAP1 POP SWAP1 JUMP JUMPDEST PUSH1 0x1 DUP2 DUP2 SLOAD DUP2 LT PUSH2 0x52B JUMPI PUSH1 0x0 DUP1 REVERT JUMPDEST SWAP1 PUSH1 0x0 MSTORE PUSH1 0x20 PUSH1 0x0 KECCAK256 SWAP1 PUSH1 0x4 MUL ADD PUSH1 0x0 SWAP2 POP SWAP1 POP DUP1 PUSH1 0x0 ADD PUSH1 0x0 SWAP1 SLOAD SWAP1 PUSH2 0x100 EXP SWAP1 DIV PUSH20 0xFFFFFFFFFFFFFFFFFFFFFFFFFFFFFFFFFFFFFFFF AND SWAP1 DUP1 PUSH1 0x0 ADD PUSH1 0x14 SWAP1 SLOAD SWAP1 PUSH2 0x100 EXP SWAP1 DIV PUSH1 0xFF AND SWAP1 DUP1 PUSH1 0x0 ADD PUSH1 0x15 SWAP1 SLOAD SWAP1 PUSH2 0x100 EXP SWAP1 DIV PUSH1 0xFF AND SWAP1 DUP1 PUSH1 0x2 ADD SLOAD SWAP1 DUP1 PUSH1 0x3 ADD SLOAD SWAP1 POP DUP6 JUMP JUMPDEST DUP2 PUSH1 0xFF AND PUSH1 0x1 DUP2 DUP2 SLOAD DUP2 LT PUSH2 0x5B3 JUMPI PUSH2 0x5B2 PUSH2 0x199E JUMP JUMPDEST JUMPDEST SWAP1 PUSH1 0x0 MSTORE PUSH1 0x20 PUSH1 0x0 KECCAK256 SWAP1 PUSH1 0x4 MUL ADD PUSH1 0x3 ADD SLOAD TIMESTAMP LT PUSH2 0x606 JUMPI PUSH1 0x40 MLOAD PUSH32 0x8C379A000000000000000000000000000000000000000000000000000000000 DUP2 MSTORE PUSH1 0x4 ADD PUSH2 0x5FD SWAP1 PUSH2 0x1613 JUMP JUMPDEST PUSH1 0x40 MLOAD DUP1 SWAP2 SUB SWAP1 REVERT JUMPDEST CALLER PUSH20 0xFFFFFFFFFFFFFFFFFFFFFFFFFFFFFFFFFFFFFFFF AND PUSH1 0x1 DUP3 DUP2 SLOAD DUP2 LT PUSH2 0x631 JUMPI PUSH2 0x630 PUSH2 0x199E JUMP JUMPDEST JUMPDEST SWAP1 PUSH1 0x0 MSTORE PUSH1 0x20 PUSH1 0x0 KECCAK256 SWAP1 PUSH1 0x4 MUL ADD PUSH1 0x0 ADD PUSH1 0x0 SWAP1 SLOAD SWAP1 PUSH2 0x100 EXP SWAP1 DIV PUSH20 0xFFFFFFFFFFFFFFFFFFFFFFFFFFFFFFFFFFFFFFFF AND PUSH20 0xFFFFFFFFFFFFFFFFFFFFFFFFFFFFFFFFFFFFFFFF AND EQ ISZERO PUSH2 0x6BA JUMPI PUSH1 0x40 MLOAD PUSH32 0x8C379A000000000000000000000000000000000000000000000000000000000 DUP2 MSTORE PUSH1 0x4 ADD PUSH2 0x6B1 SWAP1 PUSH2 0x1653 JUMP JUMPDEST PUSH1 0x40 MLOAD DUP1 SWAP2 SUB SWAP1 REVERT JUMPDEST PUSH1 0x40 MLOAD PUSH1 0x20 ADD PUSH2 0x6C9 SWAP1 PUSH2 0x154D JUMP JUMPDEST PUSH1 0x40 MLOAD PUSH1 0x20 DUP2 DUP4 SUB SUB DUP2 MSTORE SWAP1 PUSH1 0x40 MSTORE DUP1 MLOAD SWAP1 PUSH1 0x20 ADD KECCAK256 PUSH1 0x2 PUSH1 0x0 CALLER PUSH20 0xFFFFFFFFFFFFFFFFFFFFFFFFFFFFFFFFFFFFFFFF AND PUSH20 0xFFFFFFFFFFFFFFFFFFFFFFFFFFFFFFFFFFFFFFFF AND DUP2 MSTORE PUSH1 0x20 ADD SWAP1 DUP2 MSTORE PUSH1 0x20 ADD PUSH1 0x0 KECCAK256 PUSH1 0x0 ADD PUSH1 0x40 MLOAD PUSH1 0x20 ADD PUSH2 0x731 SWAP2 SWAP1 PUSH2 0x1536 JUMP JUMPDEST PUSH1 0x40 MLOAD PUSH1 0x20 DUP2 DUP4 SUB SUB DUP2 MSTORE SWAP1 PUSH1 0x40 MSTORE DUP1 MLOAD SWAP1 PUSH1 0x20 ADD KECCAK256 EQ ISZERO PUSH2 0x788 JUMPI PUSH1 0x40 MLOAD PUSH32 0x8C379A000000000000000000000000000000000000000000000000000000000 DUP2 MSTORE PUSH1 0x4 ADD PUSH2 0x77F SWAP1 PUSH2 0x15F3 JUMP JUMPDEST PUSH1 0x40 MLOAD DUP1 SWAP2 SUB SWAP1 REVERT JUMPDEST PUSH1 0x0 ISZERO ISZERO PUSH1 0x2 PUSH1 0x0 CALLER PUSH20 0xFFFFFFFFFFFFFFFFFFFFFFFFFFFFFFFFFFFFFFFF AND PUSH20 0xFFFFFFFFFFFFFFFFFFFFFFFFFFFFFFFFFFFFFFFF AND DUP2 MSTORE PUSH1 0x20 ADD SWAP1 DUP2 MSTORE PUSH1 0x20 ADD PUSH1 0x0 KECCAK256 PUSH1 0x1 ADD PUSH1 0x14 SWAP1 SLOAD SWAP1 PUSH2 0x100 EXP SWAP1 DIV PUSH1 0xFF AND ISZERO ISZERO EQ PUSH2 0x81E JUMPI PUSH1 0x40 MLOAD PUSH32 0x8C379A000000000000000000000000000000000000000000000000000000000 DUP2 MSTORE PUSH1 0x4 ADD PUSH2 0x815 SWAP1 PUSH2 0x1673 JUMP JUMPDEST PUSH1 0x40 MLOAD DUP1 SWAP2 SUB SWAP1 REVERT JUMPDEST PUSH1 0x0 PUSH1 0x1 DUP5 PUSH1 0xFF AND DUP2 SLOAD DUP2 LT PUSH2 0x837 JUMPI PUSH2 0x836 PUSH2 0x199E JUMP JUMPDEST JUMPDEST SWAP1 PUSH1 0x0 MSTORE PUSH1 0x20 PUSH1 0x0 KECCAK256 SWAP1 PUSH1 0x4 MUL ADD SWAP1 POP PUSH1 0x0 DUP2 PUSH1 0x1 ADD DUP5 PUSH1 0xFF AND DUP2 SLOAD DUP2 LT PUSH2 0x862 JUMPI PUSH2 0x861 PUSH2 0x199E JUMP JUMPDEST JUMPDEST SWAP1 PUSH1 0x0 MSTORE PUSH1 0x20 PUSH1 0x0 KECCAK256 SWAP1 PUSH1 0x3 MUL ADD SWAP1 POP DUP1 PUSH1 0x1 ADD PUSH1 0x0 DUP2 DUP2 SWAP1 SLOAD SWAP1 PUSH2 0x100 EXP SWAP1 DIV PUSH1 0xFF AND DUP1 SWAP3 SWAP2 SWAP1 PUSH2 0x893 SWAP1 PUSH2 0x1916 JUMP JUMPDEST SWAP2 SWAP1 PUSH2 0x100 EXP DUP2 SLOAD DUP2 PUSH1 0xFF MUL NOT AND SWAP1 DUP4 PUSH1 0xFF AND MUL OR SWAP1 SSTORE POP POP DUP1 PUSH1 0x2 ADD PUSH1 0x2 PUSH1 0x0 CALLER PUSH20 0xFFFFFFFFFFFFFFFFFFFFFFFFFFFFFFFFFFFFFFFF AND PUSH20 0xFFFFFFFFFFFFFFFFFFFFFFFFFFFFFFFFFFFFFFFF AND DUP2 MSTORE PUSH1 0x20 ADD SWAP1 DUP2 MSTORE PUSH1 0x20 ADD PUSH1 0x0 KECCAK256 SWAP1 DUP1 PUSH1 0x1 DUP2 SLOAD ADD DUP1 DUP3 SSTORE DUP1 SWAP2 POP POP PUSH1 0x1 SWAP1 SUB SWAP1 PUSH1 0x0 MSTORE PUSH1 0x20 PUSH1 0x0 KECCAK256 SWAP1 PUSH1 0x2 MUL ADD PUSH1 0x0 SWAP1 SWAP2 SWAP1 SWAP2 SWAP1 SWAP2 POP PUSH1 0x0 DUP3 ADD DUP2 PUSH1 0x0 ADD SWAP1 DUP1 SLOAD PUSH2 0x92C SWAP1 PUSH2 0x18B3 JUMP JUMPDEST PUSH2 0x937 SWAP3 SWAP2 SWAP1 PUSH2 0xD42 JUMP JUMPDEST POP PUSH1 0x1 DUP3 ADD PUSH1 0x0 SWAP1 SLOAD SWAP1 PUSH2 0x100 EXP SWAP1 DIV PUSH20 0xFFFFFFFFFFFFFFFFFFFFFFFFFFFFFFFFFFFFFFFF AND DUP2 PUSH1 0x1 ADD PUSH1 0x0 PUSH2 0x100 EXP DUP2 SLOAD DUP2 PUSH20 0xFFFFFFFFFFFFFFFFFFFFFFFFFFFFFFFFFFFFFFFF MUL NOT AND SWAP1 DUP4 PUSH20 0xFFFFFFFFFFFFFFFFFFFFFFFFFFFFFFFFFFFFFFFF AND MUL OR SWAP1 SSTORE POP PUSH1 0x1 DUP3 ADD PUSH1 0x14 SWAP1 SLOAD SWAP1 PUSH2 0x100 EXP SWAP1 DIV PUSH1 0xFF AND DUP2 PUSH1 0x1 ADD PUSH1 0x14 PUSH2 0x100 EXP DUP2 SLOAD DUP2 PUSH1 0xFF MUL NOT AND SWAP1 DUP4 ISZERO ISZERO MUL OR SWAP1 SSTORE POP POP POP PUSH1 0x1 PUSH1 0x2 PUSH1 0x0 CALLER PUSH20 0xFFFFFFFFFFFFFFFFFFFFFFFFFFFFFFFFFFFFFFFF AND PUSH20 0xFFFFFFFFFFFFFFFFFFFFFFFFFFFFFFFFFFFFFFFF AND DUP2 MSTORE PUSH1 0x20 ADD SWAP1 DUP2 MSTORE PUSH1 0x20 ADD PUSH1 0x0 KECCAK256 PUSH1 0x1 ADD PUSH1 0x14 PUSH2 0x100 EXP DUP2 SLOAD DUP2 PUSH1 0xFF MUL NOT AND SWAP1 DUP4 ISZERO ISZERO MUL OR SWAP1 SSTORE POP POP POP POP POP POP JUMP JUMPDEST PUSH1 0x40 MLOAD PUSH1 0x20 ADD PUSH2 0xA3F SWAP1 PUSH2 0x154D JUMP JUMPDEST PUSH1 0x40 MLOAD PUSH1 0x20 DUP2 DUP4 SUB SUB DUP2 MSTORE SWAP1 PUSH1 0x40 MSTORE DUP1 MLOAD SWAP1 PUSH1 0x20 ADD KECCAK256 PUSH1 0x2 PUSH1 0x0 CALLER PUSH20 0xFFFFFFFFFFFFFFFFFFFFFFFFFFFFFFFFFFFFFFFF AND PUSH20 0xFFFFFFFFFFFFFFFFFFFFFFFFFFFFFFFFFFFFFFFF AND DUP2 MSTORE PUSH1 0x20 ADD SWAP1 DUP2 MSTORE PUSH1 0x20 ADD PUSH1 0x0 KECCAK256 PUSH1 0x0 ADD PUSH1 0x40 MLOAD PUSH1 0x20 ADD PUSH2 0xAA7 SWAP2 SWAP1 PUSH2 0x1536 JUMP JUMPDEST PUSH1 0x40 MLOAD PUSH1 0x20 DUP2 DUP4 SUB SUB DUP2 MSTORE SWAP1 PUSH1 0x40 MSTORE DUP1 MLOAD SWAP1 PUSH1 0x20 ADD KECCAK256 EQ PUSH2 0xAFD JUMPI PUSH1 0x40 MLOAD PUSH32 0x8C379A000000000000000000000000000000000000000000000000000000000 DUP2 MSTORE PUSH1 0x4 ADD PUSH2 0xAF4 SWAP1 PUSH2 0x1633 JUMP JUMPDEST PUSH1 0x40 MLOAD DUP1 SWAP2 SUB SWAP1 REVERT JUMPDEST PUSH1 0x40 MLOAD DUP1 PUSH1 0x60 ADD PUSH1 0x40 MSTORE DUP1 DUP3 DUP2 MSTORE PUSH1 0x20 ADD CALLER PUSH20 0xFFFFFFFFFFFFFFFFFFFFFFFFFFFFFFFFFFFFFFFF AND DUP2 MSTORE PUSH1 0x20 ADD PUSH1 0x0 ISZERO ISZERO DUP2 MSTORE POP PUSH1 0x2 PUSH1 0x0 CALLER PUSH20 0xFFFFFFFFFFFFFFFFFFFFFFFFFFFFFFFFFFFFFFFF AND PUSH20 0xFFFFFFFFFFFFFFFFFFFFFFFFFFFFFFFFFFFFFFFF AND DUP2 MSTORE PUSH1 0x20 ADD SWAP1 DUP2 MSTORE PUSH1 0x20 ADD PUSH1 0x0 KECCAK256 PUSH1 0x0 DUP3 ADD MLOAD DUP2 PUSH1 0x0 ADD SWAP1 DUP1 MLOAD SWAP1 PUSH1 0x20 ADD SWAP1 PUSH2 0xB8C SWAP3 SWAP2 SWAP1 PUSH2 0xCBC JUMP JUMPDEST POP PUSH1 0x20 DUP3 ADD MLOAD DUP2 PUSH1 0x1 ADD PUSH1 0x0 PUSH2 0x100 EXP DUP2 SLOAD DUP2 PUSH20 0xFFFFFFFFFFFFFFFFFFFFFFFFFFFFFFFFFFFFFFFF MUL NOT AND SWAP1 DUP4 PUSH20 0xFFFFFFFFFFFFFFFFFFFFFFFFFFFFFFFFFFFFFFFF AND MUL OR SWAP1 SSTORE POP PUSH1 0x40 DUP3 ADD MLOAD DUP2 PUSH1 0x1 ADD PUSH1 0x14 PUSH2 0x100 EXP DUP2 SLOAD DUP2 PUSH1 0xFF MUL NOT AND SWAP1 DUP4 ISZERO ISZERO MUL OR SWAP1 SSTORE POP SWAP1 POP POP POP JUMP JUMPDEST PUSH2 0xC90 DUP2 PUSH1 0x40 MLOAD PUSH1 0x24 ADD PUSH2 0xC0E SWAP2 SWAP1 PUSH2 0x1693 JUMP JUMPDEST PUSH1 0x40 MLOAD PUSH1 0x20 DUP2 DUP4 SUB SUB DUP2 MSTORE SWAP1 PUSH1 0x40 MSTORE PUSH32 0xF82C50F100000000000000000000000000000000000000000000000000000000 PUSH28 0xFFFFFFFFFFFFFFFFFFFFFFFFFFFFFFFFFFFFFFFFFFFFFFFFFFFFFFFF NOT AND PUSH1 0x20 DUP3 ADD DUP1 MLOAD PUSH28 0xFFFFFFFFFFFFFFFFFFFFFFFFFFFFFFFFFFFFFFFFFFFFFFFFFFFFFFFF DUP4 DUP2 DUP4 AND OR DUP4 MSTORE POP POP POP POP PUSH2 0xC93 JUMP JUMPDEST POP JUMP JUMPDEST PUSH1 0x0 DUP2 MLOAD SWAP1 POP PUSH1 0x0 PUSH11 0x636F6E736F6C652E6C6F67 SWAP1 POP PUSH1 0x20 DUP4 ADD PUSH1 0x0 DUP1 DUP5 DUP4 DUP6 GAS STATICCALL POP POP POP POP POP JUMP JUMPDEST DUP3 DUP1 SLOAD PUSH2 0xCC8 SWAP1 PUSH2 0x18B3 JUMP JUMPDEST SWAP1 PUSH1 0x0 MSTORE PUSH1 0x20 PUSH1 0x0 KECCAK256 SWAP1 PUSH1 0x1F ADD PUSH1 0x20 SWAP1 DIV DUP2 ADD SWAP3 DUP3 PUSH2 0xCEA JUMPI PUSH1 0x0 DUP6 SSTORE PUSH2 0xD31 JUMP JUMPDEST DUP3 PUSH1 0x1F LT PUSH2 0xD03 JUMPI DUP1 MLOAD PUSH1 0xFF NOT AND DUP4 DUP1 ADD OR DUP6 SSTORE PUSH2 0xD31 JUMP JUMPDEST DUP3 DUP1 ADD PUSH1 0x1 ADD DUP6 SSTORE DUP3 ISZERO PUSH2 0xD31 JUMPI SWAP2 DUP3 ADD JUMPDEST DUP3 DUP2 GT ISZERO PUSH2 0xD30 JUMPI DUP3 MLOAD DUP3 SSTORE SWAP2 PUSH1 0x20 ADD SWAP2 SWAP1 PUSH1 0x1 ADD SWAP1 PUSH2 0xD15 JUMP JUMPDEST JUMPDEST POP SWAP1 POP PUSH2 0xD3E SWAP2 SWAP1 PUSH2 0xF98 JUMP JUMPDEST POP SWAP1 JUMP JUMPDEST DUP3 DUP1 SLOAD PUSH2 0xD4E SWAP1 PUSH2 0x18B3 JUMP JUMPDEST SWAP1 PUSH1 0x0 MSTORE PUSH1 0x20 PUSH1 0x0 KECCAK256 SWAP1 PUSH1 0x1F ADD PUSH1 0x20 SWAP1 DIV DUP2 ADD SWAP3 DUP3 PUSH2 0xD70 JUMPI PUSH1 0x0 DUP6 SSTORE PUSH2 0xDBE JUMP JUMPDEST DUP3 PUSH1 0x1F LT PUSH2 0xD81 JUMPI DUP1 SLOAD DUP6 SSTORE PUSH2 0xDBE JUMP JUMPDEST DUP3 DUP1 ADD PUSH1 0x1 ADD DUP6 SSTORE DUP3 ISZERO PUSH2 0xDBE JUMPI PUSH1 0x0 MSTORE PUSH1 0x20 PUSH1 0x0 KECCAK256 SWAP2 PUSH1 0x1F ADD PUSH1 0x20 SWAP1 DIV DUP3 ADD JUMPDEST DUP3 DUP2 GT ISZERO PUSH2 0xDBD JUMPI DUP3 SLOAD DUP3 SSTORE SWAP2 PUSH1 0x1 ADD SWAP2 SWAP1 PUSH1 0x1 ADD SWAP1 PUSH2 0xDA2 JUMP JUMPDEST JUMPDEST POP SWAP1 POP PUSH2 0xDCB SWAP2 SWAP1 PUSH2 0xF98 JUMP JUMPDEST POP SWAP1 JUMP JUMPDEST DUP3 DUP1 SLOAD DUP3 DUP3 SSTORE SWAP1 PUSH1 0x0 MSTORE PUSH1 0x20 PUSH1 0x0 KECCAK256 SWAP1 PUSH1 0x2 MUL DUP2 ADD SWAP3 DUP3 ISZERO PUSH2 0xECA JUMPI PUSH1 0x0 MSTORE PUSH1 0x20 PUSH1 0x0 KECCAK256 SWAP2 PUSH1 0x2 MUL DUP3 ADD JUMPDEST DUP3 DUP2 GT ISZERO PUSH2 0xEC9 JUMPI DUP3 DUP3 PUSH1 0x0 DUP3 ADD DUP2 PUSH1 0x0 ADD SWAP1 DUP1 SLOAD PUSH2 0xE18 SWAP1 PUSH2 0x18B3 JUMP JUMPDEST PUSH2 0xE23 SWAP3 SWAP2 SWAP1 PUSH2 0xD42 JUMP JUMPDEST POP PUSH1 0x1 DUP3 ADD PUSH1 0x0 SWAP1 SLOAD SWAP1 PUSH2 0x100 EXP SWAP1 DIV PUSH20 0xFFFFFFFFFFFFFFFFFFFFFFFFFFFFFFFFFFFFFFFF AND DUP2 PUSH1 0x1 ADD PUSH1 0x0 PUSH2 0x100 EXP DUP2 SLOAD DUP2 PUSH20 0xFFFFFFFFFFFFFFFFFFFFFFFFFFFFFFFFFFFFFFFF MUL NOT AND SWAP1 DUP4 PUSH20 0xFFFFFFFFFFFFFFFFFFFFFFFFFFFFFFFFFFFFFFFF AND MUL OR SWAP1 SSTORE POP PUSH1 0x1 DUP3 ADD PUSH1 0x14 SWAP1 SLOAD SWAP1 PUSH2 0x100 EXP SWAP1 DIV PUSH1 0xFF AND DUP2 PUSH1 0x1 ADD PUSH1 0x14 PUSH2 0x100 EXP DUP2 SLOAD DUP2 PUSH1 0xFF MUL NOT AND SWAP1 DUP4 ISZERO ISZERO MUL OR SWAP1 SSTORE POP POP POP SWAP2 PUSH1 0x2 ADD SWAP2 SWAP1 PUSH1 0x2 ADD SWAP1 PUSH2 0xDFA JUMP JUMPDEST JUMPDEST POP SWAP1 POP PUSH2 0xED7 SWAP2 SWAP1 PUSH2 0xFB5 JUMP JUMPDEST POP SWAP1 JUMP JUMPDEST DUP3 DUP1 SLOAD DUP3 DUP3 SSTORE SWAP1 PUSH1 0x0 MSTORE PUSH1 0x20 PUSH1 0x0 KECCAK256 SWAP1 PUSH1 0x3 MUL DUP2 ADD SWAP3 DUP3 ISZERO PUSH2 0xF87 JUMPI PUSH1 0x0 MSTORE PUSH1 0x20 PUSH1 0x0 KECCAK256 SWAP2 PUSH1 0x3 MUL DUP3 ADD JUMPDEST DUP3 DUP2 GT ISZERO PUSH2 0xF86 JUMPI DUP3 DUP3 PUSH1 0x0 DUP3 ADD DUP2 PUSH1 0x0 ADD SWAP1 DUP1 SLOAD PUSH2 0xF24 SWAP1 PUSH2 0x18B3 JUMP JUMPDEST PUSH2 0xF2F SWAP3 SWAP2 SWAP1 PUSH2 0xD42 JUMP JUMPDEST POP PUSH1 0x1 DUP3 ADD PUSH1 0x0 SWAP1 SLOAD SWAP1 PUSH2 0x100 EXP SWAP1 DIV PUSH1 0xFF AND DUP2 PUSH1 0x1 ADD PUSH1 0x0 PUSH2 0x100 EXP DUP2 SLOAD DUP2 PUSH1 0xFF MUL NOT AND SWAP1 DUP4 PUSH1 0xFF AND MUL OR SWAP1 SSTORE POP PUSH1 0x2 DUP3 ADD DUP2 PUSH1 0x2 ADD SWAP1 DUP1 SLOAD PUSH2 0xF74 SWAP3 SWAP2 SWAP1 PUSH2 0xDCF JUMP JUMPDEST POP POP POP SWAP2 PUSH1 0x3 ADD SWAP2 SWAP1 PUSH1 0x3 ADD SWAP1 PUSH2 0xF06 JUMP JUMPDEST JUMPDEST POP SWAP1 POP PUSH2 0xF94 SWAP2 SWAP1 PUSH2 0x1017 JUMP JUMPDEST POP SWAP1 JUMP JUMPDEST JUMPDEST DUP1 DUP3 GT ISZERO PUSH2 0xFB1 JUMPI PUSH1 0x0 DUP2 PUSH1 0x0 SWAP1 SSTORE POP PUSH1 0x1 ADD PUSH2 0xF99 JUMP JUMPDEST POP SWAP1 JUMP JUMPDEST JUMPDEST DUP1 DUP3 GT ISZERO PUSH2 0x1013 JUMPI PUSH1 0x0 DUP1 DUP3 ADD PUSH1 0x0 PUSH2 0xFCF SWAP2 SWAP1 PUSH2 0x1062 JUMP JUMPDEST PUSH1 0x1 DUP3 ADD PUSH1 0x0 PUSH2 0x100 EXP DUP2 SLOAD SWAP1 PUSH20 0xFFFFFFFFFFFFFFFFFFFFFFFFFFFFFFFFFFFFFFFF MUL NOT AND SWAP1 SSTORE PUSH1 0x1 DUP3 ADD PUSH1 0x14 PUSH2 0x100 EXP DUP2 SLOAD SWAP1 PUSH1 0xFF MUL NOT AND SWAP1 SSTORE POP PUSH1 0x2 ADD PUSH2 0xFB6 JUMP JUMPDEST POP SWAP1 JUMP JUMPDEST JUMPDEST DUP1 DUP3 GT ISZERO PUSH2 0x105E JUMPI PUSH1 0x0 DUP1 DUP3 ADD PUSH1 0x0 PUSH2 0x1031 SWAP2 SWAP1 PUSH2 0x1062 JUMP JUMPDEST PUSH1 0x1 DUP3 ADD PUSH1 0x0 PUSH2 0x100 EXP DUP2 SLOAD SWAP1 PUSH1 0xFF MUL NOT AND SWAP1 SSTORE PUSH1 0x2 DUP3 ADD PUSH1 0x0 PUSH2 0x1055 SWAP2 SWAP1 PUSH2 0x10A2 JUMP JUMPDEST POP PUSH1 0x3 ADD PUSH2 0x1018 JUMP JUMPDEST POP SWAP1 JUMP JUMPDEST POP DUP1 SLOAD PUSH2 0x106E SWAP1 PUSH2 0x18B3 JUMP JUMPDEST PUSH1 0x0 DUP3 SSTORE DUP1 PUSH1 0x1F LT PUSH2 0x1080 JUMPI POP PUSH2 0x109F JUMP JUMPDEST PUSH1 0x1F ADD PUSH1 0x20 SWAP1 DIV SWAP1 PUSH1 0x0 MSTORE PUSH1 0x20 PUSH1 0x0 KECCAK256 SWAP1 DUP2 ADD SWAP1 PUSH2 0x109E SWAP2 SWAP1 PUSH2 0xF98 JUMP JUMPDEST JUMPDEST POP JUMP JUMPDEST POP DUP1 SLOAD PUSH1 0x0 DUP3 SSTORE PUSH1 0x2 MUL SWAP1 PUSH1 0x0 MSTORE PUSH1 0x20 PUSH1 0x0 KECCAK256 SWAP1 DUP2 ADD SWAP1 PUSH2 0x10C3 SWAP2 SWAP1 PUSH2 0xFB5 JUMP JUMPDEST POP JUMP JUMPDEST PUSH1 0x0 PUSH2 0x10D9 PUSH2 0x10D4 DUP5 PUSH2 0x16D3 JUMP JUMPDEST PUSH2 0x16AE JUMP JUMPDEST SWAP1 POP DUP1 DUP4 DUP3 MSTORE PUSH1 0x20 DUP3 ADD SWAP1 POP DUP3 DUP6 PUSH1 0x20 DUP7 MUL DUP3 ADD GT ISZERO PUSH2 0x10FC JUMPI PUSH2 0x10FB PUSH2 0x1A01 JUMP JUMPDEST JUMPDEST PUSH1 0x0 JUMPDEST DUP6 DUP2 LT ISZERO PUSH2 0x114A JUMPI DUP2 CALLDATALOAD PUSH8 0xFFFFFFFFFFFFFFFF DUP2 GT ISZERO PUSH2 0x1122 JUMPI PUSH2 0x1121 PUSH2 0x19FC JUMP JUMPDEST JUMPDEST DUP1 DUP7 ADD PUSH2 0x112F DUP10 DUP3 PUSH2 0x11D9 JUMP JUMPDEST DUP6 MSTORE PUSH1 0x20 DUP6 ADD SWAP5 POP PUSH1 0x20 DUP5 ADD SWAP4 POP POP POP PUSH1 0x1 DUP2 ADD SWAP1 POP PUSH2 0x10FF JUMP JUMPDEST POP POP POP SWAP4 SWAP3 POP POP POP JUMP JUMPDEST PUSH1 0x0 PUSH2 0x1167 PUSH2 0x1162 DUP5 PUSH2 0x16FF JUMP JUMPDEST PUSH2 0x16AE JUMP JUMPDEST SWAP1 POP DUP3 DUP2 MSTORE PUSH1 0x20 DUP2 ADD DUP5 DUP5 DUP5 ADD GT ISZERO PUSH2 0x1183 JUMPI PUSH2 0x1182 PUSH2 0x1A06 JUMP JUMPDEST JUMPDEST PUSH2 0x118E DUP5 DUP3 DUP6 PUSH2 0x1871 JUMP JUMPDEST POP SWAP4 SWAP3 POP POP POP JUMP JUMPDEST PUSH1 0x0 DUP2 CALLDATALOAD SWAP1 POP PUSH2 0x11A5 DUP2 PUSH2 0x1AF6 JUMP JUMPDEST SWAP3 SWAP2 POP POP JUMP JUMPDEST PUSH1 0x0 DUP3 PUSH1 0x1F DUP4 ADD SLT PUSH2 0x11C0 JUMPI PUSH2 0x11BF PUSH2 0x19FC JUMP JUMPDEST JUMPDEST DUP2 CALLDATALOAD PUSH2 0x11D0 DUP5 DUP3 PUSH1 0x20 DUP7 ADD PUSH2 0x10C6 JUMP JUMPDEST SWAP2 POP POP SWAP3 SWAP2 POP POP JUMP JUMPDEST PUSH1 0x0 DUP3 PUSH1 0x1F DUP4 ADD SLT PUSH2 0x11EE JUMPI PUSH2 0x11ED PUSH2 0x19FC JUMP JUMPDEST JUMPDEST DUP2 CALLDATALOAD PUSH2 0x11FE DUP5 DUP3 PUSH1 0x20 DUP7 ADD PUSH2 0x1154 JUMP JUMPDEST SWAP2 POP POP SWAP3 SWAP2 POP POP JUMP JUMPDEST PUSH1 0x0 DUP2 CALLDATALOAD SWAP1 POP PUSH2 0x1216 DUP2 PUSH2 0x1B0D JUMP JUMPDEST SWAP3 SWAP2 POP POP JUMP JUMPDEST PUSH1 0x0 DUP2 CALLDATALOAD SWAP1 POP PUSH2 0x122B DUP2 PUSH2 0x1B24 JUMP JUMPDEST SWAP3 SWAP2 POP POP JUMP JUMPDEST PUSH1 0x0 PUSH1 0x20 DUP3 DUP5 SUB SLT ISZERO PUSH2 0x1247 JUMPI PUSH2 0x1246 PUSH2 0x1A10 JUMP JUMPDEST JUMPDEST PUSH1 0x0 PUSH2 0x1255 DUP5 DUP3 DUP6 ADD PUSH2 0x1196 JUMP JUMPDEST SWAP2 POP POP SWAP3 SWAP2 POP POP JUMP JUMPDEST PUSH1 0x0 DUP1 PUSH1 0x40 DUP4 DUP6 SUB SLT ISZERO PUSH2 0x1275 JUMPI PUSH2 0x1274 PUSH2 0x1A10 JUMP JUMPDEST JUMPDEST PUSH1 0x0 DUP4 ADD CALLDATALOAD PUSH8 0xFFFFFFFFFFFFFFFF DUP2 GT ISZERO PUSH2 0x1293 JUMPI PUSH2 0x1292 PUSH2 0x1A0B JUMP JUMPDEST JUMPDEST PUSH2 0x129F DUP6 DUP3 DUP7 ADD PUSH2 0x11AB JUMP JUMPDEST SWAP3 POP POP PUSH1 0x20 PUSH2 0x12B0 DUP6 DUP3 DUP7 ADD PUSH2 0x1207 JUMP JUMPDEST SWAP2 POP POP SWAP3 POP SWAP3 SWAP1 POP JUMP JUMPDEST PUSH1 0x0 PUSH1 0x20 DUP3 DUP5 SUB SLT ISZERO PUSH2 0x12D0 JUMPI PUSH2 0x12CF PUSH2 0x1A10 JUMP JUMPDEST JUMPDEST PUSH1 0x0 DUP3 ADD CALLDATALOAD PUSH8 0xFFFFFFFFFFFFFFFF DUP2 GT ISZERO PUSH2 0x12EE JUMPI PUSH2 0x12ED PUSH2 0x1A0B JUMP JUMPDEST JUMPDEST PUSH2 0x12FA DUP5 DUP3 DUP6 ADD PUSH2 0x11D9 JUMP JUMPDEST SWAP2 POP POP SWAP3 SWAP2 POP POP JUMP JUMPDEST PUSH1 0x0 PUSH1 0x20 DUP3 DUP5 SUB SLT ISZERO PUSH2 0x1319 JUMPI PUSH2 0x1318 PUSH2 0x1A10 JUMP JUMPDEST JUMPDEST PUSH1 0x0 PUSH2 0x1327 DUP5 DUP3 DUP6 ADD PUSH2 0x1207 JUMP JUMPDEST SWAP2 POP POP SWAP3 SWAP2 POP POP JUMP JUMPDEST PUSH1 0x0 DUP1 PUSH1 0x40 DUP4 DUP6 SUB SLT ISZERO PUSH2 0x1347 JUMPI PUSH2 0x1346 PUSH2 0x1A10 JUMP JUMPDEST JUMPDEST PUSH1 0x0 PUSH2 0x1355 DUP6 DUP3 DUP7 ADD PUSH2 0x121C JUMP JUMPDEST SWAP3 POP POP PUSH1 0x20 PUSH2 0x1366 DUP6 DUP3 DUP7 ADD PUSH2 0x121C JUMP JUMPDEST SWAP2 POP POP SWAP3 POP SWAP3 SWAP1 POP JUMP JUMPDEST PUSH2 0x1379 DUP2 PUSH2 0x181C JUMP JUMPDEST DUP3 MSTORE POP POP JUMP JUMPDEST PUSH2 0x1388 DUP2 PUSH2 0x182E JUMP JUMPDEST DUP3 MSTORE POP POP JUMP JUMPDEST PUSH1 0x0 PUSH2 0x1399 DUP3 PUSH2 0x1745 JUMP JUMPDEST PUSH2 0x13A3 DUP2 DUP6 PUSH2 0x1750 JUMP JUMPDEST SWAP4 POP PUSH2 0x13B3 DUP2 DUP6 PUSH1 0x20 DUP7 ADD PUSH2 0x1880 JUMP JUMPDEST PUSH2 0x13BC DUP2 PUSH2 0x1A15 JUMP JUMPDEST DUP5 ADD SWAP2 POP POP SWAP3 SWAP2 POP POP JUMP JUMPDEST PUSH1 0x0 DUP2 SLOAD PUSH2 0x13D4 DUP2 PUSH2 0x18B3 JUMP JUMPDEST PUSH2 0x13DE DUP2 DUP7 PUSH2 0x1761 JUMP JUMPDEST SWAP5 POP PUSH1 0x1 DUP3 AND PUSH1 0x0 DUP2 EQ PUSH2 0x13F9 JUMPI PUSH1 0x1 DUP2 EQ PUSH2 0x140A JUMPI PUSH2 0x143D JUMP JUMPDEST PUSH1 0xFF NOT DUP4 AND DUP7 MSTORE DUP2 DUP7 ADD SWAP4 POP PUSH2 0x143D JUMP JUMPDEST PUSH2 0x1413 DUP6 PUSH2 0x1730 JUMP JUMPDEST PUSH1 0x0 JUMPDEST DUP4 DUP2 LT ISZERO PUSH2 0x1435 JUMPI DUP2 SLOAD DUP2 DUP10 ADD MSTORE PUSH1 0x1 DUP3 ADD SWAP2 POP PUSH1 0x20 DUP2 ADD SWAP1 POP PUSH2 0x1416 JUMP JUMPDEST DUP4 DUP9 ADD SWAP6 POP POP POP JUMPDEST POP POP POP SWAP3 SWAP2 POP POP JUMP JUMPDEST PUSH1 0x0 PUSH2 0x1453 PUSH1 0xF DUP4 PUSH2 0x1750 JUMP JUMPDEST SWAP2 POP PUSH2 0x145E DUP3 PUSH2 0x1A26 JUMP JUMPDEST PUSH1 0x20 DUP3 ADD SWAP1 POP SWAP2 SWAP1 POP JUMP JUMPDEST PUSH1 0x0 PUSH2 0x1476 PUSH1 0x16 DUP4 PUSH2 0x1750 JUMP JUMPDEST SWAP2 POP PUSH2 0x1481 DUP3 PUSH2 0x1A4F JUMP JUMPDEST PUSH1 0x20 DUP3 ADD SWAP1 POP SWAP2 SWAP1 POP JUMP JUMPDEST PUSH1 0x0 PUSH2 0x1499 PUSH1 0x12 DUP4 PUSH2 0x1750 JUMP JUMPDEST SWAP2 POP PUSH2 0x14A4 DUP3 PUSH2 0x1A78 JUMP JUMPDEST PUSH1 0x20 DUP3 ADD SWAP1 POP SWAP2 SWAP1 POP JUMP JUMPDEST PUSH1 0x0 PUSH2 0x14BC PUSH1 0x0 DUP4 PUSH2 0x1761 JUMP JUMPDEST SWAP2 POP PUSH2 0x14C7 DUP3 PUSH2 0x1AA1 JUMP JUMPDEST PUSH1 0x0 DUP3 ADD SWAP1 POP SWAP2 SWAP1 POP JUMP JUMPDEST PUSH1 0x0 PUSH2 0x14DF PUSH1 0x14 DUP4 PUSH2 0x1750 JUMP JUMPDEST SWAP2 POP PUSH2 0x14EA DUP3 PUSH2 0x1AA4 JUMP JUMPDEST PUSH1 0x20 DUP3 ADD SWAP1 POP SWAP2 SWAP1 POP JUMP JUMPDEST PUSH1 0x0 PUSH2 0x1502 PUSH1 0x16 DUP4 PUSH2 0x1750 JUMP JUMPDEST SWAP2 POP PUSH2 0x150D DUP3 PUSH2 0x1ACD JUMP JUMPDEST PUSH1 0x20 DUP3 ADD SWAP1 POP SWAP2 SWAP1 POP JUMP JUMPDEST PUSH2 0x1521 DUP2 PUSH2 0x185A JUMP JUMPDEST DUP3 MSTORE POP POP JUMP JUMPDEST PUSH2 0x1530 DUP2 PUSH2 0x1864 JUMP JUMPDEST DUP3 MSTORE POP POP JUMP JUMPDEST PUSH1 0x0 PUSH2 0x1542 DUP3 DUP5 PUSH2 0x13C7 JUMP JUMPDEST SWAP2 POP DUP2 SWAP1 POP SWAP3 SWAP2 POP POP JUMP JUMPDEST PUSH1 0x0 PUSH2 0x1558 DUP3 PUSH2 0x14AF JUMP JUMPDEST SWAP2 POP DUP2 SWAP1 POP SWAP2 SWAP1 POP JUMP JUMPDEST PUSH1 0x0 PUSH1 0xA0 DUP3 ADD SWAP1 POP PUSH2 0x1577 PUSH1 0x0 DUP4 ADD DUP9 PUSH2 0x1370 JUMP JUMPDEST PUSH2 0x1584 PUSH1 0x20 DUP4 ADD DUP8 PUSH2 0x1527 JUMP JUMPDEST PUSH2 0x1591 PUSH1 0x40 DUP4 ADD DUP7 PUSH2 0x1527 JUMP JUMPDEST PUSH2 0x159E PUSH1 0x60 DUP4 ADD DUP6 PUSH2 0x1518 JUMP JUMPDEST PUSH2 0x15AB PUSH1 0x80 DUP4 ADD DUP5 PUSH2 0x1518 JUMP JUMPDEST SWAP7 SWAP6 POP POP POP POP POP POP JUMP JUMPDEST PUSH1 0x0 PUSH1 0x60 DUP3 ADD SWAP1 POP DUP2 DUP2 SUB PUSH1 0x0 DUP4 ADD MSTORE PUSH2 0x15CF DUP2 DUP7 PUSH2 0x138E JUMP JUMPDEST SWAP1 POP PUSH2 0x15DE PUSH1 0x20 DUP4 ADD DUP6 PUSH2 0x1370 JUMP JUMPDEST PUSH2 0x15EB PUSH1 0x40 DUP4 ADD DUP5 PUSH2 0x137F JUMP JUMPDEST SWAP5 SWAP4 POP POP POP POP JUMP JUMPDEST PUSH1 0x0 PUSH1 0x20 DUP3 ADD SWAP1 POP DUP2 DUP2 SUB PUSH1 0x0 DUP4 ADD MSTORE PUSH2 0x160C DUP2 PUSH2 0x1446 JUMP JUMPDEST SWAP1 POP SWAP2 SWAP1 POP JUMP JUMPDEST PUSH1 0x0 PUSH1 0x20 DUP3 ADD SWAP1 POP DUP2 DUP2 SUB PUSH1 0x0 DUP4 ADD MSTORE PUSH2 0x162C DUP2 PUSH2 0x1469 JUMP JUMPDEST SWAP1 POP SWAP2 SWAP1 POP JUMP JUMPDEST PUSH1 0x0 PUSH1 0x20 DUP3 ADD SWAP1 POP DUP2 DUP2 SUB PUSH1 0x0 DUP4 ADD MSTORE PUSH2 0x164C DUP2 PUSH2 0x148C JUMP JUMPDEST SWAP1 POP SWAP2 SWAP1 POP JUMP JUMPDEST PUSH1 0x0 PUSH1 0x20 DUP3 ADD SWAP1 POP DUP2 DUP2 SUB PUSH1 0x0 DUP4 ADD MSTORE PUSH2 0x166C DUP2 PUSH2 0x14D2 JUMP JUMPDEST SWAP1 POP SWAP2 SWAP1 POP JUMP JUMPDEST PUSH1 0x0 PUSH1 0x20 DUP3 ADD SWAP1 POP DUP2 DUP2 SUB PUSH1 0x0 DUP4 ADD MSTORE PUSH2 0x168C DUP2 PUSH2 0x14F5 JUMP JUMPDEST SWAP1 POP SWAP2 SWAP1 POP JUMP JUMPDEST PUSH1 0x0 PUSH1 0x20 DUP3 ADD SWAP1 POP PUSH2 0x16A8 PUSH1 0x0 DUP4 ADD DUP5 PUSH2 0x1518 JUMP JUMPDEST SWAP3 SWAP2 POP POP JUMP JUMPDEST PUSH1 0x0 PUSH2 0x16B8 PUSH2 0x16C9 JUMP JUMPDEST SWAP1 POP PUSH2 0x16C4 DUP3 DUP3 PUSH2 0x18E5 JUMP JUMPDEST SWAP2 SWAP1 POP JUMP JUMPDEST PUSH1 0x0 PUSH1 0x40 MLOAD SWAP1 POP SWAP1 JUMP JUMPDEST PUSH1 0x0 PUSH8 0xFFFFFFFFFFFFFFFF DUP3 GT ISZERO PUSH2 0x16EE JUMPI PUSH2 0x16ED PUSH2 0x19CD JUMP JUMPDEST JUMPDEST PUSH1 0x20 DUP3 MUL SWAP1 POP PUSH1 0x20 DUP2 ADD SWAP1 POP SWAP2 SWAP1 POP JUMP JUMPDEST PUSH1 0x0 PUSH8 0xFFFFFFFFFFFFFFFF DUP3 GT ISZERO PUSH2 0x171A JUMPI PUSH2 0x1719 PUSH2 0x19CD JUMP JUMPDEST JUMPDEST PUSH2 0x1723 DUP3 PUSH2 0x1A15 JUMP JUMPDEST SWAP1 POP PUSH1 0x20 DUP2 ADD SWAP1 POP SWAP2 SWAP1 POP JUMP JUMPDEST PUSH1 0x0 DUP2 SWAP1 POP DUP2 PUSH1 0x0 MSTORE PUSH1 0x20 PUSH1 0x0 KECCAK256 SWAP1 POP SWAP2 SWAP1 POP JUMP JUMPDEST PUSH1 0x0 DUP2 MLOAD SWAP1 POP SWAP2 SWAP1 POP JUMP JUMPDEST PUSH1 0x0 DUP3 DUP3 MSTORE PUSH1 0x20 DUP3 ADD SWAP1 POP SWAP3 SWAP2 POP POP JUMP JUMPDEST PUSH1 0x0 DUP2 SWAP1 POP SWAP3 SWAP2 POP POP JUMP JUMPDEST PUSH1 0x0 PUSH2 0x1777 DUP3 PUSH2 0x185A JUMP JUMPDEST SWAP2 POP PUSH2 0x1782 DUP4 PUSH2 0x185A JUMP JUMPDEST SWAP3 POP DUP3 PUSH32 0xFFFFFFFFFFFFFFFFFFFFFFFFFFFFFFFFFFFFFFFFFFFFFFFFFFFFFFFFFFFFFFFF SUB DUP3 GT ISZERO PUSH2 0x17B7 JUMPI PUSH2 0x17B6 PUSH2 0x1940 JUMP JUMPDEST JUMPDEST DUP3 DUP3 ADD SWAP1 POP SWAP3 SWAP2 POP POP JUMP JUMPDEST PUSH1 0x0 PUSH2 0x17CD DUP3 PUSH2 0x185A JUMP JUMPDEST SWAP2 POP PUSH2 0x17D8 DUP4 PUSH2 0x185A JUMP JUMPDEST SWAP3 POP DUP2 PUSH32 0xFFFFFFFFFFFFFFFFFFFFFFFFFFFFFFFFFFFFFFFFFFFFFFFFFFFFFFFFFFFFFFFF DIV DUP4 GT DUP3 ISZERO ISZERO AND ISZERO PUSH2 0x1811 JUMPI PUSH2 0x1810 PUSH2 0x1940 JUMP JUMPDEST JUMPDEST DUP3 DUP3 MUL SWAP1 POP SWAP3 SWAP2 POP POP JUMP JUMPDEST PUSH1 0x0 PUSH2 0x1827 DUP3 PUSH2 0x183A JUMP JUMPDEST SWAP1 POP SWAP2 SWAP1 POP JUMP JUMPDEST PUSH1 0x0 DUP2 ISZERO ISZERO SWAP1 POP SWAP2 SWAP1 POP JUMP JUMPDEST PUSH1 0x0 PUSH20 0xFFFFFFFFFFFFFFFFFFFFFFFFFFFFFFFFFFFFFFFF DUP3 AND SWAP1 POP SWAP2 SWAP1 POP JUMP JUMPDEST PUSH1 0x0 DUP2 SWAP1 POP SWAP2 SWAP1 POP JUMP JUMPDEST PUSH1 0x0 PUSH1 0xFF DUP3 AND SWAP1 POP SWAP2 SWAP1 POP JUMP JUMPDEST DUP3 DUP2 DUP4 CALLDATACOPY PUSH1 0x0 DUP4 DUP4 ADD MSTORE POP POP POP JUMP JUMPDEST PUSH1 0x0 JUMPDEST DUP4 DUP2 LT ISZERO PUSH2 0x189E JUMPI DUP1 DUP3 ADD MLOAD DUP2 DUP5 ADD MSTORE PUSH1 0x20 DUP2 ADD SWAP1 POP PUSH2 0x1883 JUMP JUMPDEST DUP4 DUP2 GT ISZERO PUSH2 0x18AD JUMPI PUSH1 0x0 DUP5 DUP5 ADD MSTORE JUMPDEST POP POP POP POP JUMP JUMPDEST PUSH1 0x0 PUSH1 0x2 DUP3 DIV SWAP1 POP PUSH1 0x1 DUP3 AND DUP1 PUSH2 0x18CB JUMPI PUSH1 0x7F DUP3 AND SWAP2 POP JUMPDEST PUSH1 0x20 DUP3 LT DUP2 EQ ISZERO PUSH2 0x18DF JUMPI PUSH2 0x18DE PUSH2 0x196F JUMP JUMPDEST JUMPDEST POP SWAP2 SWAP1 POP JUMP JUMPDEST PUSH2 0x18EE DUP3 PUSH2 0x1A15 JUMP JUMPDEST DUP2 ADD DUP2 DUP2 LT PUSH8 0xFFFFFFFFFFFFFFFF DUP3 GT OR ISZERO PUSH2 0x190D JUMPI PUSH2 0x190C PUSH2 0x19CD JUMP JUMPDEST JUMPDEST DUP1 PUSH1 0x40 MSTORE POP POP POP JUMP JUMPDEST PUSH1 0x0 PUSH2 0x1921 DUP3 PUSH2 0x1864 JUMP JUMPDEST SWAP2 POP PUSH1 0xFF DUP3 EQ ISZERO PUSH2 0x1935 JUMPI PUSH2 0x1934 PUSH2 0x1940 JUMP JUMPDEST JUMPDEST PUSH1 0x1 DUP3 ADD SWAP1 POP SWAP2 SWAP1 POP JUMP JUMPDEST PUSH32 0x4E487B7100000000000000000000000000000000000000000000000000000000 PUSH1 0x0 MSTORE PUSH1 0x11 PUSH1 0x4 MSTORE PUSH1 0x24 PUSH1 0x0 REVERT JUMPDEST PUSH32 0x4E487B7100000000000000000000000000000000000000000000000000000000 PUSH1 0x0 MSTORE PUSH1 0x22 PUSH1 0x4 MSTORE PUSH1 0x24 PUSH1 0x0 REVERT JUMPDEST PUSH32 0x4E487B7100000000000000000000000000000000000000000000000000000000 PUSH1 0x0 MSTORE PUSH1 0x32 PUSH1 0x4 MSTORE PUSH1 0x24 PUSH1 0x0 REVERT JUMPDEST PUSH32 0x4E487B7100000000000000000000000000000000000000000000000000000000 PUSH1 0x0 MSTORE PUSH1 0x41 PUSH1 0x4 MSTORE PUSH1 0x24 PUSH1 0x0 REVERT JUMPDEST PUSH1 0x0 DUP1 REVERT JUMPDEST PUSH1 0x0 DUP1 REVERT JUMPDEST PUSH1 0x0 DUP1 REVERT JUMPDEST PUSH1 0x0 DUP1 REVERT JUMPDEST PUSH1 0x0 DUP1 REVERT JUMPDEST PUSH1 0x0 PUSH1 0x1F NOT PUSH1 0x1F DUP4 ADD AND SWAP1 POP SWAP2 SWAP1 POP JUMP JUMPDEST PUSH32 0x4E6F742072656769737465726564210000000000000000000000000000000000 PUSH1 0x0 DUP3 ADD MSTORE POP JUMP JUMPDEST PUSH32 0x566F74696E6720506572696F64206973204F7665722100000000000000000000 PUSH1 0x0 DUP3 ADD MSTORE POP JUMP JUMPDEST PUSH32 0x416C726561647920526567697374657265640000000000000000000000000000 PUSH1 0x0 DUP3 ADD MSTORE POP JUMP JUMPDEST POP JUMP JUMPDEST PUSH32 0x43726561746F722063616E6E6F7420766F746521000000000000000000000000 PUSH1 0x0 DUP3 ADD MSTORE POP JUMP JUMPDEST PUSH32 0x4163636F756E7420616C726561647920766F7465642100000000000000000000 PUSH1 0x0 DUP3 ADD MSTORE POP JUMP JUMPDEST PUSH2 0x1AFF DUP2 PUSH2 0x181C JUMP JUMPDEST DUP2 EQ PUSH2 0x1B0A JUMPI PUSH1 0x0 DUP1 REVERT JUMPDEST POP JUMP JUMPDEST PUSH2 0x1B16 DUP2 PUSH2 0x185A JUMP JUMPDEST DUP2 EQ PUSH2 0x1B21 JUMPI PUSH1 0x0 DUP1 REVERT JUMPDEST POP JUMP JUMPDEST PUSH2 0x1B2D DUP2 PUSH2 0x1864 JUMP JUMPDEST DUP2 EQ PUSH2 0x1B38 JUMPI PUSH1 0x0 DUP1 REVERT JUMPDEST POP JUMP INVALID LOG2 PUSH5 0x6970667358 0x22 SLT KECCAK256 0xD6 CALL 0xD2 PUSH29 0x709D4AB64F4A287BDE2206DFEEEE27E226831B917F589941E700260864 PUSH20 0x6F6C634300080700330000000000000000000000 "
		},
		"gasEstimates": {
			"creation": {
				"codeDepositCost": "1405000",
				"executionCost": "25732",
				"totalCost": "1430732"
			},
			"external": {
				"createPoll(string[],uint256)": "infinite",
				"polls(uint256)": "infinite",
				"regVoters(address)": "infinite",
				"register(string)": "infinite",
				"returnTime()": "358",
				"vote(uint8,uint8)": "infinite"
			}
		},
		"methodIdentifiers": {
			"createPoll(string[],uint256)": "36dffc3c",
			"polls(uint256)": "ac2f0074",
			"regVoters(address)": "0042c438",
			"register(string)": "f2c298be",
			"returnTime()": "98568366",
			"vote(uint8,uint8)": "df49c4de"
		}
	},
	"abi": [
		{
			"inputs": [
				{
					"internalType": "string[]",
					"name": "options",
					"type": "string[]"
				},
				{
					"internalType": "uint256",
					"name": "duration",
					"type": "uint256"
				}
			],
			"name": "createPoll",
			"outputs": [],
			"stateMutability": "nonpayable",
			"type": "function"
		},
		{
			"inputs": [
				{
					"internalType": "uint256",
					"name": "",
					"type": "uint256"
				}
			],
			"name": "polls",
			"outputs": [
				{
					"internalType": "address",
					"name": "creator",
					"type": "address"
				},
				{
					"internalType": "uint8",
					"name": "pollNo",
					"type": "uint8"
				},
				{
					"internalType": "uint8",
					"name": "nOptn",
					"type": "uint8"
				},
				{
					"internalType": "uint256",
					"name": "duration",
					"type": "uint256"
				},
				{
					"internalType": "uint256",
					"name": "endTime",
					"type": "uint256"
				}
			],
			"stateMutability": "view",
			"type": "function"
		},
		{
			"inputs": [
				{
					"internalType": "address",
					"name": "",
					"type": "address"
				}
			],
			"name": "regVoters",
			"outputs": [
				{
					"internalType": "string",
					"name": "name",
					"type": "string"
				},
				{
					"internalType": "address",
					"name": "addr",
					"type": "address"
				},
				{
					"internalType": "bool",
					"name": "voted",
					"type": "bool"
				}
			],
			"stateMutability": "view",
			"type": "function"
		},
		{
			"inputs": [
				{
					"internalType": "string",
					"name": "name",
					"type": "string"
				}
			],
			"name": "register",
			"outputs": [],
			"stateMutability": "nonpayable",
			"type": "function"
		},
		{
			"inputs": [],
			"name": "returnTime",
			"outputs": [
				{
					"internalType": "uint256",
					"name": "",
					"type": "uint256"
				}
			],
			"stateMutability": "view",
			"type": "function"
		},
		{
			"inputs": [
				{
					"internalType": "uint8",
					"name": "pollIndex",
					"type": "uint8"
				},
				{
					"internalType": "uint8",
					"name": "optnIndex",
					"type": "uint8"
				}
			],
			"name": "vote",
			"outputs": [],
			"stateMutability": "nonpayable",
			"type": "function"
		}
	]
}