{
	"data": {
		"bytecode": {
			"linkReferences": {},
			"object": "608060405260008060006101000a81548160ff021916908360ff16021790555034801561002b57600080fd5b5061191e8061003b6000396000f3fe608060405234801561001057600080fd5b50600436106100575760003560e01c8063357d0d481461005c578063a3ec138d14610078578063ac2f0074146100aa578063c07c9315146100de578063f2c298be146100fa575b600080fd5b610076600480360381019061007191906110c6565b610116565b005b610092600480360381019061008d9190611099565b6103ed565b6040516100a193929190611429565b60405180910390f35b6100c460048036038101906100bf919061117e565b6104cc565b6040516100d59594939291906113d6565b60405180910390f35b6100f860048036038101906100f391906111ab565b61054c565b005b610114600480360381019061010f9190611135565b61076d565b005b60008081819054906101000a900460ff1680929190610134906116cb565b91906101000a81548160ff021916908360ff1602179055505060006006905033600660000160006101000a81548173ffffffffffffffffffffffffffffffffffffffff021916908373ffffffffffffffffffffffffffffffffffffffff16021790555060008054906101000a900460ff16600660000160146101000a81548160ff021916908360ff160217905550826006600201819055508160066003018190555060006003905060005b85518160ff1610156102c957858160ff168151811061020157610200611753565b5b6020026020010151826000019080519060200190610220929190610937565b5082600101829080600181540180825580915050600190039060005260206000209060030201600090919091909150600082018160000190805461026390611668565b61026e9291906109bd565b506001820160009054906101000a900460ff168160010160006101000a81548160ff021916908360ff16021790555060028201816002019080546102b3929190610a4a565b50505080806102c1906116cb565b9150506101df565b5060018290806001815401808255809150506001900390600052602060002090600402016000909190919091506000820160009054906101000a900473ffffffffffffffffffffffffffffffffffffffff168160000160006101000a81548173ffffffffffffffffffffffffffffffffffffffff021916908373ffffffffffffffffffffffffffffffffffffffff1602179055506000820160149054906101000a900460ff168160000160146101000a81548160ff021916908360ff1602179055506000820160159054906101000a900460ff168160000160156101000a81548160ff021916908360ff16021790555060018201816001019080546103cf929190610b56565b50600282015481600201556003820154816003015550505050505050565b600260205280600052604060002060009150905080600001805461041090611668565b80601f016020809104026020016040519081016040528092919081815260200182805461043c90611668565b80156104895780601f1061045e57610100808354040283529160200191610489565b820191906000526020600020905b81548152906001019060200180831161046c57829003601f168201915b5050505050908060010160009054906101000a900473ffffffffffffffffffffffffffffffffffffffff16908060010160149054906101000a900460ff16905083565b600181815481106104dc57600080fd5b90600052602060002090600402016000915090508060000160009054906101000a900473ffffffffffffffffffffffffffffffffffffffff16908060000160149054906101000a900460ff16908060000160159054906101000a900460ff16908060020154908060030154905085565b8160ff163373ffffffffffffffffffffffffffffffffffffffff166001828154811061057b5761057a611753565b5b906000526020600020906004020160000160009054906101000a900473ffffffffffffffffffffffffffffffffffffffff1673ffffffffffffffffffffffffffffffffffffffff161415610604576040517f08c379a00000000000000000000000000000000000000000000000000000000081526004016105fb906114a7565b60405180910390fd5b604051602001610613906113c1565b60405160208183030381529060405280519060200120600260003373ffffffffffffffffffffffffffffffffffffffff1673ffffffffffffffffffffffffffffffffffffffff16815260200190815260200160002060000160405160200161067b91906113aa565b6040516020818303038152906040528051906020012014156106d2576040517f08c379a00000000000000000000000000000000000000000000000000000000081526004016106c990611467565b60405180910390fd5b60001515600260003373ffffffffffffffffffffffffffffffffffffffff1673ffffffffffffffffffffffffffffffffffffffff16815260200190815260200160002060010160149054906101000a900460ff16151514610768576040517f08c379a000000000000000000000000000000000000000000000000000000000815260040161075f906114c7565b60405180910390fd5b505050565b60405160200161077c906113c1565b60405160208183030381529060405280519060200120600260003373ffffffffffffffffffffffffffffffffffffffff1673ffffffffffffffffffffffffffffffffffffffff1681526020019081526020016000206000016040516020016107e491906113aa565b604051602081830303815290604052805190602001201461083a576040517f08c379a000000000000000000000000000000000000000000000000000000000815260040161083190611487565b60405180910390fd5b60405180606001604052808281526020013373ffffffffffffffffffffffffffffffffffffffff16815260200160001515815250600260003373ffffffffffffffffffffffffffffffffffffffff1673ffffffffffffffffffffffffffffffffffffffff16815260200190815260200160002060008201518160000190805190602001906108c9929190610937565b5060208201518160010160006101000a81548173ffffffffffffffffffffffffffffffffffffffff021916908373ffffffffffffffffffffffffffffffffffffffff16021790555060408201518160010160146101000a81548160ff02191690831515021790555090505050565b82805461094390611668565b90600052602060002090601f01602090048101928261096557600085556109ac565b82601f1061097e57805160ff19168380011785556109ac565b828001600101855582156109ac579182015b828111156109ab578251825591602001919060010190610990565b5b5090506109b99190610c13565b5090565b8280546109c990611668565b90600052602060002090601f0160209004810192826109eb5760008555610a39565b82601f106109fc5780548555610a39565b82800160010185558215610a3957600052602060002091601f016020900482015b82811115610a38578254825591600101919060010190610a1d565b5b509050610a469190610c13565b5090565b828054828255906000526020600020906002028101928215610b455760005260206000209160020282015b82811115610b445782826000820181600001908054610a9390611668565b610a9e9291906109bd565b506001820160009054906101000a900473ffffffffffffffffffffffffffffffffffffffff168160010160006101000a81548173ffffffffffffffffffffffffffffffffffffffff021916908373ffffffffffffffffffffffffffffffffffffffff1602179055506001820160149054906101000a900460ff168160010160146101000a81548160ff021916908315150217905550505091600201919060020190610a75565b5b509050610b529190610c30565b5090565b828054828255906000526020600020906003028101928215610c025760005260206000209160030282015b82811115610c015782826000820181600001908054610b9f90611668565b610baa9291906109bd565b506001820160009054906101000a900460ff168160010160006101000a81548160ff021916908360ff1602179055506002820181600201908054610bef929190610a4a565b50505091600301919060030190610b81565b5b509050610c0f9190610c92565b5090565b5b80821115610c2c576000816000905550600101610c14565b5090565b5b80821115610c8e5760008082016000610c4a9190610cdd565b6001820160006101000a81549073ffffffffffffffffffffffffffffffffffffffff02191690556001820160146101000a81549060ff021916905550600201610c31565b5090565b5b80821115610cd95760008082016000610cac9190610cdd565b6001820160006101000a81549060ff0219169055600282016000610cd09190610d1d565b50600301610c93565b5090565b508054610ce990611668565b6000825580601f10610cfb5750610d1a565b601f016020900490600052602060002090810190610d199190610c13565b5b50565b5080546000825560020290600052602060002090810190610d3e9190610c30565b50565b6000610d54610d4f8461150c565b6114e7565b90508083825260208201905082856020860282011115610d7757610d766117c0565b5b60005b85811015610dc557813567ffffffffffffffff811115610d9d57610d9c6117b1565b5b808601610daa8982610f25565b85526020850194506020840193505050600181019050610d7a565b5050509392505050565b6000610de2610ddd84611538565b6114e7565b90508083825260208201905082856020860282011115610e0557610e046117c0565b5b60005b85811015610e5357813567ffffffffffffffff811115610e2b57610e2a6117b1565b5b808601610e388982610fef565b85526020850194506020840193505050600181019050610e08565b5050509392505050565b6000610e70610e6b84611564565b6114e7565b905082815260208101848484011115610e8c57610e8b6117c5565b5b610e97848285611626565b509392505050565b600081359050610eae8161188c565b92915050565b600082601f830112610ec957610ec86117b1565b5b8135610ed9848260208601610d41565b91505092915050565b600082601f830112610ef757610ef66117b1565b5b8135610f07848260208601610dcf565b91505092915050565b600081359050610f1f816118a3565b92915050565b600082601f830112610f3a57610f396117b1565b5b8135610f4a848260208601610e5d565b91505092915050565b600060608284031215610f6957610f686117b6565b5b610f7360606114e7565b9050600082013567ffffffffffffffff811115610f9357610f926117bb565b5b610f9f84828501610f25565b6000830152506020610fb384828501611084565b602083015250604082013567ffffffffffffffff811115610fd757610fd66117bb565b5b610fe384828501610ee2565b60408301525092915050565b600060608284031215611005576110046117b6565b5b61100f60606114e7565b9050600082013567ffffffffffffffff81111561102f5761102e6117bb565b5b61103b84828501610f25565b600083015250602061104f84828501610e9f565b602083015250604061106384828501610f10565b60408301525092915050565b60008135905061107e816118ba565b92915050565b600081359050611093816118d1565b92915050565b6000602082840312156110af576110ae6117cf565b5b60006110bd84828501610e9f565b91505092915050565b6000806000606084860312156110df576110de6117cf565b5b600084013567ffffffffffffffff8111156110fd576110fc6117ca565b5b61110986828701610eb4565b935050602061111a8682870161106f565b925050604061112b8682870161106f565b9150509250925092565b60006020828403121561114b5761114a6117cf565b5b600082013567ffffffffffffffff811115611169576111686117ca565b5b61117584828501610f25565b91505092915050565b600060208284031215611194576111936117cf565b5b60006111a28482850161106f565b91505092915050565b600080604083850312156111c2576111c16117cf565b5b60006111d085828601611084565b925050602083013567ffffffffffffffff8111156111f1576111f06117ca565b5b6111fd85828601610f53565b9150509250929050565b611210816115d1565b82525050565b61121f816115e3565b82525050565b6000611230826115aa565b61123a81856115b5565b935061124a818560208601611635565b611253816117d4565b840191505092915050565b6000815461126b81611668565b61127581866115c6565b9450600182166000811461129057600181146112a1576112d4565b60ff198316865281860193506112d4565b6112aa85611595565b60005b838110156112cc578154818901526001820191506020810190506112ad565b838801955050505b50505092915050565b60006112ea600f836115b5565b91506112f5826117e5565b602082019050919050565b600061130d6012836115b5565b91506113188261180e565b602082019050919050565b60006113306000836115c6565b915061133b82611837565b600082019050919050565b60006113536014836115b5565b915061135e8261183a565b602082019050919050565b60006113766016836115b5565b915061138182611863565b602082019050919050565b6113958161160f565b82525050565b6113a481611619565b82525050565b60006113b6828461125e565b915081905092915050565b60006113cc82611323565b9150819050919050565b600060a0820190506113eb6000830188611207565b6113f8602083018761139b565b611405604083018661139b565b611412606083018561138c565b61141f608083018461138c565b9695505050505050565b600060608201905081810360008301526114438186611225565b90506114526020830185611207565b61145f6040830184611216565b949350505050565b60006020820190508181036000830152611480816112dd565b9050919050565b600060208201905081810360008301526114a081611300565b9050919050565b600060208201905081810360008301526114c081611346565b9050919050565b600060208201905081810360008301526114e081611369565b9050919050565b60006114f1611502565b90506114fd828261169a565b919050565b6000604051905090565b600067ffffffffffffffff82111561152757611526611782565b5b602082029050602081019050919050565b600067ffffffffffffffff82111561155357611552611782565b5b602082029050602081019050919050565b600067ffffffffffffffff82111561157f5761157e611782565b5b611588826117d4565b9050602081019050919050565b60008190508160005260206000209050919050565b600081519050919050565b600082825260208201905092915050565b600081905092915050565b60006115dc826115ef565b9050919050565b60008115159050919050565b600073ffffffffffffffffffffffffffffffffffffffff82169050919050565b6000819050919050565b600060ff82169050919050565b82818337600083830152505050565b60005b83811015611653578082015181840152602081019050611638565b83811115611662576000848401525b50505050565b6000600282049050600182168061168057607f821691505b6020821081141561169457611693611724565b5b50919050565b6116a3826117d4565b810181811067ffffffffffffffff821117156116c2576116c1611782565b5b80604052505050565b60006116d682611619565b915060ff8214156116ea576116e96116f5565b5b600182019050919050565b7f4e487b7100000000000000000000000000000000000000000000000000000000600052601160045260246000fd5b7f4e487b7100000000000000000000000000000000000000000000000000000000600052602260045260246000fd5b7f4e487b7100000000000000000000000000000000000000000000000000000000600052603260045260246000fd5b7f4e487b7100000000000000000000000000000000000000000000000000000000600052604160045260246000fd5b600080fd5b600080fd5b600080fd5b600080fd5b600080fd5b600080fd5b600080fd5b6000601f19601f8301169050919050565b7f4e6f742072656769737465726564210000000000000000000000000000000000600082015250565b7f416c726561647920526567697374657265640000000000000000000000000000600082015250565b50565b7f43726561746f722063616e6e6f7420766f746521000000000000000000000000600082015250565b7f4163636f756e7420616c726561647920766f7465642100000000000000000000600082015250565b611895816115d1565b81146118a057600080fd5b50565b6118ac816115e3565b81146118b757600080fd5b50565b6118c38161160f565b81146118ce57600080fd5b50565b6118da81611619565b81146118e557600080fd5b5056fea26469706673582212202ac8a1eee04aea567c211745e886f62b74fb6cb15e999e3759c65e0ceb99dc8b64736f6c63430008070033",
			"opcodes": "PUSH1 0x80 PUSH1 0x40 MSTORE PUSH1 0x0 DUP1 PUSH1 0x0 PUSH2 0x100 EXP DUP2 SLOAD DUP2 PUSH1 0xFF MUL NOT AND SWAP1 DUP4 PUSH1 0xFF AND MUL OR SWAP1 SSTORE POP CALLVALUE DUP1 ISZERO PUSH2 0x2B JUMPI PUSH1 0x0 DUP1 REVERT JUMPDEST POP PUSH2 0x191E DUP1 PUSH2 0x3B PUSH1 0x0 CODECOPY PUSH1 0x0 RETURN INVALID PUSH1 0x80 PUSH1 0x40 MSTORE CALLVALUE DUP1 ISZERO PUSH2 0x10 JUMPI PUSH1 0x0 DUP1 REVERT JUMPDEST POP PUSH1 0x4 CALLDATASIZE LT PUSH2 0x57 JUMPI PUSH1 0x0 CALLDATALOAD PUSH1 0xE0 SHR DUP1 PUSH4 0x357D0D48 EQ PUSH2 0x5C JUMPI DUP1 PUSH4 0xA3EC138D EQ PUSH2 0x78 JUMPI DUP1 PUSH4 0xAC2F0074 EQ PUSH2 0xAA JUMPI DUP1 PUSH4 0xC07C9315 EQ PUSH2 0xDE JUMPI DUP1 PUSH4 0xF2C298BE EQ PUSH2 0xFA JUMPI JUMPDEST PUSH1 0x0 DUP1 REVERT JUMPDEST PUSH2 0x76 PUSH1 0x4 DUP1 CALLDATASIZE SUB DUP2 ADD SWAP1 PUSH2 0x71 SWAP2 SWAP1 PUSH2 0x10C6 JUMP JUMPDEST PUSH2 0x116 JUMP JUMPDEST STOP JUMPDEST PUSH2 0x92 PUSH1 0x4 DUP1 CALLDATASIZE SUB DUP2 ADD SWAP1 PUSH2 0x8D SWAP2 SWAP1 PUSH2 0x1099 JUMP JUMPDEST PUSH2 0x3ED JUMP JUMPDEST PUSH1 0x40 MLOAD PUSH2 0xA1 SWAP4 SWAP3 SWAP2 SWAP1 PUSH2 0x1429 JUMP JUMPDEST PUSH1 0x40 MLOAD DUP1 SWAP2 SUB SWAP1 RETURN JUMPDEST PUSH2 0xC4 PUSH1 0x4 DUP1 CALLDATASIZE SUB DUP2 ADD SWAP1 PUSH2 0xBF SWAP2 SWAP1 PUSH2 0x117E JUMP JUMPDEST PUSH2 0x4CC JUMP JUMPDEST PUSH1 0x40 MLOAD PUSH2 0xD5 SWAP6 SWAP5 SWAP4 SWAP3 SWAP2 SWAP1 PUSH2 0x13D6 JUMP JUMPDEST PUSH1 0x40 MLOAD DUP1 SWAP2 SUB SWAP1 RETURN JUMPDEST PUSH2 0xF8 PUSH1 0x4 DUP1 CALLDATASIZE SUB DUP2 ADD SWAP1 PUSH2 0xF3 SWAP2 SWAP1 PUSH2 0x11AB JUMP JUMPDEST PUSH2 0x54C JUMP JUMPDEST STOP JUMPDEST PUSH2 0x114 PUSH1 0x4 DUP1 CALLDATASIZE SUB DUP2 ADD SWAP1 PUSH2 0x10F SWAP2 SWAP1 PUSH2 0x1135 JUMP JUMPDEST PUSH2 0x76D JUMP JUMPDEST STOP JUMPDEST PUSH1 0x0 DUP1 DUP2 DUP2 SWAP1 SLOAD SWAP1 PUSH2 0x100 EXP SWAP1 DIV PUSH1 0xFF AND DUP1 SWAP3 SWAP2 SWAP1 PUSH2 0x134 SWAP1 PUSH2 0x16CB JUMP JUMPDEST SWAP2 SWAP1 PUSH2 0x100 EXP DUP2 SLOAD DUP2 PUSH1 0xFF MUL NOT AND SWAP1 DUP4 PUSH1 0xFF AND MUL OR SWAP1 SSTORE POP POP PUSH1 0x0 PUSH1 0x6 SWAP1 POP CALLER PUSH1 0x6 PUSH1 0x0 ADD PUSH1 0x0 PUSH2 0x100 EXP DUP2 SLOAD DUP2 PUSH20 0xFFFFFFFFFFFFFFFFFFFFFFFFFFFFFFFFFFFFFFFF MUL NOT AND SWAP1 DUP4 PUSH20 0xFFFFFFFFFFFFFFFFFFFFFFFFFFFFFFFFFFFFFFFF AND MUL OR SWAP1 SSTORE POP PUSH1 0x0 DUP1 SLOAD SWAP1 PUSH2 0x100 EXP SWAP1 DIV PUSH1 0xFF AND PUSH1 0x6 PUSH1 0x0 ADD PUSH1 0x14 PUSH2 0x100 EXP DUP2 SLOAD DUP2 PUSH1 0xFF MUL NOT AND SWAP1 DUP4 PUSH1 0xFF AND MUL OR SWAP1 SSTORE POP DUP3 PUSH1 0x6 PUSH1 0x2 ADD DUP2 SWAP1 SSTORE POP DUP2 PUSH1 0x6 PUSH1 0x3 ADD DUP2 SWAP1 SSTORE POP PUSH1 0x0 PUSH1 0x3 SWAP1 POP PUSH1 0x0 JUMPDEST DUP6 MLOAD DUP2 PUSH1 0xFF AND LT ISZERO PUSH2 0x2C9 JUMPI DUP6 DUP2 PUSH1 0xFF AND DUP2 MLOAD DUP2 LT PUSH2 0x201 JUMPI PUSH2 0x200 PUSH2 0x1753 JUMP JUMPDEST JUMPDEST PUSH1 0x20 MUL PUSH1 0x20 ADD ADD MLOAD DUP3 PUSH1 0x0 ADD SWAP1 DUP1 MLOAD SWAP1 PUSH1 0x20 ADD SWAP1 PUSH2 0x220 SWAP3 SWAP2 SWAP1 PUSH2 0x937 JUMP JUMPDEST POP DUP3 PUSH1 0x1 ADD DUP3 SWAP1 DUP1 PUSH1 0x1 DUP2 SLOAD ADD DUP1 DUP3 SSTORE DUP1 SWAP2 POP POP PUSH1 0x1 SWAP1 SUB SWAP1 PUSH1 0x0 MSTORE PUSH1 0x20 PUSH1 0x0 KECCAK256 SWAP1 PUSH1 0x3 MUL ADD PUSH1 0x0 SWAP1 SWAP2 SWAP1 SWAP2 SWAP1 SWAP2 POP PUSH1 0x0 DUP3 ADD DUP2 PUSH1 0x0 ADD SWAP1 DUP1 SLOAD PUSH2 0x263 SWAP1 PUSH2 0x1668 JUMP JUMPDEST PUSH2 0x26E SWAP3 SWAP2 SWAP1 PUSH2 0x9BD JUMP JUMPDEST POP PUSH1 0x1 DUP3 ADD PUSH1 0x0 SWAP1 SLOAD SWAP1 PUSH2 0x100 EXP SWAP1 DIV PUSH1 0xFF AND DUP2 PUSH1 0x1 ADD PUSH1 0x0 PUSH2 0x100 EXP DUP2 SLOAD DUP2 PUSH1 0xFF MUL NOT AND SWAP1 DUP4 PUSH1 0xFF AND MUL OR SWAP1 SSTORE POP PUSH1 0x2 DUP3 ADD DUP2 PUSH1 0x2 ADD SWAP1 DUP1 SLOAD PUSH2 0x2B3 SWAP3 SWAP2 SWAP1 PUSH2 0xA4A JUMP JUMPDEST POP POP POP DUP1 DUP1 PUSH2 0x2C1 SWAP1 PUSH2 0x16CB JUMP JUMPDEST SWAP2 POP POP PUSH2 0x1DF JUMP JUMPDEST POP PUSH1 0x1 DUP3 SWAP1 DUP1 PUSH1 0x1 DUP2 SLOAD ADD DUP1 DUP3 SSTORE DUP1 SWAP2 POP POP PUSH1 0x1 SWAP1 SUB SWAP1 PUSH1 0x0 MSTORE PUSH1 0x20 PUSH1 0x0 KECCAK256 SWAP1 PUSH1 0x4 MUL ADD PUSH1 0x0 SWAP1 SWAP2 SWAP1 SWAP2 SWAP1 SWAP2 POP PUSH1 0x0 DUP3 ADD PUSH1 0x0 SWAP1 SLOAD SWAP1 PUSH2 0x100 EXP SWAP1 DIV PUSH20 0xFFFFFFFFFFFFFFFFFFFFFFFFFFFFFFFFFFFFFFFF AND DUP2 PUSH1 0x0 ADD PUSH1 0x0 PUSH2 0x100 EXP DUP2 SLOAD DUP2 PUSH20 0xFFFFFFFFFFFFFFFFFFFFFFFFFFFFFFFFFFFFFFFF MUL NOT AND SWAP1 DUP4 PUSH20 0xFFFFFFFFFFFFFFFFFFFFFFFFFFFFFFFFFFFFFFFF AND MUL OR SWAP1 SSTORE POP PUSH1 0x0 DUP3 ADD PUSH1 0x14 SWAP1 SLOAD SWAP1 PUSH2 0x100 EXP SWAP1 DIV PUSH1 0xFF AND DUP2 PUSH1 0x0 ADD PUSH1 0x14 PUSH2 0x100 EXP DUP2 SLOAD DUP2 PUSH1 0xFF MUL NOT AND SWAP1 DUP4 PUSH1 0xFF AND MUL OR SWAP1 SSTORE POP PUSH1 0x0 DUP3 ADD PUSH1 0x15 SWAP1 SLOAD SWAP1 PUSH2 0x100 EXP SWAP1 DIV PUSH1 0xFF AND DUP2 PUSH1 0x0 ADD PUSH1 0x15 PUSH2 0x100 EXP DUP2 SLOAD DUP2 PUSH1 0xFF MUL NOT AND SWAP1 DUP4 PUSH1 0xFF AND MUL OR SWAP1 SSTORE POP PUSH1 0x1 DUP3 ADD DUP2 PUSH1 0x1 ADD SWAP1 DUP1 SLOAD PUSH2 0x3CF SWAP3 SWAP2 SWAP1 PUSH2 0xB56 JUMP JUMPDEST POP PUSH1 0x2 DUP3 ADD SLOAD DUP2 PUSH1 0x2 ADD SSTORE PUSH1 0x3 DUP3 ADD SLOAD DUP2 PUSH1 0x3 ADD SSTORE POP POP POP POP POP POP POP JUMP JUMPDEST PUSH1 0x2 PUSH1 0x20 MSTORE DUP1 PUSH1 0x0 MSTORE PUSH1 0x40 PUSH1 0x0 KECCAK256 PUSH1 0x0 SWAP2 POP SWAP1 POP DUP1 PUSH1 0x0 ADD DUP1 SLOAD PUSH2 0x410 SWAP1 PUSH2 0x1668 JUMP JUMPDEST DUP1 PUSH1 0x1F ADD PUSH1 0x20 DUP1 SWAP2 DIV MUL PUSH1 0x20 ADD PUSH1 0x40 MLOAD SWAP1 DUP2 ADD PUSH1 0x40 MSTORE DUP1 SWAP3 SWAP2 SWAP1 DUP2 DUP2 MSTORE PUSH1 0x20 ADD DUP3 DUP1 SLOAD PUSH2 0x43C SWAP1 PUSH2 0x1668 JUMP JUMPDEST DUP1 ISZERO PUSH2 0x489 JUMPI DUP1 PUSH1 0x1F LT PUSH2 0x45E JUMPI PUSH2 0x100 DUP1 DUP4 SLOAD DIV MUL DUP4 MSTORE SWAP2 PUSH1 0x20 ADD SWAP2 PUSH2 0x489 JUMP JUMPDEST DUP3 ADD SWAP2 SWAP1 PUSH1 0x0 MSTORE PUSH1 0x20 PUSH1 0x0 KECCAK256 SWAP1 JUMPDEST DUP2 SLOAD DUP2 MSTORE SWAP1 PUSH1 0x1 ADD SWAP1 PUSH1 0x20 ADD DUP1 DUP4 GT PUSH2 0x46C JUMPI DUP3 SWAP1 SUB PUSH1 0x1F AND DUP3 ADD SWAP2 JUMPDEST POP POP POP POP POP SWAP1 DUP1 PUSH1 0x1 ADD PUSH1 0x0 SWAP1 SLOAD SWAP1 PUSH2 0x100 EXP SWAP1 DIV PUSH20 0xFFFFFFFFFFFFFFFFFFFFFFFFFFFFFFFFFFFFFFFF AND SWAP1 DUP1 PUSH1 0x1 ADD PUSH1 0x14 SWAP1 SLOAD SWAP1 PUSH2 0x100 EXP SWAP1 DIV PUSH1 0xFF AND SWAP1 POP DUP4 JUMP JUMPDEST PUSH1 0x1 DUP2 DUP2 SLOAD DUP2 LT PUSH2 0x4DC JUMPI PUSH1 0x0 DUP1 REVERT JUMPDEST SWAP1 PUSH1 0x0 MSTORE PUSH1 0x20 PUSH1 0x0 KECCAK256 SWAP1 PUSH1 0x4 MUL ADD PUSH1 0x0 SWAP2 POP SWAP1 POP DUP1 PUSH1 0x0 ADD PUSH1 0x0 SWAP1 SLOAD SWAP1 PUSH2 0x100 EXP SWAP1 DIV PUSH20 0xFFFFFFFFFFFFFFFFFFFFFFFFFFFFFFFFFFFFFFFF AND SWAP1 DUP1 PUSH1 0x0 ADD PUSH1 0x14 SWAP1 SLOAD SWAP1 PUSH2 0x100 EXP SWAP1 DIV PUSH1 0xFF AND SWAP1 DUP1 PUSH1 0x0 ADD PUSH1 0x15 SWAP1 SLOAD SWAP1 PUSH2 0x100 EXP SWAP1 DIV PUSH1 0xFF AND SWAP1 DUP1 PUSH1 0x2 ADD SLOAD SWAP1 DUP1 PUSH1 0x3 ADD SLOAD SWAP1 POP DUP6 JUMP JUMPDEST DUP2 PUSH1 0xFF AND CALLER PUSH20 0xFFFFFFFFFFFFFFFFFFFFFFFFFFFFFFFFFFFFFFFF AND PUSH1 0x1 DUP3 DUP2 SLOAD DUP2 LT PUSH2 0x57B JUMPI PUSH2 0x57A PUSH2 0x1753 JUMP JUMPDEST JUMPDEST SWAP1 PUSH1 0x0 MSTORE PUSH1 0x20 PUSH1 0x0 KECCAK256 SWAP1 PUSH1 0x4 MUL ADD PUSH1 0x0 ADD PUSH1 0x0 SWAP1 SLOAD SWAP1 PUSH2 0x100 EXP SWAP1 DIV PUSH20 0xFFFFFFFFFFFFFFFFFFFFFFFFFFFFFFFFFFFFFFFF AND PUSH20 0xFFFFFFFFFFFFFFFFFFFFFFFFFFFFFFFFFFFFFFFF AND EQ ISZERO PUSH2 0x604 JUMPI PUSH1 0x40 MLOAD PUSH32 0x8C379A000000000000000000000000000000000000000000000000000000000 DUP2 MSTORE PUSH1 0x4 ADD PUSH2 0x5FB SWAP1 PUSH2 0x14A7 JUMP JUMPDEST PUSH1 0x40 MLOAD DUP1 SWAP2 SUB SWAP1 REVERT JUMPDEST PUSH1 0x40 MLOAD PUSH1 0x20 ADD PUSH2 0x613 SWAP1 PUSH2 0x13C1 JUMP JUMPDEST PUSH1 0x40 MLOAD PUSH1 0x20 DUP2 DUP4 SUB SUB DUP2 MSTORE SWAP1 PUSH1 0x40 MSTORE DUP1 MLOAD SWAP1 PUSH1 0x20 ADD KECCAK256 PUSH1 0x2 PUSH1 0x0 CALLER PUSH20 0xFFFFFFFFFFFFFFFFFFFFFFFFFFFFFFFFFFFFFFFF AND PUSH20 0xFFFFFFFFFFFFFFFFFFFFFFFFFFFFFFFFFFFFFFFF AND DUP2 MSTORE PUSH1 0x20 ADD SWAP1 DUP2 MSTORE PUSH1 0x20 ADD PUSH1 0x0 KECCAK256 PUSH1 0x0 ADD PUSH1 0x40 MLOAD PUSH1 0x20 ADD PUSH2 0x67B SWAP2 SWAP1 PUSH2 0x13AA JUMP JUMPDEST PUSH1 0x40 MLOAD PUSH1 0x20 DUP2 DUP4 SUB SUB DUP2 MSTORE SWAP1 PUSH1 0x40 MSTORE DUP1 MLOAD SWAP1 PUSH1 0x20 ADD KECCAK256 EQ ISZERO PUSH2 0x6D2 JUMPI PUSH1 0x40 MLOAD PUSH32 0x8C379A000000000000000000000000000000000000000000000000000000000 DUP2 MSTORE PUSH1 0x4 ADD PUSH2 0x6C9 SWAP1 PUSH2 0x1467 JUMP JUMPDEST PUSH1 0x40 MLOAD DUP1 SWAP2 SUB SWAP1 REVERT JUMPDEST PUSH1 0x0 ISZERO ISZERO PUSH1 0x2 PUSH1 0x0 CALLER PUSH20 0xFFFFFFFFFFFFFFFFFFFFFFFFFFFFFFFFFFFFFFFF AND PUSH20 0xFFFFFFFFFFFFFFFFFFFFFFFFFFFFFFFFFFFFFFFF AND DUP2 MSTORE PUSH1 0x20 ADD SWAP1 DUP2 MSTORE PUSH1 0x20 ADD PUSH1 0x0 KECCAK256 PUSH1 0x1 ADD PUSH1 0x14 SWAP1 SLOAD SWAP1 PUSH2 0x100 EXP SWAP1 DIV PUSH1 0xFF AND ISZERO ISZERO EQ PUSH2 0x768 JUMPI PUSH1 0x40 MLOAD PUSH32 0x8C379A000000000000000000000000000000000000000000000000000000000 DUP2 MSTORE PUSH1 0x4 ADD PUSH2 0x75F SWAP1 PUSH2 0x14C7 JUMP JUMPDEST PUSH1 0x40 MLOAD DUP1 SWAP2 SUB SWAP1 REVERT JUMPDEST POP POP POP JUMP JUMPDEST PUSH1 0x40 MLOAD PUSH1 0x20 ADD PUSH2 0x77C SWAP1 PUSH2 0x13C1 JUMP JUMPDEST PUSH1 0x40 MLOAD PUSH1 0x20 DUP2 DUP4 SUB SUB DUP2 MSTORE SWAP1 PUSH1 0x40 MSTORE DUP1 MLOAD SWAP1 PUSH1 0x20 ADD KECCAK256 PUSH1 0x2 PUSH1 0x0 CALLER PUSH20 0xFFFFFFFFFFFFFFFFFFFFFFFFFFFFFFFFFFFFFFFF AND PUSH20 0xFFFFFFFFFFFFFFFFFFFFFFFFFFFFFFFFFFFFFFFF AND DUP2 MSTORE PUSH1 0x20 ADD SWAP1 DUP2 MSTORE PUSH1 0x20 ADD PUSH1 0x0 KECCAK256 PUSH1 0x0 ADD PUSH1 0x40 MLOAD PUSH1 0x20 ADD PUSH2 0x7E4 SWAP2 SWAP1 PUSH2 0x13AA JUMP JUMPDEST PUSH1 0x40 MLOAD PUSH1 0x20 DUP2 DUP4 SUB SUB DUP2 MSTORE SWAP1 PUSH1 0x40 MSTORE DUP1 MLOAD SWAP1 PUSH1 0x20 ADD KECCAK256 EQ PUSH2 0x83A JUMPI PUSH1 0x40 MLOAD PUSH32 0x8C379A000000000000000000000000000000000000000000000000000000000 DUP2 MSTORE PUSH1 0x4 ADD PUSH2 0x831 SWAP1 PUSH2 0x1487 JUMP JUMPDEST PUSH1 0x40 MLOAD DUP1 SWAP2 SUB SWAP1 REVERT JUMPDEST PUSH1 0x40 MLOAD DUP1 PUSH1 0x60 ADD PUSH1 0x40 MSTORE DUP1 DUP3 DUP2 MSTORE PUSH1 0x20 ADD CALLER PUSH20 0xFFFFFFFFFFFFFFFFFFFFFFFFFFFFFFFFFFFFFFFF AND DUP2 MSTORE PUSH1 0x20 ADD PUSH1 0x0 ISZERO ISZERO DUP2 MSTORE POP PUSH1 0x2 PUSH1 0x0 CALLER PUSH20 0xFFFFFFFFFFFFFFFFFFFFFFFFFFFFFFFFFFFFFFFF AND PUSH20 0xFFFFFFFFFFFFFFFFFFFFFFFFFFFFFFFFFFFFFFFF AND DUP2 MSTORE PUSH1 0x20 ADD SWAP1 DUP2 MSTORE PUSH1 0x20 ADD PUSH1 0x0 KECCAK256 PUSH1 0x0 DUP3 ADD MLOAD DUP2 PUSH1 0x0 ADD SWAP1 DUP1 MLOAD SWAP1 PUSH1 0x20 ADD SWAP1 PUSH2 0x8C9 SWAP3 SWAP2 SWAP1 PUSH2 0x937 JUMP JUMPDEST POP PUSH1 0x20 DUP3 ADD MLOAD DUP2 PUSH1 0x1 ADD PUSH1 0x0 PUSH2 0x100 EXP DUP2 SLOAD DUP2 PUSH20 0xFFFFFFFFFFFFFFFFFFFFFFFFFFFFFFFFFFFFFFFF MUL NOT AND SWAP1 DUP4 PUSH20 0xFFFFFFFFFFFFFFFFFFFFFFFFFFFFFFFFFFFFFFFF AND MUL OR SWAP1 SSTORE POP PUSH1 0x40 DUP3 ADD MLOAD DUP2 PUSH1 0x1 ADD PUSH1 0x14 PUSH2 0x100 EXP DUP2 SLOAD DUP2 PUSH1 0xFF MUL NOT AND SWAP1 DUP4 ISZERO ISZERO MUL OR SWAP1 SSTORE POP SWAP1 POP POP POP JUMP JUMPDEST DUP3 DUP1 SLOAD PUSH2 0x943 SWAP1 PUSH2 0x1668 JUMP JUMPDEST SWAP1 PUSH1 0x0 MSTORE PUSH1 0x20 PUSH1 0x0 KECCAK256 SWAP1 PUSH1 0x1F ADD PUSH1 0x20 SWAP1 DIV DUP2 ADD SWAP3 DUP3 PUSH2 0x965 JUMPI PUSH1 0x0 DUP6 SSTORE PUSH2 0x9AC JUMP JUMPDEST DUP3 PUSH1 0x1F LT PUSH2 0x97E JUMPI DUP1 MLOAD PUSH1 0xFF NOT AND DUP4 DUP1 ADD OR DUP6 SSTORE PUSH2 0x9AC JUMP JUMPDEST DUP3 DUP1 ADD PUSH1 0x1 ADD DUP6 SSTORE DUP3 ISZERO PUSH2 0x9AC JUMPI SWAP2 DUP3 ADD JUMPDEST DUP3 DUP2 GT ISZERO PUSH2 0x9AB JUMPI DUP3 MLOAD DUP3 SSTORE SWAP2 PUSH1 0x20 ADD SWAP2 SWAP1 PUSH1 0x1 ADD SWAP1 PUSH2 0x990 JUMP JUMPDEST JUMPDEST POP SWAP1 POP PUSH2 0x9B9 SWAP2 SWAP1 PUSH2 0xC13 JUMP JUMPDEST POP SWAP1 JUMP JUMPDEST DUP3 DUP1 SLOAD PUSH2 0x9C9 SWAP1 PUSH2 0x1668 JUMP JUMPDEST SWAP1 PUSH1 0x0 MSTORE PUSH1 0x20 PUSH1 0x0 KECCAK256 SWAP1 PUSH1 0x1F ADD PUSH1 0x20 SWAP1 DIV DUP2 ADD SWAP3 DUP3 PUSH2 0x9EB JUMPI PUSH1 0x0 DUP6 SSTORE PUSH2 0xA39 JUMP JUMPDEST DUP3 PUSH1 0x1F LT PUSH2 0x9FC JUMPI DUP1 SLOAD DUP6 SSTORE PUSH2 0xA39 JUMP JUMPDEST DUP3 DUP1 ADD PUSH1 0x1 ADD DUP6 SSTORE DUP3 ISZERO PUSH2 0xA39 JUMPI PUSH1 0x0 MSTORE PUSH1 0x20 PUSH1 0x0 KECCAK256 SWAP2 PUSH1 0x1F ADD PUSH1 0x20 SWAP1 DIV DUP3 ADD JUMPDEST DUP3 DUP2 GT ISZERO PUSH2 0xA38 JUMPI DUP3 SLOAD DUP3 SSTORE SWAP2 PUSH1 0x1 ADD SWAP2 SWAP1 PUSH1 0x1 ADD SWAP1 PUSH2 0xA1D JUMP JUMPDEST JUMPDEST POP SWAP1 POP PUSH2 0xA46 SWAP2 SWAP1 PUSH2 0xC13 JUMP JUMPDEST POP SWAP1 JUMP JUMPDEST DUP3 DUP1 SLOAD DUP3 DUP3 SSTORE SWAP1 PUSH1 0x0 MSTORE PUSH1 0x20 PUSH1 0x0 KECCAK256 SWAP1 PUSH1 0x2 MUL DUP2 ADD SWAP3 DUP3 ISZERO PUSH2 0xB45 JUMPI PUSH1 0x0 MSTORE PUSH1 0x20 PUSH1 0x0 KECCAK256 SWAP2 PUSH1 0x2 MUL DUP3 ADD JUMPDEST DUP3 DUP2 GT ISZERO PUSH2 0xB44 JUMPI DUP3 DUP3 PUSH1 0x0 DUP3 ADD DUP2 PUSH1 0x0 ADD SWAP1 DUP1 SLOAD PUSH2 0xA93 SWAP1 PUSH2 0x1668 JUMP JUMPDEST PUSH2 0xA9E SWAP3 SWAP2 SWAP1 PUSH2 0x9BD JUMP JUMPDEST POP PUSH1 0x1 DUP3 ADD PUSH1 0x0 SWAP1 SLOAD SWAP1 PUSH2 0x100 EXP SWAP1 DIV PUSH20 0xFFFFFFFFFFFFFFFFFFFFFFFFFFFFFFFFFFFFFFFF AND DUP2 PUSH1 0x1 ADD PUSH1 0x0 PUSH2 0x100 EXP DUP2 SLOAD DUP2 PUSH20 0xFFFFFFFFFFFFFFFFFFFFFFFFFFFFFFFFFFFFFFFF MUL NOT AND SWAP1 DUP4 PUSH20 0xFFFFFFFFFFFFFFFFFFFFFFFFFFFFFFFFFFFFFFFF AND MUL OR SWAP1 SSTORE POP PUSH1 0x1 DUP3 ADD PUSH1 0x14 SWAP1 SLOAD SWAP1 PUSH2 0x100 EXP SWAP1 DIV PUSH1 0xFF AND DUP2 PUSH1 0x1 ADD PUSH1 0x14 PUSH2 0x100 EXP DUP2 SLOAD DUP2 PUSH1 0xFF MUL NOT AND SWAP1 DUP4 ISZERO ISZERO MUL OR SWAP1 SSTORE POP POP POP SWAP2 PUSH1 0x2 ADD SWAP2 SWAP1 PUSH1 0x2 ADD SWAP1 PUSH2 0xA75 JUMP JUMPDEST JUMPDEST POP SWAP1 POP PUSH2 0xB52 SWAP2 SWAP1 PUSH2 0xC30 JUMP JUMPDEST POP SWAP1 JUMP JUMPDEST DUP3 DUP1 SLOAD DUP3 DUP3 SSTORE SWAP1 PUSH1 0x0 MSTORE PUSH1 0x20 PUSH1 0x0 KECCAK256 SWAP1 PUSH1 0x3 MUL DUP2 ADD SWAP3 DUP3 ISZERO PUSH2 0xC02 JUMPI PUSH1 0x0 MSTORE PUSH1 0x20 PUSH1 0x0 KECCAK256 SWAP2 PUSH1 0x3 MUL DUP3 ADD JUMPDEST DUP3 DUP2 GT ISZERO PUSH2 0xC01 JUMPI DUP3 DUP3 PUSH1 0x0 DUP3 ADD DUP2 PUSH1 0x0 ADD SWAP1 DUP1 SLOAD PUSH2 0xB9F SWAP1 PUSH2 0x1668 JUMP JUMPDEST PUSH2 0xBAA SWAP3 SWAP2 SWAP1 PUSH2 0x9BD JUMP JUMPDEST POP PUSH1 0x1 DUP3 ADD PUSH1 0x0 SWAP1 SLOAD SWAP1 PUSH2 0x100 EXP SWAP1 DIV PUSH1 0xFF AND DUP2 PUSH1 0x1 ADD PUSH1 0x0 PUSH2 0x100 EXP DUP2 SLOAD DUP2 PUSH1 0xFF MUL NOT AND SWAP1 DUP4 PUSH1 0xFF AND MUL OR SWAP1 SSTORE POP PUSH1 0x2 DUP3 ADD DUP2 PUSH1 0x2 ADD SWAP1 DUP1 SLOAD PUSH2 0xBEF SWAP3 SWAP2 SWAP1 PUSH2 0xA4A JUMP JUMPDEST POP POP POP SWAP2 PUSH1 0x3 ADD SWAP2 SWAP1 PUSH1 0x3 ADD SWAP1 PUSH2 0xB81 JUMP JUMPDEST JUMPDEST POP SWAP1 POP PUSH2 0xC0F SWAP2 SWAP1 PUSH2 0xC92 JUMP JUMPDEST POP SWAP1 JUMP JUMPDEST JUMPDEST DUP1 DUP3 GT ISZERO PUSH2 0xC2C JUMPI PUSH1 0x0 DUP2 PUSH1 0x0 SWAP1 SSTORE POP PUSH1 0x1 ADD PUSH2 0xC14 JUMP JUMPDEST POP SWAP1 JUMP JUMPDEST JUMPDEST DUP1 DUP3 GT ISZERO PUSH2 0xC8E JUMPI PUSH1 0x0 DUP1 DUP3 ADD PUSH1 0x0 PUSH2 0xC4A SWAP2 SWAP1 PUSH2 0xCDD JUMP JUMPDEST PUSH1 0x1 DUP3 ADD PUSH1 0x0 PUSH2 0x100 EXP DUP2 SLOAD SWAP1 PUSH20 0xFFFFFFFFFFFFFFFFFFFFFFFFFFFFFFFFFFFFFFFF MUL NOT AND SWAP1 SSTORE PUSH1 0x1 DUP3 ADD PUSH1 0x14 PUSH2 0x100 EXP DUP2 SLOAD SWAP1 PUSH1 0xFF MUL NOT AND SWAP1 SSTORE POP PUSH1 0x2 ADD PUSH2 0xC31 JUMP JUMPDEST POP SWAP1 JUMP JUMPDEST JUMPDEST DUP1 DUP3 GT ISZERO PUSH2 0xCD9 JUMPI PUSH1 0x0 DUP1 DUP3 ADD PUSH1 0x0 PUSH2 0xCAC SWAP2 SWAP1 PUSH2 0xCDD JUMP JUMPDEST PUSH1 0x1 DUP3 ADD PUSH1 0x0 PUSH2 0x100 EXP DUP2 SLOAD SWAP1 PUSH1 0xFF MUL NOT AND SWAP1 SSTORE PUSH1 0x2 DUP3 ADD PUSH1 0x0 PUSH2 0xCD0 SWAP2 SWAP1 PUSH2 0xD1D JUMP JUMPDEST POP PUSH1 0x3 ADD PUSH2 0xC93 JUMP JUMPDEST POP SWAP1 JUMP JUMPDEST POP DUP1 SLOAD PUSH2 0xCE9 SWAP1 PUSH2 0x1668 JUMP JUMPDEST PUSH1 0x0 DUP3 SSTORE DUP1 PUSH1 0x1F LT PUSH2 0xCFB JUMPI POP PUSH2 0xD1A JUMP JUMPDEST PUSH1 0x1F ADD PUSH1 0x20 SWAP1 DIV SWAP1 PUSH1 0x0 MSTORE PUSH1 0x20 PUSH1 0x0 KECCAK256 SWAP1 DUP2 ADD SWAP1 PUSH2 0xD19 SWAP2 SWAP1 PUSH2 0xC13 JUMP JUMPDEST JUMPDEST POP JUMP JUMPDEST POP DUP1 SLOAD PUSH1 0x0 DUP3 SSTORE PUSH1 0x2 MUL SWAP1 PUSH1 0x0 MSTORE PUSH1 0x20 PUSH1 0x0 KECCAK256 SWAP1 DUP2 ADD SWAP1 PUSH2 0xD3E SWAP2 SWAP1 PUSH2 0xC30 JUMP JUMPDEST POP JUMP JUMPDEST PUSH1 0x0 PUSH2 0xD54 PUSH2 0xD4F DUP5 PUSH2 0x150C JUMP JUMPDEST PUSH2 0x14E7 JUMP JUMPDEST SWAP1 POP DUP1 DUP4 DUP3 MSTORE PUSH1 0x20 DUP3 ADD SWAP1 POP DUP3 DUP6 PUSH1 0x20 DUP7 MUL DUP3 ADD GT ISZERO PUSH2 0xD77 JUMPI PUSH2 0xD76 PUSH2 0x17C0 JUMP JUMPDEST JUMPDEST PUSH1 0x0 JUMPDEST DUP6 DUP2 LT ISZERO PUSH2 0xDC5 JUMPI DUP2 CALLDATALOAD PUSH8 0xFFFFFFFFFFFFFFFF DUP2 GT ISZERO PUSH2 0xD9D JUMPI PUSH2 0xD9C PUSH2 0x17B1 JUMP JUMPDEST JUMPDEST DUP1 DUP7 ADD PUSH2 0xDAA DUP10 DUP3 PUSH2 0xF25 JUMP JUMPDEST DUP6 MSTORE PUSH1 0x20 DUP6 ADD SWAP5 POP PUSH1 0x20 DUP5 ADD SWAP4 POP POP POP PUSH1 0x1 DUP2 ADD SWAP1 POP PUSH2 0xD7A JUMP JUMPDEST POP POP POP SWAP4 SWAP3 POP POP POP JUMP JUMPDEST PUSH1 0x0 PUSH2 0xDE2 PUSH2 0xDDD DUP5 PUSH2 0x1538 JUMP JUMPDEST PUSH2 0x14E7 JUMP JUMPDEST SWAP1 POP DUP1 DUP4 DUP3 MSTORE PUSH1 0x20 DUP3 ADD SWAP1 POP DUP3 DUP6 PUSH1 0x20 DUP7 MUL DUP3 ADD GT ISZERO PUSH2 0xE05 JUMPI PUSH2 0xE04 PUSH2 0x17C0 JUMP JUMPDEST JUMPDEST PUSH1 0x0 JUMPDEST DUP6 DUP2 LT ISZERO PUSH2 0xE53 JUMPI DUP2 CALLDATALOAD PUSH8 0xFFFFFFFFFFFFFFFF DUP2 GT ISZERO PUSH2 0xE2B JUMPI PUSH2 0xE2A PUSH2 0x17B1 JUMP JUMPDEST JUMPDEST DUP1 DUP7 ADD PUSH2 0xE38 DUP10 DUP3 PUSH2 0xFEF JUMP JUMPDEST DUP6 MSTORE PUSH1 0x20 DUP6 ADD SWAP5 POP PUSH1 0x20 DUP5 ADD SWAP4 POP POP POP PUSH1 0x1 DUP2 ADD SWAP1 POP PUSH2 0xE08 JUMP JUMPDEST POP POP POP SWAP4 SWAP3 POP POP POP JUMP JUMPDEST PUSH1 0x0 PUSH2 0xE70 PUSH2 0xE6B DUP5 PUSH2 0x1564 JUMP JUMPDEST PUSH2 0x14E7 JUMP JUMPDEST SWAP1 POP DUP3 DUP2 MSTORE PUSH1 0x20 DUP2 ADD DUP5 DUP5 DUP5 ADD GT ISZERO PUSH2 0xE8C JUMPI PUSH2 0xE8B PUSH2 0x17C5 JUMP JUMPDEST JUMPDEST PUSH2 0xE97 DUP5 DUP3 DUP6 PUSH2 0x1626 JUMP JUMPDEST POP SWAP4 SWAP3 POP POP POP JUMP JUMPDEST PUSH1 0x0 DUP2 CALLDATALOAD SWAP1 POP PUSH2 0xEAE DUP2 PUSH2 0x188C JUMP JUMPDEST SWAP3 SWAP2 POP POP JUMP JUMPDEST PUSH1 0x0 DUP3 PUSH1 0x1F DUP4 ADD SLT PUSH2 0xEC9 JUMPI PUSH2 0xEC8 PUSH2 0x17B1 JUMP JUMPDEST JUMPDEST DUP2 CALLDATALOAD PUSH2 0xED9 DUP5 DUP3 PUSH1 0x20 DUP7 ADD PUSH2 0xD41 JUMP JUMPDEST SWAP2 POP POP SWAP3 SWAP2 POP POP JUMP JUMPDEST PUSH1 0x0 DUP3 PUSH1 0x1F DUP4 ADD SLT PUSH2 0xEF7 JUMPI PUSH2 0xEF6 PUSH2 0x17B1 JUMP JUMPDEST JUMPDEST DUP2 CALLDATALOAD PUSH2 0xF07 DUP5 DUP3 PUSH1 0x20 DUP7 ADD PUSH2 0xDCF JUMP JUMPDEST SWAP2 POP POP SWAP3 SWAP2 POP POP JUMP JUMPDEST PUSH1 0x0 DUP2 CALLDATALOAD SWAP1 POP PUSH2 0xF1F DUP2 PUSH2 0x18A3 JUMP JUMPDEST SWAP3 SWAP2 POP POP JUMP JUMPDEST PUSH1 0x0 DUP3 PUSH1 0x1F DUP4 ADD SLT PUSH2 0xF3A JUMPI PUSH2 0xF39 PUSH2 0x17B1 JUMP JUMPDEST JUMPDEST DUP2 CALLDATALOAD PUSH2 0xF4A DUP5 DUP3 PUSH1 0x20 DUP7 ADD PUSH2 0xE5D JUMP JUMPDEST SWAP2 POP POP SWAP3 SWAP2 POP POP JUMP JUMPDEST PUSH1 0x0 PUSH1 0x60 DUP3 DUP5 SUB SLT ISZERO PUSH2 0xF69 JUMPI PUSH2 0xF68 PUSH2 0x17B6 JUMP JUMPDEST JUMPDEST PUSH2 0xF73 PUSH1 0x60 PUSH2 0x14E7 JUMP JUMPDEST SWAP1 POP PUSH1 0x0 DUP3 ADD CALLDATALOAD PUSH8 0xFFFFFFFFFFFFFFFF DUP2 GT ISZERO PUSH2 0xF93 JUMPI PUSH2 0xF92 PUSH2 0x17BB JUMP JUMPDEST JUMPDEST PUSH2 0xF9F DUP5 DUP3 DUP6 ADD PUSH2 0xF25 JUMP JUMPDEST PUSH1 0x0 DUP4 ADD MSTORE POP PUSH1 0x20 PUSH2 0xFB3 DUP5 DUP3 DUP6 ADD PUSH2 0x1084 JUMP JUMPDEST PUSH1 0x20 DUP4 ADD MSTORE POP PUSH1 0x40 DUP3 ADD CALLDATALOAD PUSH8 0xFFFFFFFFFFFFFFFF DUP2 GT ISZERO PUSH2 0xFD7 JUMPI PUSH2 0xFD6 PUSH2 0x17BB JUMP JUMPDEST JUMPDEST PUSH2 0xFE3 DUP5 DUP3 DUP6 ADD PUSH2 0xEE2 JUMP JUMPDEST PUSH1 0x40 DUP4 ADD MSTORE POP SWAP3 SWAP2 POP POP JUMP JUMPDEST PUSH1 0x0 PUSH1 0x60 DUP3 DUP5 SUB SLT ISZERO PUSH2 0x1005 JUMPI PUSH2 0x1004 PUSH2 0x17B6 JUMP JUMPDEST JUMPDEST PUSH2 0x100F PUSH1 0x60 PUSH2 0x14E7 JUMP JUMPDEST SWAP1 POP PUSH1 0x0 DUP3 ADD CALLDATALOAD PUSH8 0xFFFFFFFFFFFFFFFF DUP2 GT ISZERO PUSH2 0x102F JUMPI PUSH2 0x102E PUSH2 0x17BB JUMP JUMPDEST JUMPDEST PUSH2 0x103B DUP5 DUP3 DUP6 ADD PUSH2 0xF25 JUMP JUMPDEST PUSH1 0x0 DUP4 ADD MSTORE POP PUSH1 0x20 PUSH2 0x104F DUP5 DUP3 DUP6 ADD PUSH2 0xE9F JUMP JUMPDEST PUSH1 0x20 DUP4 ADD MSTORE POP PUSH1 0x40 PUSH2 0x1063 DUP5 DUP3 DUP6 ADD PUSH2 0xF10 JUMP JUMPDEST PUSH1 0x40 DUP4 ADD MSTORE POP SWAP3 SWAP2 POP POP JUMP JUMPDEST PUSH1 0x0 DUP2 CALLDATALOAD SWAP1 POP PUSH2 0x107E DUP2 PUSH2 0x18BA JUMP JUMPDEST SWAP3 SWAP2 POP POP JUMP JUMPDEST PUSH1 0x0 DUP2 CALLDATALOAD SWAP1 POP PUSH2 0x1093 DUP2 PUSH2 0x18D1 JUMP JUMPDEST SWAP3 SWAP2 POP POP JUMP JUMPDEST PUSH1 0x0 PUSH1 0x20 DUP3 DUP5 SUB SLT ISZERO PUSH2 0x10AF JUMPI PUSH2 0x10AE PUSH2 0x17CF JUMP JUMPDEST JUMPDEST PUSH1 0x0 PUSH2 0x10BD DUP5 DUP3 DUP6 ADD PUSH2 0xE9F JUMP JUMPDEST SWAP2 POP POP SWAP3 SWAP2 POP POP JUMP JUMPDEST PUSH1 0x0 DUP1 PUSH1 0x0 PUSH1 0x60 DUP5 DUP7 SUB SLT ISZERO PUSH2 0x10DF JUMPI PUSH2 0x10DE PUSH2 0x17CF JUMP JUMPDEST JUMPDEST PUSH1 0x0 DUP5 ADD CALLDATALOAD PUSH8 0xFFFFFFFFFFFFFFFF DUP2 GT ISZERO PUSH2 0x10FD JUMPI PUSH2 0x10FC PUSH2 0x17CA JUMP JUMPDEST JUMPDEST PUSH2 0x1109 DUP7 DUP3 DUP8 ADD PUSH2 0xEB4 JUMP JUMPDEST SWAP4 POP POP PUSH1 0x20 PUSH2 0x111A DUP7 DUP3 DUP8 ADD PUSH2 0x106F JUMP JUMPDEST SWAP3 POP POP PUSH1 0x40 PUSH2 0x112B DUP7 DUP3 DUP8 ADD PUSH2 0x106F JUMP JUMPDEST SWAP2 POP POP SWAP3 POP SWAP3 POP SWAP3 JUMP JUMPDEST PUSH1 0x0 PUSH1 0x20 DUP3 DUP5 SUB SLT ISZERO PUSH2 0x114B JUMPI PUSH2 0x114A PUSH2 0x17CF JUMP JUMPDEST JUMPDEST PUSH1 0x0 DUP3 ADD CALLDATALOAD PUSH8 0xFFFFFFFFFFFFFFFF DUP2 GT ISZERO PUSH2 0x1169 JUMPI PUSH2 0x1168 PUSH2 0x17CA JUMP JUMPDEST JUMPDEST PUSH2 0x1175 DUP5 DUP3 DUP6 ADD PUSH2 0xF25 JUMP JUMPDEST SWAP2 POP POP SWAP3 SWAP2 POP POP JUMP JUMPDEST PUSH1 0x0 PUSH1 0x20 DUP3 DUP5 SUB SLT ISZERO PUSH2 0x1194 JUMPI PUSH2 0x1193 PUSH2 0x17CF JUMP JUMPDEST JUMPDEST PUSH1 0x0 PUSH2 0x11A2 DUP5 DUP3 DUP6 ADD PUSH2 0x106F JUMP JUMPDEST SWAP2 POP POP SWAP3 SWAP2 POP POP JUMP JUMPDEST PUSH1 0x0 DUP1 PUSH1 0x40 DUP4 DUP6 SUB SLT ISZERO PUSH2 0x11C2 JUMPI PUSH2 0x11C1 PUSH2 0x17CF JUMP JUMPDEST JUMPDEST PUSH1 0x0 PUSH2 0x11D0 DUP6 DUP3 DUP7 ADD PUSH2 0x1084 JUMP JUMPDEST SWAP3 POP POP PUSH1 0x20 DUP4 ADD CALLDATALOAD PUSH8 0xFFFFFFFFFFFFFFFF DUP2 GT ISZERO PUSH2 0x11F1 JUMPI PUSH2 0x11F0 PUSH2 0x17CA JUMP JUMPDEST JUMPDEST PUSH2 0x11FD DUP6 DUP3 DUP7 ADD PUSH2 0xF53 JUMP JUMPDEST SWAP2 POP POP SWAP3 POP SWAP3 SWAP1 POP JUMP JUMPDEST PUSH2 0x1210 DUP2 PUSH2 0x15D1 JUMP JUMPDEST DUP3 MSTORE POP POP JUMP JUMPDEST PUSH2 0x121F DUP2 PUSH2 0x15E3 JUMP JUMPDEST DUP3 MSTORE POP POP JUMP JUMPDEST PUSH1 0x0 PUSH2 0x1230 DUP3 PUSH2 0x15AA JUMP JUMPDEST PUSH2 0x123A DUP2 DUP6 PUSH2 0x15B5 JUMP JUMPDEST SWAP4 POP PUSH2 0x124A DUP2 DUP6 PUSH1 0x20 DUP7 ADD PUSH2 0x1635 JUMP JUMPDEST PUSH2 0x1253 DUP2 PUSH2 0x17D4 JUMP JUMPDEST DUP5 ADD SWAP2 POP POP SWAP3 SWAP2 POP POP JUMP JUMPDEST PUSH1 0x0 DUP2 SLOAD PUSH2 0x126B DUP2 PUSH2 0x1668 JUMP JUMPDEST PUSH2 0x1275 DUP2 DUP7 PUSH2 0x15C6 JUMP JUMPDEST SWAP5 POP PUSH1 0x1 DUP3 AND PUSH1 0x0 DUP2 EQ PUSH2 0x1290 JUMPI PUSH1 0x1 DUP2 EQ PUSH2 0x12A1 JUMPI PUSH2 0x12D4 JUMP JUMPDEST PUSH1 0xFF NOT DUP4 AND DUP7 MSTORE DUP2 DUP7 ADD SWAP4 POP PUSH2 0x12D4 JUMP JUMPDEST PUSH2 0x12AA DUP6 PUSH2 0x1595 JUMP JUMPDEST PUSH1 0x0 JUMPDEST DUP4 DUP2 LT ISZERO PUSH2 0x12CC JUMPI DUP2 SLOAD DUP2 DUP10 ADD MSTORE PUSH1 0x1 DUP3 ADD SWAP2 POP PUSH1 0x20 DUP2 ADD SWAP1 POP PUSH2 0x12AD JUMP JUMPDEST DUP4 DUP9 ADD SWAP6 POP POP POP JUMPDEST POP POP POP SWAP3 SWAP2 POP POP JUMP JUMPDEST PUSH1 0x0 PUSH2 0x12EA PUSH1 0xF DUP4 PUSH2 0x15B5 JUMP JUMPDEST SWAP2 POP PUSH2 0x12F5 DUP3 PUSH2 0x17E5 JUMP JUMPDEST PUSH1 0x20 DUP3 ADD SWAP1 POP SWAP2 SWAP1 POP JUMP JUMPDEST PUSH1 0x0 PUSH2 0x130D PUSH1 0x12 DUP4 PUSH2 0x15B5 JUMP JUMPDEST SWAP2 POP PUSH2 0x1318 DUP3 PUSH2 0x180E JUMP JUMPDEST PUSH1 0x20 DUP3 ADD SWAP1 POP SWAP2 SWAP1 POP JUMP JUMPDEST PUSH1 0x0 PUSH2 0x1330 PUSH1 0x0 DUP4 PUSH2 0x15C6 JUMP JUMPDEST SWAP2 POP PUSH2 0x133B DUP3 PUSH2 0x1837 JUMP JUMPDEST PUSH1 0x0 DUP3 ADD SWAP1 POP SWAP2 SWAP1 POP JUMP JUMPDEST PUSH1 0x0 PUSH2 0x1353 PUSH1 0x14 DUP4 PUSH2 0x15B5 JUMP JUMPDEST SWAP2 POP PUSH2 0x135E DUP3 PUSH2 0x183A JUMP JUMPDEST PUSH1 0x20 DUP3 ADD SWAP1 POP SWAP2 SWAP1 POP JUMP JUMPDEST PUSH1 0x0 PUSH2 0x1376 PUSH1 0x16 DUP4 PUSH2 0x15B5 JUMP JUMPDEST SWAP2 POP PUSH2 0x1381 DUP3 PUSH2 0x1863 JUMP JUMPDEST PUSH1 0x20 DUP3 ADD SWAP1 POP SWAP2 SWAP1 POP JUMP JUMPDEST PUSH2 0x1395 DUP2 PUSH2 0x160F JUMP JUMPDEST DUP3 MSTORE POP POP JUMP JUMPDEST PUSH2 0x13A4 DUP2 PUSH2 0x1619 JUMP JUMPDEST DUP3 MSTORE POP POP JUMP JUMPDEST PUSH1 0x0 PUSH2 0x13B6 DUP3 DUP5 PUSH2 0x125E JUMP JUMPDEST SWAP2 POP DUP2 SWAP1 POP SWAP3 SWAP2 POP POP JUMP JUMPDEST PUSH1 0x0 PUSH2 0x13CC DUP3 PUSH2 0x1323 JUMP JUMPDEST SWAP2 POP DUP2 SWAP1 POP SWAP2 SWAP1 POP JUMP JUMPDEST PUSH1 0x0 PUSH1 0xA0 DUP3 ADD SWAP1 POP PUSH2 0x13EB PUSH1 0x0 DUP4 ADD DUP9 PUSH2 0x1207 JUMP JUMPDEST PUSH2 0x13F8 PUSH1 0x20 DUP4 ADD DUP8 PUSH2 0x139B JUMP JUMPDEST PUSH2 0x1405 PUSH1 0x40 DUP4 ADD DUP7 PUSH2 0x139B JUMP JUMPDEST PUSH2 0x1412 PUSH1 0x60 DUP4 ADD DUP6 PUSH2 0x138C JUMP JUMPDEST PUSH2 0x141F PUSH1 0x80 DUP4 ADD DUP5 PUSH2 0x138C JUMP JUMPDEST SWAP7 SWAP6 POP POP POP POP POP POP JUMP JUMPDEST PUSH1 0x0 PUSH1 0x60 DUP3 ADD SWAP1 POP DUP2 DUP2 SUB PUSH1 0x0 DUP4 ADD MSTORE PUSH2 0x1443 DUP2 DUP7 PUSH2 0x1225 JUMP JUMPDEST SWAP1 POP PUSH2 0x1452 PUSH1 0x20 DUP4 ADD DUP6 PUSH2 0x1207 JUMP JUMPDEST PUSH2 0x145F PUSH1 0x40 DUP4 ADD DUP5 PUSH2 0x1216 JUMP JUMPDEST SWAP5 SWAP4 POP POP POP POP JUMP JUMPDEST PUSH1 0x0 PUSH1 0x20 DUP3 ADD SWAP1 POP DUP2 DUP2 SUB PUSH1 0x0 DUP4 ADD MSTORE PUSH2 0x1480 DUP2 PUSH2 0x12DD JUMP JUMPDEST SWAP1 POP SWAP2 SWAP1 POP JUMP JUMPDEST PUSH1 0x0 PUSH1 0x20 DUP3 ADD SWAP1 POP DUP2 DUP2 SUB PUSH1 0x0 DUP4 ADD MSTORE PUSH2 0x14A0 DUP2 PUSH2 0x1300 JUMP JUMPDEST SWAP1 POP SWAP2 SWAP1 POP JUMP JUMPDEST PUSH1 0x0 PUSH1 0x20 DUP3 ADD SWAP1 POP DUP2 DUP2 SUB PUSH1 0x0 DUP4 ADD MSTORE PUSH2 0x14C0 DUP2 PUSH2 0x1346 JUMP JUMPDEST SWAP1 POP SWAP2 SWAP1 POP JUMP JUMPDEST PUSH1 0x0 PUSH1 0x20 DUP3 ADD SWAP1 POP DUP2 DUP2 SUB PUSH1 0x0 DUP4 ADD MSTORE PUSH2 0x14E0 DUP2 PUSH2 0x1369 JUMP JUMPDEST SWAP1 POP SWAP2 SWAP1 POP JUMP JUMPDEST PUSH1 0x0 PUSH2 0x14F1 PUSH2 0x1502 JUMP JUMPDEST SWAP1 POP PUSH2 0x14FD DUP3 DUP3 PUSH2 0x169A JUMP JUMPDEST SWAP2 SWAP1 POP JUMP JUMPDEST PUSH1 0x0 PUSH1 0x40 MLOAD SWAP1 POP SWAP1 JUMP JUMPDEST PUSH1 0x0 PUSH8 0xFFFFFFFFFFFFFFFF DUP3 GT ISZERO PUSH2 0x1527 JUMPI PUSH2 0x1526 PUSH2 0x1782 JUMP JUMPDEST JUMPDEST PUSH1 0x20 DUP3 MUL SWAP1 POP PUSH1 0x20 DUP2 ADD SWAP1 POP SWAP2 SWAP1 POP JUMP JUMPDEST PUSH1 0x0 PUSH8 0xFFFFFFFFFFFFFFFF DUP3 GT ISZERO PUSH2 0x1553 JUMPI PUSH2 0x1552 PUSH2 0x1782 JUMP JUMPDEST JUMPDEST PUSH1 0x20 DUP3 MUL SWAP1 POP PUSH1 0x20 DUP2 ADD SWAP1 POP SWAP2 SWAP1 POP JUMP JUMPDEST PUSH1 0x0 PUSH8 0xFFFFFFFFFFFFFFFF DUP3 GT ISZERO PUSH2 0x157F JUMPI PUSH2 0x157E PUSH2 0x1782 JUMP JUMPDEST JUMPDEST PUSH2 0x1588 DUP3 PUSH2 0x17D4 JUMP JUMPDEST SWAP1 POP PUSH1 0x20 DUP2 ADD SWAP1 POP SWAP2 SWAP1 POP JUMP JUMPDEST PUSH1 0x0 DUP2 SWAP1 POP DUP2 PUSH1 0x0 MSTORE PUSH1 0x20 PUSH1 0x0 KECCAK256 SWAP1 POP SWAP2 SWAP1 POP JUMP JUMPDEST PUSH1 0x0 DUP2 MLOAD SWAP1 POP SWAP2 SWAP1 POP JUMP JUMPDEST PUSH1 0x0 DUP3 DUP3 MSTORE PUSH1 0x20 DUP3 ADD SWAP1 POP SWAP3 SWAP2 POP POP JUMP JUMPDEST PUSH1 0x0 DUP2 SWAP1 POP SWAP3 SWAP2 POP POP JUMP JUMPDEST PUSH1 0x0 PUSH2 0x15DC DUP3 PUSH2 0x15EF JUMP JUMPDEST SWAP1 POP SWAP2 SWAP1 POP JUMP JUMPDEST PUSH1 0x0 DUP2 ISZERO ISZERO SWAP1 POP SWAP2 SWAP1 POP JUMP JUMPDEST PUSH1 0x0 PUSH20 0xFFFFFFFFFFFFFFFFFFFFFFFFFFFFFFFFFFFFFFFF DUP3 AND SWAP1 POP SWAP2 SWAP1 POP JUMP JUMPDEST PUSH1 0x0 DUP2 SWAP1 POP SWAP2 SWAP1 POP JUMP JUMPDEST PUSH1 0x0 PUSH1 0xFF DUP3 AND SWAP1 POP SWAP2 SWAP1 POP JUMP JUMPDEST DUP3 DUP2 DUP4 CALLDATACOPY PUSH1 0x0 DUP4 DUP4 ADD MSTORE POP POP POP JUMP JUMPDEST PUSH1 0x0 JUMPDEST DUP4 DUP2 LT ISZERO PUSH2 0x1653 JUMPI DUP1 DUP3 ADD MLOAD DUP2 DUP5 ADD MSTORE PUSH1 0x20 DUP2 ADD SWAP1 POP PUSH2 0x1638 JUMP JUMPDEST DUP4 DUP2 GT ISZERO PUSH2 0x1662 JUMPI PUSH1 0x0 DUP5 DUP5 ADD MSTORE JUMPDEST POP POP POP POP JUMP JUMPDEST PUSH1 0x0 PUSH1 0x2 DUP3 DIV SWAP1 POP PUSH1 0x1 DUP3 AND DUP1 PUSH2 0x1680 JUMPI PUSH1 0x7F DUP3 AND SWAP2 POP JUMPDEST PUSH1 0x20 DUP3 LT DUP2 EQ ISZERO PUSH2 0x1694 JUMPI PUSH2 0x1693 PUSH2 0x1724 JUMP JUMPDEST JUMPDEST POP SWAP2 SWAP1 POP JUMP JUMPDEST PUSH2 0x16A3 DUP3 PUSH2 0x17D4 JUMP JUMPDEST DUP2 ADD DUP2 DUP2 LT PUSH8 0xFFFFFFFFFFFFFFFF DUP3 GT OR ISZERO PUSH2 0x16C2 JUMPI PUSH2 0x16C1 PUSH2 0x1782 JUMP JUMPDEST JUMPDEST DUP1 PUSH1 0x40 MSTORE POP POP POP JUMP JUMPDEST PUSH1 0x0 PUSH2 0x16D6 DUP3 PUSH2 0x1619 JUMP JUMPDEST SWAP2 POP PUSH1 0xFF DUP3 EQ ISZERO PUSH2 0x16EA JUMPI PUSH2 0x16E9 PUSH2 0x16F5 JUMP JUMPDEST JUMPDEST PUSH1 0x1 DUP3 ADD SWAP1 POP SWAP2 SWAP1 POP JUMP JUMPDEST PUSH32 0x4E487B7100000000000000000000000000000000000000000000000000000000 PUSH1 0x0 MSTORE PUSH1 0x11 PUSH1 0x4 MSTORE PUSH1 0x24 PUSH1 0x0 REVERT JUMPDEST PUSH32 0x4E487B7100000000000000000000000000000000000000000000000000000000 PUSH1 0x0 MSTORE PUSH1 0x22 PUSH1 0x4 MSTORE PUSH1 0x24 PUSH1 0x0 REVERT JUMPDEST PUSH32 0x4E487B7100000000000000000000000000000000000000000000000000000000 PUSH1 0x0 MSTORE PUSH1 0x32 PUSH1 0x4 MSTORE PUSH1 0x24 PUSH1 0x0 REVERT JUMPDEST PUSH32 0x4E487B7100000000000000000000000000000000000000000000000000000000 PUSH1 0x0 MSTORE PUSH1 0x41 PUSH1 0x4 MSTORE PUSH1 0x24 PUSH1 0x0 REVERT JUMPDEST PUSH1 0x0 DUP1 REVERT JUMPDEST PUSH1 0x0 DUP1 REVERT JUMPDEST PUSH1 0x0 DUP1 REVERT JUMPDEST PUSH1 0x0 DUP1 REVERT JUMPDEST PUSH1 0x0 DUP1 REVERT JUMPDEST PUSH1 0x0 DUP1 REVERT JUMPDEST PUSH1 0x0 DUP1 REVERT JUMPDEST PUSH1 0x0 PUSH1 0x1F NOT PUSH1 0x1F DUP4 ADD AND SWAP1 POP SWAP2 SWAP1 POP JUMP JUMPDEST PUSH32 0x4E6F742072656769737465726564210000000000000000000000000000000000 PUSH1 0x0 DUP3 ADD MSTORE POP JUMP JUMPDEST PUSH32 0x416C726561647920526567697374657265640000000000000000000000000000 PUSH1 0x0 DUP3 ADD MSTORE POP JUMP JUMPDEST POP JUMP JUMPDEST PUSH32 0x43726561746F722063616E6E6F7420766F746521000000000000000000000000 PUSH1 0x0 DUP3 ADD MSTORE POP JUMP JUMPDEST PUSH32 0x4163636F756E7420616C726561647920766F7465642100000000000000000000 PUSH1 0x0 DUP3 ADD MSTORE POP JUMP JUMPDEST PUSH2 0x1895 DUP2 PUSH2 0x15D1 JUMP JUMPDEST DUP2 EQ PUSH2 0x18A0 JUMPI PUSH1 0x0 DUP1 REVERT JUMPDEST POP JUMP JUMPDEST PUSH2 0x18AC DUP2 PUSH2 0x15E3 JUMP JUMPDEST DUP2 EQ PUSH2 0x18B7 JUMPI PUSH1 0x0 DUP1 REVERT JUMPDEST POP JUMP JUMPDEST PUSH2 0x18C3 DUP2 PUSH2 0x160F JUMP JUMPDEST DUP2 EQ PUSH2 0x18CE JUMPI PUSH1 0x0 DUP1 REVERT JUMPDEST POP JUMP JUMPDEST PUSH2 0x18DA DUP2 PUSH2 0x1619 JUMP JUMPDEST DUP2 EQ PUSH2 0x18E5 JUMPI PUSH1 0x0 DUP1 REVERT JUMPDEST POP JUMP INVALID LOG2 PUSH5 0x6970667358 0x22 SLT KECCAK256 0x2A 0xC8 LOG1 0xEE 0xE0 0x4A 0xEA JUMP PUSH29 0x211745E886F62B74FB6CB15E999E3759C65E0CEB99DC8B64736F6C6343 STOP ADDMOD SMOD STOP CALLER "
		},
		"gasEstimates": {
			"creation": {
				"codeDepositCost": "1286000",
				"executionCost": "25602",
				"totalCost": "1311602"
			},
			"external": {
				"createPoll(string[],uint256,uint256)": "infinite",
				"polls(uint256)": "infinite",
				"register(string)": "infinite",
				"vote(uint8,(string,uint8,(string,address,bool)[]))": "infinite",
				"voters(address)": "infinite"
			}
		},
		"methodIdentifiers": {
			"createPoll(string[],uint256,uint256)": "357d0d48",
			"polls(uint256)": "ac2f0074",
			"register(string)": "f2c298be",
			"vote(uint8,(string,uint8,(string,address,bool)[]))": "c07c9315",
			"voters(address)": "a3ec138d"
		}
	},
	"abi": [
		{
			"inputs": [
				{
					"internalType": "string[]",
					"name": "options",
					"type": "string[]"
				},
				{
					"internalType": "uint256",
					"name": "start",
					"type": "uint256"
				},
				{
					"internalType": "uint256",
					"name": "end",
					"type": "uint256"
				}
			],
			"name": "createPoll",
			"outputs": [],
			"stateMutability": "nonpayable",
			"type": "function"
		},
		{
			"inputs": [
				{
					"internalType": "uint256",
					"name": "",
					"type": "uint256"
				}
			],
			"name": "polls",
			"outputs": [
				{
					"internalType": "address",
					"name": "creator",
					"type": "address"
				},
				{
					"internalType": "uint8",
					"name": "pollNo",
					"type": "uint8"
				},
				{
					"internalType": "uint8",
					"name": "nOptn",
					"type": "uint8"
				},
				{
					"internalType": "uint256",
					"name": "startTime",
					"type": "uint256"
				},
				{
					"internalType": "uint256",
					"name": "endTime",
					"type": "uint256"
				}
			],
			"stateMutability": "view",
			"type": "function"
		},
		{
			"inputs": [
				{
					"internalType": "string",
					"name": "name",
					"type": "string"
				}
			],
			"name": "register",
			"outputs": [],
			"stateMutability": "nonpayable",
			"type": "function"
		},
		{
			"inputs": [
				{
					"internalType": "uint8",
					"name": "pollIndex",
					"type": "uint8"
				},
				{
					"components": [
						{
							"internalType": "string",
							"name": "name",
							"type": "string"
						},
						{
							"internalType": "uint8",
							"name": "votes",
							"type": "uint8"
						},
						{
							"components": [
								{
									"internalType": "string",
									"name": "name",
									"type": "string"
								},
								{
									"internalType": "address",
									"name": "addr",
									"type": "address"
								},
								{
									"internalType": "bool",
									"name": "voted",
									"type": "bool"
								}
							],
							"internalType": "struct Voting.Voter[]",
							"name": "voters",
							"type": "tuple[]"
						}
					],
					"internalType": "struct Voting.Option",
					"name": "option",
					"type": "tuple"
				}
			],
			"name": "vote",
			"outputs": [],
			"stateMutability": "nonpayable",
			"type": "function"
		},
		{
			"inputs": [
				{
					"internalType": "address",
					"name": "",
					"type": "address"
				}
			],
			"name": "voters",
			"outputs": [
				{
					"internalType": "string",
					"name": "name",
					"type": "string"
				},
				{
					"internalType": "address",
					"name": "addr",
					"type": "address"
				},
				{
					"internalType": "bool",
					"name": "voted",
					"type": "bool"
				}
			],
			"stateMutability": "view",
			"type": "function"
		}
	]
}